:020000040000FA
:1000000065EF10F0120FF66E000EF7220900F550A2
:1000100012006B0637BD790EF8517A0EF2BF7A5690
:100020005E2E7B0EDC737B327EAC7B5612FC7B79C2
:10003000968F7C0E835E7C2030507C31D0C87C4310
:1000400063627C54E6C17C6659877C77BA527D0432
:1000500083E67D0D204E7D15B1B87D1E37707D265F
:10006000B0D67D2F1D387D377BF97D3FCC667D482E
:100070000DDE7D503FBE7D5861607D6072237D68DE
:1000800071647D705E877D7838ED7D7FFFF37E0340
:10009000D9837E07A8C47E0B6D6F7E0F273D7E122D
:1000A000D5E07E1679117E1A10867E1D9BF67E2184
:1000B0001B1E7E248DB47E27F3757E2B4C1C7E2E5A
:1000C00097687E31D51A7E3504EB7E3826A07E3BBC
:1000D00039F77E3E3EB67E41349E7E441B747E469A
:1000E000F3027E49BB0B7E4C73587E4F1BB57E518D
:1000F000B3EA7E543BC67E56B3157E5919A67E5B85
:100100006F497E5DB3CF7E5FE70D7E6208D47E646B
:1001100018FA7E6617567E6803C37E69DE167E6B0C
:10012000A62F7E6D5BE67E6EFF1B7E708FAB7E72B0
:100130000D7D7E73786B7E74D05D7E76153A7E770A
:1001400046E57E7865487E79704D7E7A67DE7E7BF7
:100150004BE87E7C1C587E7CD9217E7D82327E7E5F
:10016000177F7E7E98FB7E7F069C7E7F60597E7F18
:10017000A62F7E7FD8137E7FF6037E7FFF587E7F7B
:10018000F6057E7FD8157E7FA6317E7F605E7E7FFE
:10019000069F7E7E98FE7E7E17847E7D82377E7CE3
:1001A000D9297E7C1C617E7B4BF17E7A67E77E7964
:1001B00070577E7865537E7746F07E7615467E745E
:1001C000D06B7E73787A7E720D8A7E708FBC7E6E65
:1001D000FF2A7E6D5BF57E6BA6407E69DE287E6819
:1001E00003D77E66176A7E64190E7E6208EA7E5F18
:1001F000E7237E5DB3E67E5B6F607E5919BF7E5656
:10020000B32F7E543BDE7E51B4047E4F1BD17E4C17
:1002100073737E49BB267E46F31E7E441B927E414D
:1002200034BA7E3E3ED47E3B3A167E3826BF7E35BB
:10023000050D7E31D53A7E2E978C7E2B4C3E7E2747
:10024000F3967E248DD57E211B3F7E1D9C197E1A40
:1002500010AA7E1679347E12D6057E0F27647E0B97
:100260006D947E07A8EA7E03D9AB7E0000207D78DE
:10027000393A7D705EDB7D6871B47D6072777D5840
:1002800061B77D50400E7D480E327D3FCCB67D3744
:100290007C4D7D2F1D937D26B1267D1E37C77D1594
:1002A000B20F7D0D20A27D04843D7C77BB087C6667
:1002B0005A2F7C54E7767C43641E7C31D1767C20B7
:1002C00031057C0E841A7B7997FA7B5614677B3252
:1002D00080067B0EDDD97A5661137A0EF579790E98
:1002E000FDF57962EB1C798EF2D27A8EEFE87AD640
:1002F0005B447B8EDB137BB27D407BD611857BF923
:1003000095327C8E82A97CA02F9B7CB1D01A7CC3B5
:1003100062AD7CD4E6197CE658D97CF7B99D7D8422
:1003200083927D8D1FF77D95B15D7D9E371C7DA6E7
:10033000B07F7DAF1CE47DB77BA57DBFCC127DC8AF
:100340000D877DD03F6D7DD8610F7DE071CF7DE859
:1003500071177DF05E377DF838997DFFFFA57E83AC
:10036000D95A7E87A89D7E8B6D4B7E8F27177E92F4
:10037000D5BD7E9678EC7E9A10617E9D9BD47EA141
:100380001AF97EA48D8F7EA7F3537EAB4BFB7EAE16
:1003900097477EB1D4FA7EB504CA7EB8267F7EBB6D
:1003A00039D87EBE3E967EC134817EC41B567EC641
:1003B000F2E77EC9BAF07ECC733D7ECF1B9A7ED128
:1003C000B3CF7ED43BAC7ED6B2FE7ED919907EDB15
:1003D0006F337EDDB3B97EDFE6F47EE208C07EE4F3
:1003E00018E67EE617447EE803AF7EE9DE037EEB87
:1003F000A61B7EED5BD57EEEFF0A7EF08F9C7EF223
:100400000D6C7EF3785C7EF4D0507EF6152E7EF770
:1004100046D97EF8653D7EF970437EFA67D27EFB51
:100420004BE07EFC1C517EFCD91C7EFD822C7EFEA6
:1004300017787EFE98F67EFF06997EFF60577EFF56
:10044000A62B7EFFD8127EFFF6037EFFFF587EFFAD
:10045000F6077EFFD8157EFFA6347EFF60607EFF24
:1004600006A47EFE99037EFE17897EFD823E7EFCF9
:10047000D9307EFC1C697EFB4BF97EFA67EF7EF972
:1004800070617EF8655F7EF746FE7EF615537EF45A
:10049000D07A7EF378867EF20D987EF08FCB7EEE5A
:1004A000FF3B7EED5C097EEBA6507EE9DE3B7EE8FD
:1004B00003EA7EE6177F7EE419247EE209007EDFF0
:1004C000E7377EDDB3FC7EDB6F787ED919D67ED62A
:1004D000B3487ED43BFB7ED1B41E7ECF1BE97ECCDD
:1004E000738F7EC9BB427EC6F33D7EC41BB27EC104
:1004F00034D77EBE3EF17EBB3A357EB826DF7EB570
:10050000052E7EB1D5587EAE97AA7EAB4C5F7EA7F6
:10051000F3BA7EA48DFA7EA11B667E9D9C3A7E9ADC
:1005200010CC7E96795A7E92D62C7E8F278B7E8B2E
:100530006DC07E87A90E7E83D9CE7E8000487DF86F
:10054000398A7DF05F2C7DE872027DE072C17DD832
:1005500062047DD040657DC80E897DBFCD147DB716
:100560007C9A7DAF1DE07DA6B1817D9E381E7D9574
:10057000B2697D8D21047D8484917CF7BBAF7CE6DC
:100580005AE47CD4E82B7CC364D37CB1D21E7CA01B
:1005900031AD7C8E84C27BF999647BD615DF7BB24A
:1005A00081997B8EDF2D7AD663BA7A8EF861798F46
:1005B00003C4C00FF66E050EF7220900F5501200B5
:1005C0007E7FFF587E7FF6057E7FD8137E7FA62F25
:1005D0007E7F605C7E7F069E7E7E98FD7E7E17829B
:1005E0007E7D82367E7CD9267E7C1C5D7E7B4BECBC
:1005F0007E7A67E37E7970527E78654E7E7746EB31
:100600007E76153F7E74D0667E7378727E720D8220
:100610007E708FB57E6EFF237E6D5BEE7E6BA637A0
:100620007E69DE207E6803CD7E6617627E641904D3
:100630007E6208DE7E5FE7177E5DB3DB7E5B6F5414
:100640007E5919B27E56B3237E543BD47E51B3F902
:100650007E4F1BC27E4C73677E49BB187E46F30FEC
:100660007E441B837E4134AD7E3E3EC47E3B3A06D3
:100670007E3826B07E3504FA7E31D52A7E2E977BD1
:100680007E2B4C2D7E27F3867E248DC47E211B2E4F
:100690007E1D9C087E1A10967E1679237E12D5F355
:1006A0007E0F27507E0B6D847E07A8D67E03D997D8
:1006B0007E00000D7D7839127D705EB07D6871908E
:1006C0007D60724B7D5861887D503FE97D480E0A00
:1006D0007D3FCC8E7D377C217D2F1D647D26B10230
:1006E0007D1E379B7D15B1E37D0D207A7D0484113D
:1006F0007C77BAAA7C6659DF7C54E7187C4363B9DF
:100700007C31D1267C2030AE7C0E83B57B79974B33
:100710007B5613AB7B327F5D7B0EDD307A565F9E5E
:100720007A0EF424790EFB0A78621965798EF57CCD
:100730007A8EF15D7AD65CB67B8EDBBC7BB27DFABD
:100740007BD6124E7BF995E17C8E83077CA02FF936
:100750007CB1D0717CC3630B7CD4E6697CE65929FB
:100760007CF7B9FB7D8483BA7D8D20267D95B18988
:100770007D9E37487DA6B0AA7DAF1D0D7DB77BCD90
:100780007DBFCC3D7DC80DB27DD03F957DD8613415
:100790007DE071FB7DE8713C7DF05E5C7DF838C4E6
:1007A0007DFFFFCA7E83D9707E87A8B07E8B6D5D8A
:1007B0007E8F272B7E92D5CE7E9678FE7E9A107500
:1007C0007E9D9BE37EA11B097EA48DA37EA7F36281
:1007D0007EAB4C0A7EAE97597EB1D5097EB504DA60
:1007E0007EB826907EBB39E67EBE3EA77EC13490A1
:1007F0007EC41B677EC6F2F47EC9BAFC7ECC734A07
:100800007ECF1BA97ED1B3DE7ED43BB97ED6B30AA0
:100810007ED9199A7EDB6F3D7EDDB3C57EDFE701B1
:100820007EE208C87EE418F07EE6174C7EE803B945
:100830007EE9DE0D7EEBA6257EED5BDD7EEEFF1311
:100840007EF08FA47EF20D747EF378657EF4D0572F
:100850007EF615357EF746E07EF865427EF97048F3
:100860007EFA67D77EFB4BE37EFC1C557EFCD91DD0
:100870007EFD822F7EFE177D7EFE98F87EFF069A13
:100880007EFF60597EFFA62D7EFFD8127EFFF60305
:100890007EFFFF587EFFF6057EFFD8157EFFA6324D
:1008A0007EFF605E7EFF06A17EFE99027EFE1787B8
:1008B0007EFD823D7EFCD92C7EFC1C667EFB4BF4CB
:1008C0007EFA67EC7EF9705C7EF8655A7EF746F733
:1008D0007EF6154D7EF4D0727EF3787F7EF20D9316
:1008E0007EF08FC47EEEFF327EED5BFF7EEBA64A8C
:1008F0007EE9DE327EE803E07EE617767EE41918B4
:100900007EE208F47EDFE72E7EDDB3F27EDB6F6DE4
:100910007ED919C97ED6B33A7ED43BED7ED1B410D0
:100920007ECF1BDD7ECC73827EC9BB337EC6F32EA9
:100930007EC41BA17EC134C97EBE3EE27EBB3A2688
:100940007EB826CE7EB5051C7EB1D54C7EAE979B7B
:100950007EAB4C4F7EA7F3A77EA48DEB7EA11B4EF2
:100960007E9D9C2A7E9A10BB7E96794A7E92D619ED
:100970007E8F277A7E8B6DA77E87A8FB7E83D9BD6D
:100980007E8000367DF839657DF05EFA7DE871D9AC
:100990007DE0729C7DD861DC7DD0403D7DC80E61DC
:1009A0007DBFCCDE7DB77C757DAF1DBB7DA6B1590B
:1009B0007D9E37F67D95B2417D8D20CE7D84846904
:1009C0007CF7BB587CE65A947CD4E7D47CC3646142
:1009D0007CB1D1CE7CA0315D7C8E846A7BF998C3DA
:1009E0007BD615307BB280AF7B8EDE847AD6626890
:1009F0007A8EF70E798F011F7AAEE632790EF02DDE
:100A00007A0EEE957A5659EF7B0EDA4A7B327C7776
:100A10007B5610FE7B7994917C0E82517C202F4472
:100A20007C31CFB57C43624F7C54E5C87C665882EC
:100A30007C77B94D7D0483637D0D1FC87D15B12E74
:100A40007D1E36F47D26B0567D2F1CBC7D377B760F
:100A50007D3FCBE37D480D697D503F457D5860E784
:100A60007D6071A77D6870E87D705E087D78387B59
:100A70007D7FFF807E03D9487E07A8897E0B6D3578
:100A80007E0F27037E12D5AB7E1678DB7E1A104EC2
:100A90007E1D9BC07E211AE67E248D7C7E27F3433B
:100AA0007E2B4BEC7E2E97387E31D4E77E3504B911
:100AB0007E3826727E3B39CB7E3E3E877E41347047
:100AC0007E441B487E46F2D57E49BAE37E4C7331A4
:100AD0007E4F1B8C7E51B3C37E543B9E7E56B2EF3D
:100AE0007E5919847E5B6F277E5DB3AD7E5FE6EA3B
:100AF0007E6208B27E6418DC7E66173A7E6803A6C2
:100B00007E69DDFB7E6BA6147E6D5BCB7E6EFF0285
:100B10007E708F957E720D657E7378557E74D04998
:100B20007E7615267E7746D47E7865387E79703D50
:100B30007E7A67CF7E7B4BD97E7C1C4E7E7CD9171C
:100B40007E7D82287E7E17767E7E98F37E7F069558
:100B50007E7F60567E7FA62A7E7FD8107E7FF6033A
:100B6000F76A700FF66E0B0EF7220900F5501200AF
:100B7000F60A0AF6F60A0AF6F76A880FF66E0B0E00
:100B8000F7220900F5501200F6F60A0AF6F60A0AEC
:100B9000F76AA00FF66E0B0EF7220900F55012004F
:100BA000F6F6F6F60A0A0A0AF76AB80FF66E0B0EA0
:100BB000F7220900F55012000001020203000105AE
:100BC00006060201050407070605040003030704DF
:100BD000030206060703000405050100EA6A120E77
:100BE000E96EEF500EE00C0E016E006A002EFED78B
:100BF000012EFBD7F70E006E002EFED700D0EF2E91
:100C0000F2D7000C94948B94020E006E002EFED747
:100C1000000096BF02D08B9201D08B829492020E7C
:100C2000006E002EFED7000094948B84020E006E9E
:100C3000002EFED7000094948B94020E006E002EBE
:100C4000FED7000096BD02D08B9201D08B82949289
:100C5000020E006E002EFED7000094948B84020ECC
:100C6000006E002EFED7000094948B94020E006E4E
:100C7000002EFED7000096BB02D08B9201D08B8253
:100C80009492020E006E002EFED7000094948B8486
:100C9000020E006E002EFED7000094948B94020E7C
:100CA000006E002EFED7000096B902D08B9201D0C4
:100CB0008B829492020E006E002EFED70000949458
:100CC0008B84020E006E002EFED7000094948B944D
:100CD000020E006E002EFED7000096B702D08B9257
:100CE00001D08B829492020E006E002EFED700007F
:100CF00094948B84020E006E002EFED70000949414
:100D00008B94020E006E002EFED7000096B502D026
:100D10008B9201D08B829492020E006E002EFED731
:100D2000000094948B84020E006E002EFED700000B
:100D300094948B94020E006E002EFED7000096B3A2
:100D400002D08B9201D08B829492020E006E002E04
:100D5000FED7000094948B84020E006E002EFED706
:100D6000000094948B94020E006E002EFED70000BB
:100D700096B102D08B9201D08B829492020E006EBB
:100D8000002EFED7000094948B84020E006E002E7D
:100D9000FED70000000C8B949494020E006E002E7F
:100DA000FED700008B969496020E006E002EFED7A2
:100DB00000008B929492020E006E002EFED700006F
:100DC0008B849494020E006E002EFED7000095C016
:100DD00096F018DF8B949494020E006E002EFED7CE
:100DE00000008B869496020E006E002EFED7000047
:100DF000000C8B949494020E006E002EFED700001F
:100E00008B969496020E006E002EFED700008B8209
:100E10009492020E006E002EFED700008B849494F4
:100E2000020E006E002EFED7000095C096F0EADE9E
:100E30008B949494020E006E002EFED700008B86D9
:100E40009496020E006E002EFED70000000C8B96CA
:100E50009496020E006E002EFED70000250E956FB0
:100E60009ADF11C095F0C5DF8B869496020E006E56
:100E7000002EFED700006EEF08F02A0E956F8BDF74
:100E800091C095F0B6DF92C095F0B3DF2B0E956F51
:100E900082DF93C095F0ADDF94C095F0AADF000C1F
:100EA000430E156E090E146E916B830E926F936B49
:100EB000946FE3DF2C0E956F6EDF15C013F014C036
:100EC00012F0125202E1135208E011C095F091DFC6
:100ED0001250D8B413061206F4D7000C000E946E0C
:100EE000410E126E7BDE8B869496030E006E002EF2
:100EF000FED78B809490020E116EFA0E126E6EDE8B
:100F0000112EFBD78B909490020E116EFA0E126E7A
:100F100065DE112EFBD78B809490030E006E002EA1
:100F2000FED78B969496030E006E002EFED7010E10
:100F3000956F31DF030E006E002EFED7110E956FF8
:100F40002ADF030E006E002EFED7030E956F23DFFF
:100F50000A0E126E43DE290E956F1DDF030E006E22
:100F6000002EFED7200E956F16DF030E006E002EAA
:100F7000FED73A0E956F0FDF030E006E002EFED7E0
:100F8000020E956F36DF030E006E002EFED72D0E7B
:100F9000956F01DF030E006E002EFED7956B29DFE3
:100FA000030E006E002EFED7020E956F22DF030E99
:100FB000006E002EFED7040E956F1BDF030E006E31
:100FC000002EFED7060E956F14DF030E006E002E66
:100FD000FED7080E956F0DDF030E006E002EFED7B4
:100FE0000A0E956F06DF030E006E002EFED70C0E64
:100FF000956FFFDE030E006E002EFED70F0E956F6D
:10100000F8DE030E006E002EFED7956BF2DE030EA7
:10101000006E002EFED7020E956FEBDE030E006E03
:10102000002EFED7040E956FE4DE030E006E002E38
:10103000FED7060E956FDDDE030E006E002EFED786
:10104000080E956FD6DE030E006E002EFED70A0E38
:10105000956FCFDE030E006E002EFED70C0E956F3F
:10106000C8DE030E006E002EFED70F0E956FC1DE98
:10107000030E006E002EFED7956BBBDE030E006ED6
:10108000002EFED7040E956FB4DE030E006E002E08
:10109000FED7090E956FADDE030E006E002EFED753
:1010A0000F0E956FA6DE030E006E002EFED7956B19
:1010B00072DE030E006E002EFED7360E956F6BDECD
:1010C000030E006E002EFED7C00E956F92DE030E4B
:1010D000006E002EFED710C011F0B9D6030E006EC0
:1010E000002EFED7FF0E116EDBDE030E006E002E0B
:1010F000FED7A5EF10F08E0E006E6CC001F06BC035
:1011000002F0036A6CAF05D0011E021E022A01E143
:10111000012A015209E102C001F0026A080E005ED4
:10112000015202E1006A0AD0D89001BE04D0023612
:1011300001360006F9D76CBF01D0019E000C6E513C
:10114000D8B471D0006E7251D8B46DD0002604E3CB
:10115000810E002668E204D07F0E005E64E363E047
:101160006FC076F07351761B6F8F738F715175035B
:10117000F4CF78F070517403F4CF03F0F3CF77F02D
:101180007503F3507827F4507723000E0322715132
:101190007403F3507827F4507723000E026A032279
:1011A00002226F517503F3507727F4500322000E8B
:1011B00002226F517403F3500326F4500222000EF2
:1011C000016A012271517303F3507727F45003220F
:1011D000000E0222012270517303F3500326F450D3
:1011E0000222000E01226F517303F3500226F450C5
:1011F0000122002A01BE05D07737033602360136B8
:101200000006000E77AF0AD0032A02220122015005
:1012100005E1025003E1035001E1002A76BF018E8F
:1012200076AF019E04D0006A016A026A036A000C6C
:10123000800ED8B2731B786B796B6FC077F07351E7
:10124000771B6E51D8B4DCD0766F006E7251D8B473
:10125000E0D0765FD8B481D03DE373C07CF07C8F62
:1012600074C07BF075C07AF0796BD8907C337B3397
:101270007A337933762FF8D777AF03D07881DDD002
:10128000789176917889EA6A710EE96EE9D0789959
:1012900077BF0AD076A113D07C337B337A3379338E
:1012A000002AD8B4C5D00BD07CBF0CD0D8907937E9
:1012B0007A377B377C370006D8B4BAD0F5D7788D2B
:1012C0006BD0789D6FC077F06FAF02D07C8FA9D0C4
:1012D0007C9FA7D072C076F072C000F06E51765F2E
:1012E0006FC07CF07C8F70C07BF071C07AF0796B3E
:1012F000D8907C337B337A337933762FF8D777AF36
:1013000003D078839AD078937691788BEA6A750EB9
:10131000E96EA6D0789B77BF0AD076A113D07C3334
:101320007B337A337933002AD8B482D00BD07CBF98
:101330000CD0D89079377A377B377C370006D8B411
:1013400077D0F5D7788F28D0789F73C077F073AFB8
:1013500002D07C8F66D07C9F64D073C07CF07C8F81
:1013600074C07BF075C07AF077AF04D07C9F78852D
:1013700064D07895796B7691EA6A710EE96E70D0D7
:1013800077BF1CD06FC077F076A106D07C337B335B
:101390007A337933002A4CE079AF0BD07A2B09E10C
:1013A0007B2B07E17C2B05E17C337B337A33002AEE
:1013B0003FE078BD86D778BFC7D71CD0800E7C1B96
:1013C0007CAF04D03AD073C077F00AD06FC077F00A
:1013D0007C5306E17B5304E17A5302E1006A21D099
:1013E0007CBF08D0D89079377A377B377C37002E8E
:1013F000F7D71ED077AF02D07C8F13D07C9F11D04F
:1014000072C000F073C07CF074C07BF075C07AF0DD
:1014100008D06EC000F06FC07CF070C07BF071C06F
:101420007AF07CC001F07BC002F07AC003F034D0C7
:10143000006A016A026A036A2FD0796B7A1F7B1FE8
:101440007C1F791F792B05E17A2B03E17B2B01E1CE
:101450007C2B78B115D778B356D778B58AD7B3D760
:10146000EF507A2705E37B2B03E17C2BD8B4768100
:10147000ED52EF507B2703E37C2BD8B47681ED52FD
:10148000EF50EFBE01D0800A7C27D8B0768178B9C2
:10149000FED678BB3FD774D7000C8E0E006E6C5111
:1014A000005E6DC002F06EC001F0028E005209E0D5
:1014B000D890025202E1015204E002320132002EC1
:1014C000F7D76DAF05D0011E021E012AD8B4022A3B
:1014D000000C8EC091F08EC092F08FC093F08FC040
:1014E00094F0CBDC2C0E956F56DC90C095F081DC2F
:1014F000000C010E876F886F8D6B7E51805D8E6F43
:101500008E518EAF03D0000ED8808E55036A856F42
:1015100003C086F07F51815D8E6F8E518EAF03D0F8
:10152000000ED8808E55036A836F03C084F07E510D
:10153000805D02E2FF0E876F7F51815D02E2FF0E48
:10154000886F8451865D39E303E18351855D35E31E
:10155000D890833784378551835D006E86518459D6
:1015600000C089F08A6F8551895D8B6F86518A59D9
:101570008C6F865303E18D51855D1EE37EC08EF036
:101580007FC08FF082C090F0A4DF8ABF01D008D066
:101590008351892784518A2387517E257E6F0AD003
:1015A0008B5189278C518A2387517E257E6F8851E4
:1015B0007F257F6F8D2BDDD734D0D8908537863748
:1015C0008351855D006E8451865900C089F08A6F11
:1015D0008351895D8B6F84518A598C6F845303E1E9
:1015E0008D51835D1EE37EC08EF07FC08FF082C080
:1015F00090F06FDF8ABF01D008D0855189278651CE
:101600008A2388517F257F6F0AD08B5189278C517F
:101610008A2387517E257E6F88517F257F6F8D2B92
:10162000DDD7000C426A2D0E416E446A140E436EE3
:10163000466A456A030E496E410E476E486E413454
:10164000026E4234036E02360336FC0E021602505E
:10165000F2CF6AF0F29E03C0F7FF02EC00F0006EDA
:101660000900F5CF01F00900F5CF02F00900F5CF30
:1016700003F06ABFF28E03C02CF002C02BF001C051
:101680002AF0296E4334026E4434036E0236033668
:10169000FC0E02160250F2CF6AF0F29E03C0F7FF72
:1016A00002EC00F0006E0900F5CF01F00900F5CF63
:1016B00002F00900F5CF03F06ABFF28E03C030F0EC
:1016C00002C02FF001C02EF02D6E4534026E46345C
:1016D000036E02360336FC0E02160250F2CF6AF099
:1016E000F29E03C0F7FF02EC00F00900F5CF01F015
:1016F0000900F5CF02F00900F5CF03F06ABFF28EC2
:1017000003C034F002C033F001C032F0316E413416
:10171000026E4234036E02360336FC0E021602508D
:10172000F2CF6AF0F29E03C0F7FFD9EC02F0006E30
:101730000900F5CF01F00900F5CF02F00900F5CF5F
:1017400003F06ABFF28E03C038F002C037F001C068
:1017500036F0356E4334026E4434036E023603367F
:10176000FC0E02160250F2CF6AF0F29E03C0F7FFA1
:10177000D9EC02F0006E0900F5CF01F00900F5CFB9
:1017800002F00900F5CF03F06ABFF28E03C03CF00F
:1017900002C03BF001C03AF0396E4534026E463467
:1017A000036E02360336FC0E02160250F2CF6AF0C8
:1017B000F29E03C0F7FFD9EC02F00900F5CF01F06B
:1017C0000900F5CF02F00900F5CF03F06ABFF28EF1
:1017D00003C040F002C03FF001C03EF03D6E286AF9
:1017E00028500708D8A068D2036A2850F2CF6AF0C0
:1017F000F29EB0EC05F06ABFF28E016E6C6B6B6FFF
:101800006BBF6C0778DC03C013F002C012F001C09C
:1018100011F000C010F0036A2850F2CF6AF0F29E77
:10182000BCEC05F06ABFF28E016E6C6B6B6F6BBF28
:101830006C0761DC03C017F002C016F001C015F0A0
:1018400000C014F0036A2850F2CF6AF0F29EC8EC90
:1018500005F06ABFF28E016E6C6B6B6F6BBF6C072D
:101860004ADC03C01BF002C01AF001C019F000C02E
:1018700018F0036A28505A0F016E000E032201C0AF
:101880006AF003C06BF0036A28504A0FE96E000E3D
:101890000320EA6EEFCF6CF06BC0EAFF01C0E9FFF6
:1018A0006CC0EFFF036A2850620F016E000E032226
:1018B00003C06BF0036A2850520FE96E000E03203C
:1018C000EA6EEFCF6CF06BC0EAFF01C0E9FF6CC0BD
:1018D000EFFF17C071F016C070F015C06FF014C0A4
:1018E0006EF038C075F037C074F036C073F035C094
:1018F00072F025DC00C06AF001C06BF002C06CF031
:1019000003C06DF01BC071F01AC070F019C06FF009
:1019100018C06EF02CC075F02BC074F02AC073F0A4
:1019200029C072F00CDCD8826DC071F06CC070F010
:101930006BC06FF06AC06EF003C075F002C074F047
:1019400001C073F000C072F073DC03C023F002C06A
:1019500022F001C021F000C020F017C071F016C0C5
:1019600070F015C06FF014C06EF02CC075F02BC075
:1019700074F02AC073F029C072F09FEC08F000C028
:101980006AF001C06BF002C06CF003C06DF01BC0C8
:1019900071F01AC070F019C06FF018C06EF038C046
:1019A00075F037C074F036C073F035C072F09FEC3C
:1019B00008F0D8926DC071F06CC070F06BC06FF021
:1019C0006AC06EF003C075F002C074F001C073F01D
:1019D00000C072F02DDC03C027F002C026F001C069
:1019E00025F000C024F023C017F022C016F021C05B
:1019F00015F020C014F027C01BF026C01AF025C037
:101A000019F024C018F013C071F012C070F011C0AA
:101A10006FF010C06EF040C075F03FC074F03EC073
:101A200073F03DC072F09FEC08F000C06AF001C096
:101A30006BF002C06CF003C06DF017C071F016C0FF
:101A400070F015C06FF014C06EF034C075F033C084
:101A500074F032C073F031C072F09FEC08F0D8829D
:101A60006DC071F06CC070F06BC06FF06AC06EF04A
:101A700003C075F002C074F001C073F000C072F0D2
:101A800018EC09F003C01FF002C01EF001C01DF0E9
:101A900000C01CF013C071F012C070F011C06FF0E4
:101AA00010C06EF034C075F033C074F032C073F003
:101AB00031C072F09FEC08F000C06AF001C06BF01A
:101AC00002C06CF003C06DF017C071F016C070F06A
:101AD00015C06FF014C06EF040C075F03FC074F0D8
:101AE0003EC073F03DC072F09FEC08F0D8926DC01C
:101AF00071F06CC070F06BC06FF06AC06EF003C024
:101B000075F002C074F001C073F000C072F018EC00
:101B100009F003C023F002C022F001C021F000C090
:101B200020F01FC013F01EC012F01DC011F01CC029
:101B300010F023C017F022C016F021C015F020C00D
:101B400014F013C071F012C070F011C06FF010C02B
:101B50006EF03CC075F03BC074F03AC073F039C011
:101B600072F09FEC08F000C06AF001C06BF002C098
:101B70006CF003C06DF01BC071F01AC070F019C09A
:101B80006FF018C06EF030C075F02FC074F02EC02A
:101B900073F02DC072F09FEC08F0D8826DC071F028
:101BA0006CC070F06BC06FF06AC06EF003C075F06F
:101BB00002C074F001C073F000C072F018EC09F0BC
:101BC00003C01FF002C01EF001C01DF000C01CF0D9
:101BD00013C071F012C070F011C06FF010C06EF041
:101BE00030C075F02FC074F02EC073F02DC072F0AD
:101BF0009FEC08F000C06AF001C06BF002C06CF00E
:101C000003C06DF01BC071F01AC070F019C06FF006
:101C100018C06EF03CC075F03BC074F03AC073F071
:101C200039C072F09FEC08F0D8926DC071F06CC0B2
:101C300070F06BC06FF06AC06EF003C075F002C048
:101C400074F001C073F000C072F018EC09F003C02A
:101C500027F002C026F001C025F000C024F0036A7E
:101C600028504A0FE96E000E0320EA6E1FC06FF085
:101C70001EC06EF01DC06DF01CC06CF00EDC01507B
:101C80004902F3504724EF6E036A2850520FE96E61
:101C9000000E0320EA6E23C06FF022C06EF021C058
:101CA0006DF020C06CF04DEC0AF001504902F35089
:101CB0004824EF6E282A94D5286A28500B08D8A00B
:101CC000D0D12850030DF3506B6B6A6F6BC003F0DB
:101CD0006A51F2CF6CF0F29ED4EC05F06CBFF28E3C
:101CE000036A5A0FE96E000E0320EA6EEFCF6EF022
:101CF0002850030DF350706B6F6F70C003F06F517D
:101D0000F2CF71F0F29ED4EC05F071BFF28E036A4F
:101D1000620FE96E000E0320EA6EEFCF73F02850D9
:101D2000030DF350756B746F010E7425016E000E78
:101D30007521036E0150F2CF76F0F29ED4EC05F0DF
:101D400076BFF28E036A5A0FE96E000E0320EA6E28
:101D5000EFCF78F02850030DF3507A6B796F010EB6
:101D60007925016E000E7A21036E0150F2CF7BF0CF
:101D7000F29ED4EC05F07BBFF28E036A620FE96E2F
:101D8000000E0320EA6EEFCF7DF06EC07EF073C0D0
:101D90007FF078C080F07DC081F0826B79EC0AF032
:101DA0002850030DF3506B6B6A6F010E6A25016EAC
:101DB000000E6B21036E0150F2CF6CF0F29ED4EC5A
:101DC00005F06CBFF28E036A5A0FE96E000E032015
:101DD000EA6EEFCF6EF02850030DF350706B6F6F0B
:101DE000010E6F25016E000E7021036E0150F2CFBF
:101DF00071F0F29ED4EC05F071BFF28E036A620FAF
:101E0000E96E000E0320EA6EEFCF73F02850030D49
:101E1000F350756B746F020E7425016E000E752100
:101E2000036E0150F2CF76F0F29ED4EC05F076BF4F
:101E3000F28E036A5A0FE96E000E0320EA6EEFCFAE
:101E400078F02850030DF3507A6B796F020E7925E4
:101E5000016E000E7A21036E0150F2CF7BF0F29EEC
:101E6000D4EC05F07BBFF28E036A620FE96E000EC0
:101E70000320EA6EEFCF7DF06EC07EF073C07FF07E
:101E800078C080F07DC081F0826B79EC0AF0285038
:101E9000030DF3506B6B6A6F6BC003F06A51F2CFA6
:101EA0006CF0F29ED4EC05F06CBFF28E036A4A0F20
:101EB000E96E000E0320EA6EEFCF6EF02850030D9E
:101EC000F350706B6F6F70C003F06F51F2CF71F011
:101ED000F29ED4EC05F071BFF28E036A520FE96EE8
:101EE000000E0320EA6EEFCF73F02850030DF3507D
:101EF000756B746F010E7425016E000E7521036EF3
:101F00000150F2CF76F0F29ED4EC05F076BFF28E5F
:101F1000036A4A0FE96E000E0320EA6EEFCF78F0F5
:101F20002850030DF3507A6B796F010E7925016EFD
:101F3000000E7A21036E0150F2CF7BF0F29ED4ECBA
:101F400005F07BBFF28E036A520FE96E000E03208C
:101F5000EA6EEFCF7DF06EC07EF073C07FF078C088
:101F600080F07DC081F0FC0E826F79EC0AF0285081
:101F7000030DF3506B6B6A6F010E6A25016E000E44
:101F80006B21036E0150F2CF6CF0F29ED4EC05F0A1
:101F90006CBFF28E036A4A0FE96E000E0320EA6EF0
:101FA000EFCF6EF02850030DF350706B6F6F010E82
:101FB0006F25016E000E7021036E0150F2CF71F09B
:101FC000F29ED4EC05F071BFF28E036A520FE96EF7
:101FD000000E0320EA6EEFCF73F02850030DF3508C
:101FE000756B746F020E7425016E000E7521036E01
:101FF0000150F2CF76F0F29ED4EC05F076BFF28E6F
:10200000036A4A0FE96E000E0320EA6EEFCF78F004
:102010002850030DF3507A6B796F020E7925016E0B
:10202000000E7A21036E0150F2CF7BF0F29ED4ECC9
:1020300005F07BBFF28E036A520FE96E000E03209B
:10204000EA6EEFCF7DF06EC07EF073C07FF078C097
:1020500080F07DC081F0FC0E826F79EC0AF0282AB6
:102060002CD6030E4126000E42224250000809E2FF
:10207000FF0A03E14150670804E2680E415E010E69
:10208000425A030E4326000E44224450000809E23F
:10209000FF0A03E14350670804E2680E435E010E45
:1020A000445A030E4526000E46224650000809E217
:1020B000FF0A03E14550670804E2680E455E010E21
:1020C000465A1FEF0BF0AAEF10F0F86AD09EEA6AAA
:1020D000E96AC150C00B0F09C16E070EB46E056AE4
:1020E000066AC150C00B0F09C16EC2909698C69A7D
:1020F000949A94889496000EC66EC76ED190800E06
:10210000D56ECD6A000ECA6E000ECB6EB150480B74
:10211000B16E070EB46E9650210E006E002EFED7E3
:10212000B450A19CB56AD36AD350000E946E946AE1
:102130008B6A040E106EFA0E126EEEEC05F0102E85
:10214000FAD7410E106E6EEF07F0116A50EC07F0EF
:0621500012EF0BF003008A
:020000040030CA
:0E00000000061E0E000081000FC00FE00F4032
:00000001FF
;PIC18F4680
