:020000040000FA
:100000000EEF34F0120FF66E000EF7220900F550D5
:100010001200432432321221211211211221211205
:100020001121121132132122132132132121121115
:10003000211311211211211211211211211211214A
:1000400012112112112112111101101101101101AF
:100050001111011011011011111121121121121190
:10006000211211111111221222110110100110215F
:100070001211221322BCCCCC53364364364466663C
:10008000667877877877877877879AA89945522214
:1000900021122123123145245233122132132121FE
:1000A000121142243222122133222133222222220F
:1000B0002233243344344334334333333322122141
:1000C0003323322111119959A5AB6AB6FFFFFFDD29
:1000D000CDDC8988985435434324324313213213AD
:1000E0002121122121121121121122122132132158
:1000F000321321211221211211211111111111216B
:1001000012111101111101102112112112111101ED
:100110001011011011011011011011011011111114
:100120002112112112112112111112212212211159
:100130001211211211211211211221BBBBBB6446E5
:10014000446336336666667877877877877877870B
:100150009AA9AA5663332112212212213424523340
:100160001221321321311321422422221221111291
:10017000211111111112113223324433433333331D
:1001800034333322122133233221111166389589F9
:100190005895FFEFFEDECCCB898898442543432455
:1001A000324424323213212113212112112212212F
:1001B00022121122122121121121121121121111C8
:1001C0001111110110111111110111110110111250
:1001D0001121121111011011011011011011011042
:1001E00011011011111121121121121121121121CD
:1001F0001221221221221211211211221221321255
:1002000021AAAAAA543643633533555666787787B0
:100210007877877877879AA9AA788555211211224D
:1002200012213413412212213113113113213213BF
:100230002122122111111111111121121132132138
:1002400033333334334334334323222133233221B2
:1002500011113314429969A7EFDFFDCCBAA8786772
:100260007654355322132154354332132121121170
:10027000211211211211210110211211211211211B
:10028000121121121111111111111111111111114C
:10029000111101101112112112111101101101106F
:1002A0001101101101101101101111112112112150
:1002B000121121121121121121011012112111010B
:1002C0001021121131132199999964453363363302
:1002D00054455577677678778778778789989967CF
:1002E0007555211211221331341331221221221299
:1002F0001121131122122132232221121111111066
:100300003213212212213323323333333433432344
:100310002232231221111111331443875775896B2F
:10032000B97756635545544424422212215435432B
:10033000321321211111111111111111111111215A
:100340001211211211111211211211211211211257
:10035000112112112112112112111101102112115A
:1003600011011011011011011011011011011011D2
:100370001111210211221221211211211211111128
:1003800011111111110111211211221221998999B2
:100390007666546335335445556767767877877842
:1003A00077877877875544442112113323323413E9
:1003B0004222122122122121121132132132132141
:1003C0002112112112112213212212212222323351
:1003D00033333433433422323322211101112314B5
:1003E0004388689712122143244244244344244200
:1003F00021122154254332232111111121121121DF
:100400001211211211211211211211211211211286
:100410001122122121121121121121121121121166
:1004200011111121121111011011011011011011DE
:10043000011011011011111121021022122121129B
:10044000112112111101102211111111112112117A
:10045000321221998999A999876336336555556771
:1004600066767877877877877877876665662112EA
:10047000113312313413422212213212212112116E
:1004800022122122122121121121121132132122B2
:100490001221222222333333343343343342332381
:1004A0002211111122222166467411122144243294
:1004B0004424434424422212214324323212212173
:1004C00012112112112112112112112112112112C6
:1004D00011211211211221211211211211211211A7
:1004E00021121121121111111121121111011011DA
:1004F0000110110111110110100110110110210240
:100500001032132122121122121111011011111196
:10051000111111111211321321887998BAAA996315
:100520003633655555676676787787787787887725
:10053000876776672112112212313413412212216A
:10054000321321211211221221333332221221219E
:100550001211221221221221222222333333343368
:1005600043343343332222111111222222553564A0
:10057000111111332332442442553553321322339F
:1005800013212112112112112112112112112212F3
:100590002132132132132132122121121122121180
:1005A00021121121121121121121121111111111F7
:1005B000111111011011011011011011011111116E
:1005C0001122122121121122132122122122122181
:1005D00011011001011011011011111132132166C6
:1005E0004887BAAAAA633633644644666676787743
:1005F000878878878878879AB9AA111111331331BF
:100600004524522201202212212212213324334474
:100610005455332332222221211221221221221267
:100620002133333233334334334322222122122104
:100630002322325645631111113323326646645525
:100640003653321321432332111111211211211279
:1006500011211211221221321321221221321321CF
:100660002112112212212112112112112112112104
:10067000121111111111111111111011011011117B
:1006800011221221222222332332332332432432F5
:100690003213223213211101101101111111101105
:1006A0001111321321432654AAAAAA6336335436B1
:1006B0004466666678778788788788788789A89976
:1006C00022222133133144244222122122122122D8
:1006D000132143244356655633233222222221120A
:1006E000213223223223223333333333433433331F
:1006F0002222221111112213324524526648868883
:1007000066746647866546542213214324321111CC
:100710001121121121121121121122122122122152
:100720002212112212212112112212212112112131
:100730001211211211211211111110110110111198
:100740001111121121121132233333233244354354
:1007500055455454354332132132132111011012DF
:100760001121111111110110221321321432AA9AF0
:10077000AA63363353354466566678778788788718
:1007800088789889889822221122132144234233A1
:1007900023323213213213216446545555552323F5
:1007A000322222223213215426434324323323326D
:1007B00033234333333322122122111122122178A1
:1007C0004785775674AB7896FFEFFE7766643213F1
:1007D000214424432221111111112112112112113E
:1007E0002112112112112112112112112112112293
:1007F00012212112112112112112111111111111A5
:1008000011111111211221222222222222332332FC
:100810004424436646648758767646643213213210
:10082000132111111122122122122122122132131D
:1008300021321321AA9AA9543643533533555565AD
:100840007877878878877878877776773322212238
:1008500013223213323323323213214324326436CB
:100860004444433333233244344365365385386339
:10087000642532333333343343343333211221117B
:100880001111111221452452331553774673FFFF7E
:10089000FF9877643213214424422222211111113E
:1008A00022122121121122122121121121121121B1
:1008B00012112112112112112112112112112112D2
:1008C000111111112112112212212212213223227F
:1008D0003222223323324424427657758868867741
:1008E00057643213212112112102102212212212E7
:1008F00021221221321321321321999999644543FF
:100900005336435555557878878878877877877830
:100910008788554433221221321221322322322376
:1009200022543543532432333333443443653653EE
:100930007537539629636425423323333433433464
:100940003343221221111111121111443442221287
:1009500031674774FFDFFE77466342242243243227
:1009600033222211011021122121121121121121F1
:100970001211211211211211211211111111111133
:10098000112112113223222222212212212222227B
:10099000221221322322322222332332543543764B
:1009A00047758868867757753213212212212112E4
:1009B000112212212212212112112112113213218E
:1009C000886886654643633633544544787787782C
:1009D0007787887887788788555443221221211297
:1009E00011311311221321654655433433544544C4
:1009F00075465475364275275296396374264233CC
:100A00002332343343343344111111221221111192
:100A100011111111221221563574996996643542CB
:100A20004324223224324323321101112112112195
:100A30001211211211211211211211211211211250
:100A400011111110111111111211332333332332EB
:100A50002212212212212212212212213223223299
:100A60002332442442664764875886775775432368
:100A70002132122122122111011011111111011024
:100A80002112113213217747756646536436434469
:100A9000354377678778788788778788878844336E
:100AA00033221321311311311311221321554554CF
:100AB000543654754754853853731632742742960A
:100AC000396374264233233234334334434411119F
:100AD0002122122111111111111122122145355318
:100AE0006645534324324314313213215434422196
:100AF0001110211211211211211221211211211282
:100B000011211211211111111110111111110110C6
:100B10003333334434432212112212212212212270
:100B2000122122122133233243243266466477573E
:100B30007577577554243232122122122111022165
:100B400023123111011121121132132166366377FC
:100B50004764765986886775676676787887787788
:100B6000877887874443432112114214213113119E
:100B70003213215436437537538428427427427305
:100B80002732742742963963752742332332343330
:100B90004344434422111122222111111111111138
:100BA0002211216536544324314214214324322139
:100BB0001210442543331321211211211211211245
:100BC0001121111111011111111111111100011136
:100BD0001111110000003323324434432212212228
:100BE0001221221221221221221221322222332307
:100BF000326536647757757757755434423213210E
:100C0000211211221221221221221111111211433B
:100C10001431552553774775997996996886676693
:100C200076787887887887787787444443211211CB
:100C30004214213213113213216427428428427452
:100C4000274274274274264263263285285385370B
:100C5000523223323433434443442221212212218D
:100C60001111111111112212215425434314213263
:100C700013215325322112114324424324322112DD
:100C80001121121121121111111111011011111143
:100C90001101100000001110001001003323324335
:100CA0002432321221221221221221221221221256
:100CB00021221222332332553553775775775765E2
:100CC0004324322112212212212212212212211226
:100CD000111111011033143243244276477488599C
:100CE0008698687666667678778788788778878743
:100CF00045444421122153253142142132132163EA
:100D000017327427427317327427426326425326E0
:100D10003285385385385333233234334344444483
:100D200022222122122211111111111122122153FA
:100D300025424314213213215325323223213323F8
:100D40003254354322122121121121121111111195
:100D50001001001001000000000000000000001061
:100D600001002223223213213213212212212112C7
:100D70001121122121121122122132132144244265
:100D80005535534434433313314324323213212233
:100D90001231231221221221110110321321321398
:100DA00021653653653653644643665666787787C1
:100DB00088788778878856555521121153253242F5
:100DC000142132132163263274274274274253259B
:100DD00032532532642742852853853852321332E4
:100DE000343343444344222222221221111111118F
:100DF00001102213214314314314213213215325AE
:100E0000324214213223326536532212112112113B
:100E1000211211111111100100000000000000004A
:100E200000000000000100002223322212212212C1
:100E3000212212211111112212212212212112111B
:100E40003213213313314424324324325425426572
:100E5000365343243233133223123122122111111B
:100E6000113213213213215425526535436446440F
:100E70006556658878888888888888886766662245
:100E800012114324323213213213215325326426A6
:100E90004253253243243263263274274285285236
:100EA00085275232232234334334334323222222F0
:100EB0001221111110111111221221422422521556
:100EC0002132132153253253143132132155365315
:100ED00033132121121121121111111110010000DF
:100EE0000000000000000000000111110111222388
:100EF00032221221221221221221221221332332E4
:100F000022122121121122122143243265465476E5
:100F1000476476476466466455455433223223223B
:100F2000322212313323323213213212214424422D
:100F30005425426446445546547878878888888882
:100F40008888788777333222422421321321321263
:100F50002143243242232132132152152173273297
:100F600073273274274274274232132234334334B6
:100F700033432222211111111111111111112212C9
:100F80002142142174174142142154254253253221
:100F900022121154355343233221121121121111FF
:100FA00011111101011101100000000000000001E9
:100FB00011110110221221221221111111221221CC
:100FC0002212213323322212213213215435437647
:100FD0004764875876654654443443333443344336
:100FE0003433334423323333333322222243233204
:100FF00043243243243244254243354354355488F4
:1010000088888888887887888998994443323213F9
:10101000213213213213213213213213215315317E
:101020007327327317327327327427427326323292
:1010300013223433433322322211111111111111B1
:1010400011111111221221421421A63A63532421B5
:10105000442442632632321221432443553543212E
:1010600012112112111111110000001101100000C4
:1010700000000000000000000000221221221221C6
:101080001111111111111111113223224324326552
:10109000465487588698788676555433334333328E
:1010A000223442333342343344554454452332339B
:1010B000444344444444443333332332432432339B
:1010C00023224334437878888888887887889BBA35
:1010D000CCAAA9AA3222113213213223223213219F
:1010E00052153174274273273273273173173173C6
:1010F0002732531531221221333333222222111188
:101100001111111111111111111122122153153147
:10111000C74C8443132143243264264232132122D4
:10112000133166466421121121111111111111019F
:10113000101101100000000000000000001101105B
:1011400011121112111111111121121132233265D4
:1011500046548758759869869979873322213433A4
:101160003322222222323322223344534434433363
:101170002332334454553443444554553443444452
:101180004443443333332333444444787787888853
:10119000988987889BBBCCABBABB321322642642AA
:1011A0004324323223225326327427427327327368
:1011B0001732731731631631421421211211221292
:1011C00021221221111111111111111111111111DD
:1011D000211221531421C73C745314214325426426
:1011E0002542421321221221664664221211111156
:1011F0001111111111011000000000000000000089
:10120000000000100110111111211221221221439E
:10121000244376476487687698798798799743233B
:101220003222233323323333333322222222333305
:1012300023322322333434434423323323323322C0
:1012400032232332333444444544444444445655C1
:10125000557767878887888988987888A99AA9990F
:101260004324329639626425313213215315317487
:1012700027427317317317327316315315314214E5
:10128000212112111111111112111111111111112C
:10129000121121221221111111321421A63B736364
:1012A00026324325426425424314212212216646F8
:1012B00064332221110110111111110111000000DC
:1012C0000000000000000000001101102112114375
:1012D00024326546648768769879879979979979F1
:1012E0009744233233233322222211122111111168
:1012F0001111112222222232333443442232333458
:101300004344344334345455455344232232232335
:101310003223323344444467677778778778778716
:101320007878988998993214228529527417413215
:101330001321421531731732731731731631631647
:1013400031521421421321221211000000111111F7
:101350001111111111111211212212211212213217
:1013600013216316315325214424426536535325F6
:1013700031211211653664443332110110111111FB
:1013800011011011111111100100010011011122A0
:101390001221543543765765886886987987997AFB
:1013A00097A97A9799799711021123233222222142
:1013B00022211133322222212222233333322333BA
:1013C0003233344334233234567456455345345300
:1013D00044333333333454221222333333444444BA
:1013E00078778778878778878889989932232285C4
:1013F0002852842741321321421421731731731765
:1014000031631631631531521521421421322322E2
:10141000110010111111111121111111221221228B
:101420002222322322321321631631631521331411
:1014300032654654532532321211543653543432E5
:1014400011111111011001001011111111111021B0
:10145000121153254376576597687698798799795D
:1014600097A97A97A97A97A97A973211002222220E
:10147000222232222222222222121221222222225D
:10148000322223322322323323333434434545532B
:1014900044334344233344455343333344222232B9
:1014A00022212133334445545578878878778777CC
:1014B0008777322322742742851841321321421440
:1014C00021631731631631631631531521522522DA
:1014D000422422332332111111111111221221221F
:1014E000122222222233333333333332132185291C
:1014F0005284263133133165365364264242132118
:1015000054365344333211111111111111111111AB
:101510001110321432654654875875986986A97A35
:1015200097A97A97A97A97A97A97997997A9799794
:101530002112212322221112221111111111111134
:101540001222333223222222222222233233122257
:101550003323323334423334444434434433323318
:101560003444453333432222222222224444445627
:10157000666677778766656632132264274284172A
:10158000414314214214315316316315315315313F
:1015900052152252252232232233233222222122A3
:1015A0001221222222322332332332333333443482
:1015B00033322322A63A638526313223224425433F
:1015C00064364343243255365344233211111121DA
:1015D0001211322322653654875875986987A98A73
:1015E00098A97A97A97A97A97A97A97A97A97997C2
:1015F000A97A97AA88872222222212222212212245
:101600002222222222222222333223222222222298
:101610002233322323323322222222222223223255
:1016200033423345646656656633323222222211D4
:101630001111222222333333444555444444332389
:1016400032532532741741531442442442532531F6
:1016500053163152152152252242242222222222BF
:1016600023322222222222222223323333323333E4
:1016700032333343443443422421963A649527312C
:1016800032232243243264364353243255365343A3
:101690002331211221654654876876986987A98A83
:1016A00098A97A97A97A97A97A97A97A97A97A9700
:1016B000A97A97A97A97A97A971101102223322241
:1016C0001222110111111111222222222222222280
:1016D00022222222223223222223222233233223B5
:1016E00023323323333434445645646756634534D8
:1016F0004222111111111111222222222222222210
:101700002222222233243364454373173153154276
:10171000664663542542631621531632532522220E
:101720002221221221222332332332333333333323
:1017300032333332332333333333332333422422AC
:10174000963B73D84C74322322432432653653437C
:101750001431543553543543764764976986A97AD2
:1017600097BA8A98A98A98AA7AA7A97A97AA8A98EA
:10177000A97A98A98A98A97A97A98A98A97A981192
:1017800011101111112212222212222212212222C0
:1017900022222222222222223223223233223233D6
:1017A000223333333233222222233223344233345E
:1017B00052443445664554442332222222222212C6
:1017C00022111111111111221221332333555554B5
:1017D00063163164264266366354254253253253DC
:1017E0002532432332222222222222332332332360
:1017F00033433433333332332332332332333333CB
:10180000332332432432B74C85C84B7432232232FF
:101810001321653653542532543553876976A97A96
:1018200097A98BA8BA8BA8BA8BA8BA8BA8AA8AA8A2
:10183000AA8AA8AA8AA8AA8A98A98A98A97A97A9F6
:101840008A989979872212222221211111111111CE
:10185000112212212221112222222222222222229C
:101860002222222332223333332222222222222313
:1018700032333333333343343442344453443332D6
:101880003311111100000011111111111111111159
:10189000222233344444532532431542764664773A
:1018A0005764532532432422222222222322332327
:1018B000323333333333334334333323323323320A
:1018C000333333332333332332432432963A64A7FA
:1018D0005A74332322321321542543653643543638
:1018E00053A97A97BA8BA8BA8BA8AA8AA8BA8BA848
:1018F000BA8BA8BA8BA8BA8BA8AA8AA8AA8AA8AABF
:101900008AA8A98A98A98A9877533222122111119C
:101910001111122122211122222211111122222120
:101920001222222332333332331222332222223341
:1019300032232221223332333332332333332333DE
:1019400033344333222222111111000000111111EE
:1019500011111111111122222244434453253254F2
:101960002542563563BB9BB95325323223222222AE
:10197000223323323323323323323323324324328C
:101980004324323323323323323333334324334338
:101990002432864964D97DA8443433322322432437
:1019A00032654654543653A97A97BA8BA8BA8BA895
:1019B000BA8BA8BA8BA8BA8BA8BA8BA8BA8BA8AADC
:1019C0008AA8AA8AA8AA8AA8A98A98A98AA8110175
:1019D0001012111122122111112122222211122280
:1019E00011111122211122222222222223323323F9
:1019F0003233233223222223233222333223223250
:101A0000222222332333442332331222222222225F
:101A100000000011111111111111111122212222A6
:101A200032223323325535534525639A79A7432310
:101A300031222221332332332332332332332332F0
:101A40003323323323324324323323324334334477
:101A50003443433433432432753753B86B8655448B
:101A600044321321321322543543543653A98BA8E0
:101A7000BA8BA8BA8BA8BA8BA8BA8BA8BA8BA8BA0B
:101A80008BA8BA8BA8AA8AA8AA8AA8AA8AA8AA8A6E
:101A900098AA8A98222221221221111111111111C2
:101AA00011111111111111111111122112222222E1
:101AB00022222222222222222222232222223333E3
:101AC00033333333334334333233333233233334E6
:101AD000334333222222111111111111111111114D
:101AE00011111112212333333323327867862312E5
:101AF0003088678644234222222233233233233222
:101B000033233233233233233233233243243343D8
:101B1000243244344343344344344343343264260C
:101B20004264375356555432132132132143243221
:101B3000543654AA8BA8BA8BA8BA8BA8BA8BA8BA69
:101B40008BA8BA8BA8BA8BA8BA8BA8AA8AA8AA8A8B
:101B5000A8AA8AA8AA8AA8A9798711111111111116
:101B600011122122111122122111111111122122FF
:101B70001222222222222222222222222112122276
:101B8000233332333332233332232222222333339B
:101B90001112224444552221111111111111110069
:101BA000000011111111111111111133333343338D
:101BB00032564565342332221231443442331332D3
:101BC00033233243243243233233233243243243F8
:101BD000243343343343343343344344344354345D
:101BE0004353353242142132132167666632232271
:101BF000321321321322553654AA8BA8BA8BA8BAB5
:101C00008BA8BA8BA8BA8BA8BA8BA8BA8BA8BA8BA8
:101C1000A8BA8BA8AA8AA8AA8AA8AA8AA899777615
:101C200011111111111111111111111111111111A4
:101C3000111111111111111122222222211122211F
:101C400011222222233223223233333334223233FD
:101C50002222222222222223331222221111112295
:101C60002222111111111111111111111111111142
:101C700011222222332332453453231231221221DE
:101C80003423423323323323324324324324324336
:101C900024324324324334334434434434434434BD
:101CA000434434434434435435334214215325329E
:101CB000787677322221321321432422653654A9C3
:101CC0007AA8BB9BB9BA8BA8BA8BA8BA8BA8BA8BD7
:101CD000A8BA8BA8BA8BA8BA8BA8BA8AA8AA8AA8CD
:101CE000AA8AA86543322212211111111111111172
:101CF00011111111111111111111111111112211C3
:101D000011111111111121222232222222334333C7
:101D1000222222223222333233222222222333234E
:101D20003222454444333333111111000111111192
:101D300011111111111222112223333433221221D5
:101D400022122133233233233233233233233243DB
:101D5000243243243243243243343344343344342E
:101D60004343354376576554354354354396696646
:101D7000421421876976799798333332321321439D
:101D80002432654664886987BB9BB9BA8BA8BA8B35
:101D9000A8BA8BA8BA8BA8BA8BA8BA8BA8BA8BA8FA
:101DA000BA8AA8AA8AA89979972102211211111139
:101DB0001111111111111111110110111111111124
:101DC00011111111111111222222111111121222BD
:101DD00022222222223322222222222222322223C1
:101DE00032332222222333444443443333332222E6
:101DF00022000000111111111111111111222333B0
:101E000033333322232233233244244233133133F6
:101E1000233232133243243343343344344344347F
:101E200043443443544543A87A88976976B98B98DC
:101E3000A88B98ECCFCC643532976A878AA89A44ED
:101E40004443321321422422664664765775BA8B86
:101E5000A8BB9BB9BA8BA8BA8BA8BA8BA8BA8BA817
:101E6000BA8BA8BA9BA8AA8A97986986A96A85128C
:101E70001121111111111111111121111111110142
:101E80001111111111111111111111111111111142
:101E90002211112222222222222222223333332211
:101EA00022222222222332224444444444444444F1
:101EB000442211213333321101101111111111116A
:101EC0002222223334443323333323323323324424
:101ED0002442321321331332332332443443443403
:101EE00043443443443443543543654654A87A88C4
:101EF000CA9CA9B98B98CA9DBAFDDFDCA767539726
:101F00005A878BB8BA55555432132142242265465C
:101F100064664654986997CB9CB9BB9BA8BA8BA8BA
:101F2000BA9BA9BA9BB9BA8BA8AA8A98986986A9BC
:101F30006A96985874111111111111111111221171
:101F40001111111111111111111111111111122170
:101F5000111111111111111111111111222222222D
:101F6000222222222222222222222222222223234F
:101F70003322222233333344444433244311111196
:101F800011111122222222211233433333343333ED
:101F90002332332332432432321321432432332376
:101FA0003244344344344344344344344354365435
:101FB000865865B98B98A87A87B98B98DBAECBEC3D
:101FC000CECC8546435425438BB8BB56555532136A
:101FD00021321321653654775765764775BA8BA839
:101FE000BB9BA8BA8BA8BA9BA9BA9BA9BA8BA8AA73
:101FF0008A97986986B97B97A97775111111111184
:1020000011111111111111111111111111111111C0
:10201000111111221121111111111111111111118F
:1020200011112222222222222222221112212222D4
:102030002232222233333333334344344333333273
:1020400044355411111111111111111122222222A2
:1020500022223323333323323213214324323323D6
:1020600032442442332332443443543543543543B9
:10207000543543865976ECBECBCA9C997658656434
:102080003654B98B988768657546434324328AA8CD
:10209000AA67756632232132132165366487698603
:1020A000886875997A97BB9CB9BA8BA8BA8BA8BA7D
:1020B0009BA9BA9BA9BA8BA8B98BA8DB9CA93211A2
:1020C00010211221111110111111111111111110E2
:1020D0000001111111111111111111101112211101
:1020E0001111111221221222221111111111221289
:1020F000221111112212112222224334333333339D
:1021000044344344354366555421111111111122B1
:102110002222112222333222222333432432321349
:102120002143243255354344244233243254354329
:10213000987886543543987987B98CA9FDCFDCB956
:102140008A884334324324327547546546445325C4
:102150003253253289989978878733232232132185
:10216000653664764875BA8AA8764775BA8BA8BA78
:102170008BA8BA8BA8BA8BA8BA9BA9BA8BA8BA8B22
:10218000A8DBACB91101112211111111111111119A
:10219000111111111111111111111111111111112F
:1021A00011111111111111111111111111112222FD
:1021B0002111111111122122122222222233243242
:1021C00043343243243254354365465465476522CF
:1021D0001211111111111111223344333222222311
:1021E0003343233233233243244255355355355339
:1021F000887998CB9CBA987987A98BA9FEDFEDFEE8
:10220000EFEEECCECB6435434324324324327547A2
:1022100054866976876865643743777787788788D7
:10222000443332321321653654543654CB9CB9763C
:102230005764997A97BA8BA8BA8BA8BA8BA8BA9B1D
:10224000A9BA8BA8BA8BA9CB9DCA12122111111160
:10225000111111111111111111111111111111116E
:10226000111111111111111111111111111111115E
:10227000111111111111111111111111111111114E
:10228000322332653754754754754754754865761F
:102290005876754654322221110111111111223341
:1022A0003333323322122143243233233243244244
:1022B000553653553542FEEFFFCBACB9BA9CBAFD4B
:1022C000DFEDFFFFFFFEEFEEDAACA96545434324E7
:1022D00032533543765865CAADBAA8797664364329
:1022E000887776787787544443321321653654547F
:1022F0002542A98A98775765764775A97A98BA9B37
:10230000A9BA8BA8BA8BA9BA8BA8AA8AA8BB9986A6
:1023100012111111111111111111111111111111AC
:10232000111111111111111111111111111111119D
:10233000111111111111111111111111111111118D
:10234000211211222222654754B97C98B87B97A8A4
:102350007B97B97A87A87A8776476443232211004E
:10236000002222221122223333332222223313323B
:10237000332332432432542542A87CA9EEFFFFBA0E
:102380008A98CA9CBAFDDFEDFEDEEDDCBDBAA86B13
:1023900087865865754754B98B98976976CA9CA902
:1023A0007655434214228988887767765555553289
:1023B00013216546545425328758767757757657DA
:1023C00065997997BA8BA8BA8BA8BA8BA8BA8BA84B
:1023D000BA8BA85538761111111111101111111164
:1023E00011111111111111111111111111111111DD
:1023F00011111111111111111111111111121121BC
:10240000111111111111211111322543B97B98CAF3
:102410008C98CA8CA8CA8CA8CA8CA8B98B979769C3
:10242000865325321111111111112222222222224A
:10243000222222432332442543654654765765C9F8
:102440007DA8FEEFEEBA9A98BA9CA9DBADBADBADD7
:10245000B9ECBEBAB98B98976865865976DA9CA9AB
:10246000876876A87A873213213323228AA8AA673D
:102470006665665555321321654654543542754894
:1024800065A98A98A98A97775886AA8BA8BA8BA833
:10249000BA8BA8AA8AA8BA8AA833222111111100DE
:1024A000011011111111111111111111111111112D
:1024B000111111111111101111111111111111110D
:1024C000111111111111111111111111111222A853
:1024D0007B97DB9CA9DBADBADBADBADB9DBADCAE8A
:1024E000CADB9DB9A8797664354222121111111107
:1024F0001111111111112222225325429879878737
:102500006865ECBECBC98DA9FCCECADA9CA8B97BA4
:1025100097EDDFDDECBDBBDBADBAB98B986436540B
:10252000A76A87CA9CA965465454343232132143A2
:1025300024329BB9BB88878866566532232165465D
:1025400064643542865976DCBDCBCBACBA76466442
:10255000A97A97BA8BA8BA8AA8AA8AA8AA89972121
:10256000111111111111111111111111111111115B
:10257000111111111111111111111111111111114B
:10258000111111111111111111111221111111112A
:102590001111321321C98CA8DB9DB9DBADBAECAEA9
:1025A000BAECAECADCADB9DB9DB9B86A86753753F3
:1025B000221221110111111111332222332332531E
:1025C0002653976976865865C98B97D98DA9DB9F65
:1025D000CACA9CA9DCBECCFFFFFFFEEFEDECBEBB80
:1025E00076575454354365475487675443243232F1
:1025F00013213223224324328AB8BB8AB8AA6656F2
:1026000065432432654654543542754876DCCDDC4A
:10261000DCBDCB986886876986BA8BA8AA8AA8AAE7
:102620008AA8A97AA81111111111111111111111F2
:10263000111111111111111111111111111111118A
:10264000111111111111111111111111111111117A
:102650001111111111221221B97CA8DA9DB9DBAD3B
:10266000BAECAECAECAECAECAECAECAECADB9DB9EF
:10267000C97C97975865322221111111111111113E
:102680001221221322EB9B98CA9CA9EBBDBAB86B0E
:1026900085C97C98FCAECAFFFFFFFFFFFFFFFFFF6D
:1026A000FEFFEEA879766436435435434324324323
:1026B00024323223222212213223224315329AA9B4
:1026C000BBACD9BC77766644243265466454354346
:1026D000532643DCCDCCDCCDCCBA8AA8775775998C
:1026E0007A97AA8AA8AA8AA8A98997111111111103
:1026F00011111111111111111111111111111110CB
:1027000011111111111011111111111111111111BA
:102710001111111111111111111111432543C97C0E
:1027200098DB9DB9DBAEBAECAECAECAECAECAECA71
:10273000ECAECAEB9EB9DA8DA8864864322211113C
:102740001111111111111111110211ECADB9FDCFBF
:10275000DDFDCFDCB75B85DA7DA8ECAECAFFFFFFFD
:10276000FFFFFFFFFFFFFDCECB65454354354354CC
:102770003543433432432432332322320321642548
:10278000324324328AA9AAACDACD899798442442EC
:10279000664664543543532532CCBDCCDDCDCCCB1D
:1027A000ABB9986886886986AA8AA8AA8AA89879FF
:1027B0009722111111111111111111111111111172
:1027C000111111000111110111111111111111112A
:1027D00011111111111111111112111111112112D7
:1027E00010975A86DA8DA8DB9DB9EBAEBAECAECA6B
:1027F000ECAECAECAECAECAECAEC9EC9CA8C97A7C6
:1028000059753223211111111111111111111112C8
:1028100011975A87DCBDCBEDCFDCB74B74DA7EB8AD
:10282000ECAECAFFEFFEFFFFFFEEEEDD7546535440
:102830002542543543543543776877432432322355
:10284000219749759658644325328AA8AAACDACEF6
:102850009BC9BB443442664664543543532532CB4E
:10286000BCCCEDDEDDCBACBAAA8A98765765A97AE6
:1028700097AA8A9877522111111111111111111172
:102880001111111111111111111111111111111138
:102890001111111111111111111111111111111128
:1028A00011111111422532C97C97DA8DA8DB9DB92F
:1028B000EB9EB9EBAEBAECAECAECAECAECAECAEC6B
:1028C0009EC9DA8DB8A86A7543232211111121110E
:1028D00011111111111111864976FEEFEEECBECCEB
:1028E000B86B86DA7EB8CA8C98CA8CA9CBADBBFE11
:1028F000FFFF654644B98B98DBADBA654765FFFFBE
:10290000FE877544332332853864864753C97DA7D3
:102910008AA8AA9CCACDACE9CD56545466466555E2
:102920003543532532CBADCBEDDEDDCBACBABA8A25
:10293000A8775775986997A97A97331110111111D3
:102940001111101111111111111111111111111178
:102950001111111111111111111111111111111167
:1029600011111111111111111211A75A75CA7CA759
:10297000DA8DA8DB8DB8EB9EB9EB9EB9ECAECAEC54
:10298000AECAECAECAEC9EC9DB8DB8A8597532232D
:10299000221101101100001111111101107539647B
:1029A000B64B64EDCEDCDA7DA7EC9EC9A86987B88A
:1029B0008B98FDDCAAFEEFFF654754FCCFDCFCCE14
:1029C000BBDBAEDCFFFFFF543321322322642742FE
:1029D000743753B86B868AA8AA9BC9CCADEADE7857
:1029E0008677654664654543532532BA9BAAEDDE7A
:1029F000DDCBACBABA8BA898688677587699799768
:102A000011011111111111111111111111111111C6
:102A100011111111111111111111111111111111A6
:102A2000111111111111111111112112114215431E
:102A3000C97C97DA8DA8DA8DA8DB8DB8EB9EB9EB4F
:102A40009EB9EB9EB9ECAECAEC9EC9EC9EC9DB8D7B
:102A5000B8A75A85432422211111110110333222C3
:102A6000111111621742D75D85FC9FC9CA8DB9EC5F
:102A7000AFDBFEEFEEFFFFFFDAAEBBFEEFEE976BD4
:102A800098FDCFDCFDCFCCDCBECBFFDEDC64264383
:102A90005425326427527437439649749AA9AA9BE5
:102AA000C9BCADEADE8AA7995546646545435325FE
:102AB00032876987EDDEDDCCBCCBAA8AA8A98997CD
:102AC00076576598698711011111111111111111B2
:102AD00011111111111111101111111111111111E7
:102AE00011111111111111110110111111111111E7
:102AF000211211975A75C97C97DA8DA8DA8DA8DB57
:102B00008DB8DB9DB9EB9EB9EB9ECAEC9EC9EC9EDD
:102B1000C9EC9EC9DB8DB8C96C86532421221111E2
:102B2000111111222111111111521621B64C74A646
:102B30003A74DB9DB9FDBEDBEDDEDDFFFEEEC99C28
:102B4000A9FDDEDCDBADBAFDCFDDECBECBDBADBA83
:102B5000865854853853642642543543532542855C
:102B600028529AA9AA9BB9BBADEADE9BC9BC5656AE
:102B700065664654432432643865EDDEEDDCCDCC29
:102B8000AA8AA8A9899877576587688611111111B3
:102B90001111111111111111111111111111110036
:102BA0000011111111111111111111111111111126
:102BB000111111221221643754C97C97CA7CA7DAFB
:102BC0008DA8DA8DB8DB8DB8DB9DB9EB9EB9EB9E95
:102BD000B9EB9EB9EB9EB9EC9EB9EB8EB8C97C9669
:102BE000532432111111111111111111111211521D
:102BF0002521620620975A75DB9DB9CA8DB9EDCEA5
:102C0000DCFFEDCBEB9EBAFDCFDCFDCFDDFDCFDCF5
:102C1000FDCFDCDBADBA6435427547544214213236
:102C200013213223226426429AA9AA9BA9BBACDABB
:102C3000DEACDACD665665664654422422632643EE
:102C4000EDDEDDEDDEDDAA8AA899798787677576E6
:102C500047651111111101111111111111111111EA
:102C60001111111111111111111111111111111154
:102C7000111111111111111111210210A76B87C926
:102C80007C97DA8DA8DA8DA8DB9DB9DB9DB9DB9D39
:102C9000B9EB9EB9EB9EB9EB9EB9EB9EB9EB9EB931
:102CA000EB8EB8DA7DA764354211111110000011C6
:102CB0000111222211521521621621B86B87CA8C8C
:102CC000A8DA9DBAFDDFDDFEDECAECAECAFDBEDCD1
:102CD000FFFFFFFDDFDDECCECBDAACA943143132D0
:102CE0001321321322321321320421A86A869AA9B1
:102CF000AA9AA9AAACDACDADEACE67666676576520
:102D0000432422532532DCCEDDEEEEEDAA999888DD
:102D10006886997A9787688611111111111111111E
:102D200011111111110010111111111111111111A5
:102D3000111111111111111111111111111111751F
:102D40005976C97C97CA7CA7DA8DA8DA8DA8DB9D55
:102D5000B9EB9EB9EB9EB9EB9EB9EB9EB9EB9EB970
:102D6000EB9EB9EB9EB9EB8EB8DA7DA764364321B2
:102D70001111111111211211110210521521731785
:102D800032B86B87B86B75ECBECCEDDEDCECADB960
:102D9000ECAECAEDBEDCFFFFFFDCBDBBFCCFCCDA86
:102DA000AC99432432322322322322320321DB8E98
:102DB000C9FCAFCA9AA9AA9AA9AA9BCACDADFADF43
:102DC000788677776776543532642642CBBDCCFE61
:102DD000EFEEBBAAA9AA8AA8CCADCABA8A971111EC
:102DE00011111111111111111111111111111111D3
:102DF00011111122111111111111111111111111B2
:102E00001111211211A75A86CA8CA8DA8CA7DA8D63
:102E1000A8DB9DB9EB9EB9EB9EB9EB9EB9EB9EB9D1
:102E2000EB9EB9EB9EB9EB9EB9EB9EB9EB8EB8DA8F
:102E30007DA764354311111111111121121175492A
:102E400075421411853953A75B86A64A63FEDFFEDF
:102E5000FFFFEEDCADCAFDDFDDEDCFEDEDBDCBCA92
:102E60008CA9EBAEBA97575443243232132154261F
:102E700043C96C96EB8EB8EC9EB99AA9AA9AA9AAF6
:102E80009BC9BCADFADF8AA799775875653553633E
:102E90002632BA9DBBFFFFFFDDCDCBDCBDCBEDCE37
:102EA000DBBA8997111111111111111111110110B2
:102EB0001111111111111112111111111111111101
:102EC0001111111111111111654865B97B97CA8C47
:102ED000A8DA8DA8DA8DA8DB9DB9EB9EB9EB9EB977
:102EE000EB9EB9EB9EB9EC9EB9EB9EB9EB9EB9ECAB
:102EF0009EC9EB8EB8DA7DA764353211011111013C
:102F000011111211A75B86521621953953A74B75E3
:102F1000B74B74C75C85FFFFEEDB9DCAFEDFDCDBD1
:102F2000ACA9A87986876876C98C976426426426FE
:102F300042432432753854B86B86A85A75531531FC
:102F40009AA9AA9AA9AA9BB9BBADEBDF9BB8AA77AD
:102F50005775664664532532987BA9FFFFFFEEEE56
:102F6000EDFEDFECDCBDCAA977751111111111114D
:102F70001111111111111111111111111112211130
:102F80001111110111111211111221111111754894
:102F900064975976B98BA8CA8CA8DA8DA8DB8DB84E
:102FA000DB9DB9EB9EB9EB9EB9EB9EB9EC9EC9EBEC
:102FB0009EB9EC9EC9EC9EC9EB9EB8DA7DA775352B
:102FC00032110100100111310532C97B86631621CF
:102FD000953963B85C85D96D96C74D75FCAECADB73
:102FE000BDCBFDBFCBEDCFED764865CA9CA9C96DC1
:102FF000A7FB8FB8A7496443243254264264254175
:103000004324323213229AA9AA9AA9AA9AA9BAAD3C
:10301000EADEACD9BC7767766646645325327549DB
:1030200077FFFFFFFFFFFEEDCEDCCB9CB98755534A
:103030001111111111111111111101111111111190
:103040001111111111111111111111111111111170
:1030500011210211965975754753864865C98C9898
:10306000DA8DA8DA8DA8EB9EB9EB9EB9DB9DB9EBA2
:103070009EB9EB9EB9EC9EC9EC9EC9EC9EC9EB9E35
:10308000B9DA7DA785464211111111111174285327
:10309000C98B87731731963964C96C96DA7D97832B
:1030A0001942C86C97DCBDCBB86B97EDCFDCCA9DDD
:1030B000BAECBEBBC85C96EB8EB9DA8CA753142170
:1030C000653753986A868647534314319BA9BA9A49
:1030D000A9AA9AA9AAACDACEACEACD7767766546FA
:1030E00054543543644754FFFFFFFFFFFFFEDDCB21
:1030F000BA7B976652211111111111111111111181
:1031000011111111111111111111111111111111AF
:1031100011111111211211754754B86B86A75975F9
:10312000643642754754A75A76C97C97DA8DA8DB76
:103130008DB8EB8EB8EB8DB8EB9EB9EB9EB9ECAECB
:10314000CAECAEC9EB9EB9DA8DA89758542111117B
:10315000311310953A74C98C97842842A74A74D9C0
:103160007DA7EA8D98720952DA8C98DBADA9D97ED9
:10317000A8FEEFEEFDCFDCECAEB9FDAFDBFEDFFD70
:10318000FECFECEDBFDBFEDFFDFFEFFEEDBEDAFDB7
:10319000BFDB9BA9BA9AA9AA9AA9AA9CC9CDADEAF4
:1031A000DE776776553553664654643644FFFFFF35
:1031B000FFFFFFFFEFFEBA8B974322101111111191
:1031C00011111111111111111111111111111111EF
:1031D00011111111111111111111211211864964CE
:1031E000B86B86B86B86A75A75642632642642A7E8
:1031F0005A76D97D97DA8DA8DB8DB8EB8EB8DB8E49
:10320000B8EB9EB9EB9EB9EC9EC9EC9EC9DA8DA8CD
:10321000A75864865977743743B75B75B86A758564
:103220002953B75B85DA8EB8B75731953B75B86BC4
:1032300086D97C87C74C74EB9FDCDBAEBAFDBFDB65
:10324000FFEFFEFFFFFFFFFFFEFFEFFFFFEFFFFFC0
:10325000FFFFEFEEFEFECFEC9BA9BA9AA9AA9AA9AE
:10326000AA9BC9BCADEADE787776543543765664BE
:10327000643643FFFFFFFFFFFFFFEFFEBA8A86328F
:10328000122111111111111111111111111111111D
:10329000111111111111111111111111111112111D
:1032A000210310964964A75A75B86B86B86B86A639
:1032B0004964743743853853C97D97DA8DA8DA8D10
:1032C000A8DB8DB8DA8DB8DA8DA8DB9DB9DB9DB9A6
:1032D000CA8C97C97C97A76854743743952953B70C
:1032E0005B86A75964953963B85C86EB9EB98427E1
:1032F00031B75B85C96C97D86C85C63C63EA7FB9EA
:10330000CA9DBAFEDFEEFFFFFFFFFFFFFFEFFEFFEC
:10331000EFFEFFFFFFFFFFFFFFDFFDEC9DB99BA965
:10332000BA9AA9AA9AA9AA9BB9BBADFADE898787DE
:10333000543443764764643543FFFFFFFFFFFFFFCC
:10334000FFFFA97B974322211111111111111111B6
:10335000111111111111111111111111111111006E
:10336000111111111111421532853853864864A785
:103370006A86B97B97B86B86A64964963963C86C30
:1033800096DA8DA8DA8DA8DA8DA8DA8DA8B97A86B2
:10339000643753853753975A75CA8CA89756438418
:1033A0003C87963A63B86C97964A75963A64C96DAD
:1033B00097EC9EC9842842C97C97DA7DA7DA6D967E
:1033C000A53A64C97CA8ECBDB9FEEFFFFEDFECFEB8
:1033D000CFECFDBFDBFFDFFDFFFFFEFECEEBC96BD9
:1033E000869749749BB9BB9AA9AA9AA9AA9BA9BB1B
:1033F000ADEADE8A9798554554664664654653DDC6
:10340000DFFFFFFFFFFFFFFFA97A97432321111181
:10341000111111111111111111111111111111119C
:1034200011111111011011111111111153253253E4
:103430002532311321211211311311A86B87A75A9C
:1034400075A64A64C86C86DA8DA8DA8DA8EA8DA8BC
:10345000DA7C97964964853853964A75DA7DA8DAFE
:103460008CA8743300A65B75963A64B86B86A6592F
:1034700054A74A74C97DA7ECAEC9A63B74C97CA702
:10348000DB8DB8D97B75EA8EB9CA9CA9ECBECBFEA0
:10349000EFEEB97CA7FECFEDFDBFDBFECFECFFCF9B
:1034A000FCCA7B966416419759759BB9BB9AA9AA29
:1034B0009AA9AA9AA9AAACDADE9AA89965465454A0
:1034C0003553654654877BBAFFFFFFFFFFFFBB996B
:1034D00087554332111111111111111111111111CF
:1034E00011111111111111111111011111111111DC
:1034F000111164363242242265543322222255525D
:1035000022321310B85B75B75B75C86C86DA8DA86C
:10351000DA8DA8DA7DA7C96C96B75B75B85B85C8EC
:103520005C86DA7DA8EB8DA8410521A54A54A64A00
:1035300074B86B86954842B75B85DA7DA8FCAEB956
:10354000B85B85CA8DA8EC9EC9C74C85ECAEBACADB
:103550009B97ECBECAFDCFDCFCAECAFECFECEB9D68
:10356000B8975974864863642642753753974974EF
:103570009BB9BB9BA9BA9AA9AA9AA9AAACDACD9B76
:10358000B8AA654654432543664664654655FFFF21
:10359000FFFFFFFFFFEDCB44343211111111111168
:1035A000111111111111110111111111111111111B
:1035B00011111111113214328548546426426546A6
:1035C00044433433322322A87977964A75B75B7522
:1035D000C96C96DA8DA8DA8DA8DA7DA7B86C86A7B3
:1035E0006A76976A76B97B86D97D97DA7DA7421489
:1035F00021621510A74A74B86B86852853C86C964B
:10360000DB8DB8ECAC98C96C96DB9EB9ECAFCAC741
:103610004C85DB9EBACA8DBAFDCFDCFDBFDBEB9ECD
:10362000B9B97B976425425425425425425425421A
:10363000864974A75A759AA9AA9BA9BA9AA9AA9A5F
:10364000A9AA9BC9CD9BC8AB664664332432764792
:1036500065664665FFFFFFFFFFFFFFFFFF876543CE
:10366000111111111111111111111111110111115A
:10367000111111111111111111211175486596596E
:1036800065864864965865321211544877B98B980C
:10369000742964B86B85C96C96DA8DB8EB8DA8D99E
:1036A0007C97B86B86755654432311643643C97CA6
:1036B00096D96D96521632520631A74B74A85A8588
:1036C000963963C96C97DB9EB9DA9A76C97C97EB19
:1036D0009EB9FDAFCAD96DA7975A75ECBECBFDCF89
:1036E000DCECAECA975975754753532432542542C2
:1036F000542542531531A75A85A85A85BCBBBB9A9D
:10370000A9AA9AA9AA9AA9AA9BC9BC9BC9BC6646A0
:1037100064332332664764675675FFFFFFFFFFFF80
:10372000FFFFFFA985431111111111111111111181
:10373000111111011111111111111111111011118A
:1037400010965965A76A86A74A74A75A75A86A860B
:10375000976976A87976410742B86B86C97C97EB62
:103760009EB9EB8EB8C97C9653231021133244398D
:1037700098987654631853D96C9643242163274252
:10378000A74B74A85A75963963C97C97EB9EC9CA32
:103790008A86DA8DA8ECAECAEC9D97DA7DB8B86C53
:1037A00097EBAEBAFDCFDC53153154354354354356
:1037B000532532542542532532542643A86A85A8FE
:1037C0005A85CCCCCC9AA9BA9AA9AA9AA9AA9BB98B
:1037D000BB9CD9CD765775332332553664786786CE
:1037E000EFEFFFFFFFFFFFEFFE76544311111111C2
:1037F00011111111111111111111111111111111B9
:1038000010111111111100A75A75B86B86B85B859C
:10381000B75B75B86B86C97C97B86A86A75A75C9B5
:103820007C96C97C97EB9EB9EB9EB8C96C86310338
:1038300021322766443876CBABA9A75B76C97C9743
:10384000311310742842A74B74A75A74A73A74CA4C
:103850007DA7EB9EB9CA8DA8DA8DB8ECAECAB86C5C
:1038600086EC9FCADA8DA8DA8DB9FDBFDB4324321E
:103870004324324324325425425425425325326591
:103880002753A85A85A85A85DDCDCC9BA9BA9AA9F9
:10389000AA9AA9AA9AA8BB9CD9CD77667544343355
:1038A000442543786886EFEFFFFFEFFE9979974351
:1038B00023321111111111111111111111111111C5
:1038C00011111110111111111111210432B86B864F
:1038D000C97C97C97C97C86B86B86B86C86C86B85C
:1038E0006B86C97B97C97C97C97DA8ECAFCAEB9E54
:1038F000B9C97C86754643311322DCBDCB97586429
:10390000DA8DA8B97B86311311842842A74A74A79F
:103910004A74B74B74CA7CA7EB9EB9DB9DB8DB9D9C
:10392000B9ECAECBDA8EA8C97C96DB9DBAEB9EB91A
:10393000ECBCA8432432432432432532542542535D
:103940002532532532874974975975A85A85DCCD9D
:10395000CC9BA9BA9AA9AA9AA9AA8AA8AA9BC9BCC7
:10396000787776443443432443765775786887776D
:103970006886A98A9832232211111111111111118F
:103980001111111111111111011011011111111049
:10399000421632B86C97CA7CA7DA7CA7C97C97C953
:1039A0007C97C97C97C97C97C97C97C97C97CA7D4D
:1039B000A8ECBECBEB9EB9C97C97A75A76B98B9879
:1039C000865865A86A87DA8DA8B8753231121184D5
:1039D0002842A74A74A74A74B75B85DA7DA7EB9E95
:1039E000B9DB8DB8EB9EB9FDBFDBDA8DA8DA7DA817
:1039F000ECAECAFCBFCB42154243243243243254BE
:103A000025425425425425325325329759759749FA
:103A100074A85A75DDDDDDABA9AA9AA9AA8AA8AA5D
:103A20008AA8AA8BB8BB787776554444332432668B
:103A300046647768769879878758754322211111F3
:103A40001111111111111111111011111111111167
:103A5000111111111111743864C97C97DA8DA8DA2B
:103A60008DA8DA8DA8DA8DA8DA8DA8CA7CA7CA7CC1
:103A7000A7C97C97DA8DB8FCBFDBEB9EB9EB9DB88C
:103A8000B85B75B75B86C97C97CA8CA8EB8EB842C9
:103A90000310310310842852A74A74A74A74B85CF3
:103AA00085D97DA7DA8DA8DB8DB8EC9ECAFDBEDB7B
:103AB000B87C97DA8DB8ECAECAFDBFDB5424324334
:103AC000243253254254254254254254254254263B
:103AD00042A85985985975A85A75EDEEDEBCBABA58
:103AE0009AA9AA8A98A98A98A98AA8AA788787559C
:103AF0004554665665776876A98A879769768658A9
:103B000065543432110111111111111111111111DA
:103B1000111111111111110110111111854A64C9EE
:103B20007C97DA8DA8DA8DB8DB8DB8DA8DA8DA8DBE
:103B3000A8CA7C97C97C97C97C97DB8DB9FDBFDB90
:103B4000EC9EC9EB9EB9DA8DA8C86C96C97C97DA51
:103B50008DA8EB8EB8310210420531852952A74A53
:103B600074A74A74C86C96C97C97DA7DA8DB8EB8B6
:103B7000EC9ECAFDAEDADA8DA8DB9DB9ECBECBFDBA
:103B8000BA9754254254253254254254254264267E
:103B900042532532864864A85A85975975A85A8594
:103BA000EEEEEECDCCCC8AA8AA7997987877878A62
:103BB000A8AA788788665665776776987A8898691C
:103BC00076875865865875543543111111111111B6
:103BD00011111111111111111111111111001011E7
:103BE0001110A65B75C97C97DA8DA8DB8DA8DB9DCB
:103BF000B9DB9DB9DA8DA8C97C97C97C97CA7CA727
:103C0000DB9DB9FDBFDBFCAFCAEC9EC9EB9EB9DA08
:103C10008DA8EB9EB9EB9EB9EB9EB91001106327FE
:103C200042852953A74A74A74A74C97DA7C97C96BF
:103C3000DA7DA7DA8EB8EC9EC9ECAECADB9DB9EC92
:103C4000AECAECAECA5326435435435425426436BB
:103C50005364264364264253153197497597497436
:103C6000974975974974DDDDDEDDDCDC9AA8AA7919
:103C700087884654656887987887887767769879C3
:103C80009797697597596597597576476454343293
:103C90001111111111111111111111111111111114
:103CA0001111111111111211A75B75C96C97DA8DE1
:103CB000A8DA8DA8EB9EB9EB9DB8DA8C97C97C96F3
:103CC000C97C97C97CA7DB9DB9FDBFDBFCAFCAEB04
:103CD0009EB9EB9EB9EB9EB9EB9EB9EC9EC9EB9EEB
:103CE000B9110110742852852953A74A74B74B742F
:103CF000C97CA7C97C97DA7DA7DA8DA8EB9EB9ECC1
:103D00009EB9DBAECAECBECBFDBFCA653754653683
:103D100053753753753753642642642642642743EC
:103D2000874864964974975975974974DDDDDDDDE0
:103D3000DDDC9AA9AA8A98995765656766777777CF
:103D400077988988986986974974975975975975AE
:103D50006646643323211111111111111111110043
:103D60000111111111111111111111211311A74B71
:103D700074C96C96D97DA7DA8DA8DA8EA8DA8DA8D9
:103D8000C97C97B86B86C96C96C97CA7DB9DB9FDC9
:103D9000BFDBFCAECAEB9EB9EB9EB9EB9EB9EC9EC5
:103DA000C9FCAFC9DB8DB811011085285295395374
:103DB000A74A74A74A74CA7CA7C97C97DA7DA8DA97
:103DC0008DA8DB8DB8DB9DB9ECAECAFDBFDBFDBFB6
:103DD000DB75375375375375375375375364264240
:103DE000753753753864874874975975975975971F
:103DF0004874DDDDDDDDDDDD8998AA8A98A9787754
:103E00008777577699899898697686486486486452
:103E10009748747746745745743323211111111153
:103E20001111111111110111221221110110111181
:103E300011210521A74B74C86C96D97D97DA8DA8FE
:103E4000DA8DA8DA7D97B86B86B75B75B86B86C9D3
:103E50007CA7DB9EB9FDBFDBECAEB9EB8EB9EB9E68
:103E6000B9EB9EB9FC9FC9EC9EB9DA8DA90101108E
:103E7000852952953963A74A74A74B75C97C97C9A0
:103E80007C97DA8DA8DA8DA8DA8DA8DA8DA8ECAE49
:103E9000CAFDCFDBA8686475375375375365365351
:103EA0007537536536437536537647658758759829
:103EB0006985975975874874DDDDDDEDEDDD9A98EC
:103EC00099899899786776888888998988864864D6
:103ED000864864864864764764463474463563345D
:103EE00023321111111111111111111001111111A0
:103EF00011111111100111431531B74B74C86C86A3
:103F0000D97D97D97D97DA7DA7D97D97B85B75B8AC
:103F10005B86B86B85C97C97DB9EB9FDBFDBEC9EE9
:103F2000B9EA8EA8EB9EB9EB9EB9FC9FC9EB9EB88F
:103F3000EA9865111101852852963963A75A75B719
:103F40005B75C97C97CA7C97DA8DA8DA8DA8DA8D63
:103F5000A8DA8DA8ECAFCAFCAFCA753753643643F4
:103F60006436425425425425425325325325328625
:103F70005865975975985975975975974974CCCC68
:103F8000CDEDEEDEBBAAA9776776888989998998F5
:103F90008758658648648648647547547647644602
:103FA0003463463463454554111111111111111137
:103FB000111111111111111111111001106326317C
:103FC000A64A74C85C86C96C96D97D97D97D97C876
:103FD0006C86B75A74B85C86C86C86C97C97EB9EB1
:103FE000B9FCAFCAEB9EB8DA7DA7EA8EA8EB8EB813
:103FF000EB9EB9EA8EA81001001111118428529687
:104000003963A75B85B85B85C97C97C97C97DA8DD6
:10401000A8DA8DA8DA8DA8DA8DB8ECAECAFCAFCAE2
:104020004324324324324324324224224224224273
:104030002422643653865874975975975975975941
:1040400075974974CCCCCCEEEEEE8877768878887C
:104050009989989759758648648648647647647646
:10406000486486486477477557446346567611110D
:104070001111111111011011011011111111111152
:10408000110110631842A74A74C85C86C86C86C8C0
:104090006C86C96C96C86C86A64A63B85B85B85BAB
:1040A00085C86C97DA8EA8FCAFCAEB8EA8D97D972D
:1040B000DA7EA7EA8EA8EB8EB8EA7E97111010116F
:1040C0001111842842A63A63B85B85B85C85C97C27
:1040D00097DA7DA7DA8DA8DA8DA8DB9DB9DB9EB9CA
:1040E000EC9ECAFDBECA43243243243243243243E9
:1040F0002432432432532532764865974974A85AAE
:1041000085975975874874975975CCBCCCBBAAA9BB
:10411000776777999A99875875874975864864654E
:10412000465476486486497497597587587557542C
:1041300064798687100111111111111111111110DB
:10414000111111111111110111742852A74A74B7DC
:104150005B85C86C86C86C86C85C85C85C85B74AB8
:1041600064B74B74B75B75B85C85DA8EA8EB9EB903
:10417000EA8EA8D97D96DA7DA7EA7EA7EA8EA8C93D
:104180006C97111111111110842842A63A74B85B72
:1041900085C96C96CA7CA7DA8DA8DA8DA8DA8DA8B5
:1041A000DB9DB9EC9EC9ECAECAFDCB9854354343B8
:1041B0002432432432532532542542543543865801
:1041C00064974974985985875875874874975975C5
:1041D000887887766776A99A99876876864864860C
:1041E0004874864764453453653754975975A85ABF
:1041F0008587477446458668745411111111111151
:10420000111111111111111111111111100110744D
:104210002852A74A74B75B75C85C85C85B85B75BD5
:1042200075B75B75B74B74A63A63952A63A64B7452
:10423000D97D97EA8EA8D97D97C96C96D97D97DAF2
:104240007DA7EA7E97865310111111111110741871
:1042500041A63A63B85B85C96C96C97CA7DB8DB86B
:10426000DA8DA8DB8DB8DB9EC9ECAECAECAFDB54AF
:1042700037546546545434434324325435436436EA
:1042800043643653764764974975975975874874E0
:10429000975975974975665765988998987987876A
:1042A0004874864864875875664664353354542686
:1042B00053975A75A75A85974974576698687566D3
:1042C00011111111111111111111111111011111EE
:1042D0001111111110742852A74A74B75B85C85C7C
:1042E00085B75B75B75B75B85B85B74A74B74B74B8
:1042F000B63B63B64B64C85C86D96D96D97D97C9C9
:104300006C86D96D96D97D97D96D961002111111D1
:1043100011111110741842A63A73B85B85C96C96D6
:10432000CA7CA7DB8DB8DB8DB8DB9DB9EC9EC9ECF0
:10433000AECAECBEDB654654654654443432432471
:10434000325436436436437537538648649749740C
:104350009759758748749759759759759999999888
:1043600078878658658648648648657657644533FD
:1043700043354364442442975975A75A75A7497435
:104380007A97AA354243111111111111110111111E
:104390001111110111111110111110742852A74A95
:1043A00074C85C85C85C85A74A64A74A74B85B85F5
:1043B000B85B85B74B74B74B74B74B74C85C85DA80
:1043C0007DA7D97D97C96C96C96C96C96C96C86B48
:1043D00086210211111111111111842852A63A746B
:1043E000B85B85C96C96DA7DA8DB9DB9DB9DB9DB2E
:1043F0009DB9EC9EC9ECAECAEDBECB5435435435E5
:104400004344343243243264364365365386486429
:10441000974974985A85974974974975975975863D
:1044200048649879878758658648648649648648D1
:1044300064764653332332354354453443964974A6
:10444000A75A75A759756A95A9342232111111110D
:10445000111111011011011111011111111121116D
:1044600011742842A74A74C85C85C86C86B74A7420
:10447000410632B85B85B86B86B85B85B84B84B8AB
:104480005B85D96D96EA8EA8DA7D97C86C86C86C74
:1044900086D86C85A86743211211111111111111D1
:1044A000842842A63A74B85B85C96C96CA8DA8DB8D
:1044B0008DB8DB9DB9EC9EC9ECAECAECAECBFDBEAF
:1044C000CB54354354353354354343243254364367
:1044D0006536538648649759759859759749749706
:1044E0005975975975764764764764864864864857
:1044F00064863864864864754653332232354354A3
:10450000453453754864A75A758878A8586464344C
:10451000322211111111111111011000001011019D
:1045200011111111111322532742A64A64B85B8559
:10453000C86C86B85B75732742843843A64A64B753
:104540005B75D86D86D97D97EA8EA8EB8EB8C96C5D
:1045500086C85C85C86C85C85C8532121021121132
:10456000111111111111842852A64A74B85B85C922
:104570006C96CA8CA8DB9DB9EC9EC9EC9EC9ECAECA
:10458000CAEDBEDBFDCFEC6546545435435434339D
:104590004324325436437537648648649759759777
:1045A0005975974974975975975975764753864841
:1045B000648648657547548648649649649759658A
:1045C000331331353354454454543643A859866A1D
:1045D00086A84644632212221111111111111101F2
:1045E0001111011011111111111111111142153177
:1045F000A63A63B75B75C85C85B86C86B86B868471
:104600002732A74A64953953A64A64B75C76C86CCA
:1046100086C87C86A64B75C85C85C85C85B86A76FA
:10462000111111211211111111110110852953A716
:104630004A74B85B85C96C96CA7CA7DB9DB9EB9EB2
:10464000C9ECAECAECAECAECBECBFECEDC553543EF
:104650006546545434334324325436538648758661
:10466000486497597597497497497487587586486F
:1046700074764764976975865865653753964964BB
:10468000A75A7596596543233234335445445443ED
:1046900025428878A97A86974644643223221101FC
:1046A000111111101101111101101111111111111C
:1046B000111111211311953953B74B74B85B85C88B
:1046C0006C86A75A75B76B76954954CA8B97C96C97
:1046D00097C86B75B75B75A65B76C96C86C85C8539
:1046E000C85C8642232111121121121111111111DE
:1046F0001111953952A74A74B86B86C96C97CA7C58
:10470000A7DB9DB9DB9EC9ECAECAECAECAECAECA63
:10471000FECFEC543443654654432432432432657F
:1047200036538758758648649759759749749749E1
:104730007497597597497486486487587587587671
:10474000643653974A74A75A75975975653543353A
:1047500043544544535434437A96A84644645647D8
:1047600075221221111111111111111111111110B4
:10477000110111111111111111111110852852A7D8
:104780004A74B85B85C86C86A75A75A65B65C76C0A
:1047900076A65A65C98CA8B86B76A65B76D98D9833
:1047A000C96C96C85C85B75A7510000011111121AB
:1047B0001211111111111111963963A74B75B96CB2
:1047C00096C97C97CA7CA7EB9DB9EC9EC9ECAECA92
:1047D000ECAECAECAECAFECFEC443443654654435B
:1047E0002432432442653764864864864864974986
:1047F00074975975975975985975864864874874A0
:10480000875875775775543642A74A74A84A8497D3
:104810005974764653454454454453454676487446
:1048200097453564A97987211221111111111111B0
:104830001101111101111111111111111111111188
:104840000111643742A64A74B75B75B86B86B75AD4
:1048500075A65A65C77D87C88C87C87C88C76B7664
:10486000EAAFAAD97C97C96C96B85B754212100161
:10487000101111111121121111121111111096396B
:1048800063B75B85C96C97C97C97DA8DA8EB9EC925
:10489000ECAECAECAECAEC9EC9EB9ECAFDCFDC44BE
:1048A000254365465443243243244276486486486F
:1048B00064864864974974974975985985975975DE
:1048C000864874A85A8565465455455464364397BE
:1048D0004A74B85B85A75A75975975454464443442
:1048E000448CA7BA587586AA7AA7976754221222D1
:1048F00011011111111111111111111011111111B9
:104900000111111111111110211321963964B75B96
:1049100075B85B85B85B75A64A64B65C65E98D873A
:10492000D99D99FCBFBBEA9D99D97D97C86C86A695
:1049300049641110110010011101112112111111FE
:1049400011111110963963B85B85C97DA7C97C9791
:10495000DB9DB9ECAECAECAECAECBECAEC9EC9DBBC
:104960009ECAFDCFDCBB987655455443243244356E
:10497000438758758749749749749749749759754F
:10498000985985975975974A75FC9FC94434435582
:104990003553654553864964B85B85A85A85974960
:1049A00075565565343343598486AA8AA8A96A8600
:1049B00054333243233111111111111111111011FE
:1049C00011111111101101101111101111112112D9
:1049D00010853963B74B74B85B85B86B85A64A649C
:1049E000A53A53C65C65D77E88E98E98C86C76C9AF
:1049F0007C97B85B850001100000000000001101E9
:104A000011211211211211200410A64A64B85B85ED
:104A1000DA7DA8C97CA7DB9DB9ECAECBECBEDBECA4
:104A2000BECBDB9CA8DB9DB9FDBFDBFDCDBA543509
:104A300043332332542543864864975975975975F3
:104A4000974974985985975975A85A85EC9FDAFF4C
:104A5000DFFD553553554554553553753753B85BC0
:104A600095B85A85974974665555576687AB9AA984
:104A7000BA8BA7A97A96431432542431110111112B
:104A80001111111111111111111110110111110137
:104A900011111110211211631742A74A74B75B85D7
:104AA000C86C86B85B75A63A63A64B64B64B54B621
:104AB0004B64C86C97C97C9697654300011100014F
:104AC000101111100001102112112112116428532C
:104AD000A74A74B85B86DA7CA7CA7CA7ECAECAFD8D
:104AE000BFDBEDBFDBECAECAB86C97DB9DB9EDBEAA
:104AF000DBEDBFEC553543321321643653864764F2
:104B0000975975975975974864975975A85A85B9F3
:104B10006C96FDAFDAFFDFFD66466465455455359A
:104B200053542642B85B85B85B85A74974764664C2
:104B30009A9AA9CA8CA8BA8BA8A97986864864656E
:104B4000264211111111111111111111011111111F
:104B50001111111011111111011011111142152112
:104B6000963963B75B85C86C96C96C96C86C86B776
:104B70005B75B74B75C86C96DA7DA7B86B8711016A
:104B800000000000110000110000000100211211BE
:104B9000211211863963A74A75B85B86CA7CA7CAF9
:104BA0008DB8ECAECBFDBFDBFDBFDBECAECAB86BA6
:104BB00087DB9DB9ECBECBFDCFEC654554321321AC
:104BC00087587586486497497497597597497497BB
:104BD0005975974974975974B85B85DA8DB86646EC
:104BE00064654654554554543542975A85B95B859A
:104BF000A74A75975A87BB9CB9CA8CA8BA8BA8A933
:104C00007B97975874752653221221111111111197
:104C10001111111011111111111111111111111185
:104C2000110110421421741742A74A74B85C86DA45
:104C30007D97D97D97D97D97D97D97DA8DA7DA8D24
:104C4000A8A8754301001000011000000011011018
:104C5000010100211211211211963A63A74A74B87A
:104C60006B96CA7CA7DB9DB9EDBFDBFDCFDBFDBF3B
:104C7000DBA75753B86B86DA9DB9ECAECAFDCFEC13
:104C8000654544321321875875974974975975972C
:104C90005975985A85975974974974864864864817
:104CA00063874964654654554554554554653653A4
:104CB000863974C96C96532542322433654543BA0C
:104CC0008BA8765765A97B97A86A867527533222E9
:104CD00022222111111111110110111111111111A3
:104CE0001111111111111101103214217427429662
:104CF0003963B75B75C96C97DA7DA8DA8DA8DA8D50
:104D0000A8EA8DA8D97C96100100000000000110CF
:104D1000000000100100010100211211221211A750
:104D20004A74A74A74B85B85DA7DA8DB9ECAFDCFBA
:104D3000DCFDCFDCFDBFDB753853A86B86CA8DA9BF
:104D4000ECAECAEDBFDC5435534325438658659716
:104D50005975975975975874975985974974974914
:104D60007486486486386486486466566566465428
:104D700055455465455465465454354344365501AC
:104D80000122887887432321665876432543986A11
:104D9000877636533213321111111101111101109E
:104DA0001101111101111111111111111101112113
:104DB0001321631631852853A74A74C86C86D97DA0
:104DC00097DA8DA8DA8DA8DA8DA7C97B9701001034
:104DD000110000000000000110100100010100217D
:104DE0001211221211A73A73A74A74B85B85DA7DB3
:104DF000A7ECAECAFECFECFDCFDCECAFDB853853C1
:104E0000A75A86CA8DA8ECAECAFDBFDB876543658D
:104E10004764864864975975975975975974975997
:104E200075974974864864864864863863874874F1
:104E300077577576576566566566466533343333FE
:104E400023333333334443334336658764329878AE
:104E500086876775A97A87874864432332111111C1
:104E60001101111111111101111101101101101174
:104E70001111110111110110531632742731953996
:104E800063A74B75C86C97DA8DA8DA7DA7DA7C9793
:104E9000000100010010111110000110000110109C
:104EA0000100000000211211210210A73A73A74A45
:104EB00074A85A85C96CA7DB9DCAFECFECFDCFDC78
:104EC000B98532752853A75A86CA8CA8DBADBAEDCE
:104ED000BEDBECBA9887587586487597597597590F
:104EE00075975874975975974974864764864864CE
:104EF00086486486486487587577677677677677DB
:104F00006675333433122111011000221111121170
:104F10001167778866577676554476576487487563
:104F200054244211122111111111111111111011DA
:104F300011111111111111101111112112116326EA
:104F400032742752853853963963B75B75C96C96AE
:104F5000C96C968645420101100000000000000067
:104F600000000000000000000000002112112112CA
:104F700000A74A74A74A74A85A85C96C97EB9EB9D2
:104F8000FDCFDCFDBFDB420421742752975A75CA5E
:104F90008CA8DB9DBAEDBFDBFDCFDB975975975928
:104FA00075975975974974875875974974974974D7
:104FB000763764974974864864864864974975775C
:104FC0006776776776122222555666AA9AA9BA9B07
:104FD000A9A98A98776786232233010122121454E3
:104FE00087644387687654243212112111111111FC
:104FF000111111111111111111111111122211118F
:105000001111111153264275275286486475375382
:105010007427429549645324322212211101100051
:10502000000000000000000000011000000000006F
:1050300000211210210210A74A74A85A85B85B8576
:10504000C96C96DA8DA8FDBFDBFDCFDC421532744A
:105050002742975975B98C98DB9DB9ECBECBFDCE34
:10506000DB875875A75A859759759759759759755C
:105070009759759749748648648748648648748749
:105080005975A74974886786121332998A98CB9C00
:10509000A9CB9CB9CBACBACB9CB9BA8BA8876664B8
:1050A000222222222222666665543432543543126B
:1050B00021211111111111111111111111111111C0
:1050C00011111111110111111111211311853853F1
:1050D00086486375385375375364264254254221F8
:1050E000122111011000000000000000000000016A
:1050F00011000000010000211211210320A74A74B1
:10510000B85B85B85B85C96C97DA8DA8FCAFDBFD11
:10511000CFDB532421642742975975B98C98DB9DC6
:10512000B9ECBECBFDBFDC875864975975974975BC
:105130009759759759759749748648648648648667
:105140004864874874975975974974885986221519
:1051500043CA9CA9CB9CB9CBACBADBADBADBADBA28
:10516000CB9CB9CA8B9887688712212111111266CE
:1051700054433323323440211111111111111111F3
:105180001111111111111111111011111111111110
:1051900021121186485396496486486475375375C1
:1051A0003753643642211211110110000000110022
:1051B0001000000000011011010000011021121167
:1051C000320532A84A85B85B85B86B96C97C97DBF7
:1051D0008DB8ECAFDBFDCFDC431421642742964948
:1051E00074B97C98DB9DB9ECBECBFDBFDB975875DD
:1051F0009759759759758648649759748648638698
:105200004864874874864864864864A85A869749E3
:1052100074975864BA9BA9CB9CB9DBADBADBADBA25
:10522000DCADCADBADBACB9CB9CA9CA9B98B98CC12
:10523000CABB1111113324443213322543541111C6
:10524000111111111111111111111101112211114D
:1052500022121111121121121175475496496486B8
:10526000486485385375375364364332121111112F
:1052700010000000000000000000111000000000FD
:10528000000110211211532753A85B85B85B85B923
:105290006B96CA7CA7DB8DB9ECAFCAFDCFDC42149C
:1052A00031642742864864B97B98DA9DB9ECAECA6E
:1052B000FDBFDB8758749759758748749759758770
:1052C0004974864874864864874974864974974946
:1052D00074975975974974975A75CA9CA9CB9CB90C
:1052E000DBADBADCADCADCADCADBADBACB9CB9CBA9
:1052F0009CB9CA8CA898799801111189A566443384
:10530000214655761111111111111111111111119F
:105310001111111112212212211111111111114318
:10532000375497596497596586486486475475374A
:10533000534323211111111101100000000000003E
:10534000111000000000000000211211753864A83F
:105350005A85B96B96B96B96CA7CA7DB8DB9ECAE52
:10536000CAFDCFDC421431642742864864B97B977A
:10537000DA9DA9ECAECAFDBFDB86487597597597D3
:10538000597597597597597597497497497486480F
:1053900064974974A85A75A75975A75A75B97B9827
:1053A000CB9CB9DBADBADBADBADCADCADBADBADBE9
:1053B000ADBADBADBADB9DB9CB9CA9CA7BA79AAAD3
:1053C000BB123134444554576798222111221111E0
:1053D00011111111111111111122111111121111AB
:1053E0001111221121221321975975975975964948
:1053F00064864864754754532432221111111110E8
:105400000000001111111100000000001001002126
:105410001211864864A85A85B96B96C97C97CA7CD4
:10542000A7DB9EB9ECAFDBFDCFDC42143163274232
:10543000864864B87B97DA9DA9ECAECAEDBEDB97CF
:105440005875975874975975A75985864864974930
:1054500074974974874874B86B96EB8EB7DA7DA75A
:10546000A75A75B97B98CB9CB9DBADBADBADBADB7B
:10547000ADBADCADCADBADB9DB9DB9DB9DB9DB9D57
:10548000B9CA8CA8A979871221127997885866879A
:1054900023212211111111111111111111111111C9
:1054A000122111111121121111121111111186491C
:1054B00075975975864864864865864864543542B0
:1054C00022122111011000000011111111111111EE
:1054D0001011000110211111963963B85B85B96B69
:1054E00096C97C97CA8CA8DB9EC9FDBFDBFDCFDCCB
:1054F000431432642642864964B87B97CA9CA9EC5F
:10550000AECAECBEDBB97975875875975974A85A3D
:1055100085974974974974975975974974A85B851D
:10552000EB8EB8FC9FC9975975BA8CA8CB9CB9DC97
:10553000ADCADCADCADCADCADCADCADBADB9DBAD32
:10554000BADB9DB9DB9DB9DB9DB9CA8CA8AA978748
:1055500011202224368735524422122111111111B3
:1055600011112222211112111111112212111111E6
:10557000111111114326438659759749649758654F
:105580008658656436432112111101100000000095
:1055900000001110000000001101101111119639C6
:1055A00074B85B85B96B96CA7CA7CA8CA8ECAECAE6
:1055B000FDBFDBFDCFDC421431642642864964A87E
:1055C0007B97CA8CA8DBADBAECBEDBDB9A9776473B
:1055D00064975975A85A85A85A869759749759752A
:1055E000975975974974B86C96EA7EB8A86A86CAC6
:1055F0008CA8DB9DB9DB9DBADCADCADCADCADCADE5
:10560000CAECADCADBADBADB9DB9DB9DB9DB8DB8A9
:10561000CA8CA8B97B9822211223313226647812D1
:105620001111111111222111222222111111111116
:105630001111111111111021111121122186497519
:1056400097596486597586586575364342232211E9
:1056500001100000000000001111110110111101D2
:1056600010111211973974B85B85B96C96CA7CA772
:10567000DB8DB9ECAECAFDBFDBFDCFDC421431647B
:105680002642864964A86B87CA8CA8DBADBAECBEFB
:10569000CBECACA8864874A85A86B85A85B86A85F7
:1056A000A74A75A85A84B85B85A75A75864974A815
:1056B0005B85A86A86CA7CA7CB9DB9DB9DB9DCADAA
:1056C000CADCADCAECADCAECAECADCADCADB9DB972
:1056D000DB9DB9DB9DB9CA8CA8C97C972203212325
:1056E0003133367367222221212222111111212206
:1056F0002211111111111111111111111111111189
:10570000111111864975975975975975875865759F
:1057100037534224221111101110000001111111F0
:1057200011000000100100111111973974B86B9627
:10573000B96B96CA7CA7DB9DB9ECAECAFDBFDBFD99
:10574000CFDC421421642642864864A86B87CA8C49
:10575000A8DBADBAECAECAECADB9974975A85A86CC
:10576000A85A85C85B85DA7DA7EB8EB8EB8EB8DAD0
:105770007DA6C96C96EA7DA7B96B96CA7CA7CB8C2F
:10578000B8DB9DB9DBADBADCAECAECAECAECAECAD2
:10579000ECAECADCADCADB9DB9DB9DB9CB8CA8CA27
:1057A0008CA8B98B9811101113425524335421122F
:1057B00022111111111222111111111111111111B6
:1057C0002222211111111111114327549759759754
:1057D000597587587576475453243211111011109A
:1057E000000000000001111111111101102212110D
:1057F000974974B86B96B97C97CA7CA7DB9DB9ECC6
:10580000AECAFDBFDBFDBFDB4214216426428648E1
:1058100064A86B86CA8CA8DB9DBAECAECAECAECA93
:10582000974974975975C96CA6FC9FC9FDAFDAFEFC
:10583000BFEBFEBFEBFD9FD9FDAFD9FB8EB8B96BB7
:1058400096CA7CA7CA8CB8DB9DB9DB9DC9DCAECA01
:10585000ECAECAECAECAECAECAECAECADCADCADB8A
:105860009DB9DB9DB9CA8CA8B97C9721021136522B
:1058700055143365221221222111212211222111D6
:1058800011111122122111121111111111111111E5
:10589000032197597497597597597586475453241E
:1058A000321101101110001111110001111110001D
:1058B000110110211221973A74B86B96B97C97CADE
:1058C0007CA8DB9DB9ECAECAFDBFDBFDBFDC42149A
:1058D00032642642864864A86A86C98CA8DB9DB9D2
:1058E000ECAECAECBECA975975A85A85FC8FC8FEA3
:1058F000AFEBFDBEDBFFCFFCFEBFEBFDBFDAFDAFC4
:10590000DAEB8EB8B96B96CA7CA7CA8CA8DB8DB8C7
:10591000DB9DB9DCAECAECAECAECAECAECAECAECEA
:10592000BECBECAECAECAECADC9DB9DB9DB9CA8C6D
:10593000A8B97A97687687488265221221222222A6
:1059400022222222211111122111111121121111D1
:105950001111111111111111865975975975976906
:10596000768648645435431111111111111111112A
:10597000111000111000111111221211A74A74B94F
:105980006B96C97C97CA7CA8DB9DB9ECBECBFDBFEA
:10599000DBFDBFDB421432642642864964A86A8676
:1059A000C98C98DB9DB9ECAECAECAECA975975A804
:1059B0005A85FC8FC8FEBFEBFECFECFFCFFCFECFBD
:1059C000EBFEBFDBEC9EC9C86C86B96B96C97CA7A1
:1059D000CA8CA8DB8DB8DB9DB9EC9EC9ECAECAECD5
:1059E000AECAECAECAECBECBECBECBECAECADCAD04
:1059F000CADB9DB9DB9DB9B97B975875767CC488A5
:105A00001211212112221112222221111111111120
:105A1000111111111111111111111111111144371D
:105A200065975975976976865865653643111111E2
:105A30001111110100111111111101101111112277
:105A40001210A74A84B86B96C97C97CA8CA8DB9DB4
:105A5000BAECBECBFDBFDBFDBFDC43143164264294
:105A6000964964A86A86C97C98DB9DB9ECAECAECFD
:105A7000AECAA86A86A85A85DA7DA8FDAFDAFEBF4D
:105A8000EBFECFECFEBFEBFCAFC9CA7C9797597514
:105A9000A86B86B97C97CA8CA8DA8DB8DB9DB9EC67
:105AA0009EC9ECAECAECAECAECAECAECBECBECBE44
:105AB000CBECAECAECAECAECADC9DB9DB9DA8CA8B2
:105AC0005647877CC7BB3421223222221112112271
:105AD000222222222211111122111111121111114F
