:020000040000FA
:100000000EEF34F0120FF66E000EF7220900F550D5
:10001000120076676666666666666666666656752A
:10002000674674674783683573572472571580583D
:10003000047047036035025025014014014004104C
:10004000410500401502603603602501501501503E
:10005000250250360370370370370470370360365B
:100060000350350350350250240240240360360407
:100070006046047047048048047048059069069003
:100080005905905905805805805705805805906995
:1000900006906906A06A06905804704712511387AB
:1000A00069870001130130230230240360350360A7
:1000B000360360360360360250250120020010012D
:1000C0000010020230230230230240240350350383
:1000D0005025025024024024456456456456356339
:1000E0005624624614724715715804703602602512
:1000F00002602603603601501501401400300301F0
:100100003013002002002003013013025025036049
:1001100035025025025025036036047047047047AD
:1001200004704704604603503503503502402401F3
:10013000401403603604704704704704804803701D
:1001400048069069059059058058058058058058E3
:1001500005806806906906906906906A05904804D3
:100160007047457768A88B994332010230130350DA
:100170003503503604604604604604603501301390
:10018000002001001001012012024024024024023C
:10019000402402402401401402302302402415610F
:1001A0004614614603503503503514714715815884
:1001B00003603602502503503503503501401401C9
:1001C00040130130130120120120120120120130CE
:1001D0001302403504603602502503503504604751
:1001E0000470470470470470470470460360360388
:1001F00060350250240250350360360460470470B5
:10020000470480370370480590590480480580589A
:100210000580580580690690690690690690690610
:10022000A06A048047047047878A9A988A99A888A8
:10023000651230230360360460360460460460466D
:10024000024024002002001001012012023023028B
:1002500040240240240230130130130140230230B5
:10026000230230240450450461460360360360369F
:100270001471471580580470360350350350360406
:100280006046024024023023023013013013023052
:100290002301301301301302402504604603603609
:1002A000047047058058058058048048047048044D
:1002B00070470460360360360350350360360460CF
:1002C0004604704704704703603603604705805852
:1002D00004805805805806906906906906A07A0641
:1002E000A06A06A07A07A07A048048047047989B09
:1002F0009A98AA9BCBABA9122122045046036036E0
:100300000460460250140030020120120230230320
:1003100040240340340240231231131120110120E4
:1003200023034034034034024024035045146156F3
:1003300015715604604625725805804703603604DF
:1003400060460460460470470250250230240230A3
:1003500013013013024023024024013024024035AF
:10036000047047047047057057058058058058058C
:100370008058057057047047047047036036046066
:1003800046036036046047048058048048036026B2
:1003900004704705805805805905806806906906F5
:1003A000A06A07A07A07A06A07A17A06A06904805C
:1003B00058047047A9BA9BBAABAACABCBB677456AB
:1003C000035046035046025024013003003013020C
:1003D0004024034034034034024024223323322299
:1003E00012112112034035035035035035034034B8
:1003F00003504515725726826715715725725804A8
:100400007047047046046046046057047047025009
:1004100024024024014013013013024024035034CD
:100420000240240350350570570680680580580542
:1004300080680690690590590580580480580470BA
:1004400047046046058058036037047047047048CD
:100450000470470360360470580680690590590798
:10046000A07907A07A07A17B07A17B07A07A07A044
:100470007A069069048058037037CACBABBABBBC0C
:10048000BAACBB66655603504603502401300301E5
:1004900030130230240350350350350241343233D7
:1004A00023423423211112023023045046046046B3
:1004B0000350350330330350451572573683682691
:1004C000826825825804704704705705705705707C
:1004D0005704704703503503403401301301301383
:1004E000024024035035034034035035057057064D
:1004F000917906805806907906A06A069059059071
:1005000059058058047047046047058058037037C8
:10051000047047048048047037036047058068060C
:10052000906906906A06A07A07A07A07A17A17B1A7
:100530007B07A07A07B07A0690580480470360369C
:10054000CACBAB78A99BBBBBBB5546551241250016
:100550003003013013034034045035035035134148
:10056000344444445345342222220220230450457B
:10057000056046047046045035023023035035159B
:1005800072573683683793783692690470470570DE
:100590005705805705705804704703603503403590
:1005A000013003013013024024035035035035035A
:1005B000603604705817917917A17917A17A07A0AE
:1005C0007A0590590590590580590580471571584D
:1005D0000580580470470470470370470260250285
:1005E000613625826916916917A06A07A07A07A06B
:1005F0007A18B18B17B17B17B07A07B07A0590588B
:10060000047047025025CAB98945878BCCCCBB649E
:100610004544102103003024034045045046047033
:1006200047146246445555654645323333134034CA
:10063000035045057057056056046035035024018A
:10064000201203504625726847947958A48A47A31C
:100650006914814705705815815805805804704702
:100660000360350360360030030230230350350445
:10067000604604704604605617A17A28B28B18B100
:100680008A07A17B07B07A06A06A0690690691687E
:10069000457457346346146046036046036036026F
:1006A000502400110161271372673646836917A130
:1006B0007A17A17A18B28B38B39B18B18B18B18B0B
:1006C00018B17B06805805805802400277721200EC
:1006D0004125A9BBBB9776545563451570570570E6
:1006E0005705705625725666656644444412312398
:1006F00003403404604604605605605603603602C9
:1007000050240120120010010350451672684894CD
:100710008959A48A47A47A46936815815826926914
:1007200005805704704703603603603500300302CC
:10073000302303503505705705705727827927A25B
:100740008B17A28B28B28B07A17B07B07A06A06A11
:1007500006A06A25835855743600300302402402EF
:1007600040250250250030023005008009119249D1
:100770003476766838A38B29B29B39C39C39C4ACD4
:1007800029C29C29C18B29C28B069068058057001D
:100790001211233001003003AACAABCBA988888686
:1007A00067168168057057256357346456234234B1
:1007B000023024035035046046046046036046035B
:1007C00050350140140030020010010000010340C8
:1007D0003526726848A48A59B59B48A48A58A58AC8
:1007E0002682693693790580580570570470360360
:1007F00050250130130340340460460570571682BB
:100800007938A38A27B28B17A17B38C38C17B27BA8
:1008100017B17A16A16A26926935845721411300CF
:1008200020010010010020020020020011005006EB
:1008300000A11A2293393395585667A48A39C29C6D
:100840003AD3AD3AD3AD3AD3AD18C18B29C29C058A
:100850008058047036877BA9113002002002559819
:100860008BCBBBAA977989457357256256135135AF
:1008700001301301402403503504604604604603F0
:1008800050250250140140140130130110110000D2
:100890000000000003404526726748A48A59B58BC2
:1008A00048A48A59A59B48A48948A48A158158154B
:1008B00081570470370250350130130340351561FC
:1008C0005727926837938A38A38B28B28B27A27B4D
:1008D00039C39C28B28B28B28B38A38A468468120D
:1008E0005114002001000000000000000000000082
:1008F00000100200700700B22B22B42A32A459550E
:1009000054644729C29C39D39D2AD3AD29C29C186F
:10091000B18B28B18B037037014013ABAABA0030FA
:1009200002000001004125BBBBBA876A98545445B8
:100930000240240020010130130450460560560493
:100940005035025025014004014014024023033079
:100950003302102100000000000024524536736865
:1009600047A47A58B47A37A48A59B59B69B59B488D
:10097000A48A369369368368147047024134124161
:100980003434535647847837948959B59B49B49B7E
:1009900049C49C39C38C4AD5AD4AC4AC39C39C48C0
:1009A000B48B3472360020020010010000000000F9
:1009B00000000000000000200300810900B21B328B
:1009C000C54C54A3493462463515915A39D39D29F3
:1009D000C3AD18C17C06C05B0390171151041021F0
:1009E00002557457003013000001002003ABCBBC4C
:1009F000998887311211001001001001134034044E
:100A0000504502502501402401301301401402409A
:100A1000250450450440340220110000000000006D
:100A200046746657957958A68A68B57A57A58A5943
:100A3000B69B69B69A69B69B79A79A6895894783E8
:100A4000675665663663676896897AA7AA6AB7AB00
:100A50006AB6AC6AC6AC5AC5AC4AC4AC5AD5AC5A34
:100A6000C5AD4AD49C46A4591140030010000000B3
:100A70000000000000000000000000010040050030
:100A8000900900C33C33C54C54C44C558117110028
:100A9000300403914A04A14B017016006006004027
:100AA0000420120086654510242420120010010045
:100AB000001002457679BBCAAA876643100101116E
:100AC000111102302401401302402402402402404C
:100AD000340340340560560560560350340110005D
:100AE00000000000000057858968969A8AB8AB8993
:100AF000B8AB8AB8AB8AB9AB9AC9BC8AB8AB9AB959
:100B0000AB8BB8BB6AB69A8BB7BB6AB6AB9BB9BCAA
:100B10009AB9BB8BC7BC6BD6BC6BD6BD6BC6BD5A76
:100B2000D4AD5BD5BD6BD6BD57B45A41630400103C
:100B300000000000000000000000000000000000B5
:100B4000000100700700A10A10C32C33C55C66C504
:100B50005C65B54B536005002002000020030010C7
:100B600001001001000000AAAEDD21232366766794
:100B7000987A8741041030020000300388ABBCBB78
:100B80009BA8221211432533222122133033045013
:100B90004504604503503504604604604604503403
:100BA0000130120000000000000000005896898902
:100BB000A89AAABAABABBABBAAB9ABABBABB9BB942
:100BC000BB9AA9ABABB9BBABB9BC6AB6AB8BC8BC63
:100BD0006AC7ACBCCCCCDCCDDDACC9BC7BC7BC7BB4
:100BE000D7BD6BC6BD6BD6AD5BD5AD7AD69C336237
:100BF000261021020000000000000000000000009C
:100C0000000000000000200300700800B21B21C398
:100C10003C33B54A44A55A56A55A55A439326115F4
:100C200000100100001001000000000000DCCEDD1B
:100C3000223334434334557789AA9A985324102099
:100C40000101102102888AA95436546546651101B4
:100C50003223312202302402402402302301301397
:100C6000013014012002001001000000000000000B
:100C7000000068A68A89A9AABBBAABBBBBBBBBBB39
:100C8000BBABBABBABBABBABBABBABCACCABC9BCD8
:100C90006AC6AC6AC7BC7AC8ACCCCDCCEDCEDCCDD4
:100CA000CBCC9CC9BC8BC8BC7BC7BC7BD6BD5AC552
:100CB000AD459549215113001001000000000000CE
:100CC0000000000000000000000000003004008070
:100CD0000900B21A10B33B34A44A45512412845877
:100CE0004584484483272140030010000000000091
:100CF000000200FDDECC5465355354343242146694
:100D0000977AAAAB9954365366665699999955576E
:100D1000667764331110100000000010010010010C
:100D2000001101001001001001001001000000007E
:100D3000000000000000000058A68A8AA9ABAAAAF9
:100D4000AABBABBABBBBBBCBBCBBBBBBBBCCCCCCD1
:100D5000BBCBCCABBACC7AD6AC5AB6AC8AC9ACDC7D
:100D6000CDDCEDCEDCCCCBCCACCACDACDACD8BC8F7
:100D7000BC7BC7BC6AD7AD437326002001000000CE
:100D80000000000000000000000000000000000063
:100D90000100400500900A00B21A21A33A33B55968
:100DA0004452241220230252363383272151051046
:100DB000100000000000100200DCCAAA646646644D
:100DC0006856523523305416A9BA9A6656658887F4
:100DD000887887876666664222002002001002003B
:100DE0004005003004003003002002001001000024
:100DF000000000000000000000000000000048A407
:100E00008A79A8AA9AA9AABBBBBACBBCBBCBBDCBDB
:100E1000CCBCCBCCCCCCCCCBCCACBACB8BD8AD5A1D
:100E2000C6AC8AC9BCDDCDDCEDCEDCBCCBCCACCA5B
:100E3000CCACCACC9CD9CD8BD8CD58A46922501348
:100E400000000000000000000000000000000000A2
:100E50000000000000100100500600900A00B31AC4
:100E600021A43A4394384352230110110020020078
:100E70004005014104100000000001001008669ABE
:100E80009112647647768869B889664145148689E7
:100E900089333333545545988989A999986657659C
:100EA00043253276565372082062061051050030F1
:100EB000030010010000000000000000000000001E
:100EC0000000000048A48A69A69A7AB8ABBBBCBBF4
:100ED000DBBDCBCCBCCBCCBDCBCCBCCCBCCBCCACB5
:100EE000CACC9BD9BD7BC7BCACCACCCCCCCCDDCDED
:100EF000DCBCCACC9CD9CD9BC9BC8CC9CD8BD69B44
:100F00002262150010010010000000000000000027
:100F10000000000000100100200100000100500648
:100F200000A00B10C32C33822712955A66823933E6
:100F3000200200000000000000000000000000107F
:100F40000200ECBFDD556656758868979979B9AB94
:100F500099977B88644655888898899AA987798863
:100F6000A98876433544766776888788997865417D
:100F7000040020020010010000000000000000003A
:100F80000000000000000000000058B58B58A59A32
:100F90007AB8ABAABBBBDCBDCBBBBABBBBBBCBBCC3
:100FA000CBCCACCACC9BC9BC9BC9BC9BC9BC8BB9C4
:100FB000BCABCABCCDCCCCACCACD9CD9CD9BC9BC3A
:100FC0008CD7BC56A23700300200000000000000A1
:100FD0000000000000000000100100300400500478
:100FE00000100100400500A11A21C33C33A23912B0
:100FF0008339448449556215001001000000000047
:101000000000000000200200FDCDDC6566579699C7
:1010100079A89A8ACABCABCBBBAA77689843353407
:10102000858869778889998AB9875866545555663D
:101030007445999888664320110000000000000064
:1010400000000000000000000000000000000000A0
:1010500058B58B69A69B7AB7AB9ABAABBBBBBB9BA7
:10106000B9AB9BB9BB9BC9BC9BC9BC8BC8BC8BC96A
:10107000BCCCDCCD9BC9BCABCBCCCCCCCCBCCACC27
:101080008CD8CD8BD8BD7BD69D2272260010010056
:10109000000000000000000000000010010030040B
:1010A0000060060080070030020010020070182265
:1010B000B33C43C65B436016017346337328424119
:1010C0000310200200100100000000300855EDCC94
:1010D000CC66776897AA7AA9AA9ACBCCBC9998884B
:1010E00087777798764481482574685798898886E9
:1010F000687778777742331242454545545300006C
:1011000000000000000000000000000000000000DF
:1011100000000000000079A79A79B7AB79B79B9AD5
:10112000BAACABBABB7AB7AB8BC9BC9BC9BC9BC9C9
:10113000BC8BD8BDABCBBCDDCDDCCCCBCCBCCBCC65
:10114000DDCDDCBCCABB9CE8CE6BC6BC45B3390167
:10115000301300100100000000000000000000003B
:1011600000200300500500800800900A0060040081
:10117000000000300500A43B54D66C659327105046
:1011800004005225225215114103001000001003E3
:1011900011CA9FDCAAB657758768A8AA8BBABCACDF
:1011A000CBBCCC878A99876855BAAA99844833956D
:1011B0005A55A66A66955966655666543754633320
:1011C00001111111000000000000000000000000EB
:1011D0000000000000000000000000007AA7AA8ABA
:1011E000B7AB8AB8AC9ABABC9BB9BB7AC6AC7AB773
:1011F000BC9BC9BC9CC9CC9CC9BCCCDDCDEDCEDCB4
:10120000EDDEDDCCCCDCDDDDDDADD9CC7BC7BC8C4F
:10121000E7BE016015002001000000000000000092
:101220000000000020020040050070070090090047
:10123000A10B10921610000000100200501722B6E9
:101240006C66B76B65400400300200311310310347
:1012500010200211100100FDDFDD54633586997AFC
:10126000B9BB9BCABCBCDCCDCC988A99977955A6F2
:101270007A77CA9A98745966A76A76B76A76765565
:1012800044898998976865200100000000000000EB
:10129000000000000000000000000000000000004E
:1012A00000008AB8AB8AB8AB8AB9ABABBABB9BB902
:1012B000BB7AC6AC6AC6AC7AC7BC9CC9CCACCBCC3A
:1012C000DDCEDCEDCEDCFDCFDCEECDDCDDDCDD7BB0
:1012D000D7BD7CD7CD36A138013012000000000008
:1012E0000000000000000000000040050070070042
:1012F000900A00B10B20C31C32B32C431001000034
:101300000000100100512723A67A67B66B665003D0
:1013100000100000100100100100000888EDDEDD63
:10132000657657879879CABCACDBCDBCEDDBAABA31
:10133000BBBB765977B66B66965965855A88DCAD26
:10134000CAEB9EB9ECAB8655666778767566444203
:10135000000000000000000000000000000000008D
:1013600000000000000000009BB9AB9AB9ABABBA1B
:10137000BBBBCBBC9BB8BB7AC7AC6AC6BC6AC6ACAD
:101380008BC8BCBCCCCCDDCEDCEDCEDCFDCFDCDD57
:10139000CDDCBCCABC7BD7BD6BD6AD0270260010BD
:1013A000010000000000000000000000000000003C
:1013B000500600800900B10B10C31B31C43C43C46C
:1013C0003C442001000000000000003023014236B0
:1013D00044A76955632410000000000000001111AB
:1013E000001BBBECCEDD65654697A98ACBCDBCDB87
:1013F000CDCCEDDBBADCDCBC987A77B88D99E98F7F
:10140000A9BA9BA9DCBDCBECBECAECACA743533454
:101410008889984435530000000000000000000057
:1014200000000000000000000000000000009BB968
:10143000AB9BB9ABABBABBBBBBBB9BB8BB8BC8BC94
:101440007AC7AC6AC6AC8AC8BCACCBCCCDDDDDED0E
:10145000CEDCEECDDCCDCCDCDDDCDD6BC7BE47B059
:1014600027015014000000000000000000000000F0
:10147000000000000100500700A10A10B21B21C3A8
:101480002C33D43D43D54D555003000000010000DE
:101490000000000010120262463453353310010080
:1014A000000000000000533DBBEDDEDD64554697B3
:1014B000A98ACACCBCCBCECCCCB888DDDDCCA8798F
:1014C00066A87B98C98B98976987DCBDCBECBECBAF
:1014D000ECBDC9755543345455887564000000004F
:1014E00000000000000000000000000000000000FC
:1014F00000000000ABB9BB9BB9ABABBABBBBCBCC5C
:101500009BB9BB8BC8BC7BC7BC7BC7BC9BC9BC9C05
:10151000C9BC9CCACCCDDCDDACCACCBCDBCDDDDD2E
:10152000DD8BD7BE037127003002000000000000F1
:10153000000000000000000000000100400600A2C2
:101540001B21C32C33D43D43D44D44D54D54933546
:101550001000000000000000000000000020120148
:10156000211221000000000000001111CAAFDDEDC2
:10157000DECC64653687A98BCBDDCDDCDDCCBAA6AD
:1015800055FEEDCC987987BAABAABAACBB999A99BB
:10159000DCBEDCEDBECBFDBEDCA8775421211223DE
:1015A00043540100000000000000000000000000A3
:1015B00000000000000000000000ABBABB9BB9BBFC
:1015C000ABBABBBCCBBC9BC9BC9BC9BC8BC8BC7BEE
:1015D000C8BCACD9CC8CC8BC8BC8BC8BC8BC7BC8C5
:1015E000BC9CDACDCDCDDD6AB48A02601500100056
:1015F00000000000000000000000000000000000EB
:101600000000200300A32B31C43D43D54D54D54DDC
:1016100054D44D44C43922100000000000000000E2
:1016200000000000000000000000000000000110A9
:101630002112DBBFEDEDDDBC646646657657CBDB82
:10164000ACDCDDDEAAA666EDDEDD987987A89A8996
:10165000BBA776978A99EDCFDCEDCECCDCBBA9A9F0
:101660007A87100201011000000000000000000055
:10167000000000000000000000000000000000006A
:10168000ABCAAB9BB9BBABBABBABBABBABBABC9C2E
:10169000C9BC8BC8BC9BC9CCACDACD9CD9CD8CC79E
:1016A000CC6BD6AC6BC6BC7BE8CDDEDCDC8CD7BDAE
:1016B0002261150100100000000000000000000081
:1016C0000000000000000000000000833B55D54DE5
:1016D00054D54D54D44D44D44D44C33C3330020012
:1016E00000000000000000000000000000000001F9
:1016F0000010112112212313FEEFFEDDDA9A657628
:101700005787897986897875765799B9ABBBBDCDEE
:10171000DBADAAEABDAA766322E8AC89ECCECCECBC
:10172000CEDCBA9B99876987100100000000000099
:1017300000000000000000000000000000000000A9
:10174000000000000000ABCABB9BB9BBABBABBAB8F
:10175000BABBABCABCACCACC9CC9CCACCACCACCAB8
:10176000CC8CC8CD7CC7CC7BD6BD7CD6BC6AC6BC75
:10177000CEEBDD68B35821421300000000000000EA
:101780000000000000000000000000000000000059
:1017900000300711C44D44D44D44D44D44D33C33A0
:1017A000C22C2240030000000000000000000000E6
:1017B0000000000000011011223333323312EDDE3D
:1017C000DDDCD88965865897A98AB9AB9A64553407
:1017D000878999778BABDCBCBAECBDBB654977EAEE
:1017E000BEBBFDCFDCDCBEDCBAABAA988988532136
:1017F00000110000000000000000000000000000D8
:10180000000000000000000000000000BBBABB9B0D
:10181000B9BB9BC9BB9BB9BBACCACCACCACCACCB2B
:10182000CCACCACCACCACC8CD8CD7CC7CD6BD6BD29
:101830006BD6BD6BD6BC8CE8BD326426402301005C
:101840000000000000000000000000000000000098
:1018500000000000000000100200C55C44D44D44AC
:10186000D34D34C23C23C21B1160040000000000B1
:101870000000000000000000000000001001223203
:1018800033555645A99BABAAB76864765897A98A81
:10189000CBCDBCCAAB88755654555656DDCDCCDB86
:1018A000ADCAECBDBAFDCFDCFDCFDCEDBFDCA98855
:1018B00088989A9998743201001000000000000086
:1018C0000000000000000000000000000000000018
:1018D0000000BBBBBB9BB9BB9BC9BC9BB9BCABCA23
:1018E000CCBCCBCCBCCBCCACCACC9CD9CD8CD8CDD1
:1018F0008CD7CD49C39C5BD5BD6BD6BD59C58C413A
:10190000441250050010000000000000000000001C
:1019100000000000000000000000000000000100C6
:10192000A44B55C44D44D33D33C22C22B11B10806F
:10193000060000000000000000000000000020126F
:101940000010010011212366876887876765764646
:1019500075875797A97ACACCBDDCCDCB866A9843E8
:101960003445AABCCDCBBDCCECBEDCEEDEEDDCBE9E
:10197000CBECBFDCA88866BAAAA9A98876100000BB
:101980000000000000000000000000000000000057
:101990000100100100000000BBBBBBABB9BB8BC892
:1019A000BC9BC9BCABCABCBCCBCCBDCBDCACCACC31
:1019B0009CD9CD8CC8CD8CE7CE49C38B49C5AD5CD5
:1019C000C6DD24A228511611711711100000000065
:1019D0000000000000000000000000000000000007
:1019E000000000100100400833B34B33C22C22C169
:1019F0001C11A00B00800700100100000000000077
:101A0000000000001002005214110000014465465D
:101A1000AAB99A86786775676797A97ACBDCBDDC27
:101A2000CEDCCAACAA65443276788988999ADDDE24
:101A3000EEDBBBAAECCEDCECBFDBCA8B98A99BAA81
:101A4000A98987310100110121454332200200108C
:101A50000200200200300300200200100101BBBB85
:101A6000BBABB9BB8BB8BC9BC9BCABCABCCCCCCCE8
:101A7000BCCBCCACCACCACCACD9CD8CD7CD6CD49E5
:101A8000C38B49C49C7BD59B3164157008118108B8
:101A90001110000000000000000000000000000025
:101AA000000000000000000000100100400500914F
:101AB0001A22B21B11B10B10A00900700600100110
:101AC000000000000000000000000001105334225C
:101AD00000000100211388AA9BA9AA9A977867A7FA
:101AE0009A7ACACCBCDCCEDDDCCDCCA98644555676
:101AF00066777888777777988CBBFDCFDCFDBECB97
:101B0000DCAB98AA9AAABBBBBA421310300411747A
:101B10003632500611822722721720720621510494
:101B200010100100CBBCBBABCABC8BB8BB9BC9BC03
:101B3000ACCACCBCCCDCCCCCCCBCCBCCACDADD9D48
:101B4000D8CD6BD6BD39C38B48B59C54943771281A
:101B500011A11A11921821100000000000000000CD
:101B60000000000000001001001001001001003012
:101B7000040040040050060070080090090080082E
:101B800000600500200100000000000000000000CF
:101B9000000000101100000000000001324325BACF
:101BA000BCCDCBBBAA978978BACBBCCBCDDDDCDD75
:101BB000CCEDCDCC766988B9AB99DDCDDCFEDEDC31
:101BC000EDCEDBFDCFDCCA9DCB87787754543476DD
:101BD0006875B86A75974975964A6585385363166E
:101BE00031520410200200000000CBBCBBBCCABCB8
:101BF0008BB9BB9BC9BCACCACCBCCBCCCDCCDCBC00
:101C0000CBDCACD9CD7CC7BC6CD6BD4AC39B69B517
:101C10007A527726911911A21A2182172100000009
:101C20000000000000000000001001002002003051
:101C3000020010020040050050040030030050056F
:101C4000007008007007006005002001000000001F
:101C50000000000000000000001001000000000073
:101C60000000101102657779CCCCDCBAAA9A889969
:101C70009ABACBBBCCDDDEDDCDCC655767A89CAB7B
:101C8000A99998BA9DCBEDCFDCFDCEDCFDCEDCBAB8
:101C90009B99312644978977965965753754422325
:101CA0002232132020020020010000000000100159
:101CB000CBBCBBBBCABC9BB9BCABCABCBCCBCCBC51
:101CC000CBCCCDCCDCCDCBDC9CD8CD6CD6CD7BD7F2
:101CD000BD6BD5AC68D67B814924A22B22B21B21D7
:101CE00083273210000000000010010010010030B6
:101CF000040040050050040020020050050050057B
:101D0000002002002003006006007007005005005C
:101D100020010000000000000000000000000000A2
:101D20000000000000000000000000213324CBDC94
:101D3000BDBCBAA9335436445446879779AABBBC74
:101D4000BBA988AAAAAACCBEDCFDCFDCEDCFDCFD06
:101D5000CEDCFDBFDC888999AA9987866877322214
:101D60001020120000000000000000000000000031
:101D7000000000000000CBBCBBBBCABC9BB9BCAC24
:101D8000CBCCBCCBCCBCCBCCCCCCDCCDCBDD8CD7CA
:101D9000CD6BD6BD7BD7CD7CD7CD68B66AA24B3490
:101DA000B32C32C43B32A3282110010010020030B2
:101DB0000300300400600600600600600600300387
:101DC00000600600600600200100000000300400F2
:101DD0006006005004002002000000000001000026
:101DE00001100010000000000000000000000000D2
:101DF0000033443554688A555001425425545535B2
:101E0000546546556556778777788789DDDDCCED53
:101E1000BEDCECBEDCFDCFDCFDBEDB443444888997
:101E200099CBCBAA544877100100000000000000B5
:101E3000000000000000000000000001CBBCCBABA4
:101E4000BABBABBABBBCCBCCACCACCACCACCCDCC8D
:101E5000DCBDCBDC8CD8CD7CD7CD8CD8CD7CD6BDB1
:101E600088B869B24C33C32D43C44B339218320047
:101E70000000300400610610600600800800810840
:101E80000070070040040060060060060040020089
:101E90000000001002004005004003002001000087
:101EA000000010020054310000000000000000009B
:101EB00000000000000000667667224436003225EC
:101EC00032443454555654654644543522333343D2
:101ED0005435BABBABEDDEDCEDCECCFDCFDCEDCEC8
:101EE000DC876755211322655655AA988710010093
:101EF00000000000000000000000000000000000E2
:101F00000000BCBBBBABBABBBBCBCCCCCCCCACCA53
:101F1000CCACCACCACCBDDADC9DC8CC8CD7CD8CDCB
:101F20008CD8CD7CD7CD98CA6AC44D44D54E64A513
:101F30005B55C86EC9DEDBBB411611A21A109109B0
:101F400000A00900900900900900500500700700EA
:101F50007007006005001000001001002003003031
:101F60000200100100000000500500DCCCBB0000A6
:101F70000000000000000022211100000089956689
:101F80002331220120121231233353354465464454
:101F90006445434324634956977B99DCCEDCDCBD22
:101FA000BAFDCEDCEDDBAA777788988AA999889765
:101FB00032142110010000000000000000000000A9
:101FC0000001100100210321BBBBBBBBBABBBCCBD2
:101FD000CCCCCBCCACCACCACCACC9CC9CC9CC9CCEC
:101FE000ACDADD8DD8CD9CD8CD7CD7CD86AA69D58D
:101FF0005D55E54E64A44B55C75EB9DDDEEE2004A9
:1020000001A21B11A10A10B10B10A00A00A1091016
:1020100050050070070070070070060010010000F6
:102020000000100200200200100100100100500703
:1020300033CBAECC000000000000000000222222C2
:102040000000009AA66634412201201201301301DB
:102050003124225235346446334434C9AD9AB99A96
:1020600088BAACBAECBECBEDCFDC877444234345D1
:10207000556667899676665543100100000000009A
:102080000000000000100100211311643654BBBB96
:10209000BBBBBBBBCCCCCCCCCCCCBCCACC9CD9CCF9
:1020A0008BC9CDACDADDBDDBDD9DD9CD9CD9DD8C16
:1020B000D8CD869A68D55D65E65E65A44B45E87F18
:1020C000C9DEDDDD767534A22B22B10B10B10C1008
:1020D000B10B10B10A106005007108108008007083
:1020E0000700300200010000000100100100100094
:1020F00000000200611A76411C8900000000000007
:10210000000000111222000000999677122122018E
:10211000201212312302312301301312422443448E
:1021200034A78C99DBBCAAECCEDCECBEDBEDCEDDBB
:10213000211111234244112112233243333333003E
:102140000000000000000000100210422432653739
:1021500043864864BBBBBBBBCBBBCCCCCCCCCCCCD0
:10216000BCCACC9CC8CC8CC8CD9CDACDBDDBDD9D77
:10217000D9DD9DD9DD8CD8CD979B78D65D66D65DAF
:1021800066944944FA8FDACDCDDDEEFA9AB33C334A
:10219000C21C21C20C20B21B20B10B1070060081A2
:1021A00008108108007007005003000000000000C4
:1021B00000100100000000000000843A767119440C
:1021C000231000000000000000010122000000991F
:1021D00098881222331232332332331331221121E1
:1021E00012012012323433845845DBACBAFDDECC08
:1021F000EDBEDBDDCAA9212111122122010111232B
:1022000030110001110000100000001102105326CF
:1022100042753754754753864865BBBBBBBBCBBCC7
:10222000CCCDCCCCCBCCBCCBCC9CC8CC8CD9CD9C95
:10223000D9CDADDADDADDADDADD9DD8CD9CDA8AB48
:1022400079D66D66D65D65844722EB8DC9DEDDEDFE
:10225000EEEDDDA35C34C31C31D30D30C21C20C2B3
:102260000B2070060091091081091080080060059C
:10227000001000000000000000000000000010003E
:102280007437327006008770000000000000000004
:10229000001100000098999933423333433434439A
:1022A00045234234023022022012534744855855B8
:1022B000B88A67EBCECCEDCEDC776110121111013C
:1022C0000010121221011011000000100100210362
:1022D0002154254264264275375485475486486404
:1022E000BCBBCBCCCCCCDCCDDCCCCCCCBCCBCCAC60
:1022F000D9CD8CD8CD8CD8CDADDADDBDDBDDADDA76
:10230000DD9CD9CDA7AB69D55D55D55D54844621FB
:10231000DB8DDAEDCEDDFEDFEDA56B44D42D42D4AE
:102320001D41D31D31C31C31700600921911900953
:10233000008008008008003002001100100000003A
:10234000000000000000532732E98FBAAA9333003F
:102350000000000000000000100000AAA77734422F
:102360003356656756656634434423312211111193
:10237000855944A55A65965854755655BAAA991167
:1023800013331211210100103312202312213213B2
:1023900021542542542642642642743743754854DA
:1023A000754854864864BCBCCBCCBCCBDDCDDCCC02
:1023B000CCCCBCCBCCACCADD8CD8CD8CD8CDADDAF6
:1023C000DDBDDBDDADDADD9DDACE969B68D55C55F3
:1023D000C44B43623622DCADECFDDFEDFEDFEDB732
:1023E0008C56E43E43E42E42E42E42D31D31800756
:1023F00000A11A11A10A10900900900910600400B0
:10240000110100000000000000000000744EAAC985
:102410008A76CBA8870000000000000000001110A1
:102420000099966634433488978867767746645572
:10243000123022010111845955B66B66A659658781
:102440007A991001001121122322212113225325F0
:1024500032431431542542542542642642642743B2
:10246000743743754754754754864865BCBBCBCC1D
:10247000CCCCDDCDDCCCBCCCCCCCCCACCACC9CD8D0
:10248000CD8DD8DD9CCADCBDDBDDADDADD9DDADECD
:10249000858A57B44B44A32A22623400CC9CDBFECD
:1024A000EFEEFEDFEDB79B56E43E43E53E52E42EF1
:1024B00042D41D41810810A21A21B11B11B11B1178
:1024C000A21A218215002003101001000000000054
:1024D0000111522955DA9B76CA8887000000000056
:1024E00000000000000111777344334344ABB9AAE4
:1024F000678678567355022022000111522623B7B1
:102500007B76C97C9897787633232222322389867A
:102510005431152262261153153153153154254279
:10252000642643642642753743753754754754769D
:102530004865BCBBCBCCBCCBDCCDCCCCCCCCCDCCE7
:10254000DCBDCADC9CC9CC8CD8CD9CC9CCBDDBDC45
:10255000ADDADDBDDBDE758947B33B328227216111
:102560001500EC9EDBFEDFEEFECFFDCABB78E64F2A
:1025700064E54F54E53E53D41D41A32810B21B20FF
:10258000C42C42B43B53A43B438315103006222095
:102590000200000000000000200300932821965450
:1025A000320000000000001001000004434556679F
:1025B000445445BBCBBB7896773444550220120077
:1025C0000000100211855966CAAB99766666665698
:1025D00055100100766654987A98A98A9865264124
:1025E000531531542542642642642642753753758B
:1025F0003754754754754865CCBCCBCCBCCBCCCCE0
:10260000CCCCCCCCCCCCCCBDCBDC9CC9CC9CD9DD4F
:102610008CC8CCADDADDADDADDBDDBDE758948A373
:102620002A22621621600610FD9FDBFEDFEDFEDF31
:10263000EDEDDCAAE76E65F64E64F54E53E42E42EE
:10264000C32A11D64E64F97E98955954A55A545010
:1026500005214005104003000000000000001002AA
:102660000061194363310000000000000010020007
:10267000211998667778445444BBCABB667788456D
:1026800053550110110000000000013224233122B3
:1026900012667777554666BBABBAAAABBACBACCB62
:1026A000BA9AA9BB898553153254254264264264DF
:1026B0002642753753653754654643754755CCBC3C
:1026C000CBCCBCCBCCCCCCCCCCDCBDCBDCACC9CC6F
:1026D0009CC9CC9DD9DC8CD8CD9DD9DDADDADDBDD2
:1026E000DBDE647737822712411311400510FEBFED
:1026F000ECFEDFEDFFDFEDFFEFFEA67C77F65F641B
:10270000F64F54D43E53D75B54FCBFBBDBBDBA87F6
:10271000676421020020086730040083272110002D
:102720000000000000010030020000000000000076
:10273000100100755522999CCC899889445333CC5B
:10274000CABB88989945524401100000000000005F
:10275000111122122132125566663333222231239F
:102760002343343334344344348767655325325428
:1027700025425425426426426436536446445445F7
:1027800044765765CCBCCBCCBCCBCCCCCCBDCBDC65
:10279000ACCACC9CC9CC9CD9CD9DD9DD8CD8CD8D73
:1027A000C9DDBDEBDDBDDBDE5376256114103112D2
:1027B00010222210DDBFEDFFDFEDFFDFEDFEDFEDCC
:1027C000988866D77D76E64F74E43E43FBADA9FD5D
:1027D000CEDD87775675387478612020085630052D
:1027E00011A42A4210010000000000000052241130
:1027F000000101010000201523A56855DDD888AA35
:10280000B777446434CBBAAA9AA78723323300003F
:1028100000000001011011112122112112445879E8
:102820002213423343343332234344334225346545
:102830005533532532543543643653642642644736
:1028400054545545545544766866DCBCCBCCBCCB5F
:10285000BCCBCCACCACC9CC9CC9CC9CC9CC9CD9DB2
:10286000D9CD8CD8CD8CC9CCBDEBDDBDDBEE4364BE
:10287000255114112111102322219BAACCEFEEEF38
:10288000FFDFFDFEDEFDEFFBCCEBAFBAF96F96E7A5
:102890006F97EECCCBDCBBBA755866FCCDBC433130
:1028A00000733844844500B42B422001000000002E
:1028B00000000053231000000000000020130186D8
:1028C0006644CCC778999334446444BBB888565363
:1028D0004413302201001001001101111122322392
:1028E00022322344587800011034444422233377A1
:1028F0007888BA9CBA543432531531532532643532
:1029000043643643644655545444655766B98B98BE
:10291000CCBCCBCCBCCBACCACC9CC9CC9CC9CC9CD1
:10292000C9CC9DC9DC9DD9CD9CD9CC9DC9DCBDDB72
:10293000DDBEEBEF2263254112101101111332436A
:102940008CC8CCADDBDEEEDFEDEEDEEDBDEBEE54A4
:102950004A98EA8FCAFB9FBAEDDDCC854654876D55
:10296000CBEEDFEEBA9876C98B76A54610B43C5311
:1029700030020000000000000011021010010020D1
:1029800002000000004324339996666660013455C6
:102990006677732233344422211200100101101192
:1029A0001121122232232232232235566541102270
:1029B00023336766557767763214324324325315D2
:1029C0003153253364354364465465565633433496
:1029D000AA9BBACA8CA9BBBBBBBBBBBBACC9CC9CBA
:1029E000C8CC8BC8BC9CD9CC9DC9DC9CD9CD9CD90A
:1029F000DCADDADDBDDBDDAEEAEF126225311210AF
:102A000001112113424559959A9DD9DECDECDEDEA8
:102A1000ECEE8DD8CDBCD566DA9EBAFDCFDDBAB767
:102A200067ECBEDCDCBA99888999ECBDB9B64A423C
:102A3000C66944933B44610300000000001000118C
:102A400003102002002002000100113113226667EA
:102A5000772221224564552013115234222112126B
:102A60001121120120121122132242242232232288
:102A700023458762102122127778775554545445A4
:102A8000334335325315315335336548668768769D
:102A9000656555213234BBACBADB9CB9BBBBBCAC61
:102AA000BACB9CC9CC8BC8BC8BC7BC9CD9CC9CD99D
:102AB000CD9CD9CD9DDADDADDADDBDDBDDADE9DE66
:102AC0000261362111111112211352355887AB9D25
:102AD000D9DDADEADD9EE9EF7DE7CD9CDACD866FED
:102AE000CCC77EAAFFEDCCDCCDCCA67845DABDAB59
:102AF000801901C32C22F98D87711A33B535000076
:102B00000100000000200311400622000100000027
:102B100000200200977BAA1223444453233014114F
:102B200042242265532242532411311321221322BD
:102B30004224223223222223DCC988211544221672
:102B400044BAA8875545645444335336449869873A
:102B5000BA9CA9876766334324324888BBACB9CB9B
:102B60009CB99BBABB9CB9BB8CC8CC8BC8BC7BC77F
:102B7000BC8CD8CC9CD9CDACDADDADDADDADDADDFC
:102B8000ADDADD8DE8DE0251261110100103541379
:102B900052348BA8CC9DD9DD8DF8DE5CE5BE5BD6CA
:102BA000CE8BCABCD99C87C44D43EBAEBBA43B3390
:102BB000E23E23D23D23C22D22D21C11FA9E875021
:102BC0000721B545100000000000003103009656B3
:102BD00043200100000000100100CCCBBB112112EA
:102BE000111101100200644977DDCBBA54554554E8
:102BF0006546534523323323223223223222BBBD82
:102C0000DCDCCEEDCCBCDCCCCCDC222333556667DF
:102C1000665665987987A889777676562232239901
:102C20009AAABA9BA9CA9CA99CB9BB8BB8BB8BC8F2
:102C3000BC8BC8BC8CC7CC8CC8CC9CD9CD9DC9DD05
:102C40009DD9DD9DD9DDADDADD8DE7DE026126118E
:102C50001010000565235234ADC9DD9ED9DD8EF715
:102C6000DF4BE4BE3AD3AD9BE98BA45B56D44D4415
:102C7000A33923C43D43D32D33C43C32D32C21C4C8
:102C80003E76FA9FA9500610A546100000000000ED
:102C90000063396641020040030020030040040045
:102CA000665111000100000000000000523744EDA1
:102CB000DDDC756646879979A899885344343233A8
:102CC00023223222677AAABBBCBB443333666565D4
:102CD000221332222222666888544545868768433B
:102CE00053240111125556657657659779779CB92B
:102CF000BB8BB8BB8BC8BC9BC9BC9CC9CC8CC8CC9B
:102D00009CD9CD9DD9DD8CD8CD9DD9DD9DD9DD8DCA
:102D1000E7DE027027111010000666124223BDCABA
:102D2000DD9ED9ED7DE6DE3AD3AE3AE4AE6AC8ACBC
:102D3000B55C54D32E43D45A23B43B32D32D32B294
:102D40002C21D11D21FDBFDBFBAFBA8435108325BB
:102D50001000000000010098753320051150040098
:102D6000510721D54B431000001002011000000054
:102D70000000734946C9ADDD76887998AA9BAAAA56
:102D8000AB97876742342332332345656665542306
:102D900032232354598832132143332332232354BB
:102DA0006657658657213113122212444444644603
:102DB000447557569BC9BC8BB8BC9CC9BC9CCACC3B
:102DC0009CC9CC7CC7CC7CD8BD8DD8DC8CD8CD8DB3
:102DD000D9DD9DD9DD8DE7DF0270260110211106B6
:102DE00075236234BDBBDDADD9DD6CE5CE3AD3AD24
:102DF0004AE4AD5AD69CA55A55D54D55F99C87D96C
:102E00008E99E99E99EAAFAAFCBFDCFDCFDBFCBF3F
:102E1000BA75510052241110000000000020030078
:102E2000A33A32500200500721B53B740000003035
:102E30000500300200001000310743966CAA878815
:102E400079A9A99A99AA9ABBBBBB989988323323CE
:102E50005566565555562332232235567886655386
:102E60003543435325767767436325112112222387
:102E700032644654654654755755ABBABB9BB9BBD3
:102E8000ACCACBACCACC9CC8CC6BC6BD7BD7BC8D06
:102E9000D8DD8CD8CD8DD9DD9DE9DD7DE7DE0370F1
:102EA00027011011653996236224CDCCDDAEE9DD12
:102EB0006CE5BE4AD4BD3AD3AD5AD7ADCBCCCCC766
:102EC0006C65FCCFCCFFEFFEFEEFEEFFEFFEFDDF0B
:102ED000DCFDDFDCFBBFBBDBA86652251120010057
:102EE000000100400400D54C4330010010020030C6
:102EF00003001011006008117005000000001004AC
:102F000021A77B99978989989989AAAA9999A99AB9
:102F1000CBCBAB8886556667665565553432331220
:102F2000311399A999421421645657778667213144
:102F30001301111144354365365375375375575591
:102F4000ABBABB9BC9BC9CC9CC9CC9CC8CC8CC7C43
:102F5000C7BD7CD7CD8CC8CC8CD8CD8DC8DD8DE8D5
:102F6000DD7DD7DE047037012011630B95236235B8
:102F7000BDCBDDAEE9EE5CE4BD4BE4BD4AD4BD5C47
:102F8000E5CE236114C66C65FDCECCFFEFFDEEDE11
:102F9000EDFFDFFDFEDFEDFEDFEDFDCFCBDCBA9810
:102FA000511511300200000100712C55D65C6510DE
:102FB0000100000000100100001000932B33C22B11
:102FC00011300200100200B78A78878989BBCCCD06
:102FD000DDDECCDDDDDDCBBDCCCBBCBBBAAA9977C9
:102FE0007677455444112123ABC889988777989800
:102FF00068435224001011011001544544644654A2
:103000007547558558559BB9BB9CC9CC9CC9CC8C80
:10301000C9CC8BC8CC7CC7CC7CC8CC8CD7CD7CD75A
:10302000CD7DD8DD9DD8DD8EE7DE0470370111221D
:10303000B86BA8035145ACB9DC9DE9EE6CE5BD4B1E
:10304000D4BD3AE4AE7DE7BD114324D87FA9FDDEAF
:10305000CCFFEFFDFFDFEDFFDFEDFEDFEDFEDFED8F
:10306000FEDFCBFDCB99511611500400100200D5A4
:103070004F6695442110010000000000010000018E
:1030800000A33D45E44D44500400000101B77A77A8
:10309000856978BBCCCDDCCDCCDDDDDDEDCEDCDCF7
:1030A000CCCCCCBBBA56656656544522211288A9B1
:1030B0008A889999778657213112001011001112D0
:1030C000A97A97986986A86986A97A977BB7BB8BF6
:1030D000B8BB9CC9CC8CC8CC7CC7CC7CC7CC8CD8AA
:1030E000CD8CD7CD7CD7DD7DD8DD9DD9DD8DE7DEDC
:1030F000048037011122DB8DC92572568BA8CC9D27
:10310000E9DE7DE7DF4AC4BD4AE4AD8CE8BD202599
:1031100022FCAFECFEEDBBFFEFEDFEDFEEFFEFEECE
:10312000FEDFEDFEDFEDFEDFDD63430161161061C2
:103130000410300300F66F55400300300200000019
:1031400000000000000000933D65F65E65B4282194
:10315000100100855A88523423879BACDCCDCCDD2E
:10316000DEDDEDCEDCDDCDDCBAABBA9AA8996654D3
:103170005512323466877988987955644600200163
:10318000011001334777BA8BB8CA8BA8CA8CA8BA8A
:103190008BA87BC7BC8BB8BB9CC9CC8CC8CC7CC76C
:1031A000CC8CC8CC8CC8CC7CD7CD7CD7DD7DD7DD92
:1031B0009DD9DD8DD8DE048047012122CA7DC83724
:1031C00092687BA7CC9DE8DE8DE8DE5BD4BC4AD557
:1031D000BD7CE6AD213412522644554654FFEFED36
:1031E000EEDDCCECCEDCECCDCCFEEFEEEEDEEE5246
:1031F0002633510610720510400600D43D33711677
:1032000000500500200200100100000100933D66FF
:10321000F65F75C43B4330020032276640130165F8
:103220007A8ABBBCCCDDDDDDEDDDCCDDDCBB999A83
:10323000AACDCAAA77634322501498B99B8798797C
:10324000435335000000010010666998BB8BB8BA83
:103250008CB8CA8CA8BB8BB87BB7BB8BB9BC9CC9DC
:10326000CC9CC9CC8CC8CC9CD9CD8CD8CD7CD7CDAE
:103270006CD6CD7DD7DD9DD9DD9DD8DD058047019C
:103280002122CA7DC94793687BA7CC8DE8DD8EE8F3
:10329000DE7DE6DE5BD6CE5AC479223222101001E2
:1032A000211100FDCFEDEEDDCBEDBEDBFEDFEDFE4F
:1032B000EFEE88822241242141052082060050063B
:1032C00000A21900921A22A2192150040040030002
:1032D000300300A22D45F65F55A21B4240030010AB
:1032E0000100633411656989AABBAB999999CBBD7B
:1032F000CC999998BABCCCCCB9985334333256682F
:1033000099A98965865822411300001001001043D5
:103310003544765865987987A97B98AA8AA87AA7B0
:10332000BB9BB9CBACB9CC9CC9CC9CC9CCADC9DCDE
:103330009CC8CC7CD7CD6CD6CD7CD8CD9DD9DD9D1D
:10334000E9DD069058012211BA8BBA48A269698852
:10335000CB7DE7DE8EE8DE8DE8DE7DE6DE38C37A03
:10336000111111011011010111310100EDCFFECA3F
:103370009DBAFFDFEDFFEDDD32242343142141042C
:1033800000721832500610700800B21C31D42D4261
:10339000A32921922932921811910B32E43E4370F5
:1033A0000720A63520100100854743434656AAAAA8
:1033B000A955555477688755400044688ADDCDCBC0
:1033C000988656A9B99B97987944743611200200C3
:1033D0000000011111543543644644644654644767
:1033E000557657657AA7AA9BB9BBACBACB9CC9CC1A
:1033F000ACCACCACCACC9CC9CC8CD7CD6CD6CD7C5D
:10340000D8CD9DD9DDAED9DD069058012222BBAAC8
:10341000BA5AC37A6998CB7DE7DE8DE8DEAEEAEE74
:103420008DD7DD05904811201101101112101012D6
:103430000432400844FFEEEDFFEFFE544200432308
:1034400022320320310410854843510520600810C2
:10345000C21D31F53F63F75E65F76E65B31B20A1B2
:103460000A10C22C22600600B8596310010075587A
:10347000553122010010010010010000001111114E
:1034800010210387877887877888B88A8797693378
:1034900063350010010000111122225435426436B8
:1034A000436536536547547546556AA7AB9BB9BB10
:1034B000ACB9CB9CCACCBCCBCCACCACC8CC8CC7C79
:1034C000D7CD7CC7CC8DD8CD9DD9DDAED9DD49B166
:1034D0007A0121229B99CA7DF49C6998CB6DE7DE25
:1034E0008DE9DEBEEAEE8DD8DE169037112011018F
:1034F0000010010121110120411310EECFFECCB7C5
:10350000773224334214214204203104107554329E
:10351000310310600921D41E42F74F75F97F97F9E6
:103520007F98C32B31A10900A11A11500400B84A99
:10353000732001007556334102001121130020024F
:1035400011311300211210311432565898AA9B9849
:10355000B87B75865732522400100101001167783C
:103560007754354264364364365365464465465461
:103570006AB6AB8BB8BB9CC9CC9CCACCBCCBCCAC20
:10358000CACC8CD8CC7CD7CD8CD8CD8CD8CD9DD97D
:10359000DDAED9DD6BD28A0221229BA8CA6CE49CE5
:1035A0006987BB7DE7DEADDBEEAEE9EE8DD8EE5987
:1035B000C137111010010010020010110111131178
:1035C0002074397564454443353343142152152022
:1035D000411200321100210200500932D42F64F848
:1035E0006F96FB8FB9FB9FCAD65C438108008008A9
:1035F00011621410952A624002006546435104008E
:10360000001011112012112112011012002103A922
:10361000DA8CA9BA9A76A76A6485472251140010F9
:1036200011010010AAAAA9A98986644644643653E8
:103630006436437546546AB7AB7BC7BC9CC9CCACF7
:10364000BBCBBCCBCCACCACC9CC8DC8CD7CD8CD98A
:10365000DD9DC9DCADDADDADDADD7CD48B01311264
:103660009BB8CB7DE4AC6998BA6CE7DEBEEBEE9D0F
:10367000E8DE8EE8DD68B13701201101001001009D
:10368000100100101111115108428648646436324D
:1036900043142152141021065321020011011080FD
:1036A0000B21E74F74F98FA8FCAFCAFCBFCAFBAE71
:1036B00098A22800500500430210A41C51400300AA
:1036C000653431410300101101113113123113110E
:1036D000300376A98BA9BA9BBADAAB7596585474A5
:1036E00037224013011001010001999A99AA8BA871
:1036F000A879767547546436436546555AA6AB6B30
:10370000B7BC8BB8BBACCBCCBCCBCCBDCBDCADCAD7
:10371000DD9CC9CC9DD9DCADDADDADDADDADDAED0D
:103720008CF48C023112AC98CA7DE6CE4897BA9DD3
:10373000D9DEAEE9DE8DE8DE9ED9EE8BD4790120AC
:103740001101001001001011011011011041084277
:103750009758757436426435325314203102004054
:103760000300100200A22B33E85F97FB9FCAFDBF46
:10377000DBFDCFDCFDCFCB94372130021166521038
:10378000922A31910A316313103003002012112262
:10379000432433533521477998C98BDCDDCC989786
:1037A000685585473362260140130110010010114E
:1037B000012445AA8AA8B98B97B97B989768756543
:1037C00046456AB7AB7BC7BC8BB8BB9CCACCBCCBED
:1037D000CCBDCBDCADCADCACCADD9DC9DCADDADD6D
:1037E000ADDADDADDBED8DE5AC013112BDA9DB5C01
:1037F000D6DE378588AEDAEE7DD7DE8DE9DEAEEA3D
:10380000EDADE7AC112222011010010010110110E2
:103810000001106329649768757536436435325327
:103820002531520520300200210400C44D55E87FA7
:10383000A8FDBFDCFECFECFECFECFEDFDCC8784499
:10384000311211AA9543611722B53B6374242010ED
:10385000010020121233533533632588B77A98BBA1
:10386000ACA9A77854764843733722512501301309
:103870000110110000000010019A9AA9B98B98B9A3
:103880008B98B97A979869766AB6AB7BB7BB8BC8C9
:10389000BC9CC9BCACCACCBDCADCACCBCCBCCBCC10
:1038A000ADD9DD9DD9DDADDADDAEDAED7ED4BC0279
:1038B0005233BCA9CA6DE6DE478689AEDAED6CE606
:1038C000DE8DD9EDAEEADEAEE8BD32441210001056
:1038D000010010200210000111753A869868756584
:1038E00047546535435316315315212001005216B4
:1038F00022A22C44D88D77FECFDCFECFECFEDFED8C
:10390000FEDFEDCBB988311211998654744854B753
:103910004C83853431000000111112334335436567
:103920004876A77BA8CA8B547658438538225225FF
:103930000140140130130110110110110110014454
:103940004888AA8BA8B97B98B97B97A98A986AB648
:10395000AB7AB7BB8BC9BC8CC8CC9CC9CCACCACC2D
:10396000BCCBCCBDCBDCADC9DC9DD9CDADCADDAD0A
:10397000D9DD7DD6DE015123ACA9CB6DE5CE3895DE
:10398000899ED9ED7DE7DE9EE9EE9DE9DDCFFBEE78
:10399000625834300211010110110110010110A709
:1039A0006C97A979867657657646537426425324D8
:1039B00032100210310521821821B87D98FDCFFD0B
:1039C000FECFECFEDFEDFEDECCDDCA98321211AA8E
:1039D0009665A888668658643001000000010121C0
:1039E0002322422554854865966953742676987A31
:1039F00032621511512501401401401301201201BA
:103A00001011001012001112AA9BA8B98B98B98B43
:103A100098A98A986AB6AB7AB8BB9CC8CC8CC8CC3B
:103A20008CC8CC9CCACCBCCCCCBDCBDCADCADC9D9C
:103A3000D9CDADDADD9DD9DD7DD6DE026235ACA90A
:103A4000CB7CD6CD6AC4799DD9DD9DE8DE8DD8DDED
:103A50008DE9DDBEDADD7259256015011101101105
:103A60000110010110C98CA8B98A9776586586485B
:103A70006474375344333210000021053262095414
:103A8000997554877987FEDFEDFEDFED977B98EE21
:103A9000DFFE000111786554A99BAA8667662001A4
:103AA000001111122352342353364374376597693A
:103AB000427428879547216327226216005005111A
:103AC0005015002002002002011011011001AA99D6
:103AD00098A97B98B98B98A98A986AB6AB7BB7BB33
:103AE0008CB8CC8CB8CB7CC7CC8CC9CCCCCCDCBD56
:103AF000CBDCADCADD9CD9CDADDADD8DC8DD7DD79F
:103B0000DE137246ACA9CB8DC8ED7BC59A8CC9DD9E
:103B1000ADDADD8DD7DD8DE8DE9ED8DDA8CA69C5BA
:103B20006A56111111111211423200CB9CB9BA9C84
:103B3000A976597698697586576444323200011126
:103B4000877200B55A44FDDFEE412966FEDFEDFEC7
:103B5000EFED876987998000333333876643A77B0E
:103B60008895584320010011211333433410411428
:103B700011522611410342786A334103418549536A
:103B8000742675975943654733500201201201206E
:103B900011012012445888A97A98B98B98A98A985B
:103BA0007BB7BB8CB8CB8BB8BB8CC7CB7CC7BC9C62
:103BB000C9CCBDCCDCBDCBDCADCADCADCADD9DD98A
:103BC000DC8DC8DD8DD7DD058036AB99CA8DD8ED8B
:103BD0007DD5BC7CC9DDAEDAED9ED8DD8DD8DD7D2E
:103BE000D7DD8BD9ACC9AC9A4341013004104219DE
:103BF00066B98CA9CA9CA9755A98A87A8776576520
:103C0000675343000100655322953832EBAECB2059
:103C10000B98FECFEDFEDFFEFEDEED00111222213D
:103C200000844976986976C87A54300201113123AC
:103C300033433400200200300301301398CBAC0032
:103C4000221599CA9B87A87A77866766976A6573F3
:103C500024013013012112010011002002998A98D9
:103C6000A97B98B98A987BB7BB8BB8BB8BB8BB8B49
:103C7000C8BC8BC8BCACCACCBDCBDCBDCBDCACCA31
:103C8000CCADCADD9DD9DC7DD7DD6DD6DE059037A4
:103C90009A99CA8ED8ED7DE6CD7CC8DCAEDAEDAE61
:103CA000E9EE7DD7DD7EE7DE8DE8DEABBBBCBABAE0
:103CB0009A756645FEDFDCCBACA9CBACBA987BA984
:103CC000A98A879777664542210000000002119675
:103CD0004954FB9FCAFEDFEDFEDFEDFEEEEDFEDE9A
:103CE000ED223001999999744976B97B86964A6399
:103CF000300300113123335444001001001001003F
:103D00002002CBCAAB76798AAABBBCB9AAAA112079
:103D10000298C87A97976710310433511201101135
:103D2000113113AAAAA9B98B98B98B988BB8BB8B00
:103D3000B8BB8BB8BB8BC8BC8BB8BBACCBDCBCBB3B
:103D4000CCACCACCACCACCADCADC9DC8CC7CD7CD7F
:103D50007DD6DD07A0378A99CA8DD8DD8DE8EE7B48
:103D6000B7CC9DD9DD9EE9EE7DD7CD7DD7DD8EE741
:103D7000DE9EDADDBCE9BC469468EDDDCBA99A99FC
:103D8000CBACBA877987A98A9876665599978722A6
:103D90002443211100200200FC9FB9EEDEEDFECF8E
:103DA000DCFEDEEDFEDEDD888889CCBCBBB99CBACA
:103DB000853964B95B7530030121322444544500D0
:103DC0000000000001002115CCCBBBBBBCBC888A25
:103DD0009A87654411211387B97B98A979204204F9
:103DE000557435002012012012556898A98A98B997
:103DF0008B987AA7AA8BB8BB8BB8BB8BB9BB9CB985
:103E0000CBBCCBCCBCCBCCACC9CC8CC9CCADCADC8C
:103E10009CC9CD8CD8CD7CC7CC39C0488A88BA7CA7
:103E2000D7CC8DE8EE7BB7BB9EE9EE8DD7CD8DE884
:103E3000EE7DD7DD8DE8DE8ED8ED8CD7CD5AD6ADB0
:103E4000BBBFEEA9ABABCBBBAA988877988977DCD0
:103E5000CDCCEFEABB321421432311312201EB9F79
:103E6000CBEEDCDBFDCEDCEEDEEDFEDFEEFFFEEECC
:103E7000DDCBB976554330030097575230130121FB
:103E80003224546334000000001001114669CCACA8
:103E9000DBDCCCBB877988100100103002547759E5
:103EA000A8B98A30541676986810200201201201B1
:103EB0002566A99B99B98B987AA7AA8BB8BB8BB8B2
:103EC000BB8CB8CBACBACBBCBBCBBCCBCC9CC9CC31
:103ED0008CC8CC8DC9DD9CC9CC8DD8DD7DC7DD4AB1
:103EE000C0577A88B87CD7CD7DD7DD6BC7CC8ED84C
:103EF000DE7DD7DE9DD9ED9DD9DD9EEAEE9ED9DD32
:103F00009EE7DE5BC7BCBBBEDCEEDFFEEDCDDCDEDC
:103F1000DEEDFEDFDDFFEFFEBAA988210764543233
:103F200011322211DA9EB9EDBFECEDCECCFEDEED02
:103F3000FEDFEDEEDEEDBBA76510011030020043A1
:103F40001421210200213214667554000000000083
:103F50000144788BCDBDDCBAA8766435330000000F
:103F6000001101103205A9AA9A41563797A9794242
:103F70003434103114013013A99A99BA8CA97AA754
:103F8000AA8BB8BB8BB8BB9CB9CBBCBBCCBCBBCBE6
:103F9000ACCACC9CC9CC8DD8CC7CC8CC8CC8CC9DB0
:103FA000D9DD9DD9DD7CD49B6987B96CD6CD7DD711
:103FB000DD6CC6CC8ED8ED8ED8EEAEDBDCAEEADEA4
:103FC0009ED9ED9CBACBBBABCBCCCDCCFECFDCFD30
:103FD000CECBFEDFDCEEDFFDFEDFEDFFDFFE987611
:103FE00055300744FEDEDD000223411410EDBFEC26
:103FF000FECEDCFEDFEDFDDFDDEEDFED10010000CB
:1040000000003113111102210011013243355564B2
:104010004400010000200266999BDCBEDB10021107
:10402000000000100100000000013014BBCBAB8782
:104030007988656868A99BAA435324113013BBBBD8
:10404000BACB9CB96AA7AA8BB8BB8BB8CB9CC9CC9E
:10405000BCBBCBBCBBCBACCACCACB9CC9CC8CC8CAD
:10406000D8CD8CC8CC9DD9DDADCADD7DD6BD477518
:10407000987DD7DD7DD6DD6CD6CD8ED8ED8DD8DDA3
:10408000BEDCDCBDDBDDABAAA9CB8CB9EEBEEBFDA3
:10409000CFDCFEBFEBEDCEDCDCBDDBEEDEEDFDDF2D
:1040A000EDCCBAB9432655322755FFEFFE0000008C
:1040B000412511FECFECFECFDCFEDEECFEDFEDDCB9
:1040C000B998210100010010000000122021011008
:1040D0001132432444522300000000210477AABC7B
:1040E000CBB97721310200000142152120020000E6
:1040F0003014CBDCBDCCACBA524747CBBBAA8774DB
:104100003411301399ABBBCB9CB96AA6AA7BB7BB61
:104110009BB9BBBCBBCBBBBBCBBCBBCBBDBADBADCC
:10412000BADCACC9CC9CC9CC8DC8DD9DCADDADCA9A
:10413000DD9EE7CD4795887DD7DC7DE6CD6CE6BD7D
:104140009CD9DD8DD8DDCDCDDCBAAA88DA6EA6FC8F
:104150007FD8FEAFEAFDBFEBFEBFEBEEDEDCBB9B24
:10416000B9AA9A99DDBDCB988877555888AAAFFE31
:10417000EECDEC000000521622531965FEDEDCED98
:10418000DEEDFEDDCA321210100000011011011028
:104190001113313301201233433411000010101178
:1041A00010231578BAAC5444232132121001019423
:1041B0003A53411301002014BACCBCCCACB9312421
:1041C00035BABAAAA986540020034469ABCB8CB88F
:1041D0006AA6AA8BB8BBABBABBBCBBCBBCBBCBCCB7
:1041E000BBCBBDBBDBBDCBDCACCACC9CC9CC8DC8CA
:1041F000DCACDACC9DCADD8DD8DE4785887DD6DD86
:104200006BD6BD6BD6BC9CC9DCAEDADCDCBDDBB8E2
:104210006C86F95FA5FC6FD7FD9FDAFECFECFECF71
:10422000ECFEDBAADDCDDCEDDFEECBBBBAAAACCC7D
:10423000999AAABBAFFEEEDDDB00010063262130B8
:104240000200EDCFEEEEDEFD975853300300100074
:104250000001001189956734513300201222322366
:104260000001103449A932432488AAAB5465462181
:104270003202200301B65B5451040010211499BC92
:10428000BCCCACCA413424A9A888A985431020021B
:10429000235779CB9CB86AA6AA7AB8ABABBBBBBC98
:1042A000BBCBBCBBCBBCBCCBCDBBCBBCCBCBACCAE8
:1042B000CC8CC8CC8DC9DCADDACC8DC8CC8DD7DD2B
:1042C0002574776CD5CD6BD6BD7BC7BB9A879778A5
:1042D0006776B97B96DB8DA6F96F95FC6FD7FDAF3E
:1042E000DAFECFDCFEBFEBEDCEDC877A99DDBDCA0E
:1042F000EEDEEEEEEEEE777AAAAA9FEEDCBBAA0027
:104300001101410510310300100432DBA86450058F
:1043100000200100010010122222AAB78834523472
:104320001131121121110000009A9AA976642465B6
:104330008758425325212312400400B75B7561154D
:104340000020020388BBBDDBADCA423313889767E8
:10435000A87422101001002224CB9CB86AA6AA7A65
:10436000B7ABABBACBBBBCBBBCBBCBBCBBCBBCBB8E
:10437000CBBCBBCBACCACC8CC8CC9DC9DC9CC9DC4B
:104380006CC6CC7CC8DD2564775BC5CC6BD7CD9C77
:10439000CBDCCB9986A76964B85DA6DC7EC7E96FE4
:1043A00095FC5FD6FD9ED9FDBFDBFEAFEAEDAFEB1E
:1043B000DDCCBA884BB7764764DCABB9AB9DDCBBD0
:1043C000AFFFEEDDED112223521610100110100286
:1043D0000061071020010000000010000000012211
:1043E000ABB8894542320000000010010010007691
:1043F0006633501503437337314313421633835AE0
:1044000066B97C9793360130030266A88BCB98750A
:10441000202103436446644100101001013003CBA6
:10442000ACB96997AA7AA7BA9BB9BBBCBBCABCBBDB
:10443000CBBCBBCBBCBBCCBCCBCCADBADC9CB9CC75
:104440009CC9CC8CC7CC6BC6BC6CD6CD2792787C73
:10445000C6CC6CD8CDCDCABAA97CA8A8586285288C
:1044600042B93DA5DA6EA6FC6FD6ED9ED9EC9FDA77
:10447000EDBEDBFEBFDBEDBEDC666777A86A866556
:104480002752876876766997BA8A9811132262064E
:1044900010311221110100621510100000000000FF
:1044A000000000000111BBB99922100000100100AA
:1044B0001001000000754521300302225214202310
:1044C00012623622C77C87CA7B978444004012025E
:1044D00055877AB87633101001225224222010001A
:1044E0000000003125CB8BA86997AA8BA8BA9BA99D
:1044F000BAABAABABCBBCBBCBBCBBCBBCBCCBCCBDA
:10450000BDBBDBADBACB9CC9CC7CC6CC5BD5BC5BA0
:10451000C5AC39A3897CC7CC8CC9CC799799BA9C96
:10452000B9874752732833951A72DA6D95FB6FC6B7
:10453000FD9ED9B97CB9EDBEDBEDBFECEDAEDAAADC
:104540008766766665875764533644654764863761
:1045500063311421820821321321210311410310F8
:10456000000000000000000000111000CBBA9911FB
:104570000000001001011011000010BA8B8620010C
:1045800001013013311411743621C99C98CA8B96DD
:104590008445004003013464587444101000010045
:1045A0002001000000000100123678A98A97698670
:1045B000998BA8BA9BA9BAABAABBABBABBBBBBCB06
:1045C000BCBBCBBCBBCBBCBBCBBDCACB9CC9CC7C26
:1045D000C6CC5BD5BC4AC4AB49B28A6BC7BC8CB9EC
:1045E000BB69A69ADCCCBA5527646225119439437D
:1045F000C75B74D84FA6FC7FD9B97764EDAEC99874
:104600006BA7ED9ED9CCACCA8768766437646435F5
:104610003276487597587510030182182144344347
:1046200032163331020000000000000000011120AA
:104630000300854632100000001001001001000048
:104640000087674220010000100120030052195426
:10465000976C98BA8A86743511400300225336311C
:104660001300100100001001000000000000344899
:10467000999769876987999BA9BB9BA9BAABBABB74
:10468000ABBABBABBABBBCBBCBBCBBCBACBBCBAC88
:10469000BACB9CC8CC6CC6CC4AC4AC4AC4AC5AD3C6
:1046A0008A5AC6AC8BB8BB6AA6ABCCCCCB77566467
:1046B000744865A77956B76A76841B63FC6FC7DCBC
:1046C0009A97DB8EC8BA7A85B95DB7CB9BB8765816
:1046D00066753653653754864875985975100311B9
:1046E00082192154355431052220010000100000A8
:1046F0000000000101742B74C75B752001000010DD
:1047000001001001000000A77A75300200000100CE
:10471000522411400511A75743CA8A868558444040
:1047200003001142143003001000000000000000DC
:1047300000001001566787977A877997A98AA9AAF6
:104740009BA9BA9BA9BAABBABBABBACBACBACBBC30
:10475000BACBACBACB9CB8CB7CB7CC4AB4AB4AC4CE
:10476000AC4AB4AB39B28A4AA5AA79A5894AB4AB96
:10477000CDDBBA9A99A9510A65CBABA9887876871F
:104780005642FB6FB5EC7DC7862A84DC8CA7C97BBB
:1047900086EB7DB68748748758748748748648646A
:1047A00086487510031193293164476653352340B9
:1047B0000200000000000000000200C74C74ECAED4
:1047C000DB100000111112000001110000A87B98FD
:1047D000310200211433965855AA6BB82004116693
:1047E0006BAAAA9AA8400300000000300400200130
:1047F00000001000000000001001777776876987BD
:104800007997A98AA8AA9BA9BAABAABAABAABAAC4B
:10481000BACBACBACBACBACBACBACB9CB9CB6BC530
:10482000BB39B4AB4AB4AB3AB2AB06806949A5AA6E
:104830004894993AC4ACBDCABB898788410A74BA06
:104840009BA9AA9998A87976EA6EA5CA6CB7A97BA4
:10485000A8C96C96973B84C85DA6B95984974874DB
:10486000975975875975975875211522A32B42645E
:104870004877534644511300000000000000100325
:1048800000C53D75DCBCCC988555001001001000BA
:10489000000000211433210100633623A65A76CB91
:1048A0007CB7975865334222BCBAA9500400100067
:1048B0000040040020010001100000000000100171
:1048C0007767768779877AA7AA7AA7AA9BA9BA9BDE
:1048D000A9BA9BA9BAACBACBABBABBABBABBACBAA0
:1048E000CB9CB9DC5BB4AB3AB4AB3AB3AB09B08B9D
:1048F0000690794AA4AA39A39A3AC49CACD8999A4A
:10490000A9AA510610BAACBB998988755755B74DFD
:1049100095C83C94B98CA9964C86962A73820B63F1
:10492000B95A8498598597597597597597697643F7
:104930003644A42B41643987655644400300000087
:1049400000000000100300B20C42DCBDCBBB999804
:1049500099A2340011010000000000000001009540
:104960005B55C87B87B86B97A97AA865742455579F
:1049700066521400100100410400100101111000E2
:104980000001000012238768768779887A97A97AD0
:10499000A7AA8BA8BA9BA9BA9BAABABBBBBBBBBB35
:1049A000BB9BB9CBABBACB9CB7CB4AC4AC39B39B9E
:1049B00009B09B08B08B06906939A2884AB4AB3A1B
:1049C000C3AC9BB78899AAAA633622988766DECEC5
:1049D000EE989BAAA53C74A73B74B63942611A5560
:1049E000862851A32931B95B85A85A86986976A88B
:1049F0006975989979102535A32B327539876545E6
:104A000032200100000000000000100200B30B2063
:104A1000FCBEDCCCBA98DDCDDD111000000010002A
:104A20001101200200B87C87CA8CA8B77B88BBAB79
:104A3000CBA99867A88A9931130030041234344303
:104A400020010165533200021111144487687697E2
:104A500079987A98A98AA7AA7AA8BA8BA8AAABBA91
:104A6000BBBBBBBBABBABB9BB9CB9BB9CB7BA6BA21
:104A70005AC5AC29A29B09B09B08A08B0690691768
:104A8000827839A39B29B39BABC889889AAA7337CC
:104A900011A87DCC9A9776767555A64B65B74A6274
:104AA000A629525218438626419429428649759672
:104AB0004A76A97A97877998DCDDCD677CCC922BF2
:104AC00032753A877667651001000000000000002B
:104AD000100200B31B32D99FDCDCBAA9998A99BBBA
:104AE000B666000000211101200200765B88CB9C95
:104AF000B9DAACAA777888BBBBAABA9CCB7652004D
:104B00003023016644422001115546543324443475
:104B10004555875875977A987998A98AA7AA6AA659
:104B2000AA7AA7AA9BA9BABBBBBBBBBABB9CB9CB91
:104B30008BB7BB6BB7BB6BC5BC06807909A08B0874
:104B4000A08A07A06916827829A29A1AB2AB79982E
:104B50009999AAAA733711DCBEEC888A99998BAA15
:104B6000B99B88B65942A62B73843842853752A622
:104B70004A74754865964854A97BA8B989769649C0
:104B800064DDBCCAB21B21853A9877688621010092
:104B9000000000000000100200D76D76943C87CC26
:104BA000BBCBAAAA99977B9952162274574440040A
:104BB00000CBBCBACCBCCACBBCBBCCBDDCBBABBA9B
:104BC000CBACCA876443988987642531665665559E
:104BD0004554543655766765875875977A9879970E
:104BE000A97AA7AA6AA69A6AA7AA8AA9BABCABCACE
:104BF000BCBBBB9CB9CB7AA7BB7BC7BC5BC3AB06BA
:104C0000906908A08A18A18B07A06A06827929A258
:104C10009B2AB29B6998AA99A999743622CDBCDBCC
:104C200099A434EDCBCAA98B99A64942A63B7494AA
:104C30002952953853B84A74855755854964975811
:104C400065400500500500DCB976C11B21753A9717
:104C5000654AA8431210000000000000000100C7D0
:104C60007D98A54A64CDCCDC888877734834A44B02
:104C700044854743600711CA9CBADCACCACCBCCBA4
:104C8000DCBDCBCCBCCACBACBAAA8776986986739C
:104C9000141075665565476565465576677587587E
:104CA00065977A986987997AA7AA6AA6AA6996AA3F
:104CB0008AA8BAABAABABCAACA9BB9BB7AB7BB7B53
:104CC000C7BB6CC4BC06906918A18A08A09B08A049
:104CD0007907918A2AB2AB19C19B58948958946874
:104CE000744633CDBCDCBAA999DDDCDCCBBCBB9708
:104CF0004A63B64A64954853943954A74852764754
:104D000065975A768649657018127236349757310E
:104D1000D32D53944B88653B97531321000000001B
:104D20000000000101621A65B99A88CCBDDC876673
:104D300065745835A44B44821710822811310977C5
:104D4000BCABCACCBCBBDCBDCACCACBACBBCBABA5F
:104D5000797595495485464366466476465475563A
:104D600054865875865865877A886986996A96A99F
:104D70005A96AA6AA6AA8BA8BA9BAABAABA9BA8B5A
:104D8000A8BB7BB7BB6BB6BB5CC4BC06906918A163
:104D90008A09B09B08A07A07929A2AB29B29C39CE1
:104DA00049B49B58A468755644CDACDBDDCDDCCD51
:104DB000BCDBDBBDCB965A54B64A53854853843886
:104DC00044852740864875985985A64B65902701EC
:104DD000A99877943821D53D64844A87965A6654B9
:104DE0003432000000000000000000200300DBACB3
:104DF000AACCBBCA776776956956811A11800700DD
:104E0000A43921400300DDBCCBCCBCCBCCBCCACC8C
:104E1000ACCACBACBACB9CA8A75A76965643765868
:104E200065764653765764865865865865877999BE
:104E30005885985A95A95A96AA7AA7AA8BA8BA8A89
:104E4000A8AA9BA9BA8BA8BB8BB8BB7BB6BB5BB52A
:104E5000BC07906918A18A19B19B08B08A08929A78
:104E600029B29B5AC5AC4AC4AC59C379565554CCE7
:104E7000ACCBDDCDDCDDBDDBDCBDCBA77833A4293D
:104E800042954844844744631520854864A75A7571
:104E9000C44B33A23C57766210A32A32C53C5495CA
:104EA0005B989669654434430100000000000000EF
:104EB00000100300DA9EBACCBCCB543755A56A5615
:104EC000700800600600A43B65700500DCBDDBCC0B
:104ED000ACBACBBCCBCCABCACBACBACA8A97B86A9B
:104EE0007686464386586586476476586586586553
:104EF0008658658879994774875995A96A96A97AD9
:104F0000A7AA7A97A97A98AA8AA8A98AA8AA7BB7F1
:104F1000BB8BB7BB6BB4AA07A07918A18A19B19B48
:104F200009B08B0780892AB2AB5BB5AB3AB3AB5AF9
:104F3000B59A788777CCBDDBDDCDDCDDBCDBDCBDB5
:104F4000CBA67612942A53944833844623530420E4
:104F5000A75965A54932B12900C67C77733300A3F0
:104F60001A31B64A64543776944A55644443111052
:104F700010000000000000201200D98EBACCBCCC7A
:104F8000A88522A45A45700600400300854A758111
:104F90000710866CBACCACCACBBCBBCCACCABBAB22
:104FA000A9B97B97975864653764765864864864D6
:104FB0007648658658658658658889993773775825
:104FC00095995996996AA6AA6AA6AA6AA6AA389332
:104FD000785896997BA7BA8BB8BB5BB49B07A0693E
:104FE00029A39A4AC3AB2AC19B18A29A5BC5AB4BB3
:104FF000B4AB5BC5BD7BC6AA9AB899898BAACBAD69
:10500000DBCCBDCBDCBEDC622823943A54621500B5
:10501000400400520520A86A65911A01B23B34B4DD
:105020004B555222004005003009760001007008FF
:10503000217535541211110000000000000000001D
:10504000C98DBACBBCBAEEBCA9A12900800500105D
:105050000100522965A30910100210DDBCBABBABD8
:10506000BACC9CC9CB9CB9754764863864764764D2
:10507000864864864864754755866766877877A949
:10508000999816626658858859969969969A6AA67B
:10509000AA49939939A2893894996AA7BA7BA7AA91
:1050A0005AA4AA18B17A4AB4AB4AB4AB29B18A2936
:1050B000A29A5AB5AB4BB4BB6BC6CC7BB7BB89A726
:1050C00089ABBABBBA9DCAECADCBDCBDCB8339345E
:1050D000944843400400400410510621600600A299
:1050E0002A33C88C998758642002001001001009E7
:1050F0009787720060071175465422111100000055
:10510000000000000000C88DA9CBADCBDCBDCB9169
:105110003912600400000000200632B51A21300266
:1051200000554BAACBACBACB8BA7753764754754E7
:1051300086486476476486486485485586686676FE
:105140006887988998A989980550665885985995CF
:10515000994994995AA6AA49A39939A38A28A39A46
:1051600069A6AA7AA7AB6AA6AB5BD5BC4AB4AB4A20
:10517000B4AB29B29B29B29B49B49B5BB5BC6BB65F
:10518000BC7CC7CC8BC79A9BB9CC542642DB8DB86C
:10519000ECBDBA611701A669764014006337446319
:1051A0002400500500944B65A87AA88749745105DE
:1051B00011210321200100A97865510511533443C1
:1051C000222121000000000000000100A76C97DBF5
:1051D000ACA9CCBDDC6345224003000000001001F7
:1051E00000720710300200000111CA8B87964864D4
:1051F0007547548647648648647647648548548674
:105200005866877887AA9AA8AA9AA9A98A98055061
:10521000555766875A95AA48948A5995995AA5AAC6
:1052200038A38A39A39959A69A7BA7BA6BA6BA6BF9
:10523000B5BB4AB49B49B4AB3AB3AB39B39B49A5B0
:10524000AB6CB6CB7BC7BC7CC7CC8CC8BB8CB9CB9A
:10525000212411863863CA8976611500A65511503C
:105260002401B87844401401501601832B75A878A6
:1052700075853965A43A535215314113116328439A
:1052800087688722423422211100000000000000BC
:105290000100853B86DA8DA9CCACCACBACBB000043
:1052A00001100100000000200300100100000100B7
:1052B000511621754753764764764764764864767D
:1052C0004754765765767877AA9AA9AA8AA8AA8AAF
:1052D000A8A98998044055376487498499489489D6
:1052E0005995996AA6AA49A49A49A4AA5AA59A7B4B
:1052F000A7BA7BA7BA6BB6BB5AB5AB4AB4AB39B346
:105300009B39A39A6BC7CC5BB5BB6BC6BC7CC7CCC7
:105310008CD8BC8CC7CC33553497675485374362DF
:105320001531531300A56C8830051055545541357F
:1053300013966A87A87987975864A43A436216211E
:10534000422432310510BA8A98677566121111002D
:105350000000000000000100A76954CA7CA7CC9C93
:10536000CA655A99BA987711100000000010000021
:10537000000000000100522522753753763753761E
:105380003753754754765765777887A99A99BA9BAA
:10539000A9AA8AA8AA8AA8A989980440550660667D
:1053A0003774885A95A97A97AA7AA7A96AA6AA5A99
:1053B000A5AA6AA6AA8BA8BA7BA7BA7BA7BA6BB61E
:1053C000BB6BB5BB4AB49B5AA6BB6BB6BB6CC6BB2A
:1053D0006BC6BC7CB7CC7BC6BB6CB6CB456655BA3E
:1053E0009876832500944965600810A338225014EC
:1053F000002001006659A8887987A8698698787680
:105400008439537215102111001002001002215529
:105410004554110010000000000000000100944CF1
:1054200076C75B64CB8CB9100210B66B66010000C6
:105430000000000000000000001002006227437519
:105440003753753853754754655665988999AA9AA4
:10545000A9AA9AA9BA9BA9BA8AA8AA8AA8A9899826
:105460000440450660663774876A96A98A98A97AC7
:10547000A7AA6AA6AA6AA5AA7BA7BA7AA7AA7AA7A0
:10548000AA7BB7BB7BB7BB6BB5BB5BB5BB5AB6BB27
:105490006BB6BB6BC6BC6BB6BB6CB6CB6BC7CC6C10
:1054A000B6CC89A877AA9776521300833722600A70
:1054B00023500944646523300400AA8BCA98887776
:1054C0009869866556545427534003000001000034
:1054D0001001000000210110000000000000000089
:1054E00000000100500600A32B44C96B967764228C
:1054F0006006006545441001000000000000001136
:10550000032163375475375275375375476577787C
:1055100078AAAAA9BB9BA9BA9BA9AA9A99AA8AA860
:10552000AA8AA8A9899804305405606737747779E6
:1055300097997A98A97A97A97A97AA7AA7AA7BA71E
:10554000BA7BA6AA6AA6AA8BB8BA7BA6BB6BA7BB76
:105550007BB7BB6BB6BB6BB6BB6BB6BB6BB6BB7C72
:10556000C7CC6BB6BB7CB7CC9BC8AA876765100558
:1055700033855855934712977BAAA7795531021066
:10558000AA8CB9988887876776766655323101107C
:1055900001000000001001000000000000000000F9
:1055A000000000000000005336336017018009102E
:1055B000B74851A96753623501C66B7610010000E8
:1055C0000000000000644754753753653753654742
:1055D00055766887AA9AA9BA9BA9BA9BA9BA9AA92B
:1055E000BA9BA9B98AA8A98A9899799704304305E2
:1055F00060563774776986988A98A98A98A98A9894
:10560000A98AA8AA7A97B97BA7AA6AA7AA8BA8BAD7
:105610007BA7BA7BA8BB8BB8BB7BB7BB7BB7BB7B7D
:10562000B7BB6CB6CB7CC7CB7BB7BB8CB9CCABCA9A
:10563000AA655433A99BBA544645634645CCCCBBB6
:10564000B77A44722410764BB8AA988788699898DC
:1056500088877896780010010000000000000000A4
:1056600000000000000000000000000010B55B44D6
:10567000933833700800B62B72973963965845817A
:1056800019214003000000000002107537537526F1
:1056900052654554666666AAAAA9BA9BA9BA9BA98F
:1056A000BA9BA9BA9AA9BA9BA8A98AA8A98A9899C3
:1056B00079970320430550553774775885887A9732
:1056C000A98A98A98AA8AA8AA8AA8AA8BA7AA7AAF7
:1056D0007AA7BA7BA7BA8BA8BA8BA8BA8BA8BA7BD1
:1056E000B7BB7BB7BB7BB7BB6BB6BB7BB8BB8BB861
:1056F000BB9CC9BBAA9AA9655423BA9CBA44465616
:10570000767766CCBBBAB65B44A44621532A97BBD6
:105710009998997996A86A86BBABCB432220000062
:105720000000000000000000000000000000000079
:10573000000000933A33B55B55701700B41B40B7B7
:10574000395284385450060093250010010030046B
:1057500010642642742653666666999AAAAA9BB973
:10576000BA9BA9BA9BA9BA9BA9BA9BA9BA9BA8A99B
:105770008A98A98A989979970210320560663773DA
:10578000873883885885987A97A97A97A97A97A9AC
:105790007A98AA8AA8AA7AA6AA6A97AA8BA9BA8B83
:1057A000A8BA8BA7BB7BB8BB8BA8BA7BA7BA6BA7E1
:1057B000BA8BA7BA8BB8BBAA9AA8B88A87532A977C
:1057C000CAACAA455466466122BCBBCBA44C54B5B6
:1057D0004A44200845987886997886A86B97BB8BB1
:1057E000B8853421000000110010000000001001F5
:1057F000000000000000000000100100B77A5671A0
:105800002701B10A00B20A30820821B54A43600676
:1058100000400400600500653643644544AAAAAA16
:10582000BB9BB9AA9BA9BA9BA9BA9BA9AA8AA8AAF9
:105830009AA9AA9A98A98AA8A97A9798798702001A
:10584000310540553773773883885885987A97A9FA
:105850007A96A96A97A97AA7AA7A97AA6AA5A9693E
:1058600096AA8AA8BA8BA8BA7BA7BA7AB7AB8BA834
:10587000BA7BB7BB7AA8BB9BA9B989788785351055
:10588000955733B98CA9BB99A8355467345122BCBC
:10589000ABCAB54C44C65A651005448988989879B6
:1058A00086B87A86A869754213100110001101109C
:1058B0000100100000000020020020020010001073
:1058C0000100C99D9A944600900900900A20900812
:1058D00000B32B3260060050050061162255455575
:1058E000888999AB9AB9AA9AA9BA9BA9BA9BA9AA7D
:1058F0009AA9BA9AA8AA8AA9A98A98A98A98A97AD3
:10590000979879870100200420432773773883888C
:105910004985986986A96A96996A96A97AA7A96A13
:10592000A6AA5AA59959A6AA7AA7AA7BA7BA6BA62E
:10593000BA6AB6AB6AA6BA6BA7BAA87A8697576452
:10594000865643500932833510BA9BA95646863590
:105950006468335011CCBCBAC55D44A54A6566671E
:10596000889A9BCB987A87754300410300322322A3
:105970001221111111111211221211222342352468
:105980005345011000000100A88B88C89A65710773
:1059900000800A22A10A00B11C21A10800400500D4
:1059A000422433555666AA9AA8AA8BA8AA8AA9AAFD
:1059B0009BA9BA9BA9BA9BA9A98AA8AA9AA9A98AAC
:1059C00098A97A97A9799798798700000002002111
:1059D000166276387387388488488488699699690E
:1059E00096A97A97A96A96A96AA6AA6AA5AA6AA791
:1059F000AA7AA7AA6AA6AA6BB6BB7AA6AA8BA99905
:105A0000B22B22600500400300811922500731AA01
:105A10008AA8567456567557334000BCBBAAC55C5D
:105A200055A75986787675BCABCAA989872112001B
:105A300021010023223334434400100100111222BB
:105A40003233344454565565000000110100A87BE0
:105A500098C98B77922810600800700700A10B107E
:105A6000C11B11600600A98BAAAA9AA9AA7BA8BA91
:105A70008BA8BA8BA8BA9BA8BA8BA8AA8AA8AA8A0C
:105A8000A8A98A98A98A98A97A9687687698798722
:105A900000000000001005426537737738838838AE
:105AA00083884885986996A97A97A97A97A97AA749
:105AB000AA6AA6AA6AA6AA6BA6BA6AA6AA7AA7BA68
:105AC0006BA7BA9569449009005005005005007015
:105AD0000901721B86AA9888556456455343433181
