:020000040000FA
:100000006FEF23F0120FF66E000EF7220900F55085
:100010001200FFFFFFFFFFFFFFFFFFFFFFFFFFFFDC
:10002000FFFFFFFFFFDFDFDFBB9A72724D4D4D4DCB
:100030002D4D4D7296B6DBDBDBFFDBB692492549D1
:100040004949242424242424042425252924252939
:10005000292929242429242429292524244924241C
:100060002525292424494929B6BA724D2D294D4DFB
:100070006D4D4D72724D4D494D4D2D2D4D4D2929D2
:10008000294D4D4D4D292929292D4D4D4D4D4D2998
:1000900029294D724D4DFFFFFFFFFFFFFFFFFFFFBF
:1000A000FFFFFFFFFFFFFFFFFFB6BBDFBF9A724DF1
:1000B0004D4D4D4D729696BABBB6FFFFDFFFFFBAAE
:1000C0004949492924242424242424252529242475
:1000D000242525492924242424294929492525255D
:1000E00049254925292425492524254925DB6D4D08
:1000F0004D292D4D6D6D4D524D4D726D6D4D4D2DEA
:100100004D4D4D2D294D4D4D4D292929294D4D4DF3
:100110002D2929292929524D4D4DFFFFFFFFFFFFB2
:10012000FFFFFFFFFFFFFFFFFFFFFFFFFFBBBBDF87
:10013000BB96724D2D294D72B6DBBBBBDFBBFFFFFB
:10014000DBDBB64949252500002424242425242569
:1001500029252925292929292949254949252929BF
:10016000492529494924492549252524252525248A
:100170002949494D294D4D6D6D6D4D6D7272926DD0
:100180006D294D4D49494D2D2D4D4D4D4D29292957
:10019000294D4D2925292929292D4D4D4D4DFFFF4B
:1001A000FFFFFFFFFFFFFFFFFFFFFFFFFFFFFFFF5F
:1001B000FFBBBBBB9A76724D294D4D7296BABBBB45
:1001C000BAB6BABBB696494925002424240424248F
:1001D00024242529292529292925242524292525BB
:1001E00029242504242425252549256D4949254907
:1001F00029254925292524724D724D6D926D494D51
:1002000092726D6D6D29294D494949292D2D4D4D0C
:100210004D292929292D292529292929294D4D4DBE
:100220004D4DFFFFFFFFFFFFFFFFFFFFFFFFFFFF42
:10023000FFFFFFFFFFBB9A969676724D4D4D4D52D4
:10024000727296DBBB9696B696494D24240424041C
:100250002424242425252529242424242424242456
:100260002504242424292425252929292525242554
:10027000496D492529492925252525494D724D9640
:10028000964D49494D4D4D6D6D29292929492929F9
:100290002D2D2D4D2D29292929292925292D2D2996
:1002A000294D4D4D4D4DFFFFFFFFFFFFFFFFFFFFAE
:1002B000FFFFFFFFFFFFFFFFFFBBBF9A7276727267
:1002C0004D4D4D4D4D7296B6BAB6B6B66D49250434
:1002D00024252424242424294929252424242424AD
:1002E000240404240424242424252929252525251F
:1002F0002525494949496D24254949492525292567
:10030000494D4D726D4D4949494D499269B649294A
:10031000294929292D4D2D4D4D29292929292929B9
:10032000292D4D2D294D4D4D4D4DFFFFFFFFFFFF59
:10033000FFFFFFFFFFFFFFFFFFFFFFFFFFFFDF9A52
:1003400072727672724D4D4D4D4D729696B6BA4997
:100350004925002424242424292525252925252947
:10036000252925252424242400202424252424246C
:10037000252424242424242425496D6D4925494914
:100380002924494924294D726D6D6D494D4D4D9279
:1003900092BA292929294929292D4D4D4D49492507
:1003A0002525292929292D2D294D4D4D4D4DFFFF5D
:1003B000FFFFFFFFFFFFFFFFFFFFFFFFFFFFFFDF6D
:1003C000BBFFFFBA7272727272724D4D4D4D7272F6
:1003D00096BA4D49252424002424242524252925A2
:1003E00025252424252524252525244924242424A1
:1003F0002449242424242424242425242425496D28
:100400004949252549294949252592724D4D494D8E
:100410006D4D496D69292929292929292929294D1C
:1004200049494945252529292929292929294D4D80
:100430004D52FFFFFFFFFFFFFFFFFFFFFFFFFFFF2B
:10044000FFFFFFBABBDFBBBA7672727272724D4D9C
:100450004D4D7272966D4925242424242524292487
:10046000252929250425242424242424242424245F
:10047000242424242424252424242424242424243B
:100480002424246D49494949252925242425494DF9
:100490004D72726D6D4D4D6D4929292949292929C2
:1004A000292929294949492524242429292929296F
:1004B00049254D4D4D4DFFFFFFFFFFFFFFFFFFFFA4
:1004C000FFFFFFFFFFFFDFBABBDFBB767272727206
:1004D00072724D4D4D4D72726D6D49242524242448
:1004E00024252425492524242425242424242424A3
:1004F0002424242424242424492449242424242472
:10050000242424242425242449494924492529250F
:100510002929244952729272724D4D6D49494929D7
:1005200049492929292929292925252424242449F7
:10053000494929494925494D4D49FFFFFFFFFFFF23
:10054000FFFFFFFFFFFFFFFFFFDFBBDFDFFFDF720C
:1005500072724D5272725272524D4D4D6D49242439
:10056000252425242524252925242449242424241C
:100570002424242424242424242424242425252538
:100580002424242424242424242425242425252428
:1005900024254949252525254D4D6D4D4D29296D8C
:1005A00049494949494929492549492925252525AF
:1005B0002545454549492949494549494949FFFF93
:1005C000FFFFFFFFFFFFFFFFFFFFFFFFFFDFDFDF9B
:1005D000DFFFFF72724D4D525252727272524D4D88
:1005E0004D2900242424242524252949252449246F
:1005F00024242424242424242424240024242424DF
:100600002425492424242424242424242424252582
:1006100024242549252425292424252549494D4DCF
:100620004929496D494D49292949494925494929B6
:1006300029292925454545454949494949494949BE
:100640004949FFFFFFFFFFFFFFFFFFFFFFFFFFFF26
:10065000FFFFDFDFBBFFDF724D4D4D4D4D4D4D7246
:100660007272526D49252424242424242429252906
:1006700024252424242424242424242400000424A1
:100680002424240024494925242424242424242403
:10069000242425244924254949252449252525257F
:1006A00025494D4D292D4D6D496D494949494949C6
:1006B0002449492929292929254925254925254527
:1006C000494949494949FFFFFFFFFFFFFFFFFFFF7E
:1006D000FFFFFFFFFFFFFFDFDFDFBB724D4D4D4D23
:1006E0004D292D4D72724D4924242424242525257D
:1006F00049242924252424242424242424242404AF
:100700002424242424242424242449252524242482
:100710000024252424252429254924252549252468
:100720004924242525494D4D29294D4D496D4D49D3
:10073000696949492429292929292929242425495C
:1007400049292925494949492929FFFFFFFFFFFF79
:10075000FFFFFFFFFFFFFFFFFFFFFFDFBBBA724D91
:100760004D4D4D4D29292D2D4D4D6D2524242424ED
:100770002524292924492525242424242424242407
:100780002424002424242424242424242424494903
:100790002424242424242424252525242524252414
:1007A00024252525492925242524294D4D294D4930
:1007B0004949694969694549242929292929292457
:1007C0002425252424252949494925252929FFFFB0
:1007D000FFFFFFFFFFFFFFFFFFFFFFFFFFFFFFBB6D
:1007E000BB964D4D4D4D4D4D29294D4D4D6D4924D7
:1007F000252424242425252525492524242424248E
:1008000024242424242424242424242424242424A8
:10081000242524244925242424242424242525296A
:100820002524242524252524242924252425494D2F
:1008300049294D6D49496969494925492929292984
:100840004D4929242449492924244D49494925242D
:100850002425FFFFFFFFFFFFFFFFFFFFFFFFFFFF5D
:10086000FFFFDF9696724D2D4D4D4D4D4D294D4D4F
:100870004D6D492425242425252549252525242475
:100880002424242424242424242424242424242428
:100890002424242425494949492524242424242482
:1008A00024242425292925242525254924242924CF
:1008B00025242449492D4D6D49496969292945490E
:1008C0004929292949292424294D492924244945EC
:1008D000492925242424FFFFFFFFFFFFFFFFFFFF1F
:1008E000FFFFFFFFFFFFBB524D4D4D4D4D4D4D4D99
:1008F0004D2D4D52724D24290024252424492525AF
:100900004924242524242424242424242424242481
:100910002424242424244549494949494949452452
:10092000242424242424252429292524242524247A
:100930002524252524252549494D4D6D4929494D15
:1009400029494949494D292925202424494949490A
:1009500029252524242424242545FFFFFFFFFFFF0C
:10096000FFFFFFFFFFFFFFFFFFDF96524D2D4D4DB5
:10097000524D4D4D4D4D727272492524242524242B
:100980002525252549242424242400242424242422
:1009900024242424242424254945496969696D694E
:1009A0006945492424242024242424242449252559
:1009B0002425252549242925242425494949696DCB
:1009C0004949294D4D494949252929242424496D5E
:1009D0004D4D494929292925242524454549FFFF0D
:1009E000FFFFFFFFFFFFFFFFFFFFFFFFFFDF724D76
:1009F0004D2D4D7276727252527272726D24242491
:100A000024242524492524252424242400002424C6
:100A1000242424242424242425494949496D6D692A
:100A200069696D6969696945244524002424242481
:100A30002425252524242524244924292424242547
:100A40004949696D694D4D4929294D494525492532
:100A5000254949494D4D4D292929292524454545F3
:100A60002449FFFFFFFFFFFFFFFFFFFFFFFFFFFF27
:100A7000FFDF724D4D2D4D727252724D4D52524DDF
:100A80004D252525252424492449492400252424AD
:100A90002424252424242424242449496969696DB3
:100AA0008D8D8D8D8D8D6D8D8D6969694524242485
:100AB0002424242424244949242424492449242561
:100AC000242425256D6D6D6D694D4D49294D4D6D64
:100AD0004549494949492525494D4929492929492E
:100AE000294545242549FFFFFFFFFFFFFFFFFFFFCB
:100AF000FFFFFFFFFFDB96724D524DBA4D4D4D4D3E
:100B00004D4D4D4949252424242424494524252498
:100B100024242424242424242445454969698D8DD2
:100B20008DB2B2B2B2B2B2B2B2B28DB26D6D69690B
:100B300049452424242424242524254949252524E1
:100B40002424244929242524256D6D8D494D4D4D9E
:100B50004D4D4D4D694929494949242424492524AD
:100B60002425494949496D494525FFFFFFFFFFFFFE
:100B7000FFFFFFFFFFFFDBDFDF969672727296DBEF
:100B8000DF724D524D4D4D6D2525242424452545BC
:100B90002425242425242424242424242445698D44
:100BA0008D8DB2B2B2B2B2B2B2B2B2B2B2B2928DB4
:100BB0008D6D696969454524242424242424242531
:100BC000254925254924252429242524496D496DB5
:100BD000494D4D492929294D6D49494D4D494524D6
:100BE0002425244549494945494969494949FFFF5F
:100BF000FFFFFFFFFFFFFFFFFFFFFFBB9A7296BAE9
:100C000096BAB6FFFFBA76727272726D24242424EB
:100C10002425492424242424242024252424242471
:100C200049698D8DB2B2B2B2D2D2B6D6D6D6D6D6A8
:100C3000B2B2B2B28D6D6D69694545242424242475
:100C4000242424242525242424252525252424245E
:100C5000246D496D494929292525494D6949494D41
:100C60004D6D6D2524252445696949496D694949BA
:100C70004949FFFFFFFFFFFFFFFFFFDFDFDFDF521D
:100C8000725296DBDBFFFFFFFFBA727272724D4940
:100C900049242424242424242425242424242424EE
:100CA000242424698D8DB2B2D2D2D6D6D6D6D6D649
:100CB000D6D6D6D6B2D6B28D8D8D8D6969694945A5
:100CC00024242424242424242425492525242424BC
:100CD000492404252449496D4925252525254D4DBF
:100CE0004969494972926D25252524496969698DAB
:100CF0006D4945494949FFFFFFFFFFFFFFFFBBBBB0
:100D0000BB72764D525272BADBFFFFBABB7672727B
:100D10004D4D6D45242524242425252424242424D4
:100D2000242424244524458D8DB2B2D2D6D6D6D6DD
:100D3000D6D6D6D6D6D6D6D6D6B2D2B2B28D8D6DBE
:100D4000696945442424242424242420242525249A
:100D500025252425242524252445496D4924252598
:100D600025256D6D4969494972726D2525242445F3
:100D700049696949454549696969FFFFFFFFFFFF07
:100D8000FFFFDF9A762D294D72BAB696964D4D4DDE
:100D9000527252524D4D9245242424242525242458
:100DA000452424242424242524208DADB2B2D2D677
:100DB000D6D6D6D6D6D6D6D6D6D6D6D6D6D2B2B21F
:100DC000B2B28D8D8D6D4544242424242400242426
:100DD0002424252424252424242924244524496D3D
:100DE0004949292925254949496949294D494545FF
:100DF0002424244545444944242449494949FFFFC2
:100E0000FFFFFFFFFFDFBB964D29724D5296964DB7
:100E10002929294D52525252524D6D2425242445E0
:100E2000254524242424240024242424248D8DB224
:100E3000B2D2D6D6D6D6D6D6D6D6D6D6D6D6D6D67A
:100E4000D6D6B2B2B2B2928D8D69494545242424DA
:100E50002024202424242525242424242429042473
:100E60002424496949492929292929494D494949B8
:100E7000492925452445452425244929492925244E
:100E80002424FFFFFFFFFFFFFFBB76727672929272
:100E900029292929294D4D52524D4D4D4D4D49205D
:100EA0002524242449242425242500002424452401
:100EB00044ADB2B2D6D6D6D6D6D6D6D6D6D6D6D6D5
:100EC000D6D6D6D6D6D6D2B2B2B2B2B28D6969492A
:100ED00045242424242400242420242524242424D8
:100EE000242424242424256D696D29292929294DA8
:100EF0004D6D6949494945244545242445252929FD
:100F00002D4949242424FFFFFFFFFFFFDF96725283
:100F10007292727229292929294D524D4D52524DF2
:100F20004D4D49252424242425242425242500242A
:100F300024254524B2B2B2D2D6D6D6D6D6D6D6D667
:100F4000D6D6D6D6D6D6D6D6D6D6D6B2B2B2B28D1A
:100F50006969694945242424240020242424242464
:100F600025242424242424242424246D494D29299F
:100F70002929294D6D6D6D69494929252425242488
:100F800045492929294D6D452425FFFFFFFFFFDB3A
:100F9000964D4D4D4D9649292929252529292D2D37
:100FA0004D4D4D4D4D6D49252524242524242525C1
:100FB0002424002424454524B2B2B2D6D6D6D6D6AF
:100FC000D6D6D6D6D6D6D6D6D6D6D6D6D6D6D6D2C5
:100FD000B2B2B2B28D8D6D69452424242424242418
:100FE000242424242524242424242524242424697A
:100FF000494D2D292929294D6D726D6D49292929C0
:101000002525242445492929294D6D492424FFFFFC
:10101000FFFFBA967249294D926D29252929252568
:10102000252525292929294D4D6D45492424254566
:10103000452425242524202424492492B2B2D2D642
:10104000D6D6D6D6D6F6F6F6D6D6D6D6D6D6D6D6E0
:10105000D6D6D6D2D2B2B2B28D8D8D69694424244F
:101060002424240024242424242424242424252463
:1010700024242449454D4D4D4D4D4D4D6D6D4D4DE7
:101080004D29292924252424254949294D4D4D49F7
:101090004945FFFFFFDF967272292949494D2929E9
:1010A00029292925252424242525294D4D49242471
:1010B000242424242424252424242424444924B21C
:1010C000B2D2D2D6D6D6D6F6F6F6F6D6D6D6D6D66C
:1010D000D6D6D6D6D6D6D6D2D2B2B2B2B2AD8D8D03
:1010E000694424242424242424242424242424245B
:1010F000242424242424242949494D4D4D4D4D4D6B
:101100004D494D4D4D2D4D492425242424254D4D2B
:101110006D6D6D694945FFFFFFDF724D2929292952
:101120002925292929292929252524242529492929
:10113000496D2424242424492425242424002424FF
:10114000454545B2B2D2D6D6D6D6D6F6F6F6F6D6BE
:10115000F6F6D6D6D6D6D6D6D6D6D6D2D2D2D2B223
:10116000B2B28D8D6D4944242424242424242424C3
:1011700024492424202424242424242449494D6D52
:101180006D4D4D292929494D4D49494949494945FF
:1011900024254949694949454524FFDBB6964D4D0B
:1011A0004D2929292929252529292929292525259F
:1011B000292949296D49242424244524242524252A
:1011C0002400242449248DB2B2D2D6D6D6F6F6F61F
:1011D000F6F6F6F6F6F6D6D6D6D6D6D6D6D6D6D6EF
:1011E000D6D2D2B2B2B2B28D8D6944452424242421
:1011F00024242424242424240024242420242424D7
:1012000049496D726D4D2929292929494949494979
:10121000294D494925454545452424494945BBDBD8
:10122000BA72524D4D2929292929252525292929EF
:1012300029292925292929496D24242425202424E4
:1012400024452424240024244924ADB2B2D6D6D681
:10125000D6F6F6F6F6F6F6F6F6F6D6D6D6D6D6D60E
:10126000D6D6D6D6D6D2D2D2B2B2B28D8D694449B4
:101270002424242424242424242424240024242551
:1012800024002424254D72726D4D292D29292929E8
:1012900025454929294D4D4D25242524242524451E
:1012A0004944DBDFBB96726D4D4D4D292929292517
:1012B0002525252929252925252925256D25242488
:1012C0002524242420242424202424244569ADB268
:1012D000D2D6D6D6F6F6F6F6F6F6F6F6F6D6D6D692
:1012E000D6D6D6D6D6D6D6D6D6D6D2D2B2B2B2AD3B
:1012F0008D8D694945242424242424242424242451
:101300002424242524242424244D4D4D4D4D2D29C1
:101310002D292949494949294D4D294949244949F6
:10132000454945452445DBDB9672724D4D4D4D498F
:101330002929292925252529252425252529252447
:10134000492424242424242424242524002424443B
:101350002492B2B2D2D6D6D6F6F6F6F6F6F6F6F66F
:10136000F6F6F6D6D6D6D6D6D6D6D6D6D6D6D2D2C5
:10137000B2B2B2B28D8D69454524242024242424A0
:10138000242424242424242424242424244D524D9D
:101390004D4D4D2D4D494949494929294949294929
:1013A00049454549494949494949DFB6726D4D4D5D
:1013B0004D4D492929292929252525292524242553
:1013C000292525496924002525244524242424246D
:1013D00020242445248DADB2D2D6F6F6F6F6F6F6E4
:1013E000F6F6F6F6F6F6F6F6D6D6D6D6D6D6D6D69D
:1013F000D6D6D6D2D2B2B2B28D8D69494924242430
:1014000024242424242424242400242424242424C0
:10141000244D724D6D4D4D4D4D4D49494D49292934
:1014200049494D2945494949494949492929B672F6
:101430007252524D4D4D4D292929292925252529FD
:101440002424242529252549492424242425252408
:101450002524242424242445248DADB2D6D6D6F6C2
:10146000F6F6F6F6F6F6F6F6F6F6F6D6D6D6D6D6BC
:10147000D6D6D6D6D6D6D6D2B2B2B2B2AD8D8D69C8
:1014800069242424242424252400242424242424FA
:1014900024242424244D724D4D4D4D4D6D4D4DFF52
:1014A000B649494D49494945494949494949494D3B
:1014B0004929727272524D4D4D4D2D4D4D2929299C
:1014C00024252524242424242525292525242424D1
:1014D00020242420252425242424244549ADB2D2C7
:1014E000D6F6F6F6F6F6F6F6F6F6F6F6F6F6F6F6BC
:1014F000F6D6D6D6D6D6D6D6D6D6D6D6D2B2B2B2DC
:10150000B28D8D8D69492424242424242424242468
:10151000242400242424000024494D4D494D4D4DE0
:101520004D4D49B292494D4D4D4969696949254929
:101530004949494925496D7272724D4D4D29294DD0
:101540004D4D4D2929252524242424242425494989
:101550002424002424242420242424242424244552
:101560006DADB2D2D6F6F6FAFAF6F6F6F6F6F6F66D
:10157000F6F6F6F6F6F6D6D6D6D6D6D6D6D6D6D64B
:10158000D6B2B2B2B28D8D8D696924242024242470
:1015900024242424242000002424000024244D4951
:1015A000494D6D6D494D6D6D24494D4D4D2949692C
:1015B0006949492929494949252572727272724D32
:1015C0004929292929292929492925242424242468
:1015D00025254949242400242424242424242424A3
:1015E000242445248DADB2D6D6F6F6FAFAFAF6F6EC
:1015F000F6F6F6F6F6F6F6F6F6F6D6D6D6D6D6D64B
:10160000D6D6D6D6D6B6B2B2B2B28D8D8969692495
:1016100024242424242424242424000424240024F2
:101620002424492929294D6D496D6D6D44254D723C
:101630004D4D4D4949694929494D494949497272B8
:10164000724D4D4D2929292525252529292929246A
:101650002424242525242549242400242424242446
:1016600024202424202425248DB2D2D6F6F6F6FA9E
:10167000FAF6F6F6F6F6F6F6F6F6F6F6F6F6D6D646
:10168000D6D6D6D6D6D6D6D6D6B2B2B2B2B28D8D40
:101690006969694424244524242424242024000046
:1016A0002424242424244929294D496D6D6D8D69F4
:1016B000494972724D4D4D494949494D4D4D4D4D28
:1016C0004D4D72726D4D4D4D4D29252524242424F8
:1016D0002429252424242425242449492424242479
:1016E0002424242424002400242424248DB2D6D6A7
:1016F000F6F6F6F6F6F6F6F6F6F6F6F6F6F6F6F68A
:10170000F6D6D6D6D6D6D6D6D6D6B6B2B28D8D8D9C
:101710008D8D8D8D696969442424242424252424F5
:101720002424000024242424202449494D4D4949DF
:101730006D6D69696D6D724D4D4D4D492929492D6C
:101740004D4D4D4D4D4D726D4D4D4D4D49292525FC
:1017500025242424242424242424242524254949FC
:10176000242424242424242424002400242445691B
:10177000B2D2D6F6F6FAF6F6F6F6F6F6F6F6F6F68D
:10178000F6F6F6F6D6D6D6D6D6D2B2928D8D696951
:10179000698D8D8D8D8D8D698969694544242424D9
:1017A0002425242424240000240024242024254942
:1017B0006D492929494949498D92524D4D4D4D4D0B
:1017C000492D292D4D4D494D6D4D6D6D6D4D4D4D35
:1017D000492925252424242424242424242424259C
:1017E00024292545242424242524242424002400D9
:1017F0002420456D8DB2D6D6D6D6D6F6D6D6D6D638
:10180000D6F6F6F6F6F6F6D6D6D6D2B2B28D696927
:101810006969458DADB2B2B2B2B28D8D8D6969493B
:1018200044242424002424242424240000242424C4
:10183000002424498D4929294949494949724D4D76
:101840004D4D4D2D4D4D2D2D4D2924454949696D49
:101850006D4D2949292925242424242424242424A1
:101860002424242524252449242424002424242435
:1018700024242400242424698D8D6D8D8D8D8DB2BA
:10188000B2D6D6D6D6D6F6F6F6D6F6D6D6D2B28D0D
:10189000696969698D8DB2B2B2B2B2B2B2B2B28DBB
:1018A0008D69696945242045202425242424242089
:1018B00000242400002424499269494949494549A2
:1018C00049724D4D4D4D4949494D2D2D2D494945A3
:1018D0004945696D6D494929292925252424242450
:1018E0002424242424242425242924452424242491
:1018F00024242425242024002424448D8D8D8D69C6
:10190000696969698D8DB2D2D6D6F6F6F6F6D6D665
:10191000D6D2B28D8D8D8DADADB2B2B2B2D2B2B2E1
:10192000B2B2B28D8D89696945240024242424240F
:10193000242400000024240000242549726D8D6DAC
:1019400049494949494D4D4D4D49494949494949F7
:101950004D49494D49296D6D4D4D49494929252527
:101960002424242424242424242424242525244910
:10197000242424202424242424202400240069B2A4
:10198000D2D2D2B2B2B2AD8D8D898DADD2D6D6D6ED
:10199000F6D6D6D6D6D2B2ADADADB2ADB2B2B2B247
:1019A000B2B2B2B2B2B2B2AD8D8D69694524002433
:1019B0002425242424240000002420242000494934
:1019C0006D6D924D4D4D4D49254D4D4D49694949DE
:1019D000494945254949494D2D4D4D4949292949EF
:1019E0004949292524242424242424242424242467
:1019F00025252449242424242424242424242400A4
:101A000000246DB2D2D2D6D2D2B2B2B2B2B2B2B297
:101A1000D2D6D6D6D6D6D6D6D2B2B2ADB2B2B2B26F
:101A20008DB28D696D8DB2B2B2B2AD8D8D8D896979
:101A300045242024242425252424000000242400D7
:101A400020206949496D724D4D4D4D49294D2D2D2F
:101A50004D4D4D4D4D4925242445454949494D2974
:101A600029292549494925252525252424242424B7
:101A70002424242425252445252400452424242405
:101A800024202400002469B2B2D2D2D2D2B2B2B29F
:101A9000B2B2B2B2D2D2D6D6D6D6D6D6D2D2B2B2CE
:101AA000B2B2B28D240000240024248DADAD8D8D02
:101AB0008D8D896945242024242424242424240071
:101AC000002424002000456D494D724D4D4D6D4957
:101AD000494D4D2D4D4D4D2D4D4D492445494949BB
:101AE00049494D4D49292949494929292929252467
:101AF0002424242424242424242424454524004963
:101B00002424242424002400002469ADB2B28D458D
:101B1000452444698DB2B2B2D2D2D6D6F6D6D6D644
:101B2000D2D2B2B2B2B2449224242424244549240D
:101B3000498D8D8D8D8D8D6945442024242420244C
:101B4000242400240024202420002469494D724DBF
:101B5000726D6D254D4D4D4D4D4D4D4D4D4D4929A0
:101B60004969696D4D494D4D4D49292529494929F5
:101B70004929292424252524242424242424042414
:101B80002424004524242424242024000024698DB6
:101B90008D452469B24949492020B2B2B2D2D6F665
:101BA000F6D6D6D6D2D2B2B2AD6969FB9220242441
:101BB0002469454945698DADAD8D89694544002449
:101BC0002424242424240000002424242400244940
:101BD00069496D4D4D4949494D4D4D4D4D494D4D0D
:101BE0002D2D2D4D4949494D4D4D4D4D49492925E5
:101BF00045696D4929494D29244545242424242437
:101C00004524042424000025242424242400200026
:101C10000024698D454444B2D6D66D4524246DAD6B
:101C2000B2D2D6F6F6F6D6D6D2B2B2B2AD6969B2B3
:101C3000B624244469698D8D8DB2B2B2AD8D8D69A3
:101C400045240020242020242024000000242424D3
:101C50002424244569496D492549494D4D4D4D4D33
:101C600049494949292D2D2D2D294D4D4D49494D84
:101C70004949294949696D6D49494D2924454524FA
:101C80002424000025242445452400242424002461
:101C9000242400200024698D69698D698D452424E0
:101CA00024246944D2D2D6F6F6F6D6D6D2B2B2D22F
:101CB000AD8DADB2B2B2B2B2B2B2ADB2B2B2B2B238
:101CC000B28D8D6945440020242020242424000066
:101CD0000024242400242424694D7249494D4D4D8B
:101CE0004D4D4D4949454969494D2D2D2D2D4929C8
:101CF000292D494D4D4D2949496D6D6D494929257C
:101D00002445452424242420252524252424202456
:101D100024240049252400242024898DB2ADB2B2A8
:101D2000AD8DAD8D8D8D8D8DD2D6D6F6F6F6D6D6FF
:101D3000B2B2D2D2B2B2D2B2D2D2D2B2B2B2B2D2A3
:101D4000D2D2D2B2B2AD8D6949240000242024241D
:101D50002424000000242420002424246D496D6DD7
:101D60004D4D4D4D4D49494949492445494D4D4DEC
:101D70002D2D2D2D2D2D494D4D4D6D6D6D726D6D92
:101D80006D6D6D6D6D6D6D494949494949494949C7
:101D900049242024242420252524202424248DB2F1
:101DA000B2D2D2D2D2D2B2B2B2B2B2B2D2D6F6F6A7
:101DB000FAF6F6D6D2B2D2D6D2D6D6D2D2D2D2D2A3
:101DC000D2D2D2D6D6D6D2D2B2AD8D694524002495
:101DD000242424242424000024242424002424242F
:101DE0006D496D72726D4D29296D6D4D4D4D4D4989
:101DF000496D4D4D2D2D2D4D2D2D494D4D6D729211
:101E00009292929292726D926D92726D6D6D6D6DF5
:101E10006D6D926D49242424240024242424000080
:101E200024458DB2D2D6D6D6D6D2D2D2B2B2D2D262
:101E3000D6D6F6F6FAFAD6D6D6B2D6D6D6D6D6D6DE
:101E4000D6D6D6D6D6D6D6D6D6D6D2D2B2AD8D693D
:101E50004524002024242424242420002424242471
:101E60002424242469696D6D728D4D4D4D4D4D4D69
:101E70004D2D4D4D49494D4D4D2D2D2D2D2D494D5E
:101E80004D6D6D8D92929292926D8D927292929210
:101E9000928D6D929292929269242424242400249B
:101EA000242424002449ADB2D6D6D6D6D6D6D2D252
:101EB000D6D6D6D6D6F6F6FAFAF6D6D6D6D2D6D61E
:101EC000D6D6D6D6D6D6D6D6F6F6F6F6D6D6D2D23A
:101ED000B2AD8D6945242424242424242420000028
:101EE00000202020242424244969696D6D926D6DA1
:101EF0004D4D4D524D4D4D2D2D29294D4D29292DFD
:101F00002D2D4D4D496D8D9292929292B2726D929D
:101F10006D72929292726D92B69292926D2420247A
:101F200024242024242424002469B2D2D6D6F6D630
:101F3000F6D6D6D6D6D6F6F6F6F6F6FAFAF6F6D6F9
:101F4000D6D2D6D6D6D6D6F6F6F6F6F6F6F6F6F615
:101F5000D6D6D2D2B2AD8D6945242424242424249B
:101F60002424000000202024242424244569496DD1
:101F70006D696D4D4D4D4D4D4D4D4D2D29292525ED
:101F80004929292D2D2D4D4D494D6D928D8D6D92E7
:101F9000B6926D92926D929292927292B6B66D6D69
:101FA0006D45242424240000242400202469B2D672
:101FB000F6F6F6F6F6F6F6F6F6F6F6F6F6F6F6FABD
:101FC000FAFAF6D6D6D6D6D6D6D6D6D6F6F6F6F6C9
:101FD000F6F6F6F6D6D2D2D2B2AD8D69452400001F
:101FE0002424242424242400002020202424242405
:101FF00024694949696D6D4D4D4D4D4D724D4D2DC5
:1020000029292525494929494D4D4D4D494D6D6D8C
:102010008D926D6D92929292926D92929292929214
:10202000B6B6924D6D45242424242024242424244F
:102030000069D2F6F6F6F6F6F6F6F6F6F6F6F6F6E7
:10204000F6F6FAFAFAFAF6D6D6D6D6D6D6D6D6D640
:10205000F6F6F6F6F6F6F6F6D6D2D2D2ADAD8D6934
:102060004524002024242424242424000024202483
:102070000024242424494949494D4D4D4D524D4D8C
:1020800072494D4D49494949492929294D494D4DE3
:1020900029494D6D6D8D6D6D92926D9292729292F5
:1020A000926D927292926D4D6D49202424240024E9
:1020B000242424200045D2F6F6FAFAF6F6F6F6F6CF
:1020C000F6F6F6F6F6F6FAFAFAFAF6D6D6D6D6D640
:1020D000D6D2D6D6D6F6F6F6F6F6F6F6D6D2D2B2F0
:1020E000ADAD8D6949240000242424242424240037
:1020F000002400242424240004496D49494D4D4DF9
:102100004D4D4D4D726D6D6D6D69494D29292929D2
:1021100049494D2929294D6D6D6D6D4D6D726D6D5E
:10212000929292726D6D4D4D72926D4D494924247B
:1021300024242400242424240024B2F6F6FAFAF6F7
:10214000F6F6F6F6F6F6F6F6F6F6FAFAFAFAF6D63F
:10215000D6D6D2D2D2D2D6D6F6F6F6F6F6F6F6F62F
:10216000D6D2D2B2ADAD8D696924000024242424D6
:1021700024242400242400242424242424498D49B4
:1021800049494D4D4D4D29294949494949494D290B
:1021900029292949494992722929494D6D6D4D4D89
:1021A0004D6D4D6D6D92724D4D4D4D494D726D4D54
:1021B0002949202420242400242424242424B2D6A1
:1021C000F6FAFAF6F6F6F6F6F6F6F6F6F6F6FAFA9F
:1021D000FAFAF6D6D6D6B2B2B2B2D2D6D6D6F6F68B
:1021E000F6F6F6F6D6D2D2D2ADAD8D6969240000EE
:1021F00024242424242424002424242424242424C3
:1022000029496D6949494D4D4D4D29496D4925254E
:102210002425494D29294949454496924D29494942
:10222000494949292949494D4D6D4D29494D29298A
:10223000294D4D6D294924242424242424002424B8
:102240002424ADD6F6F6FAF6F6F6F6F6F6F6D6D677
:10225000F6F6FAFAFAF6F6D6D6D6B2B2D2D2B2D2AA
:10226000D6D6D6D6F6F6D6D6D2D2D2D2ADAD8D89C6
:102270006920000024242424242424002424000091
:10228000242424242925698D496D4D4D4D29294D3E
:1022900069694925244424494949494549456D4DC1
:1022A00029294949492929292929494D494949299A
:1022B000494929292929494929292425242424242B
:1022C0002424002424248DD6F6F6F6F6F6F6F6F647
:1022D000F6D6D6D6F6F6FAFAFAF6F6D6D6D2B2D6BA
:1022E000D6D2B2D2D2D6D6F6F6F6D6D6D2D2D2D26E
:1022F000ADAD8D89692000002424242424242420C9
:10230000002400000024242449246D6D496D496D8A
:102310004D4D4D4945494945242424494949494998
:10232000494449292525496949292929292929492A
:1023300029492929292925292929294929252425DE
:102340002025240024242024242449D6F6F6F6F659
:10235000F6F6F6D6D6D6D6F6F6F6F6F6F6F6F6D6BD
:10236000D6D2D2D6D2D2ADD2D2D2D2D6D6F6D6D636
:10237000D2D2D2D2B2AD8D896900000024242424A7
:1023800024240000200000000004242549496D8D0C
:10239000494929496D4D4969454549492424242520
:1023A0002929492925202925252549694925252522
:1023B000292929292949492925252529292925493D
:1023C000492949242424242400242020242424B21C
:1023D000F6F6F6F6F6F6F6F6D6D6D6F6F6F6F6F6FD
:1023E000F6F6F6D6D2D2D2D2D2B2B2D2D2D2D2D29D
:1023F000D6D6D6D6D2D2D2D2ADAD8D896900000064
:102400002424202424240000000000000024244D63
:102410004949696D6D4925494945496D49454949CC
:10242000492529294D4D4929252425252424494973
:1024300049252525292929292949492525252549A8
:1024400029292549494949242424242424242400D1
:1024500024242489D6F6F6F6F6F6D6D6D6D6D6D6DF
:10246000F6F6F6F6F6F6D6D2D2B2B2B2ADADB2D23A
:10247000D2D2D2D2D2D6D6D6D2D2D2D2B2AD8D8903
:1024800069000000242424242424002000002424A3
:102490002024246D4949696D8D6949694945698DD3
:1024A0006969494549494D4D4D292929292429253D
:1024B00025254949494925292929292929494925DC
:1024C00029254949492925494949492424242424BD
:1024D0002424240024244569D2D6F6F6D6D6D6D6AE
:1024E000D2D2D2D2D2D2D2F6D6D6D2D2ADADADAD34
:1024F000B2B2D2D2D2D2D2D2D2D2D2D2D2D2D2B21C
:10250000ADAD8D894500000024242424242400003E
:10251000000000002424002424496D6D696D4949A0
:1025200049696D8D698D8D69494D4D4D4D29294DF7
:1025300049242529252525494949292929292929A0
:1025400029494929494949494929254549494524AC
:10255000242424242424242420204549ADD2D6D662
:10256000D6D6D6D2D2D2D6D6D6D6D2D2D6D2D2B24B
:10257000B2B2B2D2D2D2D2D2D2B2B2B2D2D2D2D2FB
:10258000D2D2D2B2ADAD8D69200000002024242427
:1025900024240000240000002424242024496D6DFC
:1025A000696D49496969696D698D8D6D4D4D4D4DF7
:1025B0004D4D4D4D242449494929494949494949E5
:1025C00029292949494949494949494949294949FB
:1025D000492949452424242424242024242424442F
:1025E0008DB2D2D6D6D6D6D2D2D2D6D6F6F6D6D6C8
:1025F000D2D2ADADB2B2D2D2D2D2D2B2B2ADADADF4
:10260000ADD2D2D2D2D2D2B2ADADAD450000000033
:102610002424242424240000000000002424242452
:1026200029724D49496D694949496D8D8D69494DF9
:102630006D4D4D4D496D4D492545494949494949DA
:10264000494949494D4D4D4949494949492929294E
:1026500029294929292949492424002424202420DE
:102660002424242469ADB2D2D6D6D6D2B2ADD6D6E1
:10267000F6F6F6F6D2D2D2D2D2D2D2D2D2D2D2B2CA
:10268000B2AD69ADADD2D2D2D2D2B2B2B2AD8D209E
:1026900000000024242424242420002400242024B6
:1026A0002424244972724949456D6D4949496D8D0B
:1026B000928D4D4D6D494949494D49242525494D36
:1026C000494D49494D494D4D4D4D4D4D4D29294996
:1026D000494D4D2949492949494929492424242456
:1026E000242424242424242425ADADB2D2D2D2D251
:1026F000D2D2AD64B2D2D2D2D2D2D2D2D2D2D2AD92
:10270000ADADAD8D65408DB2B2D2D2D6D2D2B2B21D
:10271000AD8D45000000002000242424202400204A
:10272000000000242424244D4D6D494949698D6DD4
:102730004949496D8D6D4D496D6949494949494935
:10274000492949494D4D4949494929294D4D494949
:10275000492949494D4D4D4D4D4D49294949494911
:1027600025242420242424242424242424208DB239
:10277000D2D2D2D2D2D2D2AD6564D6D2ADADADADC9
:10278000ADADD2D6B2D6B28D65ADADB2D2D2D2D2C7
:10279000D2B2B2B2AD4900000000000020242424CF
:1027A0002020002400242424242424256D4D69693C
:1027B000496D6D6D4949496D696D6D6D8D6D6969C5
:1027C0004949494D2D2D494D4D4D49492929492901
:1027D000494929494D292929494D4D4D4D494949D5
:1027E000494D494949240000242424242424242434
:1027F000202420B2B2D2D2D2D2D2D2D2AD89D2FA51
:10280000D6FBFBD6FBFAD6FAB2D68989ADADADD2EE
:10281000D2D2D2D2B2B2B2B28D00000000000024F7
:102820002424242424242020000024242424246D6F
:102830006D49494925496D6D494D6D6D4D4D6D6D24
:102840008D8D6D4949494D2D2D29DBDBDBDBBAB67A
:10285000B6B6B6B6B6B6B6B6969692926D6D6D4DE4
:1028600049492929294D494949242424242420243B
:1028700024242424242424208DB2D2D2D2D2D6D20D
:10288000D2CDADF6D6FBFBFBFBFBD6D6D2ADADADC4
:10289000ADADB2D2D2D2D2B2B2B2AD8D0000000094
:1028A00000000024242424242424242000002424A0
:1028B000252525492549496D49696D8D6D4D6D6DFC
:1028C0006D4D496D6949494949494D4D2D4DFFFFB0
:1028D000FFFFFFFFFFFFFFFFFFFFFFFFFFFFDBDB50
:1028E000DBDBB6B6B6B6B6B696926D49494524243A
:1028F00000242424242424242420000000B2ADD267
:10290000D2D2D6D6D2D2D2CDADF6F6D6F6F689ADA3
:10291000CDD2CDADADB2D2D2D2D2B2B2B2B2AD453D
:102920000000000000240024242424242420240067
:10293000002424242525252549496D7249496D8D9A
:102940006D4D6D926D69456D69494D4949496D6D92
:102950004D4DFFFFFFFFFFFFFFFFFFFFFFFFFFFFEB
:10296000FFFFFFFFFFFFFFFFFFFFFFFFFFFBDBDAC4
:10297000D68D25002424242424242424242424241F
:1029800024008DB2D2D2D6F6D2D2F2F2F2F2F6D240
:10299000D2D2D2D2D2D2ADADADB2D2B2D2D2B2B206
:1029A000ADAD694500000000002424242424242423
:1029B0002420242020242425252525294D72926DAC
:1029C00069696D8D8D4D6D92B28D49498D696D49E5
:1029D0002524498D6D4DFFFFFFFFFFFFFFFFFFFF28
:1029E000FFFFFFFFFFFFFFFFFFFFFFFFFFFFFFFFF7
:1029F000FFFBDBDBDBDB6D252424242424242424BF
:102A000024242020240020ADD2D2D2D2F6D2D2F279
:102A1000F2F2F2F2F2F2D2F2D2ADADADB2B2B2B2A5
:102A2000B2B2B2B2AD6969452000000000002424B2
:102A30002424242424242420242424252529496DE5
:102A400072726D6D6D6D6D8D8D6D496992926D4572
:102A50008D6D6D492424498D6D4DFFFFFFFFFFFFF4
:102A6000FFFFFFFFFFFFFFFFFFFFFFFFFFFFFFFF76
:102A7000FFFFFFFFFFFFFFFFFFFFDB2449002449AB
:102A8000242424242420242420000000ADB2B2FBFE
:102A9000D6D6D6D2D2F2D2D2D2D2D2ADADADADB29E
:102AA000D2D2B2B2B2B2ADAD896969492400000098
:102AB0000004242424242424242424242424252914
:102AC000294D7272927272726D4D6D6D8D69496D84
:102AD000696D69698D8D6D2424496D6D4D2DBABA6E
:102AE000BBDBDBDFDFFFFFFFFFFFFFFFFFFFFFFFC2
:102AF000FFFFFFFFFFFFFFFFFFFFFFFFDBDBDADB77
:102B000049240024242424242424242024240000D0
:102B1000008DFBFBF6D2F6D2D2D2D2D2D2D2D2B232
:102B2000B2B2D2D2D2D2B2B2B2ADAD89896969693C
:102B300049000000002424242424242424242424C0
:102B4000242449494D4D4972726D92726D6D6D49E3
:102B50006D6D6D8D8D6949496D8D2424496D6D4D67
:102B60002D2D4D524D4D4D7272929696B6BABBDBDD
:102B7000DBDBDBDFFFFFFFFFFFFFDBFFDBB6D6B6F4
:102B8000DAB6B6B6248D4524242424242424242013
:102B900020202400008DFFFBF6D2F6F6D2D2D2D24E
:102BA000D2D2D2D2D2D2D2D2D2D2B2B2B2AD8D8918
:102BB00089896969692000000024202424242424B0
:102BC00024242424494949494D496D924D49927222
:102BD0006D49496D726D6DB2B28D696D9269242433
:102BE000256D4D2D2D4D7276764D52769696524D21
:102BF0004D2D4D4D4D4D4D727272DFFFFFFFDBDBF2
:102C0000DBDAB692B26D49494900252424242424F4
:102C1000242424242024202469D6FBFAD2ADF6F6FD
:102C2000F6F6D6D2D2D2D2D6D6D6D6D2D2B2B2B288
:102C3000AD8D8D8989898D69694500000024242422
:102C400024242424242425252449494949496D72F2
:102C500049496D6D6D69696D6D8D69B6B692694949
:102C600049494949496D4D4D4D4D7272727696BB39
:102C7000BA9A7672724D29292D2929DFFFFFFFFBB1
:102C8000FBFBDBDBDAD6B69269B6B26D49242424AD
:102C9000242424242424242424242024D6D6FAD60C
:102CA000ADADF6F6F6F6F6F6F6D6F6F6D6D6D6D2FA
:102CB000D2B2B2AD8D8D8D89898D8D8D69690024DB
:102CC000002420242424242424244949494949490E
:102CD00049494D6D4949496D4969694D6D8D6DB2DF
:102CE000B28D8D6D49456D6D6D6D6D4D4D4D9ABBC0
:102CF0009676BABBBB9A9672524D292949FFFFFFBF
:102D0000FFFFFBFBDBDBDADADADAD6B68D6D24699E
:102D10006D6D20242424242424242420242424B25B
:102D2000D6D2D6D2B289D2F6F6F6F6F6F6F6F6D6C0
:102D3000D6D6D6D2D2B2AD8D8D8D8D8D8D8D8D8D19
:102D40006D6D24242524202424242424242424498F
:102D50006D6D494949494949494949496949696D37
:102D6000726D8D6DB2B28D6D49494949496D6D4D98
:102D70004D4DBABBBBDFDFDFBF9676764D292929E3
:102D8000FFFFFFFFFFFBFBDBDADADADADADAB6D6CF
:102D9000B6926D24456D492424242424242424241B
:102DA000242424D6D6D6D2B2AD69B2D6F6F6F6F63B
:102DB000F6F6F6F6F6D6D2D2B2AD8D8D8D8D8D8D1E
:102DC0008D8D8D8D6D6D2420202424242424242495
:102DD000244545928D926D69694949494949694936
:102DE00069494D4D6D4D6D8D8D92B2B26D4949451C
:102DF000496D6D694D6D7296BBDFDFBB967296BBF8
:102E000096724DFFFFFFFFFFFFFBDBDBDADAD6DA5E
:102E1000D6D6D6B6B2928D6D4924254924492424AC
:102E200024242424242424D6D6D6D2B28D6969B28F
:102E3000D2F6F6D6F6D6D6D6D6D2D2B2B28D8DADE1
:102E4000AD8D8D8D8D8D8D8D8D6D444520242420EF
:102E5000242424242469B6B6D6DADADADBDBFBFBD9
:102E6000FBFBFBDB6D6D6D6D4D6D6D8D6945696DAA
:102E70006969494969496D496D6D96DBDFDFDFDFBF
:102E8000DFBB9A9A724DFFFFFFFFFFFBFBFBDBDA14
:102E9000DAD6DAD6D6D6B6D6B6B68D698D6D4944B1
:102EA00024242424252424202420D6F6B2D2D2B2ED
:102EB00044456969ADD2D2D2D6D6D2D2D2D2B2AD41
:102EC000ADADADADADAD8D8D8D8D8D8D8D6D49451E
:102ED00069002424242424244992B2DADAD6DADAE6
:102EE000DADBFBFBFBFBFBFBFBDBDA6D496D6D8D7E
:102EF0008D4545454549494949496D498D92DBDF35
:102F0000DFBBBBDFDFDFBB964DB6FFFFFFFBFBFB8D
:102F1000FBFBDBDAD6D6D6D6D6D6D6B6B6B2928DEF
:102F20006D6D8D8D69442449442424242424D6F6CF
:102F3000D6D6D2AD444465698989D2D2D2D2D2D212
:102F4000D2B2ADADADADADADADAD8D8D8D8D8D8D47
:102F50008D6D494549442424242424208DB2B6D6BD
:102F6000DADADADADADBDBFBFBFBFBFBFBFBFBFB96
:102F7000B66D8D6D8D696949252524252525454921
:102F80006D6DBBBBDFDFDFDFDFDBBB9A96FFFFFFD3
:102F9000FBFBFBFBFBDADAD6D6D6D6D6D6D6D6B234
:102FA000B6B2928D928D6D69694944454969242470
:102FB0002420D6F6D6D6D2AD444444696989898D99
:102FC0008D89898DADADADB2B2B2B2ADADAD8D8DE5
:102FD0008D8D8D8D8D6D69454445242424242424B4
:102FE00092DBDADADBDADADBDBDBFBDBFBFBFBFBDE
:102FF000FBFBFBFBFBDB69496D8D698D6949242572
:103000002524252445499696BBDFDFDFDFBBBBBA0D
:10301000FFFFFFFBFBFBFBFBFBDADAD6D6D6D6D6EF
:10302000D6D6D6B6B2B2B2928D8D8D8D8D8D6D8D78
:103030006945452444D6F6F6D6D6B24524444444E0
:1030400069698989698D8D8DADADADB2B2B2B2AD10
:10305000ADAD8D8D8D8D8D8D8D696949454424244F
:1030600024242424D6DADADADBDBDADBDBDBFBDB75
:10307000FBFBFBFBFBFBFBFBFBFBDB69498D696996
:103080006D69454949494949244996BABBDFDFDFA3
:10309000DBBB9A92FFFBFBFBFBFBFBFBFBFADAD6ED
:1030A000D6D6D6D6D6D6D6B6B6B28D8D69696D4986
:1030B000496949492424454545F6F6D6D6D6B22075
:1030C000204445454565898969898D8DADADADAD96
:1030D000ADB2B2ADADAD8D8D8D8D8D8D69696969E6
:1030E0006969492424242492DADAFBDAFBDBDBDA8F
:1030F000DBDBDBFBFBFBFBFBFBFBFBFBFBFBFBDBA0
:1031000069698D69454524496D4D492424459ABB1B
:10311000BBBBDFDFDFBBBBDBFBFBFBFBFBFBFBFB73
:10312000FAFADAD6D6D6D6D6D6D6D6D6B6B2B28DA4
:1031300069694569694424242424454569F6D6D63D
:10314000D6D2B220006969696989ADAD8D698D8D6E
:103150008DADADADB2B2B2B2AD8D8D8D8D8D8D8D8B
:103160008D8D8D8D696D4924242424B6FBDAFBFAFC
:10317000DADBDADADADBFBDBFBFBFBFBFBFBFBFB83
:10318000FBFBFBFBDB498D8D452424494D49242461
:103190002424BBBBBBBBBBBBBBBBBBFBFFFBFBFB69
:1031A000FBFBFBFBFAFADADAD6D6D6D6D6D6D6D6DB
:1031B000D6B2B2B2ADB28D6969454544698D8DAD67
:1031C000FAF6D6D6D6D28D200069898989ADAD8D23
:1031D0008D8D898DADADADB2ADB2B2ADADADAD8DB4
:1031E0008D8D8D8D8D8D8D8D8D696924242424DAAE
:1031F000D6DBDADADADADADADADADADAFBFBFBFBAE
:10320000FBFBFBFBFBFBFBFBFBD68D8D4924254D1C
:103210006D4929494924BBBBBBBBDFDFDFBBDBFBFF
:10322000FBFBFBFBFBFBFBFBFAFAFAD6D6D6D6D6AA
:10323000D6D6D6D6D6D6B2B2B2B2B2B2B2ADB2B29B
:10324000B2D2D2D2FAF6D2D6D6B2690000458D8D6E
:103250008DB2B2B28D8D8D8D8DADADB2B2B2B2B236
:10326000B2B2B2B2B2B2B2B2B2B2B2B2B26D49247A
:10327000242449DADAFBFBFAFADAFADADADADADA09
:10328000DAFBFBFBFBFBFBFBFBFBFBFBFBDAB2B262
:103290006949494949494D4D492496BABBDFDFDFA9
:1032A000DFDFFBFBFBFBFBFBFBFBFBFBFAFAFAF6AE
:1032B000F6D6D6D6D6D6D6D6D6D6D2B2B2B2B2D226
:1032C000D2D6D6D6D6D6D6D6FAF6D6F6D2D28D2441
:1032D00004208D8DB2B2B2B2B28D8D8D8D8DADB216
:1032E000B2B2B2B2B2B2B2B2B2B2B2B2B2B2B2B2BE
:1032F000B28D692445692429DAFBFBFBFBFBFADA72
:10330000DADADADADAFBFBFBFBFBFBFBFBFBFBFBB2
:10331000FBDAD6B28D69494925494D4D25459ABB01
:10332000BBDFDFBBBBBBFBFBFBFBFBFBFBFBFBFA26
:10333000FAFAFAF6F6F6D6D6D6D6D6D6D6D6D6D265
:10334000D2D2D2D6D6D6D6D6D6D6D6FAFAD6F6D6C1
:10335000D2B2B220002089B2B2B2B2B2B28D8D8D9B
:10336000ADADADB2B2B2B2B2B2B2B2B2B2B2B2B24C
:10337000B2B2B2B2B269496992B62429DBFBFBFB57
:10338000FBFBFADADADADADADADADAFBFBFBFBFB96
:10339000FBFBFBFBFBDAD68D928D6D6D49696949AC
:1033A0002569BBBBBBBBBBBBBBBAFBFBFBFBFBFBD6
:1033B000FBFBFBFAFAFAFAFAF6F6D6D6D6D6D6D64A
:1033C000D6D6D6D6D6D6D6D6D6D6D6D6D6D6D6FB78
:1033D000FAF6F6D6D6B2B224042069D2B2B2B2B2AC
:1033E000B28D8D8DADADB2B2B2B2B2B2B2B2B2B236
:1033F000B2B2B2B6B6B2B2B2B2696992D6B624244B
:1034000092FBFBFBFBFBDADAFADADADADADADADA9F
:10341000DAFAFBFBDBDBFBFBDBDAD6928D8D696D29
:103420004969694524699ABBBBBBDBDFDFBBFBFB9A
:10343000FBFBFBFBFBFAFAFAFAFAFAF6F6F6D6D63B
:10344000D6D6D6D6D6D6D6D6D6D6D6B2D6D6D6D640
:10345000D6D6D6FBFAF6F6D6D2B2B28D0020B2D6C8
:10346000D6D2B2B2B28D8D8DADB2B2B2B2B2B2B26C
:10347000B2B2B2B2B2B2B2B2B2B2B2B2B28DB2B64D
:10348000D6D68D2425FBFBFBFBFBFADADADADADA97
:10349000D6DADADADADADADBDBDBDADADAD6D6B2BD
:1034A000B28D694925254549496D9ABBBBBFDFDF10
:1034B000BFDBFBFBFBFBFBFBFBFAFAFAFAFAFAF6C3
:1034C000F6F6F6D6D6D6D6D6D6D6D6D6D6D6FBD617
:1034D000B2B2B6D6D6D6D6FBFAF6D6D6D2B2B2921B
:1034E0000020D2D6D2D2B2B2B2899292ADB2B2B2EA
:1034F000B2B2D2D2B2B6B6B2B2B2B2B2B2B2B2B264
:10350000B2B2B2D6D6DAB2242592FBFBFBFBFADAD2
:10351000DAD6D6DADADADADADAFADADAFAFAFADA93
:10352000DAD6D6B2B2AD8D6969694525496D9ABBC7
:10353000BBBBBBBBBBDBFBFBFBFBFBFBFBFAFAFA3E
:10354000FAF6FAFAF6F6F6D6D6D6D6D6D6D6D6D62F
:10355000D6D6FBFAB292B2B2B6D6FBFAFAF6D6D605
:10356000B2B2B2B224B6D6D6D6B2D6AD698D898DF6
:103570008DB2B2B2B2D2D2D2D6D6D6B6B6B6B6B274
:10358000B6B2B6B6B2D6D6FBD6DAD68D2525FBFBBB
:10359000FBFBFBFADAD6D6D6D6D6F6DADADAFAFAC0
:1035A000FADADAD6D6D6D6B2B2B28D6D6DB28D4415
:1035B000496D9A9BBBBBBB9ABAFBFBFBFBFBFBFBBE
:1035C000FBFAFAFAFAFAF6F6F6F6F6D6D6D6D6D622
:1035D000D6D6D6D6D6D6FAFAD6AD8DB2B6B6FBFAD0
:1035E000FAF6D6D6B2B2B2B2D6D6D6D6D6D6B2B20F
:1035F0008DAD8D8D8DB2B2B2B2D6D6D6D6D6D6D648
:10360000D6D6D6D6D6D6B6B6B6D6DAFBFBFBDAB663
:103610002425DBFBFBFBFBFBFADAD6D6D6D6D6D6C7
:10362000FAFADADADAD6D6D6D6D6D68DB2B28D6D29
:1036300069B2AD69698D969ABBBBBB9ABAFBFBFBBD
:10364000FBFBFBFBFBFAFAFAFAFAF6F6F6F6D6D62D
:10365000D6D6D6D6D6D6D6D6D6D6D6F6D6B28D929B
:10366000B2FBFBFAFAD6D6D6B2B2B2B2D6D6D6D61C
:10367000D6D6D269ADADB2928DB2B2B2B2D6D6D6EE
:10368000D6D6D6D6D6D6D6D6D6D6D6D6DADAFBFB88
:10369000FBFBFBD6692525FBFBFBFBFBFADADAD645
:1036A000D6D6D6D6D6FAFAFADAD6D6D6D6D6B669D7
:1036B000698D8D8D69ADB26D6D8DBABBBBBBBB9B8A
:1036C000BAFBFBFBFBFBFBFBFBFAFAFAFAFAFAF696
:1036D000F6F6D6D6D6D6D6D6D6D6D6D6D6D6FAF606
:1036E000D6B28D8D92FBFBFAFAF6D6D6B2B2B2B252
:1036F000D6D6D6D6D6D6B2698DB2B2B292B2B2B260
:10370000B2D6D6D6D6D6D6D6D6D6D6D6D6D6D6D67D
:10371000D6DAFBFBFBFBFBDBB60025DBFBFBFBFB95
:10372000FBDADAD6D6D6D6D6D6D6D6D6D6D6D6D60C
:10373000D6D6D68D6945456D69696969698D9ABB2B
:10374000BBBBBBBBBAFBFBFBFBFBFBFBFBFAFAFA0D
:10375000FAFAF6F6F6F6F6D6D6D6D6D6D6D6D6D621
:10376000D6D6FAFAD6B28D89FBFBFAFAFAD6D6D6B5
:10377000B2B2B2D6D6D6D6D6D6D66969ADB2B2B2C4
:10378000B2B2B2B2B2D6D6D6D6D6D6D6D6D6D6D68D
:10379000D6D6D6DAD6DAFBFBFBFBFBFBDA6924B61E
:1037A000FBFBFBFBFBFBFAFAD6D6D6D6D6D6D6D693
:1037B000D6D6D6D6D6D6D6B28D49496969452925F9
:1037C00025459A9B9B9A9A9ABBFBFBFBFBFBFBFB59
:1037D000FAFAFAFAFAF6F6F6F6F6D6D6D6D6D6D635
:1037E000D6D6D6D6D6F6FAF6D6B28D65FBFBFAFA61
:1037F000F6D6D6D2B2B2D6D6D6F6D6D6D68D69B24F
:10380000D6D6D6B2B2B2B2B2B2D6D6D6D6D6D6D630
:10381000D6D6D6D6D6D6DADAD6FBFBFBFBFBFBFB3D
:10382000FBD62425FBFBFBFBFBFAFAFAD6D6D6D651
:10383000D6D6D6D6D6D6D6D6D6D6D6B2B2694949F7
:1038400069494D4949259BBB9A9A9A9ADBFBFBFB38
:10385000FBFBFBFBFBFAFAFAFAF6F6F6D6F6D6D63F
:10386000D6D6D6D6D6D6D6D6D6FAFAF6D6B28D696A
:10387000FBFBFAFAF6D6D6B6B2D6D6D6D6D6D6D67A
:10388000D66965D6D6D6D6D2B2B2B2B2B6D6D6D66A
:10389000D6D6D6D6D6D6D6D6D6DADADAFBFBFBFB28
:1038A000FBFBFBFBFBDB2425B6FBFBFBFBFBFBFA7B
:1038B000DAD6D6D6D6D6D6D6D6D6D6D6D6D6D6B2C8
:1038C0008D6D6949494D4D4D4D499B9A969A9ABACD
:1038D000FBFBFBFBFBFBFBFBFBFAFAFAF6F6F6F64F
:1038E000F6F6D6D6D6D6D6D6D6D6D6D6D6FBFAF6CF
:1038F000D2B28DFBFBFBFAFAF6D6D6D6D6D6D6D602
:10390000D6D6D6D66969D6D6D6D6B2D2B2B2B6B2E5
:10391000B6D6D6D6D6D6D6D6D6D6D6D6DADADAFB36
:10392000FBFBFBFBFBFBFBFBFBFBB62425DBFBFBF9
:10393000FBFBFBDADAD6D6D6D6D6D6D6D6D6D6D6B0
:10394000D6D6D68D6D69696D4D4D4D4D4D6D9696A2
:1039500096969A96FBFBFBFBFBFBFBFBFAFAFAFA4B
:10396000F6F6F6F6F6D6D6D6D6D6D6D6D6D6D6D657
:10397000F6FAFAD6B28DFBFBFAFAFAF6F6F6D6D6D6
:10398000D6D6D6F6D6D6D6D649D6D6DAD6D6D6D640
:10399000AD8DB2B6B6D6D6D6D6D6D6D6DADADADA8D
:1039A000DADAFAFBFBFBFBFBFBFBFBFBFBFBDA24A2
:1039B00025DBFBFBFBFBFBFAFADAD6D6D6D6D6D64E
:1039C000D6D6D6D6D6D6D68D69494549494D2D4D40
:1039D0004D6D969696969696FBFBFBFBFBFBFBFBD1
:1039E000FAFAFAFAF6F6F6F6F6D6D6D6D6D2D6D64B
:1039F000D6F6D6D6FAFBF6D6B2B2FBFBFAFAFAF650
:103A0000F6D6D6D6D6D6D6D6D6D6D62092D6DAD62C
:103A1000D6D6D6B28D8DB2B2B6D6D6D6D6D6D6D664
:103A2000D6DADADADAFAFAFBFBFBFBFBFBFBFBFB91
:103A3000FBFBFB6D2525DBFBFBFBFBFBFADAD6D69C
:103A4000D6D6D6D6D6D6D6D6D6D6D66D69492424DD
:103A500024494D2949259696969696B6FBFBFBFB85
:103A6000FBFBFBFBFAFAFAFAF6F6F6F6F6D6D2D23A
:103A7000D6D2F6D6F6F6D6D6FBFAD6D6B2FBFBFBF6
:103A8000FBFAFAF6F6FAF6F6F6F6F6F6D6D6B6B289
:103A9000D6DADAD6D6D6B28D89ADB2D6B2D6D6D6E9
:103AA000D6D6DADADADADADAFAFAFBFBFBFBFBFB78
:103AB000FBFBFBFBFBFBFBB60425DAFBFBFBFBFB89
:103AC000FBFAD6D6D6D6D6D2D6D6D6D6D6D6D66DBA
:103AD0006D6949242425494924249696969A9AB6D4
:103AE000FBFBFBFBFBFBFBFBFAFAFAFAF6F6F6F63E
:103AF000D6D6D2D2D2D6F6F6F6F6F6F6FBFBD6D668
:103B0000FBFBFBFBFBFAFAF6F6FAF6F6F6F6F6F630
:103B1000D6D6B6D6D6D6D6D6D6D689898DB2D6D66C
:103B2000B2D6D6D6D6D6DADADADADAFAFAFBFBFB8E
:103B3000FBFBFBFBFBFBFBFBFBFBFBDA492449DB51
:103B4000FBFBFBFBFBFADAD6D6D6D6D2D2D6D6D63C
:103B5000D6D6B669694969494545496924249676A6
:103B60009ABBBBDBFBFBFBFBFBFBFBFAFAFAFAF6AF
:103B7000F6F6D6D6D6D6B2F6D2F6F6F6F6F6D6FBE8
:103B8000FBFBD6FBFBFBFBFBFBFAF6F6FAFAF6F6C1
:103B9000F6F6F6D6D6D6D6D6D6D6D6D6D6B2896943
:103BA00089D2D6D6D6D6D6D6D6D6DADADADAFAFAAE
:103BB000FBFBFBFBFBFBFBFBFBFBFBFBFBFBFBFB55
:103BC000B62425FBFBFBFBFBFBFADAD6D6D6D6B236
:103BD000D2D6D6D6D6D6D6494949698D69494569DE
:103BE00045249696BBBBBBDBFBFBFBFBFBFBFBFA5D
:103BF000FAFAF6F6F6F6D6D6D6D2ADD6D6F6F6F66A
:103C0000F6F6FAFBFBFAFBFBFBFBFAFAFBFAF6DA39
:103C1000FAF6F6F6F6F6F6D6D6D6D6D6D6D6D6D660
:103C2000D6698D89D6D6D6D6D6D6D6D6D6D6DADA2F
:103C3000DADAFAFAFAFBFBFBFBFBFBFBFBFBFBFB19
:103C4000FBFBFBFBDA24246DFBFBFBFBFBFADAD668
:103C5000D6D6D6B2D2D2D6D6D6D6B64949494969F1
:103C60006949446949249A969A9696DBFBFBFBFBCB
:103C7000FBFBFBFAFAFAF6F6F6F6D6D6D2D2D2D695
:103C8000F6F6F6F6F6F6FBFBFBFBFBFBFBFBFAFBA3
:103C9000FAFAFAFAD6D6F6F6F6D6D6D6D6D6D6D6D4
:103CA000D6D6D6D68D8D8DB2FAFAF6D6D6D6D6D64B
:103CB000D6D6DADADADADAFAFBFBFBFBFBFBFBFB44
:103CC000FBFBFBFBFBFBFBFBDBB62424DBFBFBFB77
:103CD000FBFADADAD6D6D6B2D2D2D6D6D6D6B669EC
:103CE0004949494549694949494496BBDFDFDBFBFE
:103CF000FBFBFBFBFBFBFBFBFAFAFAF6F6F6D6D274
:103D0000D2B2D6F6F6F6F6F6F6F6FBFBFBFBFBFBBD
:103D1000FBFAFBFBFAFAFAF6D6D6F6F6D6D6D6D6E4
:103D2000D6D6D6FAD6D6D669698DD6FAFAF6D6D6CA
:103D3000B2D6D6D6D6D6D6DADADAFADAFAFBFBFB80
:103D4000FBFBFBFBFBFBFBFBFBFBFBFBFBB62424B6
:103D500025DAFBFBFBFADADAD6D6D6B2B2D2D6D661
:103D6000D6D6B26D6D6D694949494D4D4929BBDFC4
:103D7000DFFFFFFBFBFBFBFBFBFBFBFBFAFAFAF6AF
:103D8000F6D6D6D2D2D2D2F6F6FAFAFAF6FAFBFB89
:103D9000FBFBFBFBFBFBFBFAFAFADAD6F6F6F6F6D0
:103DA000D6D6D6D6F6F6FAF6D6D6D6246DD6FBFB00
:103DB000FAD6D2D2B6B6D6D6D6D6D6D6DAFAFADA77
:103DC000FAFBFBFBFBFBFBFBFBFBFBFBFBFBFBFB44
:103DD000FBDA6D25296DDAFBFBFAFADAD6D6D6B214
:103DE000B2D2D6D6D6D6B26D69696D8D6D4D4D4DB8
:103DF0004D4DBBDFDFDFDFFBFBFBFBFBFBFBFBFB1F
:103E0000FBFAFAF6F6F6D6D6D2D2D2F6F6FAFAF6E9
:103E1000F6FAFBFBFBFBFBFBFBFBFBFAFADAD6FA41
:103E2000FAF6F6D6D6D6D6F6F6FAFAF6D6D6B28D93
:103E3000D6FBFBFAD6D6D2B2D6D6D6D6D6D6D6D6DC
:103E4000DADAFADAFBFBFBFBFBFBFBFBFBFBFBFB26
:103E5000FBFBFBFBFBDA6D292425DBFBFBFAFADA23
:103E6000D6D6D6B2B2D6D6D6D6D68D8D69496969A0
:103E700069696D4D4949BBBBDFDFDFDBFAFBFBFB4B
:103E8000FBFBFBFBFBFBFAFAF6F6D6D6D2ADB2F69D
:103E9000F6F6F6F6F6FBFBFBFBFBFBFBFBFBFBDAAC
:103EA000DAD6D6FAFAF6F6D6D6D6D6F6F6F6F6D6A6
:103EB000D6D6B2D6FAFBFAFAD6D6B2D6D6D6D6D659
:103EC000D6D6D6DADADAFADAFBFBFBFBFBFBFBFB36
:103ED000FBFBFBFBFBFBFBFBFBD64925242449DA60
:103EE000DAFBDADAD6D6D6B2B2D6D6D6D6D68D6D3B
:103EF00069454549494949494949BFDBDFFFFFFB5E
:103F0000FAFBFBFBFBFBFBFBFBFBFAFAF6F6F6D638
:103F1000D2B2ADF6F6F6F6F6FAFBFBFBFBFBFBFBCB
:103F2000FBFBFADAD6D6D6FAFAD6D6D6D6D6F6F637
:103F3000F6F6D6D6D6D6D6D6DAFAD6D6D6D6D6D6B9
:103F4000D6D6D6D6D6D6D6DADAD6FADAFBFBFBFB4D
:103F5000FBFBFBFBFBFBFBFBFBFBFBFBFBD649255E
:103F600024242592DAFADAFAD6D6D6B2B2D6D6D642
:103F7000D6D6B26969494945494544494969BBBBF7
:103F8000FFFFFFFBFBFAFAFBFBFBFBFBFBFBFAFA79
:103F9000F6F6F6D6D2D28DF6F6F6F6FAFAFBFBFB7B
:103FA000FBFBFBFBFBFBFAFAD6D6FAFAFADAD6D61B
:103FB000D6F6F6F6F6D6D6D6D6D6D6D6FAD6D6D6FD
:103FC000D2B2D6D6DADAD6D6D6D6D6D6D6DAFAFA65
:103FD000FAFBFBFBFBFBFBFBFBFBFBFBFBFBFBFB32
:103FE000FBD6452924240025D6FAFAFADAD6D6B229
:103FF000B2D6D6D6D6D6B28D69494525494525458E
:10400000696996BBFFFFDFDAFBFAFAFBFBFBFBFB00
:10401000FBFBFBFAF6F6F6D6D2D28DF6F6F6FAFAF6
:10402000FAFBFBFBFBFBFBFBFBFBFADAD6FAFAFA2B
:10403000FAD6D6D6D6F6F6F6D6FAD6D6D6D6D6D678
:10404000D6D6D6D2B2D6DADADADADAD6D6D6D6D624
:10405000D6D6FAFAFAFBFBFBFBFBFBFBFBFBFBFBFD
:10406000FBFBFBFBFBD624252424242425DAFAFAC7
:10407000D6D6D6B2D2D6D6D6D6B68D8D8D6949458E
:104080004925244569699ADFFFBB96FBFAFAFBFBD9
:10409000FBFBFBFBFBFBFAFAF6F6D6D6D2D2ADADB4
:1040A000F6F6FAFAFAFBFBFBFBFBFBFBFBFAFAD694
:1040B000FAFAFAFAD6D6D6D6F6F6F6FADAD6D6D688
:1040C000D6D6D6D6D6D6B28DD6D6DADBDBDBDBDAE1
:1040D000D6D6D6D6D6D6DAFAFAFAFBFBFBFBFBFB32
:1040E000FBFBFBFBFBFBFBFBFBB62425242425721F
:1040F000246DFBFAD6D6D6B2D6D6D6D6D6B66D694C
:1041000069494949492424496969BBDBFF9A96FBFF
:10411000FAFAFBFBFBFBFBFBFBFBFAFAF6F6D6D24B
:10412000D2B2AD69F6F6FAFAFBFBFBFBFBFBFBFB3D
:10413000FBFADAD6FAFAFADAD6D6D6F6F6D6D6DA1E
:10414000D6D6D6D6F6F6D6D6D6B2208DD6DAFBFBA4
:10415000FBFBDBDAD6D6D6D6D6D6DAFAFAFAFAFBF3
:10416000FBFBFBFBFBFBFBFBFBFBFBFBDBB60425D1
:10417000242504499624D6FAD6D6D6B2D6D6D6D693
:10418000D6B66D6D69492525492545496969DBFF25
:10419000FFDB96FBFAFBFBFBFBFBFBFBFBFAFAFAF4
:1041A000F6F6D6D2D2ADAD69F6F6FAFAFBFBFBFB1A
:1041B000FBFBFBFBFADAD6D6FAFAFAD6D6D6D6FA53
:1041C000D6DADADAD6D6D6D6F6D6D6D6B2202424A1
:1041D000D6FAFBFBFBFBFBFADAD6D6D6D6D6DADA72
:1041E000FAFAFBFAFBFBFBFBFBFBFBFBFBFBFBFB22
:1041F000DBB6242424240429BB7229DAD6D6D6B20D
:10420000D6D6D6D6D6B26D6D8D6949242424252400
:104210006949BBFFFFBB96FAFAFBFBFBFBFBFBFB11
:10422000FBFAFAF6F6F6D6D2D2ADAD89F6F6FAFA80
:10423000FBFBFBFBFBFBFBFBFBDADAFAFAFAFAD639
:10424000D6D6F6FAD6DADADAD6D6D6D6F6D6D6D2A2
:1042500092242424D6DBFBFBFBFBFBFADAD6D6D672
:10426000D6D6DAFAFAFAFAFBFBFBFBFBFBFBFBFB0D
:10427000FBFBFBFBFBB6242424242496BBBA256D50
:10428000D6D6D6B2D6D6D6D6D6B2698D8D694924C1
:104290002524244569459ABBBB9A96FAFAFBFBFB99
:1042A000FBFBFBFBFBFAFAF6F6D6D6D2D2AD896958
:1042B000D6F6F6FAFBFBFBFBFBFBFBFBFADAFAF6A6
:1042C000FADAD6D6D6FAFAD6DAD6D6D6D6D6D6D61A
:1042D000D6D6D6B29604242492DAFBFBFBFBFBFB7A
:1042E000DAD6D6D6D6D6DAFAFAFAFAFAFBFBFBFB1E
:1042F000FBFBFBFBFBFBFBFBDBB625242424DF25C0
:104300007296BB25D6D6D6B2D2D6D6D6D6B26D8DBB
:10431000B28D6D496D4949494925769A9A9A96FA1E
:10432000FAFBFBFBFBFBFBFBFAFAF6F6F6D6D6D262
:10433000B2AD8969D6F6FAFBFBFBFBFAFBFAFAFA97
:10434000DAFAF6FADADAD6D6F6F6D6DAD6D6D6D655
:10435000D6D6D6D6D6D6D66D966D240424DAFBFBF7
:10436000FBFBFBFBDAD6D6D6D6D6D6DAFAFAFAFAC1
:10437000FBFBFBFBFBFBFBFBFBFBFBFBFBB625247F
:1043800025BB049672969A2924D6D6B2D2D6D6D612
:10439000D6B26D696D696D6D6D6D694D4949767601
:1043A000969696FAFAFAFAFAFBFBFBFBFAFAF6F69D
:1043B000D6D6D2D2ADAD8965D2F6F6FBFBFBFBFBC0
:1043C000FBFAFAFADAFAF6FADAD6D6D6F6D6D6D66C
:1043D000D6D6D6D6D6D6D6D6D6D6B29296722925E7
:1043E00029D6FBFBFBFBFBFBDADAD6D6D6D6D6DA30
:1043F000DAFAFAFBFBFBFBFBFBFBFBFBFBFBFBFB30
:10440000DB92252429BF9B9B76DF729604D6D6B219
:10441000D2D6D6D6D6B2B292694969694949696D90
:104420004D4DEA6A080EE96EEF500DE0060E016E82
:10443000006A002EFED7012EFBD77B0E006E002EE9
:10444000FED7EF2EF3D7000C94928B92949E8B9E06
:10445000210E006E002EFED7125203E194908B9035
:1044600002D094908B80949E8B8E210E006E002E35
:10447000FED7080E136E135216E0949E8B9E210EEB
:10448000006E002EFED711BE02D08B9001D08B8023
:104490009490949E8B8E210E006E002EFED7D890A5
:1044A00011361306E8D794928B82210E006E002EEF
:1044B000FED7000C19501B02F3CF01F0F4CF00F02F
:1044C0001C02F35000261A501B02F3500020026E0B
:1044D000000C126A09C011F00850095C136E000E3E
:1044E0001258146E010E1324156E000E1420166E51
:1044F0000A500B5C010F186E16C01AF015C019F0A7
:104500001C6A1B6ED7DF02C010F001C00FF02A0E2C
:10451000116E126A99DF08C011F0010E126E94DF5D
:1045200009C011F0010E126E8FDF2B0E116E126A90
:104530008BDF0AC011F0010E126E86DF0BC011F086
:10454000010E126E81DF2C0E116E126A7DDF0E6A73
:104550000D6A0E50105C0DE303E10F500D5C09E293
:104560000CC011F0010E126E6FDF0D2AD8B40E2AA6
:10457000F0D76DEF23F094928B8294948B84050E88
:10458000086E4FDF94948B94C80E086E4ADF9494A3
:104590008B8494928B92010E116E126A55DF110E6C
:1045A000116E126A51DF030E116E126A4DDF0A0E90
:1045B000086E37DF290E116E126A46DF200E116E6B
:1045C000126A42DF3A0E116E126A3EDF020E116E5F
:1045D000010E126E39DF2D0E116E126A35DF116A6F
:1045E000010E126E31DF020E116E010E126E2CDF03
:1045F000040E116E010E126E27DF060E116E010EF3
:10460000126E22DF080E116E010E126E1DDF0A0EF1
:10461000116E010E126E18DF0C0E116E010E126E6D
:1046200013DF0F0E116E010E126E0EDF116A010EF6
:10463000126E0ADF020E116E010E126E05DF040EFD
:10464000116E010E126E00DF060E116E010E126E5B
:10465000FBDE080E116E010E126EF6DE0A0E116EF2
:10466000010E126EF1DE0C0E116E010E126EECDEFA
:104670000F0E116E010E126EE7DE116A010E126E40
:10468000E3DE040E116E010E126EDEDE090E116EF7
:10469000010E126ED9DE0F0E116E010E126ED4DEF7
:1046A000116A126AD1DE360E116E126ACDDEC00EAC
:1046B000116E010E126EC8DE250E116E126AC4DE76
:1046C000410E116E010E126EBFDE086A830E096E76
:1046D0000A6A0B6EFF0E0C6EFCD69AEF23F0F86A96
:1046E000D09EEA6AE96AC150C00B0F09C16E070E7D
:1046F000B46EC150C00B0F09C16EC290C69A949E91
:1047000093809392010EC66E000EC76ED190800EFC
:10471000D56ECD6A000ECA6E000ECB6E070EB46E5B
:104720009250100E006E002EFED70000B450A19CD7
:10473000B56A21D72A0E116E126A86DE116A010E41
:10474000126E82DE830E116E010E126E7DDE2B0E56
:10475000116E126A79DE116A010E126E75DE830E19
:10476000116E010E126E70DE2C0E116E126A6CDE6E
:10477000066A0650830828E3076A0750830822E385
:104780001A6A06C019F01C6A840E1B6E93DE02C002
:1047900009F001C008F007500124016E000E02204C
:1047A000036E0150F2CF0AF0F29E03C0F7FF02EC55
:1047B00000F00ABEF28E0B6E116E010E126E44DE18
:0A47C000072ADBD7062AD5D703002D
:020000040030CA
:0E00000024CE380E008581000FC00FE00F40A7
:00000001FF
;PIC18F2550
