:020000040000FA
:100000001CEF2BF0120FF66E000EF7220900F550D0
:10001000120000000000000000002045242449696F
:10002000242020202020202020204E4E52522E56C8
:100030007B9B9B9B9FBFDFDF5652325256567B768F
:100040009B9B9B9B7B9B9B767B9B76767677767A3E
:10005000777B9B49490000000000000000244524F4
:10006000244969242020202020202020294E4E4E83
:100070004E56527B9B9B9B9B9BBFBFBB565632529F
:10008000567676769B9B9B9B9B769B7B777B7B7B3D
:100090007B7676767B9B49490000000000000000DB
:1000A00024452424496D242020202020202020497C
:1000B0004E4E4E527252769B52979BBF9B9BBF9B5C
:1000C0005632323256567A7B9B9B7B7B7B7B7B7B8B
:1000D0007B7B767B76777B9B9B4949000000000009
:1000E00000000024492424496D24202020202020C1
:1000F00020254E4E4E4E527232327677979B9BBBE6
:10010000BFDFDF7A56323252567676769B9B9B7BE8
:10011000779B9B777B7A777B76777B774949000063
:1001200000000000000024492424496D24202020E0
:1001300020202020294E4E4E5252727B32567B7226
:1001400052BB9B9B9BBFDF9B5652323256567B7BEA
:100150009B9B7B9B7B777B7B7B7A77767A777A49D5
:1001600049000000000000000024492424496D24B7
:1001700020202020202025294E4E4E5272769B9B17
:10018000327A7A764ABBBBBFBFDFBF9B5632323270
:100190005656767A9B9B9B9B9B767A777B76767777
:1001A00076774949000000000000000045492424FA
:1001B000496D24202020202020294E4E4E52527678
:1001C00076569B52529BDF2A2A9B9BBFDFBBDF9B4D
:1001D000565232325656767B769B9B7B9B777A7A49
:1001E000777B7A767A4949000000000000000045DC
:1001F000492424456D24202020202020294E4E4EC5
:100200005272762D299BBB32769B56292ABF9B9B27
:10021000DFBBBF9B7656525256567B7B9B9B9B9B6C
:100220007B7B7A767676767649490000000000007E
:10023000000045492424456E242020202020294EFA
:100240004E4E4E7276762D25BBBBBB327A56562A61
:10025000BBBFBFBFBFBFBFBF7B5652525656567AB9
:100260009B767B9B9B7B7B7A767A77494900000063
:10027000000000000049492424456E24202020204D
:1002800020294E4E4E52727656090056BBBB9B56E5
:100290009B7B524EBF9B9BBFBFBF9BDF9B76565243
:1002A000565656767B767B9B9B777B7B7B7A494940
:1002B000000000000000000049692424256D24206E
:1002C00020202000494E4E4E52762D5676094E9BE8
:1002D000BBBBBB5A769B4E77BFBBBFBBBF9BBFBBF5
:1002E000BF9B76565256567A7A7B7B779B9B9B7B3D
:1002F0007B494900000000000000004569242424D7
:100300006E2420202020294E4E4E52724D7272567D
:100310007A299BBB9BBBBB7A9B4E5276BFBFBFBBB0
:10032000BFBFBF9BDFBB9B5652565676767A7B7615
:100330009B9B9BBB494900000000000000004569F1
:100340002424246E2420202020294E4E4E527697BD
:1003500076BBBB7225779B769BBB9B764E52729B7E
:100360009BBFBB9BBFBF9BBFBFBFBB9B56525656DD
:1003700056767A7B7B9B7B49490000000000000099
:100380000025492424246E24202020204A4E4E5249
:10039000522072BBBB9B9B294E9BBB9B9BBBBB7BD9
:1003A0009B525377BB9BDFBF9BBF9BBFBBBFBBBFFA
:1003B0009A56565252567A767B7B49490000000085
:1003C0000000000025492424246D24202020294EEB
:1003D0004E4E7276204E767276729B299BBBBBBBCB
:1003E000BBBB9B9B9B4E73729BBBBF9BBF9B9BBF2F
:1003F000BBBF9BBFDF9B7656565276767649490047
:100400000000000000000024492424246D24202042
:1004100020292E4E527220204E9B4E76764E257607
:1004200076BBBBBBBBBFBB9B9B4E7277BB9BBF9BD3
:100430009B9B9BBFBF9BBFBFBFDFDF9B76565656C4
:100440004949000000000000000000492424246DF8
:1004500024202029294E4E727620202A7B4E9B9BF9
:100460004E054E9BBB9BBBBBBBBB9B969B9B2A720B
:100470009BBB7B7B9BBB9BBFBF9BBF9BBFBFBFBBD4
:10048000DFBB9B494900000000000000000045243C
:1004900024246D242020294E4E72722020206D2AA3
:1004A0004E9B2A7205297ABBBBBB9B9B9B9BBBBB0C
:1004B0009B2A4E524E5253724E7272BBBBBBBBBB99
:1004C0009BBFBBBFBBBF494900000000000000004C
:1004D00000442424246D252420294E4E52762020C9
:1004E000206D7B2A524E767B29529BBBBBBB9B9BCC
:1004F000BFBBBBBB9B72765656767B7273524E72F5
:100500004EBB9BBFBB9BBFBFBF4949000000000063
:1005100000000000242424246D252020294E52525E
:10052000292020206D4E2A529B569B294E9BBB7B37
:100530009BBB9BBBBBBBBFBB9BBB72565676777648
:100540007A76764E4E4E5272729B9B7349490000EA
:1005500000000000000000242424246D25242549E7
:100560004E5272722020206D4E4E777B767B294E44
:10057000529BBBBBBB9BBB9BBB979B9B9BBB977681
:1005800056567B7B7676767A524E724E4E4E4E495A
:1005900049000000000000000000242424246D25F0
:1005A0006E294D527272524D24206D2A72767B9BB9
:1005B0009B254E7272BBBBBBBBBBBBBBBBBF9B9B7C
:1005C000DBBB737256769B56567676767A7A76725F
:1005D0007272494900000000000000000024242439
:1005E000247296294E4E529652525272725252763E
:1005F00056769B9696727297BBBB9BBBBBBB9BBB55
:10060000BB9B9B9BBBBB9B77737776567656767668
:100610007676567B7B49B6000000000000000000A3
:100620002024242596B6724E5296964E7276BBB70B
:10063000BBBBBBBBBB9796967296B7BBDBBBBB9BEA
:100640009BBB9BBBBB9B9B9B9B9B96737373DF76F8
:10065000767A76767B9B9B7A494900000000000001
:100660000000002424247296B6727252524E76769E
:100670009672BBBBBBBBBBB7B7B696BBBB96BB96B4
:10068000BBBBDBBBBBBB9BBB9B9BBB9B9BBBBB975E
:100690007272BBBB767676767A767649FF0000007A
:1006A000000000000000202992B696B6B7BB9672F3
:1006B000727272767272BBBBBBBBBBBBBBBBBBB740
:1006C000BBDBBBBBBBBBBBBBBB9BBB9BBB9B9B97FE
:1006D0009BBBBB9B727272BBBB767676BB9B49960B
:1006E0000000000000000000002A729696B6B7B71E
:1006F000B7969272727272727272BBDBDBDBBBDB1B
:10070000BBDB96DBB7BBBBBBBBBBBBBB979B9B9BA6
:100710009B9B9BBB9B9BBBBB7372979BBBDBDBBB5E
:10072000BB49490000000000000000257292969627
:10073000B6B77272724E4E4E4E525252525272DBD7
:10074000DBDBDBDBBBDBDBB77672BBBBBBBBBBBBCB
:10075000BBBBBB77BBBBBBBB9B9BBB9B7773BBBB19
:10076000BBDBDBBB49FF00000000000000004E7255
:100770009292B7B6964E4E4E524E4E4E4E4E5252EC
:100780005272729797DBBBBBDBDBBBBBB7BBBBBBA0
:10079000BBBB9BBB9BBBBB9BBB9BBB9BBBBB9B72B2
:1007A0009773BBBBDBDBBB49FF0000000000000010
:1007B0002E727272969696524E4E4E72724E4E4EE9
:1007C0004E4E4E52525272979797BBDBDBDBDBBB30
:1007D0009797BBBBBBBBBB9B9BBB9BBB9B9BBBBF4D
:1007E000BB7B9B727297BBBBBBDB49FF0000000069
:1007F0000000004E4E727272524E4E4E4E52729623
:100800004E4E4E4E4E4E727252529697977697BB00
:10081000DBDBDBBBBBBBBBBBBB9BBB9B9BBB9BBB48
:1008200076BB9BBB9B9B9B724E7372BBDB494900A3
:100830000000000000054E4E7296724E4E4E4E4E17
:1008400096524E4E4E4E524E4E7652524E729776B3
:1008500097767276DBDBDBDBBBB797BBBB9BBBBBA7
:10086000BBBB9B9BBBBB9B9BBB9B77979773B77398
:1008700049B6000000000000252A4E7272724E4EEA
:100880004E2E2E4E524E4E4E4E4E524E5652524EB0
:1008900052977276767272DBDBDBDBDBDBBBBBBBDA
:1008A000BBBB9B9B9B9BBBBBBB9BBB9B9BBB9B97BC
:1008B00097727249496E6E6E6E6E29014E72727237
:1008C000724E4E2A2D292E4E4E4E4E4E4E764E5282
:1008D0005252527297727276727276BBDBDBDBDB3E
:1008E000DB97B7BBBBBB7BBBBBBBBB9B9BBB9B9B20
:1008F00077BBBB77769749FF6E6E6E6E6E4E054E78
:100900004E6E72724E29292D292E4E4E72525272FF
:100910004E4E527252729676765252725272BB9705
:10092000DBDBDBDBDBBB97BBBBBB9B9BBBBB9BBBFB
:100930007B9BBBBBBB7697979B49496E7272726E6D
:100940006E054E724E7272524E2E2E2E4E72724E98
:100950004E4E4E4E4E52527296969776725272523A
:100960005252BBBBDBDBDBDBDBDBBBDBBBBBBB9BE9
:100970009BBB9B7ABB9BBBBBBBBBBBBB4929726E02
:100980006E6E6E6E05294E4E4E72724E4E4E4E4E2D
:100990007672724E4E4E4E525272729797967652B1
:1009A0005252524E4E7297DBDBDBBBBBDBDBBBDB59
:1009B000BBBBBB9B7B9B9BBBBB9BBB9B96BB9B491E
:1009C000496E6E6E6E6E4E6E054E4E4E4E96725265
:1009D000524E4E92726E524E4E52727272B7B7B7FC
:1009E000977252524E524E4E529797DBBB9696726A
:1009F000BBDBDBDBBBBBBBBB9B7BBBBBBBBB76BB8C
:100A0000BB9B49FF6E4E000000006D290A4E4E4E02
:100A10004E9696727272967296725272729696BBD9
:100A2000BBB7BB967252524E4E4E4E4E72BB96DBC9
:100A30007272BB9796BBBBBBDBBB9BBBBBBB9B9B21
:100A40009BBB9BBB5649FF00000000000049294D9D
:100A5000054E4E72727272969696B69696B7B7B764
:100A6000B7B7B6B7BBBBB77652524E4E4E4E4E4E90
:100A70005272BBBB724E72977697B7BBDBBBBBBBE8
:100A80009BBBBB9BBB9B9B564949000000000000E1
:100A900049256E29052A726E729296969697B6B679
:100AA000B796B7B7B7B7BBBBBBB7B696BB72524E1C
:100AB0004E4E4E4E7672BBB796BBBBBBB7B7B7B602
:100AC000BBBB9BBBBB9BBB9BBB32564949000000D9
:100AD0000000004925242529092A4E727272929637
:100AE0009696B7B7B7B7B6B6B7BBBBB7B6B7B7B7D3
:100AF000BBB7524E4E4E4E52BB72BB964E525272C6
:100B000096B7BBDB9BBB9BBBBB9BBBBB565649494C
:100B10000000000000004925000049492A2E092E46
:100B20005272969696B696B696969696979696968C
:100B300096B796B6BBB7524E4E4E4E527252BBB798
:100B4000725252727697DBDBBBBBBBBB9BBB523690
:100B50005649B600000000000049250020494972AE
:100B60006E294E7252727272969696729296727246
:100B7000727272727296969696964E4E4E4E4E5275
:100B8000725297B79672527276BBDBBBBBBBBBBBD4
:100B9000BB323656494900000000000049250000DC
:100BA0004949726E6E2525252E7272729696B796F9
:100BB000924E7272727252524E967296B7724E4E38
:100BC0004E4E4E7297527272729696B7BBBBBBBBBB
:100BD000BBBBBB5632565649DB0000000000004943
:100BE0002500004949726E6D45252525252572721F
:100BF0009696B772724E4E724E4E4E4E72729696D8
:100C0000964E4E4E4E4E5272727672BB72729796DE
:100C10009696BBBBBBBB56325656494900000000F6
:100C200000002525000029496E6E6D252525242408
:100C30002424257296729672724E724E4E4E4E4E0D
:100C40009796B79652524E4E4E4E4E5272727296C2
:100C5000979772727272BBBBBB3236363649FF0051
:100C600000000000002525000025496E6E6E452518
:100C70002525242424240E4E96727272724E492920
:100C8000294A4E7696B796525252524E4E4E4E5278
:100C900072727272727272727296BB9B365636564E
:100CA00049DB0000000000002425000025496E6E8D
:100CB0006E45252525242424244E2A5296967272A8
:100CC0004E292929294E7296B772724E52524E4EB3
:100CD0004E4E4E4E5252525252727272729676323C
:100CE00056565649FF00000000000024250000254C
:100CF000496E6E6E4525252524242424242429921A
:100D000096B7724E29292929294E72B772964E4EEE
:100D100052724E4E4E4E4E4E4E4E4E525272727257
:100D200096523656565649FF000000000000002536
:100D3000240024496E6E6E45252525242424242470
:100D4000244E7252B6724E2925252929297696728B
:100D5000BB4E4E52774E4E4E4E4E4E4E4E4E4E5215
:100D600072727296323236365649B6000000000072
:100D7000000025240024496E6E6E45252525242477
:100D800024242424494E6EB7964E2925252525294D
:100D900072727297724E52764E4E4E4E4E4E4E4E6E
:100DA0004E4E5272727296323636365649FF0000F7
:100DB000000000000025240024496E6E6E452525A4
:100DC000252424242424244929964EB79292966EF1
:100DD00005252572727272764E4E764E4E4E4E4EEE
:100DE0004E4E4E4E4E5272727296325636365649AC
:100DF000490000000000000025250000296E6E6EED
:100E000045252525242424242424496D7272964ED8
:100E10004E4E4E720525924E5272965252724E4E60
:100E20004E4E4E4E4E4E4E4E527272765236563692
:100E30005656494900000000000000252500002901
:100E40006E6E6E45252525242424242424496D2EE8
:100E500072974E4E4E4E4E000596724E72724E5224
:100E6000764E4E4E4E4E4E4E4E4E525272729652DE
:100E7000325636365649FF000000000000002500BB
:100E80000000296E6E4E492525252424242424247F
:100E90003252764E72294E4E4E4E4E004E72729225
:100EA000724E52764E4E4E4E4E4E4E4E52527272C2
:100EB000729632365656565A4949000000000000D4
:100EC0000025250000294E4E4E49252525242424A1
:100ED000242424565676765205294E4E4E4E00292D
:100EE000767296725272724E4E4E4E4E4E4E525216
:100EF000727272725632365656565649FF000000CC
:100F00000000000025250000294E4E4E49252525CC
:100F1000242424242424765656523252254E4E4EF2
:100F20004E4E0072729272727672524E4E4E4E5207
:100F3000525252727272725232565656565B49B6BD
:100F40000000000000000025250000294E4E4E45FF
:100F5000252525242424242424565652523256056D
:100F6000294E4E4E4E5229967272724E4E4E4E4E33
:100F70004E52525252527272727232363656565621
:100F80007A49DB0000000000000025250000254E06
:100F90004E4E4925252524242424242452565652D5
:100FA000525652254E4E4E4E52725272724E4E4E06
:100FB0004E4E4E52525272527272727276323236B5
:100FC000565B5A56496D0000000000000005040001
:100FD00000254E4E4E492525252424242424245220
:100FE00056565676567649294E4E4E52527677765A
:100FF000B74E4E4E4E4E52525252527272727272E0
:101000003232565A7B5B5649B600000000000000A1
:1010100005040000254E4E4E492525252424242470
:1010200024243256527676767676254E4E4E52529D
:101030007276294E4E494D494E52527272727272F8
:1010400072727232565A5A7B5A5A4949000000004D
:1010500000000005040000254E4E4D49252525249D
:101060002424242424295256765676767600294E56
:101070004E4E52727652724E4E29494E4E727272D6
:10108000727272727272325656567B565B49FF000C
:1010900000000000000001000000254A4E4D4925D7
:1010A00025252424242424242556767676767676DF
:1010B00076294E4E4E4E529772724E4D29494E52DF
:1010C0007272727272727272723236565656565B03
:1010D00049FF000000000000000000000025494E0C
:1010E0004D4925252524242424242445525276764E
:1010F0007676565600294E4E4E527272524E4E4ED3
:101100004E4E4E4E7272725272727272363636563F
:1011100056565A49B60000000000000000000000CA
:1011200025294E4A492525252424242424244532D2
:101130003256767676565629294E4E4E5252724E79
:101140004E4E4E4E4E4E4E527272729672727232B7
:10115000363656565A7B49DB00000000000000007E
:1011600000000025294E4E49252525242424242429
:10117000244532325656767676522929294E4E52D9
:1011800052724E4E4E4E4E4E4E4E4E52724E4E720B
:101190007276325636365A7B7B4949000000000091
:1011A00000000000000025294E4E49252525242455
:1011B0002424242445325656767676762529294EDF
:1011C0004E4E52524E4E4E4E4E4E4E4E4E4E52522F
:1011D00052727272763256365A7B7B7649FF000025
:1011E00000000000000005000025294E4E4925257D
:1011F00025242424242424452E5656567676252943
:10120000294E4E4E4E72724E4E4E4E4E4E4E4E4EDB
:101210004E4E72727272769656567B7B5B7B764927
:10122000FF0000000000000000252500254A4E4D6B
:1012300049252525242424242424452E5656565653
:101240002929294E4E4E4E5272724E4E4E4E4E4EE1
:101250004E4E4E4E7272727272769656567B5B5A34
:101260007B9B498E000000000000002525292949AC
:101270004E4E4D4925252524242424242445325628
:1012800056565229292E4E4E4E52724E724E4E4E88
:101290004E4E4E4E4E4E5272727272727696565636
:1012A0007B5B5A5ABB4945000000000000252525FC
:1012B00029294A4E4E4D492525242424242424241A
:1012C000452E56567629294E4E4E4E52722952724E
:1012D00072524E4E4E4E4E4E4E527272727272722A
:1012E000765636565A7B7B9B49FF00000005052544
:1012F00025292929494E4E4E4E49252524242424AA
:10130000242424452D325625294E4E4E4E52722904
:101310004E727272524E4E4E4E4E4E4E527272720D
:101320007272727236565A5A7B56BB49B600052500
:1013300005252925292949494E4E4E4E4E2524245E
:10134000242424242424240D5625294E4E4E4E5266
:10135000722D52725252525252524E4E4E4E525262
:101360007272727272727636565A567B76BB49FF2B
:101370002525252525292949494E4E6E6E6E4E4E4E
:10138000252424242424242420242D05294E4E4EB3
:101390004E52724E72725252524E52527272724E7D
:1013A0004E4E527272727272725656565656565649
:1013B000BB49FB292525494949494E4E4E4E4E4DC4
:1013C0004D4D6E2524242424202020202425294E20
:1013D0004E4E4E525272725252524E4E52525252C1
:1013E0007272727272727272727272765656365669
:1013F000567B76BB4949494E4E4E4E4E6E4E4E4E32
:101400004D4D4D4D496E2524242424202020202498
:10141000294E4E4E4E527272725252524E4E4E5291
:101420005252527272727272727272727276725218
:10143000565656567B9BBB49FF4E4E4E6E6E4E4ED9
:101440004D4D4D4D4D4524256E252424242020202E
:101450002020294E4E4E4E5272725252524E4E52D1
:101460004E52525252525252727272969672727218
:10147000964E4E5656565A7B9BBB49FF4E6E6E4E4D
:101480004E4E4E4E4D4900242424246E2524242003
:1014900020202020294E4E4E4E72725252524E4EF5
:1014A0004E4E4E4E4E52525252525272727297BB22
:1014B000967296724E4E56565656569BBF49497274
:1014C0006E4E4E4E6E6E4D000000242424246E2578
:1014D000242020202020252A4E4E52727252524E35
:1014E0004E4E4E4E4E4E524E4E5252525272769674
:1014F0007296BB9676964E4E4E56565A56569BBB95
:1015000049494E4E6E4E6E250000000000242424F2
:10151000246E25242020202005294E4E527272521E
:101520004E4E4E4E4E4E52524E4E4E52525252729F
:10153000727676BBBBBB9BDBBB4E4E4E56565656A9
:101540005A9BBF49496E6E4E00000000000000002B
:10155000202424246E252420202005294E4E72723A
:1015600052524E4E4E4E4E52524E4E4E4E5252527F
:10157000527272727697BBBBBBBBBBBB4E4E4E5614
:101580005656565A9F9B49494E00000000000000E5
:10159000000000242424246E252420200025294E28
:1015A0005272524E4E4E4E4E4E52524E52524E521B
:1015B00052525272727276BB9BBBBBBBBBBBBB4E63
:1015C0004E4E5A5656565A9BBB49490000000000E1
:1015D000000000000000242424246E25242025255A
:1015E00029294E52724E4E4E4E4E4E4E4E4E4E4E3D
:1015F000525252527272727276BBBBBBBB9BBBBB68
:10160000BBBB4E4E4A765A5A565ABFBF4949000094
:10161000000000000000000000242424246D252484
:1016200020252929294E72524E4E4E4E4E4E4E4E78
:1016300052524E525252527272729BBBBBBBBBBBD8
:101640009BDBBBBB9B4E4E4E567B565A5ABFBB498B
:1016500049000000000000000000000024252424B0
:101660006D2500054E4E4E2D4E724E4E4E4E4E4E38
:101670004E4E524E5252525272727276BBBB9BBB4E
:101680009B9BBB9BBBBBBB9B9B4E29565A567A7AF6
:10169000BFBB49490000000000000000000000003E
:1016A0004524246D25252D5272524E524E4E4E4EDB
:1016B0004E4E4E524E4E525252727272769B9A9BC0
:1016C0009B9B9B9B9BBBBBBBBBBB9B9B492952561C
:1016D000567B7BDFBB494900000000000000000092
:1016E0000000004524246D452952524E4E4E724E44
:1016F0004E4E4E4E4E4E4E5252527272727676761A
:101700007A7A7B7A769B9B9BBBBBBBBB9BBBBB2983
:1017100029295A5A5A7BBFBF4949000000000000DE
:101720000000000000004924246D2552524E4E292D
:10173000524E4E4E4E4E4E525252527272727676F9
:101740009B5676769B7676769B9A9B9B9B9BBB9BC8
:101750009B9B2929295656567BBFBB49490000004F
:101760000000000000000000004924246D4E524E8D
:101770004E4E29724E4E4E4E4E4E525272727276EE
:1017800097979797975696BB9B76769B9B7A9B9B52
:101790009BBB9BBF9B2929295656569BBF9B4949FA
:1017A00000000000000000000000000049242400A8
:1017B0007229294E4E29524E524E4E525272727218
:1017C0007696767676979797979797BBBB76BB9BDF
:1017D0009B9B9BBBBBBBBBBBBB292956567B7BBF23
:1017E000BB49490000000000000000000000004567
:1017F00024240529294E4E4E4E4E4E6E52525272A0
:10180000727672727272727676767676767697974E
:10181000979BBB97969696BB9B9BBBBB2929565A19
:101820007B9BBFDF49490000000000000000000072
:10183000000045242400294A4E4E4E4E5252525228
:101840007272729672727272727272727672727250
:101850007676767676977272727697769B9BBB29B0
:101860002952567BBBBBBB49490000000000000069
:10187000000000000045242400294E4E4E525272B2
:101880007272727276727272727272727272727630
:101890007272727272727272727272727296BB9B92
:1018A0009BBB292929565ABFBFBB494900000000EC
:1018B000000000000000000024242449254E4E7240
:1018C00072727272727272727272727272727272F8
:1018D00072727672727272727272727297727272BF
:1018E0007697BB9BBF2929295656DFBBBB494900C8
:1018F00000000000000000000000002424244949EA
:101900004D727272727272727272727272727272DC
:1019100072727276969696969696969696969697F2
:101920007672727296969BBB4E2929565ABF9BBB04
:1019300049490000000000000000000000002424CD
:101940002449492424496D24202020254E72727296
:1019500072727676969B9B9B974E7A9BBB979B96D3
:10196000967276726E727272729696722929565AB1
:10197000DF9B9B49490000000000000000000000C0
:1019800000242424496924242020202020202452BB
:10199000767B2A2A2A9B9B9B9B9B9B9B767A7B72BE
:1019A00076BB9BBB9B727272727272729672762950
:1019B000295256BFBB9B4949C60FF66E190EF72236
:1019C0000900F550120000240020200020202020D3
:1019D00020202020202020202020242525252525EA
:1019E00029296D92969696B6966D2420202024245F
:1019F000242420202020000000002020202020205F
:101A000020202024200000002020252424442424F9
:101A100024242424242424242445454525292949F3
:101A200049292D4E527276969696B6B6492024458F
:101A30002424242424244444444445444444444425
:101A400024244444444424242444242500482424B5
:101A50002424242424242424242424242424242545
:101A600029292529292D2D2E5272769696BA92492A
:101A70002424242424242424242424242424242426
:101A8000242424242424242424242424242024003E
:101A90002524242424242424242424242424242405
:101AA00024254949492929292D2E52527676969680
:101AB000B692452044442424242424242424242489
:101AC00024242424242424242424242424242424D6
:101AD00020240049242424242424242424242424C9
:101AE00024242525494929292929292E525252766B
:101AF000767696B692242044442424244424242434
:101B00002424242424242424242424242424242495
:101B10002424242024004924242424442424244448
:101B200024242444442929492925252929292D4EBD
:101B3000527276769696B672242444442424242441
:101B40002424242424242424242424442424242435
:101B5000242424242424202400452424242424244C
:101B6000242424242424444449492929292929298D
:101B7000294D52527276969696B692242444442465
:101B800024242424242424242424242424244424F5
:101B90002424242424242424242424004524242408
:101BA000242424444444242424454529292949291A
:101BB000492929494E52527676969696B672252034
:101BC00044202020202020202020242424242424D9
:101BD00020202424242424242420202020252049BB
:101BE00024244424244444442424242545452525F0
:101BF0002949494929294D4E5252769696B6BABA84
:101C00007224204469696969696969496969442478
:101C100000006889692425254424242044698D0016
:101C2000250045444444242444444424242549496B
:101C30004949494949494949292D4E52527296B656
:101C4000BABABA9224208DF6FAF6F6F6F5D5F5FA78
:101C5000FA8D200000B1FEFA4400244024040089DB
:101C6000FEFF200400454444442424244424242525
:101C70002949494949494545494949294E525252FC
:101C8000729696B6BABA9224208DF6F5D5F5F5F58A
:101C9000F5D5FAFA8D200000B1FED6440044242484
:101CA000240089FAFF2000004444444444242424AE
:101CB00024254929252949494945454949294D4E60
:101CC0005252527276969696BA92242069D5F5D1E0
:101CD000B1B1D5D5B1D5F689240000B1FAD544000B
:101CE00049D1B1000089FAFE000020454444444433
:101CF00024242525292925252949494925252949F6
:101D0000294E525252727296969696BA9224208D0D
:101D1000D5F9B16844686868696944240000B1FE77
:101D2000D5440069FEFE000089FAFE2000206544CB
:101D30004444444424254929292929494E2929294B
:101D4000292929294E727272729296B6BABABA923B
:101D500024208DD5F5D58D4020242424244424002E
:101D600000B1FAD5440069FEFA000089FAFE2000AD
:101D70002065444424444424454929292D4E6E4E6F
:101D800029292D4E4D2D2D52769696969696B6BAB9
:101D9000BABA9224206DF6F5D5D6B1442044444415
:101DA00049440000B1FAD5440069FEFA000089FAFE
:101DB000FE20002065444424444424496E4D297289
:101DC00096722E292952724E2E527696BBBBB6962B
:101DD000B6B6BABABA6D242044B1FAD5D5FAB14430
:101DE00020444448240000B1FAD5440069FEFA00BA
:101DF0000069FAFE000020694424444444254D72E1
:101E00004E4D9A974E2E565676522D527696BABA17
:101E1000969696B6BABABBB66924442040B1FAD5B4
:101E2000D5F9B544202448240000B1FAD54400690E
:101E3000FEFA000069FAFE20042069442444444468
:101E4000254D724E4D9A974E2E565676522D5276FD
:101E500096BABA969696B6BABABBB66924442040EA
:101E6000B1FAD5D5F9B544202448240000B1FAD5FB
:101E7000440069FEFA000069FAFE20042469444423
:101E8000444424496E524D529B762D529B9B764E74
:101E9000729696BAB6969696B6B6BABBBBB64924B3
:101EA0004424202091FAD5D5FAB1442445240000D9
:101EB000B1FAD5440069FEFA000069FAFE2000205C
:101EC00049444444442449724E4E769B522E5276E5
:101ED000767696BBBBBBBBBA9696BABAB6BABABB55
:101EE0009649244444492020B1FAF5D5FAD5442432
:101EF000240000B1FED5440069FEFA000089FAFE14
:101F000020042449444444442449724E4D76965258
:101F10003232525296BBBBBAB6B6969696BABABA97
:101F2000BABBBB9645244444454520208DF6F5D5E3
:101F3000FAD568240000B1FED5440069FEFA00001D
:101F400068FAFE0004206944444844246D522D4E32
:101F500096964E2A527676BABBBA969A9696B6BBA3
:101F6000BBBABABABABA9244444444444545202064
:101F70008DD6D5F5FA8D200000B1FAD54800ADFA1E
:101F8000FA240089FAFE000024694444494424727A
:101F9000320D5297762E4E969A9ABABAB6BA9A9649
:101FA000B6BABBBBBABABABABA6D244444444444C4
:101FB000444420208CD1F9FA8D200000D1FAD5B10B
:101FC000ADD1F5FA9168B1F9FE2000246944444886
:101FD0004444722E2D76764E2E7296BBBBBAB6B6A0
:101FE000B69272B6BBBBBBBBB6B6BBB66D4444447F
:101FF000486D8D8D8D6D6868B1F5FA8D200000B14A
:10200000FAD5F5F5F5D5F5F5D5D5F5FE2000246919
:1020100044444844444D2E4E96522E5296B6BBBB75
:10202000BAB6B69149496D92B6BBBBB6BABB964932
:102030004444446DD6F5D5D5D5D5D5D1F5FA8940EA
:1020400000008DFAD5D1D5FAB1D5F5D5B1F9FE207C
:102050000024694444494444495297722E2E769B89
:10206000B7BBBBBAB69144444444446DBABBB6BB9B
:10207000BA71444444448DFAF9F9F5D5D5F5F5F52E
:10208000FA8944000044B5F6D5FAD524B1FAD5D57D
:10209000FED60024246944444944444D76974E2E8C
:1020A000769A9ABABABAB68D4444686864246DBA0E
:1020B000BBBABBBA6D444444448DD5D1D1D5D1D13E
:1020C000D1D1D5D66924242424488DB1D16D0044C2
:1020D000D5D6D5B144002524684444486444727B75
:1020E000522D729B9B9ABAB6B6924944696868644D
:1020F0004472DFBABABBB66944444544686868684C
:10210000686868686868694424252524202044405C
:102110002024004449452400202544646844484460
:102120004496760D4E96BBBB9ABAB6B669446868BB
:102130006868644496DFBABABB964944444945444A
:102140004468684848686868442024452424444416
:1021500040202024242400202424242024446868AF
:102160006468444996320D72B6BBBABABA8D8D44D2
:1021700068696868686449B6DFBABABA9244444488
:102180004444448DD5D5B1B5B1B1D5D58D444420A5
:1021900020698D8D898D696D6D0069B1B14800250B
:1021A0004468686864446D720D3296BABBBABB96D7
:1021B00069694469686868684469DBDFBABABA71FA
:1021C000444469444469D1F5F5D5D6D5F5F5FAD539
:1021D00068200000B1FAD5D5D5D1FADA008DFAFE23
:1021E000D50025456869686449724E2E769ABABB57
:1021F000BAB6694444686968686864446DDFDBB6F0
:10220000BBB66D44646944448DD5F5D5D5D5D5D5D7
:10221000D5F5FA8D200000B1FAD5D5F5D5FAFA003A
:10222000ADFAFAFE00214588696864696E2D76BBB7
:10223000BBBABBBA6D2464648968686868644491F9
:10224000DFBBBABB966944646944448DF6FAB16851
:102250006D8D688DD5FA8D200000B1FAD5D5D5D118
:10226000F9FA008DF9F5FE000144A9686969494D44
:10227000529ABBBABA9A9A522964648969686868A2
:102280006444B2DFBBBABB964944656964448DFAC5
:10229000F6682444442468D5FA8D200000B1FAF58C
:1022A0006868D5FEB10024B1F9FE000044A9646954
:1022B00065454E9BBBBABA9676767A526464846959
:1022C0006968686444B6DF9B9ABB92494469696552
:1022D000448DFAD5682448442468D5FA8900000062
:1022E000B1FEF52044F9FE4800006DFAFE000045FD
:1022F000A96469642976DFBABAB69672529A7A6886
:10230000686489686868644492DFBB9ABA924964D9
:10231000696965448DFAD5684448442468D5FA8DC6
:10232000000000B1FED50069FAFE24000068FAFE44
:10233000000044A96869444D9BBBB6BA9696764D99
:1023400071966868646968686868448DDFBB96B692
:102350006D4464696945448DFAF6684445444469AE
:10236000D5FA8D200000B1FED1208DFAFE240000A8
:1023700068FEFE000024A98869495276BABBBA7685
:10238000769649486D6868886868686868446DBB77
:10239000BB9692696464686945448DFAF668444561
:1023A000444468D5FA8D200000B1FED1208DFAFE9C
:1023B00024000068FAFE000448AD84496D7676BAC0
:1023C000BA967676966D4489888888686868686861
:1023D0004449BABF9A92696464696944448DFAF6C3
:1023E000684464444468D5FA8C200000B1FED520CE
:1023F0008DFAFE44000069FAFE000448AD84447280
:10240000BB9A9A967676769A926484898968886867
:10241000686868644996BF9A72496464696944440B
:102420008DFAD5684464444468D5FA6C200000B144
:10243000FED5208DF9FE44000089FAFE000448AD67
:10244000694976BBBB9A9672729A7A9A8D64898929
:10245000686868886888684471BFBA714964886828
:102460006964448DF5F6682064442068D5FA8D20AF
:102470000000B1FED5208DFAFA44000088FAFE0073
:1024800004698D484D96BBB69A9A6D6DBA7A7A9664
:10249000696464886869686888884449B6BA9168DC
:1024A0006868686964448DF5F58D446868448DF505
:1024B000FA8D200000B1FED5208DFAFA880020ADFB
:1024C000FAFE0004698D48769BBB969BBA696492BC
:1024D000967A9A6D64648889696868888868489182
:1024E000B66D686868686964448DF5F5B1B1D1D19D
:1024F000D1D1F5FA8D200000B1FED5208DF9F5D5AA
:10250000698DD1F5FE000465694D9A9B9A969BB63C
:10251000696469929B9B916464888969686888880A
:1025200088696969696968686869694489D5F5D5A0
:10253000D6F5F5D6D5F9F569200000B1FED50069CC
:10254000FAD1F5D6D6D1F5FE00048469719A969633
:10255000969BB66488684D96BF7164648889696982
:102560006888888869696969696868686969686884
:102570008CD5D5D5D5D5D5D5D58D44240000B1FE83
:10258000FA2020F6F5D5D5D5D5F9F5000469A86D62
:10259000714992BB9BB66488884891966D6868883B
:1025A00089898988898989686969696968686969BF
:1025B000696844688C8D8D8D8D8D8D6844242400D0
:1025C000006DD5B120008DF6D5D5D6D6F56800249E
:1025D00069C889694492BFBF9668888D688D8D6D82
:1025E0008989888989898889696968688989696820
:1025F0006869696868686968686968696968686954
:10260000442424242448442400248D918D8D9169F0
:1026100020202469C989886491BFBF9268898D8808
:1026200089896D89898889898988896969686889BA
:1026300069696969696968648DD5D1B1D1B1D1D150
:10264000B1D5D668242424242020242424242444FE
:1026500024242020202469A988896491BFBF916423
:1026600089898989896989898889898888898989FD
:1026700089686869686969686968448DF6F5F5F57F
:10268000F5F5F5D5FAFA8D202020498D692424240A
:102690002420242024698D202469AC88898891BF56
:1026A000BA8D688D8989898D6D8D8D888988888896
:1026B00089898989886868686969696968448DD683
:1026C000F5F5D5D5D5D5D5FAFA6820000091FAD51B
:1026D0002400242024250069FAFE200069AC8889A2
:1026E0008891BFBA8D688D8989898D6D8D8D888916
:1026F0008888888989898988686868696969696852
:10270000448DD6F5F5D5D5D5D5D5FAFA6820000093
:1027100091FAD52400242024250069FAFE200069BE
:10272000AC8889888D96926888AD8889896D768D08
:102730008D848D88888889898989896968686969AB
:10274000686868648DB1B1B1ADB1B1ADB1B1B16816
:10275000240000B1FED6440024244425006DFEFF71
:10276000000069A8898D898D8D8D8889AD88A969BA
:102770004D7A9191848D8888888989898989696849
:10278000686969686868686868684468D5B144447D
:10279000484844440000B1FED5440048B1B120008F
:1027A00069FAFE000069A8898D8D8D8C88898D88D5
:1027B000AD8949527B6D6D848D8888888989898827
:1027C00089696868696968686868686844208DFA1A
:1027D000D66920442445440000B1FED5440069FE7A
:1027E000FA000069FAFE000089AC89696D8DACAD14
:1027F000A988ADAD694D7A7B4D4D888D88888889D3
:102800008989888868686869696868686868444010
:1028100089D5F5F5D168444449440000B1FED5445A
:102820000068FEFA000069FAFE20008DAD8D6D4D46
:102830006DACADA9AD8D8969727B7B71716889883A
:10284000888989898989696988686969696868681E
:10285000684469D6F5D5D5F6B1444045440000B189
:10286000FED5440068FEFA00006DFAFE20008DAD32
:102870008D96526D8DA9ADAD8D696D765676969615
:102880006D8988888989898888696989686869689B
:102890006869684468B1FAF5B1D5F5D68D44442429
:1028A0000000B1FED5440068FEFA00006DFAFE207B
:1028B0000089AD6D767B726D88ADAD896D767F36A2
:1028C0005296969168898989898988686869886932
:1028D00069696868684468B1D5FAD56489D5FAD65B
:1028E0006D44240000B1FED5440068FEFA00006D7E
:1028F000FAFE20008DCD69727B766D88CCAD694D76
:10290000777B56569A9A7168A9A9898989888869B6
:102910006989696869696864448DD5F9FA8D2044CC
:10292000B1FAFAD568200000B1FED5440069FEFA7C
:10293000000068FAFE00008DCC8C8D7A7B7189CC0A
:10294000894D323252567A7A7A7189A9A989888852
:102950008889896968696868686964448DF5FAB12D
:1029600044444468B1FAFA8D200000B1FED6440018
:1029700069FEFA20006DFAFE0001ADAC8D8D767B0C
:10298000768DA8694D523252767A7676728D898923
:102990008988888989896968696868686969448DEE
:1029A000FAD564446944448DD6FA8D240000B1FE02
:1029B000D5440068FEFA20006DFAFE0001ADAC8D32
:1029C0008D767B766D6849525676767A76767696EF
:1029D000926D89898989898989696969686868695D
:1029E0006444ADF68D446569444444B1FA8D2000D9
:1029F00000B1FAF544008DFEFA200068FAFE0020CE
:102A00008DACAC89727B7671494D52777B7A767644
:102A100077777696916D89898989898869696968E6
:102A200068686964648DAD6545694448452069FA04
:102A30008D200000B1FAD5B18DD5D5F9AD48B1F9E9
:102A4000FE00008DCCAD89729B9B524E7676769AB5
:102A50007A767676767696926D888989898888697D
:102A60006969686868696968686864454444444499
:102A700020448D8D240000B1FAD5D5F6D5D5D5F6F4
:102A8000D5D5D5FE20008DCCAD8971BB9B76767BEC
:102A90007676767A9A7676769B9671698889898930
:102AA0008888696969696868696968686868686860
:102AB000686868684468684400008DFAF5D5F5F5E3
:102AC000B1D5F6F5D1F5FE00248DCCAD896DBBBB3B
:102AD00076767776525276767276769A926D888886
:102AE00088898988886969696868696964448DB179
:102AF000D1B1B1B1B1B1B1B1D56844202044B1FA7E
:102B0000D5FAD624B1FAD5D5FAD500248DCCADA905
:102B10006DBABA967676767676767676767696917B
:102B20006988888889898988696969686868696441
:102B3000448DF5F9D5D5D5D5F5D5F9FA68244444B1
:102B40002068ADB1B16D0049B6D1B1B14400258D59
:102B5000CCADA98DBABA9696767672769A96967616
:102B600076968D898888888989888988696968685E
:102B7000686964448DD5F9D5D5D5D5D5D5F9FA8C04
:102B80002044444444444424240020244448242031
:102B900000258DD0ACA98DB6BB969696764E527612
:102BA00096969696968D8989898989888989696892
:102BB000696868686968448DB1D1B1B1B1B1B1B12A
:102BC000B1B168244444492020444424442424448A
:102BD00024002424248DD0ACA98DB6BBBBB796525B
:102BE0002D2D5296BA9B9B928D89898989898889D6
:102BF000896968696868686969686868696968682E
:102C000069696544696844484824248DADB1B1912F
:102C100091B1AD8D480020248DD0ACA98D96BBBB61
:102C2000B7722E2E525276BABABA926D89898989B4
:102C300088888989696869696868686968686844B2
:102C400044444444444069B16D442424208DD6F664
:102C5000D5D5B1D5D5D5F6DA4800248DCCACAD6D3F
:102C600096BBDB9652527676769ABAB6B68D69895D
:102C700089898989888989896868686969686868CB
:102C800068686469694444648DD5FA892400004801
:102C9000F6F5D5D5D5D5F5D5D5D5FED100048DC859
:102CA000ACAD6996BBBA9676769A969ABAB68D8D81
:102CB000688D898989898988888868686869696868
:102CC00068686868686969444469D1D5F5FA8D24F3
:102CD0000000ADFAD5D5D6D5F9F5F6D6D1F9FE0076
:102CE000048DA8CCAD6996BBBBB696969696BB965E
:102CF0006D8989888D8989898989888888686868C3
:102D00006969686868686868444468B1D5F5D5F948
:102D1000FA8D240000B1FAF5F6B16968688DD6D550
:102D2000F5FE00048DACCD8D6996BFBBB696969628
:102D300096B66D698989898D898989898988888804
:102D400068686869696968686868444469B1F5F5E4
:102D5000D5D5D5B169240000B1FAF6B144242420B8
:102D60002044D1F5FE00048DCCAD8D6996BBBAB67A
:102D7000969696B68D6989ADAD8988898989898944
:102D80008888686888686969686868684468B1D6CE
:102D9000D5D5F5F5F58D4444440000B1FAF6680048
:102DA00024442420008DFAFE20008DEDAD896DB6FF
:102DB000BBBBB6969696966D89ADADADA98989894E
:102DC00089898988886868886868696868684469E2
:102DD000D1D5D5F5F5D1D5F58D4444440000B1FEEB
:102DE000F54420242424240068FAFE20008DCDAC74
:102DF0008D6D96BBBAB696969696698D8CA9A98963
:102E0000898989898989886868688868696968683A
:102E100064448DF6F5D5FAB168B1FA8D44442400C6
:102E200000B1FAD54420242424200069FAFE0000D1
:102E30008DCDA88D6D96BBBBB696969A9669888CFB
:102E4000898989898989898888886868688868699A
:102E500069686868648DD5F9D5682044D5FA8D44D1
:102E600045440000B1FED54420242424240069FAFE
:102E7000FE00008DCDA8896996BBBAB69696969647
:102E800069888CA8A88989898989888868698989D5
:102E900069696869696968448DF5F9D1682020B16C
:102EA000FA8D4444450000ADFEF54420242424243A
:102EB0000068FEFE00008DEDA88969969ABAB69664
:102EC0009696966988A88888898989898988886971
:102ED00069686868696968696968448DF6D5D5FA72
:102EE0008D44B1FA8D4444450000B1FED544202400
:102EF0002424240048FEFE00006DF1A8896D96BAD6
:102F00009A969696969689A9A888888989898989A2
:102F100088886969896868696969646868448DD660
:102F2000F5D5D5F6D5D5D58D4445450000B1FAD5B2
:102F3000682025242424006DFAFE00006DF1A88984
:102F40006D96BA9A969696969689A9A88888898940
:102F5000898989888869698968686969696468682C
:102F6000448DD6F5D5D5F6D5D5D58D44454500004B
:102F7000B1FAD5682025242424006DFAFE000069EA
:102F8000D1A8896DB6BB9AB69696969689A8A88957
:102F9000898D8989898988886969696868686969A2
:102FA000686868686489B1D5D5D5D5F5F5AD444470
:102FB000450000B1FAFA6920202424000091FAFEAD
:102FC00000008DCCAD696DBABB9AB696969696897F
:102FD00088A98989898989898989886869696969E4
:102FE000696969696969696444648DD5D5D5D5D540
:102FF000D5AD68440000B1FAF9B168444848448D41
:10300000D5FAFE00008DCCAD696DBBBB9696969649
:1030100096966988A989898988898988888888880D
:10302000696969686869696969696965444468B119
:10303000D5D5D5F6FA89440000B1FAD5F5D5D1D564
:10304000B5B1F5F1F5FE00208DCCAC6972BBBB9635
:1030500096969696966988A98989898889898888A3
:10306000888888686868686868686868696969697C
:103070004844688CB1D5F6FA884400008DFAD5D55D
:10308000D5F5F5D5D5F5D1FAFA00048DF188489239
:10309000BB9B9696969696966988A989898989890F
:1030A00089888888886868686868686969696869FB
:1030B00069486868684444688DD6FA894420204489
:1030C000D5FAF5F5F5F5F5F5D5FAFEB1002489D078
:1030D000884996BB9A9696969696966988A9898904
:1030E000898989898888886868686868686968687B
:1030F00068696968686844486844444469D68D448E
:103100004444206CD5D5D5D5D5F5D5D5FAB1200018
:10311000258DCC884996BB9A96B6969696966D88DC
:10312000A989898989898988888888686868686997
:1031300069696969686868684844446969484444D9
:10314000684444494944444444444444484444440D
:103150002424202489F1684DBABB969696967696DB
:10316000926988A98989898889898888888868680E
:10317000686969696868696868694549494549498C
:1031800049484444444445454844242424240424D0
:103190002420202045202489D1446DBABA969696E1
:1031A0009676969269888989898D888888888888A2
:1031B00068896968686969686869686868694949A7
:1031C00048444448484444444444444444444424D3
:1031D000242524242424242420248DCD4872BAB606
:1031E000969696969696926988A9888889888888FE
:1031F00088886869896969696968686868686864ED
:10320000694545444444484844444444444444444F
:1032100044442424242424242424242024ADAC48FD
:10322000769A96969696969696926988A9888888B0
:103230008888888869696968686969686868686889
:1032400068646865454444444448444444444444B0
:1032500044444444444424444444242424442024F2
:103260008DA848969A96969696967696926988A98B
:1032700089898D88888889696969686869696868E1
:10328000686864644868644444444844444444442A
:10329000444444444444444444244424442424248E
:1032A00044202489AC49969A96969696967696925C
:1032B00069888988888D8888898969896868686843
:1032C00068686868686848484464444444444445BD
:1032D000444444444444444444444424242424244E
:1032E000242425450024AD8849BA9BB6B696969607
:1032F0009696928989AD898988898889888888681D
:10330000686868696868686868686868686868693B
:10331000686848444444444949494545454545450C
:103320004445492424244520496D6969B69696B6DA
:1033300096927692926D6968686969696969696946
:103340006968686464444444444444444444444490
:103350004444242424444444442424242424242071
:103360002024242000000000000020007A0FF66EC8
:10337000330EF7220900F5501200696A696969691C
:10338000492525252525252525698E8EAEB2B2AE87
:103390008E8D89696969898E8D896945454525259F
:1033A000252525456969694945252525252525457D
:1033B00025254545252E524945454549456A6E6AAC
:1033C000696A6A6A6949452525252525458E8E8EB7
:1033D000AEB28E8E8D898E8EAEAEAE8E8D6949491F
:1033E00045454525254545696969494925252525D9
:1033F00025252525454545252E524945454549491B
:103400006A6E6E6E6E8E8E6E6A6A4925252525253A
:10341000698A8E8E8E8E8D69698EAEB2B2AEAE8E98
:103420006969454569694545454569494969494568
:1034300025252525252545454545252E5349454521
:10344000454949696E6E6E6E6E6E8E8E8E6A25254A
:103450002525252545698E8E8E6969698DAEAEB2AA
:10346000AE8E8E8E6969696969696949456949499C
:1034700069494545252525252545454545252E529E
:103480004945454549494569696A6A6A6A8E8E8E29
:103490008E4925252521252545698E8D696949692E
:1034A000AEAEAE8E8E8E8E8E8A6A8E6E69494569FC
:1034B00069496969694545252525452525454545C8
:1034C000252E524945454549492545494969696E71
:1034D0008E8E8E6E4925252525252525698E8E699A
:1034E0004545698E8E8E8E8E8E8E8E8E8E6A8E69FC
:1034F0004545454969696D69494545254545252540
:10350000454545252E5349454549496925254545A4
:1035100049696A8E8E8E8E452525252525252549C6
:1035200069696949456969698E8E8E8EB2B2B28EBB
:1035300069696945452569696D6E6D694945454506
:10354000454545454545252E524945454949692149
:103550002525254549698E8E8E8E692525252525AB
:103560002525456969694945494969898DAEAEB2E4
:10357000D6D68E69452525454569696E6E6E6D699D
:10358000694949494945494945252A5369494949AC
:103590004969212525254549696E8E8EB28E694976
:1035A00025252525254569696969696969696989E3
:1035B000AEB2D6D7D66E49252525254569696E6EEA
:1035C0006E6D6D696969696969696949292E536E0A
:1035D0006969696969050525252545496E8EB2B277
:1035E000B2B2B269452525254545696969896945AC
:1035F0004545658DB2D6DBB64E29252525252549BD
:10360000696D6E6E6E6D6969696969696969694933
:103610002E53726D6D6D6D6D210101252525496A51
:103620008EB2B2B2B2B28D452525252545696969AC
:103630008D694545454589D6DBFB924A29252525D7
:1036400025254569696E6E6E6D6D6969696969697F
:103650006969492A5392928E8E9292010501212521
:1036600025496A8EB2B2B2AEAE8E692525252545B2
:1036700069698989692525254569B2DBD68E492581
:1036800025250525254569696E6E6E6D6D6969692B
:1036900069696D6D6D492A539692929292B6210591
:1036A00001212525456A8EB2B2AEAE8E8D454525E7
:1036B0002545696989896969452525254569D6B200
:1036C0006D4925250505252549696E4E496D6969B0
:1036D00069696969696D6D69492A53728D8E929223
:1036E000B2010101212525496A8E8EAEAE8E89690F
:1036F00069454545698D898989694545452525255A
:1037000045898E6945252501010525696D6E4E495E
:103710006969696969494969696969492A524E69EA
:103720006D8E92B6000001212525456A8EAEB2AE9F
:10373000896969696969698E8E8D896969494545B3
:103740002525254569896949250521010525696DD5
:103750004D49494949454545454549696D694929A5
:103760004E4D69698E9292000001212525456A8E91
:10377000AEB28E69696969898EAEAEAEAE8D696989
:10378000696945452525456969694925010101059D
:1037900025696D6E6D4949454545454949696E92B2
:1037A000924D4E524E69698D8E9200002105212561
:1037B0002545698A8E8E694545698DAEB2AEAE8E5D
:1037C0008E696969696969694569696969692525F0
:1037D00001010525696D6E6E496969696D6D6D92AE
:1037E0009296928E4D4E5296968E8D8E920001013B
:1037F0000101252525254545696945454589AEB21F
:10380000B2AEAE8E8E8D69898E8A69696969696981
:1038100069252525252545696D6E9296B6B6916D6B
:10382000694569696D6E6D49292E726D8D92B6B6C6
:10383000000121210505012525252545452525458D
:1038400069AEAEAE8E8E8E8E8E8E8E8E8E8D6969A8
:10385000696969492525252525696D92DBDBB691C6
:103860008969696949696D6D6D6D49292E72928EFC
:103870009291B200010105050105210125252525AB
:10388000254545698E8E8E8E8E8E8E8E8E8E8E8E78
:103890008E69694945696945252525458EB6DF96B6
:1038A000926D8D898969496969696D8E6D49292E85
:1038B00072928E8E8DB201012121212505212105D3
:1038C000254525454545698E8E8E8E8EAE8E8E8E13
:1038D0008EAE8E8D694945454569494545456DB66C
:1038E000BB92926E8D918D8D696969696D8D928D96
:1038F000492A2E72928E8E8D920101212125250159
:103900000521252545696969696A8E8E8E8E8E8EA0
:103910008EAEAEB2B2AE8E69494545454969496938
:103920009696B6929272926D6D89696969696D6DAC
:103930008E8EB66D4E537796929292B60001250107
:1039400021252105252545898E8E8D8E6A6A6E8EEC
:103950008E8E8E92B2B2B2B2928E8E694545454934
:10396000696992926D6E8EB672726D8D8D8D696978
:103970006969696D8D69694952528E6D6D8D9201CB
:10398000252525252525252545898E8E8E89696A3B
:103990006A6E6E6E6E8E8E8E8E929292928E6E6920
:1039A0004949496D6E6E254592929296726D92B21A
:1039B0008D696D6DB692928E6D6E4E53526E6D8E98
:1039C0009292012525252525050125458EAE8E8D52
:1039D000896A6A6A6A4A4A2A4A4A4A4A4A4A4A6E84
:1039E0006E6A4949496D6E492525496D92929696B0
:1039F0006D8D696969896969696D9292927277BB07
:103A0000BBB69292B625252525252521052145B24F
:103A1000B2AE8D69696949452526262626262625C2
:103A2000262A2A2A2A4A494A6E49252525254A72E4
:103A3000B792B6B6926D69698DB68D696D6D6D92EE
:103A40004E4E72969292B2DB2525252525252521FD
:103A50002545B2B2B28D6945454525250526260680
:103A60000525250525252525294A724925250525CC
:103A7000254E966E4E924D6D696969698D698D6DA1
:103A80006D8E494952779692B6B6B62525252525DD
:103A90002525252545D2D6D68D69452525252505FB
:103AA00025252505050525052525254A6E4E2525AF
:103AB000012525DB2A4A6E6E4E6E6D696DB6DBFF01
:103AC000DFFFFFFFFFFF9677BBDBDBB6B6BB25252D
:103AD0002525252525252545D6DAD68D49252525D3
:103AE000252505052525050525252505254A4A4EB3
:103AF000252505252525254A4E727297FFFFB68D8F
:103B0000929169698D8D698D69658D8DD68DB6FFB0
:103B1000FF25252525252525252569D6FBDA8D496F
:103B20002525252525052505252525252525252A80
:103B30004E4E2A2525254925256E6E72DFDFDBDFF7
:103B4000DFDBB6B692B6FFBAB6D6FFFFFFFFFFFFC8
:103B5000FFFFDBDF2525252525252525458DDBFFD9
:103B6000DA8E6949454525252505050505250505FF
:103B700025254A6E4A2929256E25252549DFDFFF9F
:103B8000DFD6DAFFB1D6B6D6DADBDBB6DAD6D6FACE
:103B9000B1FBB6DAD6B6FF252525252525254569AD
:103BA000D6FFFFDBB28E6969694A2A2A26262626B5
:103BB000262625262A96974E4A4E49252529924D96
:103BC000FFDFDA91B2FFDBFBFFDAFFB6B2B2B18DF5
:103BD000AD8D8DADAD89898D65652525252525257D
:103BE00025254569FBFFFFDBB29292B26E4E2E2A6D
:103BF0002A2A2A2A2A2A4E72966E96DB4E49724942
:103C00006DB6FFDFB6FF8DB1FFFFFAD68D698989EA
:103C10006965696965696989696565454525252518
:103C200025252525252545B2DAFBDBFFDBDBFBFB64
:103C3000B7737373724E724E7292BBB7BB9272724D
:103C40009696BBB6DBDFFFDAB6DAB1B2B2AD8989E0
:103C50006965694545654545656569454545454528
:103C600025252525252525252545ADDADADADAB6F7
:103C7000B6B6DFFFFFFFFFFFDBDB96BBDFBBFFDB83
:103C80007292BBFFDFDBFFFFFFFF8DB1B189696976
:103C900065896969656945454545454545654545C4
:103CA000454545252525252525252525456E727261
:103CB00072726E4E4E5277779BBBFFDFBBBBDBDB76
:103CC000FFDFBBBBBBFFDFFFFFFFFFDBAD89896908
:103CD000896545696589698969454545454545451C
:103CE00045454545454525252525252525252525C4
:103CF0002A2E2E2E2A2A2A2A2A2E2E2E5296BBBA57
:103D0000DBDFFFDFBBDBFFFFFFFFFFDFFFDFFFAD21
:103D100089696965896965658969658945654565F3
:103D2000454545454545454545252525252525291F
:103D300025252A2A2A2A2A2929252929292A2A2EF3
:103D40009796DFFFFFFFDBFFFFFFFFFFFFFFDFDFD8
:103D500049FF8D696969696969896565896565650D
:103D600069656965454545454545454525252525FB
:103D70002525292A2A092909252505250525252559
:103D800025052A72FFFFDFDFDFFFFFFFFFFFFFDFF9
:103D9000DFFFBBFFFFAD69696969696969A9896569
:103DA0008969898969896965654545454545452527
:103DB0002505250525050505250525050505050513
:103DC000250525250597DBDFDBFFFFFFFFFFFFFF55
:103DD000FFDFDFDBFFFFFFFFB189696969696965A3
:103DE000D26489898969696965696969896965458B
:103DF00045652925252525052505250505050525CF
:103E0000252505050505054EDBFFDFFFFFFFFFFF4D
:103E1000FFFFFFBBFFDFFFFFFFFFFFB28D89696977
:103E200069656565F6AD698969696965896989A9A1
:103E3000A989896565292505050505250505052542
:103E4000250525052505252505B7DBFFFFFFFFFF18
:103E5000FFFFFFFFFFFFFFFFFFFFFFFFFFFFB28935
:103E600089696969696569ADCD898989896969697E
:103E7000656964C9C9898989292505250505050557
:103E8000250525250505250529254EDBDBFFFFFF3B
:103E9000FFFFFFFFFFFFFFFFFFFFFFFFFFFFFFFF32
:103EA000FFAD6969898969696969898989896565F0
:103EB00065696969656965CDCD89892929252505E2
:103EC00005250505050505052529292A96FFDFFF96
:103ED000FFFFFFFFFFFFFFFFFFFFFFFFFFFFFFFFF2
:103EE000FFFFFFFF8D65656989896989896989890E
:103EF0006545656965696965898989F1CDA929295A
:103F000029050505050505050505292A2972FFFF6F
:103F1000FFFFFFFFFFFFFFFFFFFFFFFFFFFFFFFFB1
:103F2000FFFFFFFFFFFFFF8D6565656569896969B3
:103F3000898989898989698989898989898989FF9B
:103F4000D62E2A2A2929292925252929294E4EDB39
:103F5000FFFFFFFFFFFFFFFFFFFFFFFFFFFFFFFF71
:103F6000FFFFFFFFFFFFFFFFFFFF69656545456539
:103F700069696969698989ADADADADADA9A9A9A91D
:103F8000898989654E4E4E4A2A2A2A2A2A294E4E66
:103F9000BBFFFFFFFFFFFFFFFFFFFFFFFFFFFFFF75
:103FA000FFFFFFFFFFFFFFFFFFFFFFFFFF6965450B
:103FB000454565696969898989ADADADADADADAD81
:103FC000ADAD89898989896E6E7272724E4E4E4E80
:103FD00072BBFFFFFFFFFFFFFFFFFFFFFFFFFFFFC2
:103FE000FFFFFFFFFFFFFFFFFFFFFFFFFFFFFFDB05
:103FF0006945456545656969698969896969698945
:10400000A9A989A98989898969259272B6DBB6B679
:104010009296BBFFFFFFFFFFFFFFFFFFFFFFFFFFCA
:10402000FFFFFFFFFFFFFFFFFFFFFFFFFFFFFFFFA0
:10403000FFFFFFFFFFFFFF6D69698989896965657A
:1040400065656569696969696969692525DBB7DB42
:10405000DBDBB6B6FFFFFFFFFFFFFFFFFFFFFFFF4A
:10406000BB9B522E2E2A2E2E4E76FFFFFFFFFFFF08
:10407000FFFFFFFFFFFFFFFFFFFFFFBBBF9269696D
:1040800069696545454545454545454525252525F8
:10409000FFDBDBDBDBB6FFFFFFFFFFFFFFFFDFDF49
:1040A0004E52779B2E2A29292929292A2A2A4EFF6E
:1040B000FFFFFFFFFFFFFFFFFFFFDFDFFFDB4E26FE
:1040C0002A776E896565654545454545452525251C
:1040D000252525FFFFDBFFDBFFFFFFFFFFFF7752FB
:1040E0002E524E2A2EFF5229252525252529292AFB
:1040F0002A2A2ADFFFFFFFFFFFFFFFDFFFDF25FF89
:10410000FF2A26264E4E527269694545454545258A
:10411000252525252525FFFFFFFFFFFFFFFFFFBB0F
:10412000522E2E2A724E292EDB4E29252525252595
:1041300029292929292A2A4EFFFFFFFFFFBB775291
:104140002E524E292A26062E2E33574E7269654569
:10415000252925252525252525FFFFFFDFFFFFFF35
:10416000FFDF522E2A2A2A6E4E292EFF2E292525C0
:10417000252929292A2A29292929294E4E2E2E2E58
:104180002E2E2E2E2A4E2A4E0A533333332E4E4EC7
:10419000729229292525292525252525FFFFFFFFA1
:1041A000FFFFFFFF722E2A2A2A294E4E2A2A252E89
:1041B000292525292A292A2A9B2E2A2929292A4ED6
:1041C0002A2A2A2A2A2A2A2A2A4E296E7237373779
:1041D000332E29292929292925252525252529FF82
:1041E000FFFFFFFFFFFFDF2E2A292929292E522951
:1041F0002A522A29292A2A2E2A2A32DFBF322A299C
:1042000029292A4E2A2A2929292929292A4E296E8B
:10421000332E2A2A29292929292529252525252515
:104220002A2AFFFFFFFFFFFFFF972E2A2A292929AD
:10423000252A2A2A2A2A2A29292A2E2A2A322957AD
:10424000322E292525294E4E2A2A29292529292990
:104250002A2929292A2A292A2A29292929292525D1
:1042600029292A2A2EDFFFFFFFFFFFFFBB2E2A2965
:1042700029292929292A2A2A29292925292E292EA5
:10428000372557323229252529524E2E2A2A292907
:1042900029292929292A2A2A2A2A2A2A2929292987
:1042A000252525292A4E4E4EDBFFFFFFFFFFFFBBD2
:1042B0002E2A2A29292929252525292A2A2A2A2E6A
:1042C0002E2A32322557325329252529524E4E2A7D
:1042D0002929292A2A29292A2A2E2A2A2929292943
:1042E0002929292929292A4E524E72B6DBFFFFFFC0
:1042F000FFFF962E2E2A292929252929292A2E2E03
:104300004E4E2A4E2A2E52295757522A25292952D3
:104310004E4E2A2929292A2A292A2A2A2A2A2A2AB9
:104320002929292A2A2929292A4E524E4E6EB6B603
:10433000FFFFFFFFFF722E2A2A292929292A2A2A6C
:104340002A2A2A294E4E522A2A32779B572E2A2968
:10435000292A722E292A29292A2E292A2A2A2A2A72
:104360002A2A2A292929292A2A292A4E52294E4E1F
:1043700072D7B6FFFFFFFFFF772E2A2A2A2A294E7F
:104380002E292929292A29252A2A2A2A2E7BDF2E85
:104390002A2A292A4E2A25292A2A2E2E29292A2A5A
:1043A0002A2A292A2A2A29292929292A2A4E4E292C
:1043B00029294E72D7B7FFFFFFFFFFBB2E2E2A2AF7
:1043C0002A2A964E292A492A292925252529292AB2
:1043D0002E2E2A292A2A2E4E2525252E572E2929EA
:1043E0002929292A2A29292A2A2A292929292A4A16
:1043F0004E29292929294EDBD7FFFFFFFFFFBB7775
:104400004E2E2E2E2E724E292EFF2A2929292525A1
:104410002529292A2A2A2A2A2E4E2925252E522ABA
:104420002A29252A2E2E2A29292A2A2A2A292929EF
:104430002A2E4E29292929292929D7DBFFFFFFFF09
:10444000FFFFBB97532E2E2E964E2A52DB2E292984
:1044500025252529292929292A2A4E4E29292A2E86
:104460004E2E2A2A2A2A2E9B2A2925292A2A2A2A16
:104470002A2A2A4E4E2929292929292929B7D7FF4D
:10448000FFFFFFFFFFFFDFBB77774E97722E52FFD4
:104490002E29292525252929292A2A4E4E4E252926
:1044A000292E9796292A2A2A52DF2E2A29292E2AAE
:1044B0002A2A2A2E2E4E2A2A2A2A2E2A2A2A4969CE
:1044C000D7D7FFFFFFFFFFFFFFFFDFBB977272BB76
:1044D0007677BB762E2A2925292A2A2A4E2A4E4E5D
:1044E0002525292A9B975229292952BB522A252959
:1044F0002E2A2A2A2A2A4E2E292A2E4E4E4E4E4E39
:10450000696565B6D7FFFFFFFFFFFFFFFFFFFFFFF6
:10451000FFFFFF96BBBB96729797BB4E4E4E4E4E1B
:104520004E4E4E25252A2925252529252A729B2AE6
:1045300029292A2E2A2A2A2E2E2A4E4E4E4E4E4EF9
:10454000496965646569B6B6FFFFFFFFFFFFFFFFBE
:10455000FFFFFFFFFFFFFFFFDFDFDFBB72BFBBDB44
:10456000977272727296BBBB292525252A29294E7E
:104570006E2E2A292A762A2A2A2E5252524E4E4E20
:10458000494969456569696989B6B6B6FFFFFFFFA4
:10459000FFFFFFFFFFFFFFFFFFFFFFFFFFFFFFFF2B
:1045A000FFFFFFDFFFDFDFDFFFFF92492525252A21
:1045B000252A69492E2A2A4E2E2A2A2E9B724E49D6
:1045C000494565656969696989898989D7B2B2DBB5
:1045D000FFFFFFFFFFFFFFFFFFFFFFFFFFFFFFFFEB
:1045E000FFFFFFFFFFFFFFFFFFFFFFFFFF926D25B4
:1045F00025252A2A4E69694E4E4E4E2E2E2E4945AD
:10460000656969696969698989898989898989DBAC
:10461000B6B2B2DBFFFFFFFFFFFFFFFFFFFFFFFFB1
:10462000FFFFFFFFFFFFFFFFFFFFFFFFFFFFFFFF9A
:10463000968E2525292A2A496969724E4E9B522E4B
:104640004D65456965696969696969696969698902
:104650008989B6B6B2B2B2D6FFFFFFFFFFFFFFFFF8
:10466000FFFFFFFFFFFFFFFFFFFFFFFFFFFFFFFF5A
:10467000FFFFFFB6920525292A2E496969964E4EFD
:104680009B4E526E656969656565656565656565BD
:104690006969898989DBB6B6B2B2B2B6FFFFFFFF9E
:1046A000FFFFFFFFFFFFFFFFFFFFFFFFFFFFFFFF1A
:1046B000FFFFFFFFFFFFFF92012529294E494969AE
:1046C0009269694949698989896965696565656525
:1046D0006565696969898989DBB6B6B2B2B2B2B279
:1046E000B6FFFFFFFFFFFFFFFFFFFFFFFFFFFFFF23
:1046F000FFFFFFFFFFFFFFFFFFFF92012529297248
:104700006E6E6E92DF7265696989898989696569EA
:10471000696969696969698989A989FFDBB6B292A2
:1047200092B2B2B2B2B6FFFFFFFFFFFFFFFFFFFF83
:10473000FFFFFFFFFFFFFFFFFFFFFFFFFF6E2525CE
:10474000254E974E4E6E929B324D69696969698913
:104750006965698969696969698989898989FFFFE1
:10476000DBB6B2B2B2B2B2B2B2B24E4EBBFFFFFFD4
:10477000FFFFFFFFFFFFFFFFFFFFFFFFFFFFFFFF49
:10478000DB2525016E496D6EDFB7BB2E2E4E6D69A0
:10479000696969696569898969698989898989898D
:1047A00089FFDBDBB6B6B6B2B2B2B2B2924E2A29FC
:1047B000252A2A97DFFFFFFFFFFFFFFFFFFFFFFF15
:1047C000DBFFFFDB2549256D4969696EB6BB3257B2
:1047D000525252525249494949698989898989897C
:1047E00089898989DBDBDADBB6B6B6B2B2B2B3B39C
:1047F0004E2A2A2505252525292A2A4A4E72926EF7
:10480000694925010101B625496E6D496D6D6D92AD
:1048100092492A7B77522E2E2E2E2E2E4E4E4E69E8
:104820008989898989A989DBB7B6B6B7B6B6B2B224
:10483000B7D7B7722E2A2A0525050505252529494A
:104840006D6969494925010101B2252549496D492B
:10485000696D927269292E77772E322A2A2A2A2A9E
:104860002E2E2E2E4E4A496D8989B7B6B7B6B6DBC5
:10487000B6B2B2B6D7DB97522E2A092525250525D3
:104880002929496E6969494525052105924921254E
:1048900025256E6D6E724E49292E2A9F572E2E2A7F
:1048A0002A2A2A2A2A2E2A2A2A2A2E2E2EDBB7B78D
:1048B000B7B6D7D6B6B6B6DBDBB7522E2A2A29252D
:1048C00025252529294E6E6D694545252525256E09
:1048D0006D0149254549494E6E4E2E292E2A9B577A
:1048E000322E2E2E2E2E2E2A2E2A2E2A2A2A2E2AFC
:1048F000FFDBDBD7B7B7DBB6B6B7DBDB97522E2AC9
:104900000A2905052509292A4E6E6E69694945253A
:104910002525498E052549496E49726E522E2A2E4B
:104920002A7757575353522E2E2E2A2A2A2A2E2EB2
:104930002A2A2AFFFFDBDBD7B7B6B6DBDBDBDB9748
:104940004E2A2A29092A29090A2A2A4E6E6E6E69D8
:10495000694945252525B72125256D6949726D4E83
:104960002E2E2E2A777B775757322E2A2E2A2A2A46
:104970002A2A2E2E2A2AFFFFFFDBD7B7B6D7DBDB8A
:10498000FFDB772E2A2A0A0A0A0A0A0A2A2A4E6E08
:104990006E6E69694949252525DF21292E524E96DB
:1049A0008E92492A2E2E2E9B7B7B32532E2E2E2E1C
:1049B0002A2A2A2A2E2E2E2E2EFFFFFFFFDBD7B605
:1049C000B6DBDBFFFF772E2E2A2A0A0A2A2A2A0ABA
:1049D0002A4E6E6E6E6E6A49252525252E972E2A43
:1049E0002E6E7272922E2A2E2A2A2E2E2A2A2A2ED3
:1049F0002E2E2A292A2A2E2E4E4E2E2EDFFFFFFF84
:104A0000DBDBD7B7B6DBDBFF772E2A0A0A0A2A0AD6
:104A10002A2A2A2A4E6E926E6E6E49252525252950
:104A20004E522E2E9B9777772E2A2E2E2A2E2E2A06
:104A30002E2E2E2A2A292A2A2A4E52524E4E4EDB3A
:104A4000FFFFFFDBDBDBD7B6B6DBDBBB522E2A2A50
:104A50000A0A2A2A0A2A2A4E7292726E6E49252161
:104A6000012121254E522E529B9B772E2A522E2A0F
:104A70002E2E2E2E2A2E2A2A2A2A2A4E72976E721D
:104A80004E52B6DBFFFFFFDFDBB7B7B6B6DBBB7757
:104A90002E2A2A0A2A2A2A2A2A2E4E7292726E4E0A
:104AA0002905010101012549762E2E77BB9B2E2A6F
:104AB0004E532E2E2A2E2A2A2A2A2A2A4E4E768D06
:104AC000AD898D926DB7B6DBFFFFFFDBD7D7B2B6EE
:104AD000B6BB774E2E2A2A0A0A0A0A2A2E52767264
:104AE000724E4E290525010125052A2E524E2E779C
:104AF00052534E4E5277522E2E2E2E2E2E4E527630
:104B000092AD8DADAD89AD8DD7B6BADBFFFFFFDBC2
:104B1000B7B6B6B6969B532E2A2A0A2A0A0A2A2E16
:104B2000527777522E2E2E25250101252A2A2E4E28
:104B30004E2E522E779B725252727772524E52768E
:104B4000928DADB1ADADADAD8D8DADD7B7B6DBDF6F
:104B5000FFFFDB96926E929696772E2E2A0A2A2ACD
:104B60000A2A2E537B57322E2E2E2E2E2A2A2E2EF6
:104B70002A2E2E4E2E4E2E4E7272527272729797AF
:104B8000976E698DADADAD8D8D8D8D8D89ADFBDB56
:104B9000D7B6BBFFFFDF96726E6E9296772E2A2AEB
:104BA0002A0A2A2A2A2E537777522E2E2E2A2A2A8A
:104BB0002A2A2A2A2A2E2E724E525252524E6E7291
:104BC0006D726D6D8D91929292727297BFDBBAB6D3
:104BD0008DDBDBD7B6B6DBFFFFB6926D6D929272BE
:104BE0004E2E2A2A0A2A0A2A2E5277724E4E2A2A34
:104BF0002A2929292929292A2E4E4E525252525207
:104C00004E728D8D6D6D8D92929296B6967677BF1F
:104C1000DFDBB6B6DBDBDBD7B6B6DBFFFFB6926D0C
:104C20008D9272522E2A2A2A2A2A2A2E4E72726EA9
:104C30004D49494949292929294949496E6E6E72C8
:104C40007272726E728D8D9191B6B6929696B69280
:104C50007677BBBB929292DBD7DBDBDBB6DADFFF8A
:104C6000DFB6928D9292522E2E2A2A2A2A2A4E4E50
:104C70006E6E6D6D49494949494949494949696DCE
:104C80006D6D6D6D6E6E6E9291B1B6B6B69292927A
:104C9000969692729BBBB6929292DBD7B6DBDBB64E
:104CA000B6DAFFFFDBB692929292724E4E4E4E4EA5
:104CB0004E6E6E6E6E6E6D6D6D6E6D6D6D69696949
:104CC0004969696969696D6D6D6D9191ADB1B19217
:104CD000918D92929292729BBBB6929292DBB7D7D1
:104CE000B6DBB7B2B6DBFFFFDFB69696B69672724A
:104CF0006E6D6E929292929292928E6E8E926E6D76
:104D00006D696969696969696D6D6D6D6E718D8DAA
:104D10008D8D92929292929292729BBBBA9292B61F
:104D2000F76A300FF66E4D0EF7220900F5501200AB
:104D3000000000000000005F0000000700070014F2
:104D40007F147F14242A7F2A1223130864623649B1
:104D50005522500005030000001C224100004122A2
:104D60001C0014083E081408083E080800503000D3
:104D7000000808080808006060000020100804020D
:104D80003E5149453E00427F400042615149462123
:104D900041454B311814127F1027454545393C4A8F
:104DA00049493001710905033649494936064949DF
:104DB000291E003636000000563600000814224135
:104DC000001414141414004122140802015109069D
:104DD000324979413E7E1111117E7F494949363E63
:104DE000414141227F4141221C7F494949417F097C
:104DF0000909013E4149497A7F0808087F00417F3F
:104E000041002040413F017F081422417F40404043
:104E1000407F020C027F7F0408107F3E4141413EEB
:104E2000F76A300FF66E4E0EF7220900F5501200A9
:104E30007F090909063E4151215E7F09192946462D
:104E40004949493101017F01013F4040403F1F2056
:104E500040201F3F4038403F631408146307087028
:104E600008076151494543007F4141000204081091
:104E7000200041417F0004020102044040404040C4
:104E8000000102040020545454787F4844443838C8
:104E900044444420384444487F3854545418087ECD
:104EA0000901020C5252523E7F0804047800447DEE
:104EB00040002040443D007F1028440000417F40D6
:104EC000007C041804787C0804047838444444388E
:104ED0007C14141408081414187C7C080404084872
:104EE00054545420043F4440203C4040207C1C202B
:104EF00040201C3C4030403C44281028440C50507A
:104F0000503C4464544C44000836410000007F008B
:104F1000000041360800100808100878464146781D
:104F20007C090505787E0509117EF76A3A0FF66E51
:104F30004F0EF7220900F55012004A756C6975731F
:104F400020436F6E7374616E74650000EA6A460EEA
:104F5000E96EEF500DE0060E016E006A002EFED7DE
:104F6000012EFBD77B0E006E002EFED7EF2EF3D75F
:104F7000000C8B94949489969296525203E18998EE
:104F8000929802D08988929889869296080E0C6E23
:104F90000C520EE08996929651BE02D0899801D0AB
:104FA0008988929889869296D89051360C06F0D7C7
:104FB000000C8B849494000C8B9494948996929614
:104FC0008988929889869296080E0C6E0C520EE093
:104FD000899692964ABE02D0899801D08988929883
:104FE00089869296D8904A360C06F0D7000C2C0E83
:104FF000516E526ABEDF486A476A485019080BE38F
:1050000003E14750A50807E346C04AF0D5DF472A29
:10501000D8B4482AF2D7CDDF73EF29F0929689965B
:105020009298899894948B9494908B90FA0E466EF3
:105030008DDF8B909490050E466E88DF8B80949068
:105040008B8494948986929689889298010E516EE9
:10505000526A8FDFAEDF050E466E78DFC60E516EE8
:10506000526A87DFA6DFB90E516E526A82DF516A3B
:10507000010E526E7EDF9DDFB60E516E526A79DFF1
:10508000800E516E010E526E74DF800E516E010E55
:10509000526E6FDF810E516E010E526E6ADF540E3A
:1050A000516E010E526E65DF450E516E010E526E4D
:1050B00060DF520E516E010E526E5BDF430E516E79
:1050C000010E526E56DF75DFB30E516E526A51DF1C
:1050D000010E516E526E4DDF020E516E010E526E78
:1050E00048DF040E516E010E526E43DF080E516E02
:1050F000010E526E3EDF100E516E010E526E39DF00
:105100001E0E516E010E526E34DF280E516E010ECE
:10511000526E2FDF320E516E010E526E2ADF3C0EA0
:10512000516E010E526E25DF460E516E010E526E0B
:1051300020DF500E516E010E526E1BDF5A0E516E63
:10514000010E526E16DF640E516E010E526E11DFAB
:105150006E0E516E010E526E0CDF7F0E516E010EFF
:10516000526E07DF26DF2D0E516E526A02DF516A42
:10517000010E526EFEDE030E516E010E526EF9DE0E
:10518000050E516E010E526EF4DE070E516E010EC9
:10519000526EEFDE090E516E010E526EEADE0B0EFC
:1051A000516E010E526EE5DE0D0E516E010E526E05
:1051B000E0DE0F0E516E010E526EDBDE516A010E03
:1051C000526ED7DE030E516E010E526ED2DE050E08
:1051D000516E010E526ECDDE070E516E010E526EF3
:1051E000C8DE090E516E010E526EC3DE0B0E516EFB
:1051F000010E526EBEDE0D0E516E010E526EB9DE04
:105200000F0E516E010E526EB4DE516A010E526ED7
:10521000B0DE030E516E010E526EABDE090E516E02
:10522000010E526EA6DE0F0E516E010E526EA1DE01
:10523000C0DEB50E516E526A9CDE010E516E526E8A
:1052400098DEB7DEBE0E516E526A93DE040E516ECA
:10525000010E526E8EDEADDE110E516E526A89DE87
:10526000A8DEB70E516E526A84DE456A446A455222
:105270000BE144500D0808E3516A010E526E79DECD
:10528000442AD8B4452AF3D794DE030E516E526AED
:1052900070DE8FDE280E466E59DE200E516E526A89
:1052A00068DE87DE250E516E526A63DE3F0E516E58
:1052B000010E526E5EDE7DDE360E516E526A59DE92
:1052C000140E516E010E526E54DE73DE3A0E516EA4
:1052D000526A4FDE020E516E010E526E4ADE69DED8
:1052E0000DC046F084D6290E516E526A42DE61DE50
:1052F0005DEF2BF010C0EAFF0FC0E9FF45C0EFFFE4
:10530000E92AD8B4EA2AEF6A0F2AD8B4102A69EF3A
:105310002BF0080E506E505212E04F50010B06E178
:105320000DC051F0010E526E24DE05D00EC051F0BA
:10533000010E526E1EDED8904F325006ECD7000C94
:105340004B50F10803E1800E4B6E0FD04B50D1084B
:1053500003E1810E4B6E09D04B501F0802E335D09C
:1053600004D04B507F0801E230D04C6A4C50040806
:105370002AE34B504F0810E34B50E00F050DF3505C
:105380004C244D6E036A4D50F2CF4FF0F29EC8DCB4
:105390004FBEF28E4E6E12D04B504F080FE24B5064
:1053A000B00F050DF3504C244D6E036A4D50F2CFF3
:1053B0004FF0F29E35DD4FBEF28E4E6E4EC04FF076
:1053C000A8DF4C2AD3D74F6AA4DF0DEF2AF02B0EAB
:1053D000516E526ACEDD49C051F0010E526EC9DDE8
:1053E000070E49244A6E516E010E526EC2DDE1DD98
:1053F0002A0E516E526ABDDD48C051F0010E526E48
:10540000B8DD600E48244A6E516E010E526EB1DD59
:10541000D0DD2C0E516E526AACDD47C003F046C0A1
:10542000E9FF47C0EAFFEF520EE047C003F04650E5
:10543000462AD8B4472AE96E03C0EAFFEFCF4AF004
:105440004AC04BF07DD7B5DD8AEF2BF046504802BD
:10545000F3CF01F0F4CF00F04902F350002647509B
:105460004802F3500020026E000C2A0E516E526A60
:1054700080DD516A010E526E7CDD610E516E010EAF
:10548000526E77DD96DD2B0E516E526A72DD516AD7
:10549000010E526E6EDD420E516E010E526E69DDCE
:1054A00088DD2C0E516E526A64DD456A45506108F4
:1054B00026E3446A4450420820E3476A45C046F068
:1054C000496A430E486EC2DF02C047F001C046F091
:1054D00044500124016E000E0220036E0150F2CFF1
:1054E00048F0F29E03C0F7FF02EC00F048BEF28ED7
:1054F000496E4A6E61DD442ADDD7452AD7D759DD8A
:1055000094EF2BF02A0E516E526A33DD516A010E70
:10551000526E2FDD610E516E010E526E2ADD49DD95
:105520002B0E516E526A25DD516A010E526E21DD3D
:10553000420E516E010E526E1CDD3BDD2C0E516E83
:10554000526A17DD456A4550610826E3446A4450B3
:10555000420820E3476A45C046F0496A430E486E58
:1055600075DF02C047F001C046F044500124016ECF
:10557000000E0220036E0150F2CF48F0F29E03C0ED
:10558000F7FFDCEC0CF048BEF28E496E4A6E14DD7B
:10559000442ADDD7452AD7D70CDD98EF2BF02A0E09
:1055A000516E526AE6DC516A010E526EE2DC610E07
:1055B000516E010E526EDDDCFCDC2B0E516E526A18
:1055C000D8DC516A010E526ED4DC420E516E010ECF
:1055D000526ECFDCEEDC2C0E516E526ACADC456A8C
:1055E0004550610826E3446A4450420820E3476A74
:1055F00045C046F0496A430E486E28DF02C047F0B6
:1056000001C046F044500124016E000E0220036EDA
:105610000150F2CF48F0F29E03C0F7FFB6EC19F04C
:1056200048BEF28E496E4A6EC7DC442ADDD7452A51
:10563000D7D7BFDCA0EF2BF0F86AD09EEA6AE96A00
:10564000C150C00B0F09C16E070EB46E1F0E056E60
:10565000E30E066EFC0E076E030E086EE00E096E7A
:10566000FF0E0A6E0B6A0D6A050E0E6E0F6A106A47
:10567000C150C00B0F09C16EC290C69A949E938010
:105680009392000EC66EC76ED190800ED56ECD6A15
:10569000000ECA6E000ECB6EB150480BB16E070EF5
:1056A000B46E9250100E006E002EFED70000B45063
:1056B000A19CB56AD36AD350B1D40BC00DF0106A67
:1056C000120E0F6E446A445030DC442A006E456E60
:1056D00011D6100E445CF7E1116A115002081CE368
:1056E000036A1150050FE96E000E0320EA6EEFCF3A
:1056F0000EF01150080DF3CF00F0D8900036005096
:10570000020F456E476A120E466E010E486E45C086
:1057100049F05DD6112AE1D7080E446EFA0E466EA6
:1057200015DC442EFBD7A1D6C80E466E0FDCEAD698
:10573000080E446EFA0E466E09DC442EFBD72FD7B6
:02574000030064
:020000040030CA
:0E00000020CC180E008780000FC00FE00F40CC
:00000001FF
;PIC18F2550
