:020000040000FA
:060000004BEF40F012007E
:06002A000100DE80000071
:08003000800000005C000000EC
:08003800D9CFE6FFE1CFD9FFAB
:100040000F01166B176B186BD6EC0DF08B901E0E14
:10005000E66EE66AE9EC3DF0E552E5528B801E0E55
:10006000E66EE66AE9EC3DF0E552E5520F01110E4D
:10007000196FDEEC0DF0020EE66EE66AE9EC3DF07B
:10008000E552E5520F01360E196FDEEC0DF00F014F
:10009000200E196F38EC0EF00F01250E196FDEECF3
:1000A0000DF00F01300E196F38EC0EF05EEC0EF013
:1000B000040EE66EE66AE9EC3DF0E552E5520F010A
:1000C000290E196FDEEC0DF0000EE66EE66AFE0EEC
:1000D000DBCFE6FF09D8E552E552E5525EEC0EF0C3
:1000E000E552E7CFD9FF1200D9CFE6FFE1CFD9FF24
:1000F000020EE126FE0EDB500F01165D0CE117CF5C
:1001000014F018CF15F0FC0EDB50141804E1FD0EAE
:10011000DB50151856E03A0E196FDEEC0DF0FE0EAE
:10012000DB50020809E10F01020E196F38EC0EF0E6
:10013000FF0EDE6E7F0E08D00F01030E196F38EC34
:100140000EF0CE0EDE6E7F0EDD6ED950FC0FE96E26
:10015000FF0EDA20EA6EEE50ED1005E0FC0EDBCF6C
:10016000DEFFDBCFDDFF0F012D0E196FDEEC0DF092
:10017000DECFF6FFDDCFF7FF0800F550E66EE66A4A
:10018000DECF14F0DDCF15F0010E1426000E15227F
:1001900014C0E6FF15C0E6FF05EC0EF0E552E5528F
:1001A000E552E5520F01196BDEEC0DF0FE0EDBCFD0
:1001B00016FFFC0EDBCF17FFFD0EDBCF18FF5EEC4A
:1001C0000EF0020EE15C02E2E16AE552E16EE552F8
:1001D000E7CFD9FF1200020E0F01165D0AE1E668B3
:1001E000830EE66EE66EE66AE66A52D8146E050E77
:1001F0000CD0E6680F0EE66E830EE66EE66EE66ADB
:10020000E66A59EC0CF0146E060EE15E1450120012
:10021000D9CFE6FFE1CFD9FF0F01250E196FDEEC34
:100220000DF0FE0EDBCF19FF38EC0EF05EEC0EF099
:10023000E552E7CFD9FF1200D9CFE6FFE1CFD9FFD2
:100240000F012B0E196FDEEC0DF0FE0EDBCF19FF48
:1002500038EC0EF038EC0EF00F012A0E196FDEECC0
:100260000DF0FD0EDBCF19FF38EC0EF038EC0EF080
:100270000F012C0E196FDEEC0DF0FC0EDBCF19FF19
:1002800038EC0EF05EEC0EF0E552E7CFD9FF12002D
:10029000D9CFE6FFE1CFD9FF040EE126FE0EDBCF7A
:1002A00014F0FC0EDB50D88014546FE3FD0EDBCF4E
:1002B00015F0FB0EDB50D880155467E30F012B0EB1
:1002C000196FDEEC0DF0FE0EDBCF19FF38EC0EF0EF
:1002D000FC0EDBCF19FF38EC0EF00F012A0E196F60
:1002E000DEEC0DF0FD0EDBCF19FF38EC0EF0FB0E4F
:1002F000DBCF19FF38EC0EF00F012C0E196FDEEC7E
:100300000DF0FB0EDBCFE6FFFD0EDB50E552E75CA8
:10031000010F166E176AFC0EDBCFE6FFFE0EDB50F8
:10032000E552E75C010F146E156A086E15C009F0FE
:1003300016C00DF017C00EF097EC3EF0020E06C08E
:10034000DBFF030E07C0DBFFFA0EDBCF19FFDE6A0F
:10035000DD6ADECF14F0DDCF15F0020EDBCF16F034
:10036000030EDBCF17F01650145C1750155807E238
:1003700038EC0EF0DF2A010EECE3DB2AEAD70F019E
:10038000196BDEEC0DF05EEC0EF0040EE15C02E2A7
:10039000E16AE552E16EE552E7CFD9FF1200D9CF0D
:1003A000E6FFE1CFD9FFE652F90EDB5023E0FD0E68
:1003B000DBCFE9FFFE0EDBCFEAFFEF50E66EFA0E71
:1003C000DBCFE6FFFB0EDBCFE6FFFA0EDBCFE6FF6F
:1003D000FC0EDBCFE6FF5CDF146E050EE15E145011
:1003E000F90EDB06FA0EDB2AFD0EDB2AFE0EDCE33D
:1003F000DB2ADAD7E552E552E7CFD9FF1200D9CF91
:10040000E6FFE1CFD9FF0A0EE126F70EDBCF16F0AB
:10041000F80EDBCF17F0FB0EDB50165C146EFC0EF3
:10042000DB50175814C0DEFFDD6EF90EDBCF16F07F
:10043000FA0EDBCF17F0FD0EDB50165C146EFE0ECD
:10044000DB501758156E020E14C0DBFF030E15C0EB
:10045000DBFFDECF14F0DDCF15F00001800E1514A8
:1004600011E008680968DECF0DF0DDCF0EF06AEC10
:100470003EF006C0DEFF07C0DDFF060EDB68070E9C
:10048000DB6807D0010EF36E060EF3CFDBFF070E1D
:10049000DB6A020EDBCF14F0030EDBCF15F0000198
:1004A000800E151415E008680968020EDBCF0DF008
:1004B000030EDBCF0EF06AEC3EF0020E06C0DBFF4F
:1004C000030E07C0DBFF040EDB68050EDB6807D0F8
:1004D000010EF36E040EF3CFDBFF050EDB6AD9CFFE
:1004E000E9FFDACFEAFF010ED890EE36ED36E806E6
:1004F000FBE1D950020FE96EDACFEAFF010ED89086
:10050000EE36ED36E806FBE1F60EDBCFE6FFFB0E3E
:10051000DBCFE6FFFD0EDBCFE6FF8EDEE552E552D8
:10052000E552020EDBCF14F0030EDBCF15F0DECF69
:1005300016F0DDCF17F017501518E8AE02D01534BD
:1005400004D01450165C1550175801E378D0020EF1
:10055000DBCF16F0030EDBCF17F0D8901732163230
:100560001650DE5C146E1750DD58156E080E14C060
:10057000DBFF090E15C0DBFFFD0EDBCF14F0FE0E16
:10058000DBCF15F0F90EDB50141803E1FA0EDB5047
:10059000151801E1CFD0080EDBCF14F0090EDBCF28
:1005A00015F00001800E15141FE1060EDBCF14F0CC
:1005B000070EDBCF15F0D950FB0FE96EFF0EDA20E6
:1005C000EA6E1450EE261550ED22020EDBCF14F029
:1005D000030EDBCF15F0D950080FE96EDACFEAFF32
:1005E0001450EE5E1550ED5A040EDBCF14F0050EDC
:1005F000DBCF15F0D950FD0FE96EFF0EDA20EA6E61
:100600001450EE261550ED22DECF14F0DDCF15F09C
:10061000D950080FE96EDACFEAFF1450EE261550D4
:10062000ED22F60EDBCFE6FFFB0EDBCFE6FFFD0E85
:10063000DBCFE6FF01DEE552E552E5529DD7DECF86
:1006400016F0DDCF17F0D89017321632020EDBCF3E
:1006500008F0030EDBCF09F01650085C146E17503B
:100660000958156E080E14C0DBFF090E15C0DBFF1C
:10067000FB0EDBCF14F0FC0EDBCF15F0F70EDB50DA
:10068000141803E1F80EDB50151854E0080EDBCF08
:1006900014F0090EDBCF15F00001800E15141DE1DA
:1006A000040EDBCF14F0050EDBCF15F0D950FD0F93
:1006B000E96EFF0EDA20EA6E1450EE261550ED2298
:1006C000DECF14F0DDCF15F0D950080FE96EDACF88
:1006D000EAFF1450EE5E1550ED5A060EDBCF14F013
:1006E000070EDBCF15F0D950FB0FE96EFF0EDA20B5
:1006F000EA6E1450EE261550ED22020EDBCF14F0F8
:10070000030EDBCF15F0D950080FE96EDACFEAFF00
:100710001450EE261550ED22F60EDBCFE6FFFB0E51
:10072000DBCFE6FFFD0EDBCFE6FF86DDE552E552CF
:10073000E5529ED70A0EE15C02E2E16AE552E16E03
:10074000E552E7CFD9FF1200D9CFE6FFE1CFD9FFBD
:100750000A0EE126F90EDBCF14F0FA0EDBCF15F00E
:10076000010ED8801456000E155614C0DEFF15C0B9
:10077000DDFF020EDB6A030EDB6AFE0E086E0968FF
:10078000F90EDBCF0DF0FA0EDBCF0EF06AEC3EF087
:10079000040E06C0DBFF050E07C0DBFF060EDB6A9A
:1007A000070EDB6AF90EDBCF08F0FA0EDBCF09F09B
:1007B000080E08C0DBFF090E09C0DBFFF80EDBCF17
:1007C000E6FFF90EDBCF16F0FA0EDBCF17F0FB0ECB
:1007D000DB501624146EFC0EDB501720156E1450DF
:1007E000E66EFD0EDBCFE6FF27DDE552E552E55272
:1007F000F80EDBCFE6FFFB0EDBCF16F0FC0EDBCFF7
:1008000017F0F90EDB50165C146EFA0EDB50175819
:10081000156E1450E66EFD0EDBCFE6FF0DDDE552E2
:10082000E552E552F80EDBCFE6FFFB0EDBCFE6FF2D
:10083000F90EDBCF16F0FA0EDBCF17F0FD0EDB5012
:100840001624146EFE0EDB501720156E1450E66E43
:10085000F3DCE552E552E552F80EDBCFE6FFFB0E86
:10086000DBCFE6FFFD0EDBCF16F0FE0EDBCF17F081
:10087000F90EDB50165C146EFA0EDB501758156E2D
:100880001450E66ED9DCE552E552E552060EDBCF98
:1008900014F0070EDBCF15F0080EDBCF16F0090EB3
:1008A000DBCF17F015501718E8AE02D0173404D07C
:1008B0001650145C1750155801E37FD1DECF14F0A9
:1008C000DDCF15F00001800E15141CE1080EDB06CB
:1008D000090E01E2DB06D950040FE96EDACFEAFF18
:1008E000020EEE26000EED22040EDBCF14F0050EF4
:1008F000DBCF15F0D9CFE9FFDACFEAFF1450EE26AF
:100900001550ED22060EDB2A070E01E3DB2AD95033
:10091000020FE96EDACFEAFF020EEE26000EED229C
:10092000010EE76E020EDBCF14F0030EDBCF15F0E5
:10093000E7501426000E1522D9CFE9FFDACFEAFFDF
:100940001450EE261550ED22F80EDBCFE6FF080E10
:10095000DBCF16F0090EDBCF17F0FB0EDB501624B1
:10096000146EFC0EDB501720156E1450E66E060E4A
:10097000DBCF1AF0070EDBCF1BF0FD0EDB501A2485
:10098000186EFE0EDB501B20196E1850E66E54DCFC
:10099000E552E552E552F80EDBCFE6FF080EDBCF5D
:1009A00016F0090EDBCF17F0FB0EDB501624146E89
:1009B000FC0EDB501720156E1450E66EFD0EDBCFDB
:1009C0001AF0FE0EDBCF1BF0060EDB501A5C186E21
:1009D000070EDB501B58196E1850E66E2DDCE552E1
:1009E000E552E552F80EDBCFE6FFFB0EDBCF16F04B
:1009F000FC0EDBCF17F0080EDB50165C146E090EF0
:100A0000DB501758156E1450E66E060EDBCF1AF049
:100A1000070EDBCF1BF0FD0EDB501A24186EFE0E06
:100A2000DB501B20196E1850E66E1CEC01F0E552ED
:100A3000E552E552F80EDBCFE6FFFB0EDBCF16F0FA
:100A4000FC0EDBCF17F0080EDB50165C146E090E9F
:100A5000DB501758156E1450E66EFD0EDBCF1AF002
:100A6000FE0EDBCF1BF0060EDB501A5C186E070E75
:100A7000DB501B58196E1850E66E1CEC01F0E55265
:100A8000E552E552F80EDBCFE6FF060EDBCF16F09F
:100A9000070EDBCF17F0FB0EDB501624146EFC0E96
:100AA000DB501720156E1450E66E080EDBCF1AF0DF
:100AB000090EDBCF1BF0FD0EDB501A24186EFE0E64
:100AC000DB501B20196E1850E66E1CEC01F0E5524D
:100AD000E552E552F80EDBCFE6FF060EDBCF16F04F
:100AE000070EDBCF17F0FB0EDB501624146EFC0E46
:100AF000DB501720156E1450E66EFD0EDBCF1AF09A
:100B0000FE0EDBCF1BF0080EDB501A5C186E090ED0
:100B1000DB501B58196E1850E66E1CEC01F0E552C4
:100B2000E552E552F80EDBCFE6FFFB0EDBCF16F009
:100B3000FC0EDBCF17F0060EDB50165C146E070EB2
:100B4000DB501758156E1450E66E080EDBCF1AF006
:100B5000090EDBCF1BF0FD0EDB501A24186EFE0EC3
:100B6000DB501B20196E1850E66E1CEC01F0E552AC
:100B7000E552E552F80EDBCFE6FFFB0EDBCF16F0B9
:100B8000FC0EDBCF17F0060EDB50165C146E070E62
:100B9000DB501758156E1450E66EFD0EDBCF1AF0C1
:100BA000FE0EDBCF1BF0080EDB501A5C186E090E30
:100BB000DB501B58196E185064D60A0EE15C02E235
:100BC000E16AE552E16EE552E7CFD9FF1200D9CFD5
:100BD000E6FFE1CFD9FF040EE126010EE76EFD0E20
:100BE000DBCFF6FFFE0EDBCFF7FFE750F626000E59
:100BF000F7220800F550DF6E020EE76EFD0EDBCF28
:100C0000F6FFFE0EDBCFF7FFE750F626000EF722C9
:100C10000800010EF5CFDBFF040EE76EFD0EDBCF03
:100C2000F6FFFE0EDBCFF7FFE750F626000EF722A9
:100C30000800F5CF16F016C017F0166A030EE76E1F
:100C4000FD0EDBCFF6FFFE0EDBCFF7FFE750F626FB
:100C5000000EF7220800F5501624146E000E17201F
:100C6000156E020E14C0DBFF030E15C0DBFF0F0173
:100C70002B0E196FDEEC0DF0FC0EDBCF19FF38ECFC
:100C80000EF0FC0EDB50DF24FF0F0F01196F38EC64
:100C90000EF00F012A0E196FDEEC0DF0FB0EDBCF0C
:100CA00019FF38EC0EF0010EDBCFE6FFFB0EDB5038
:100CB000E552E724FF0F0F01196F38EC0EF00F011A
:100CC0002C0E196FDEEC0DF0020EDBCFE6FF030EEB
:100CD000DBCFE6FF050EE76EFD0EDBCF14F0FE0E58
:100CE000DBCF15F0E7501426000E152214C0E6FFE6
:100CF00015C0E6FF05EC0EF0E552E552E552E5526F
:100D00000F01196BDEEC0DF05EEC0EF0040EE15CF1
:100D100002E2E16AE552E16EE552E7CFD9FF120047
:100D2000D9CFE6FFE1CFD9FF030EE126F90EDB5064
:100D3000040A19E0060A35E1F70EDBCFE6FFF80EEC
:100D4000DBCFE6FFFC0EDBCFE6FFFD0EDBCFE6FFE1
:100D5000FE0EDBCFE6FF6FDB156E050EE15E155074
:100D6000FE0BE84215D0F70EDBCFE6FFF80EDBCF27
:100D7000E6FFFC0EDBCFE6FFFD0EDBCFE6FFFE0E4F
:100D8000DBCFE6FF58DB156E050EE15E1550FF0F59
:100D9000146EFB0EDBCFE7FF1450E75EFB0EE7CFD0
:100DA000DBFFFC0EDB5041E1FD0EDBCF08F0FE0E59
:100DB000DBCF09F0DE5208C0DEFF09C0DDFFDD52E7
:100DC000010EDBCFF6FFDB2A020EDBCFF7FF01E3DC
:100DD000DB2A0800F550DF6EDF505BE0F50EDBCF5D
:100DE000E6FFF60EDBCFE6FFF70EDBCFE6FFF80EF1
:100DF000DBCFE6FFFA0EDBCFE6FFFB0EDBCFE6FF35
:100E0000DFCFE6FF70D9146E070EE15E1450E76E77
:100E1000FB0EE7CFDBFF010EDBCFF6FFDB2A020E76
:100E2000DBCFF7FFD6E3DB2AD4D7FD0EDBCFE9FF1C
:100E3000DB2AFE0EDBCFEAFF01E3DB2AEFCFDFFF89
:100E4000DF5027E0F50EDBCFE6FFF60EDBCFE6FF47
:100E5000F70EDBCFE6FFF80EDBCFE6FFFA0EDBCFB7
:100E6000E6FFFB0EDBCFE6FFDFCFE6FF3CD9146EDB
:100E7000070EE15E1450E76EFB0EE7CFDBFFFD0EC1
:100E8000DBCFE9FFDB2AFE0EDBCFEAFFD7E3DB2A6D
:100E9000D5D7FB0EDB50146E030EE15C02E2E16A73
:100EA000E552E16E1450E552E7CFD9FF1200D9CFD9
:100EB000E6FFE1CFD9FF050EE126F50EDB50040A6F
:100EC00025E0060A4DE1F30EDBCFE6FFF40EDBCFA3
:100ED000E6FFF80EDBCFE6FFF90EDBCFE6FFFA0EFA
:100EE000DBCFE6FFFB0EDBCFE6FFFC0EDBCFE6FF42
:100EF000FD0EDBCFE6FFFE0EDBCFE6FF1ADB156E45
:100F0000090EE15E1550FE0BE84221D0F30EDBCF57
:100F1000E6FFF40EDBCFE6FFF80EDBCFE6FFF90EBF
:100F2000DBCFE6FFFA0EDBCFE6FFFB0EDBCFE6FF03
:100F3000FC0EDBCFE6FFFD0EDBCFE6FFFE0EDBCFC8
:100F4000E6FFF7DA156E090EE15E1550FF0F146E1D
:100F5000F70EDBCFE7FF1450E75EF70EE7CFDBFFBE
:100F6000FC0EDB5060E1FD0EDBCF08F0FE0EDBCFA8
:100F700009F0DE5208C0DEFF09C0DDFFDD52FA0EC7
:100F8000DBCF08F0FB0EDBCF09F0030E08C0DBFF60
:100F9000040E09C0DBFF030EDBCF14F0040EDBCF21
:100FA00015F0F80EDBCF16F0F90EDBCF17F014506A
:100FB000165C1550175801E288D0030EDBCF14F0F1
:100FC000040EDBCF15F0010EDB501424F66E020E7A
:100FD000DB501520F76E0800F550DF6EDF5075E02E
:100FE000F10EDBCFE6FFF20EDBCFE6FFF30EDBCF39
:100FF000E6FFF40EDBCFE6FFF60EDBCFE6FFF70EE3
:10100000DBCFE6FFDFCFE6FF6ED8146E070EE15EA2
:101010001450E76EF70EE7CFDBFF030EDB2A040E5A
:10102000BAE3DB2AB8D7FA0EDBCF08F0FB0EDBCF32
:1010300009F0030E08C0DBFF040E09C0DBFF030E3E
:10104000DBCF14F0040EDBCF15F0F80EDBCF16F07B
:10105000F90EDBCF17F01450165C1550175835E316
:10106000030EDBCF14F0040EDBCF15F0FD0EDB50CA
:101070001424E96EFE0EDB501520EA6EEFCFDFFF81
:10108000DF5023E0F10EDBCFE6FFF20EDBCFE6FF11
:10109000F30EDBCFE6FFF40EDBCFE6FFF60EDBCF81
:1010A000E6FFF70EDBCFE6FFDFCFE6FF1CD8146EBE
:1010B000070EE15E1450E76EF70EE7CFDBFF030E7D
:1010C000DB2A040EBCE3DB2ABAD7F70EDB50146E22
:1010D000050EE15C02E2E16AE552E16E1450E55270
:1010E000E7CFD9FF1200D9CFE6FFE1CFD9FF0D0E30
:1010F000E126FD0EDB50146E156AD890155004E6FB
:10110000840E145C000E155801E387D1FC0EDB50F1
:10111000146E156AD890155004E6840E145C000E07
:10112000155801E37AD1200EF36EFE0EDBCFF4FFEB
:10113000F350F45C01E271D1FE0EDB507F0801E256
:101140006CD1FA0EDBCFF6FFFB0EDBCFF7FF08000A
:10115000020EF5CFDBFF010EE76EFA0EDBCFF6FFD6
:10116000FB0EDBCFF7FFE750F626000EF722080054
:10117000030EF5CFDBFFFE0EDB50E00F146E156A99
:10118000D89014361536050E1426000E1522040EBE
:1011900014C0DBFF050E15C0DBFF040EDBCF16F01D
:1011A000050EDBCF17F0FA0EDB501624146EFB0E83
:1011B000DB501720156E14C0DEFFDD6EDFCFF6FFAB
:1011C000DF2A010EDBCFF7FF01E3DB2A0800060E62
:1011D000F5CFDBFFDECFF6FFDDCFF7FF0800070E10
:1011E000F5CFDBFF060EDBCF16F0070EDBCF17F0D7
:1011F000FA0EDB501624146EFB0EDB501720156E12
:1012000014C0DEFFDD6EDFCFF6FFDF2A010EDBCF7D
:10121000F7FF01E3DB2A0800080EF5CFDBFF0F0123
:101220002B0E196FDEEC0DF0FD0EDBCF19FF38EC45
:101230000EF0080EDBCFE6FFFD0EDB50E552E72493
:10124000FF0F0F01196F38EC0EF0020EDB04146E65
:10125000FC0EDBCFE7FF1450E75EFC0EE7CFDBFFB1
:101260000F012A0E196FDEEC0DF0FC0EDBCF19FF1B
:1012700038EC0EF0020EDBCFE6FFFC0EDB50E55241
:10128000E724FF0F0F01196F38EC0EF00F012C0E41
:10129000196FDEEC0DF0090EDB6A080EDB50F36E01
:1012A000090EDBCFF4FFF350F45C47E2DFCFF6FF2B
:1012B000DF2A010EDBCFF7FF01E3DB2A08000B0E6C
:1012C000F5CFDBFFDFCFF6FFDF2A010EDBCFF7FF25
:1012D00001E3DB2A08000C0EF5CFDBFF0A0EDB6A08
:1012E000020EDB50F36E0A0EDBCFF4FFF350F45C1A
:1012F00021E2D9500B0FE96EDACFEAFFEF50010B74
:1013000002E0F90E01D0F80EDBCF19FF38EC0EF039
:101310000B0EDBCF14F00C0EDBCF15F0D89015328E
:1013200014320B0E14C0DBFF0C0E15C0DBFF0A0ECF
:10133000DB2AD6D7090EDB2AB0D70F01196BDEECFA
:101340000DF0FD0EDBCFE7FF090EDB50E726FD0EAB
:10135000E7CFDBFF030EDB505EE00F012B0E196FB2
:10136000DEEC0DF0FD0EDBCF19FF38EC0EF0030EB6
:10137000DBCFE6FFFD0EDB50E552E724FF0F0F0148
:10138000196F38EC0EF00F012A0E196FDEEC0DF01C
:10139000FC0EDBCF19FF38EC0EF0020EDBCFE6FFC0
:1013A000FC0EDB50E552E724FF0F0F01196F38ECFC
:1013B0000EF00F012C0E196FDEEC0DF0F80EDBCFE6
:1013C00019FF090EDB6A030EDB50F36E090EDBCF4B
:1013D000F4FFF350F45C13E20A0EDB6A020EDB50FA
:1013E000F36E0A0EDBCFF4FFF350F45C05E238EC49
:1013F0000EF00A0EDB2AF2D7090EDB2AE4D70F0122
:10140000196BDCDBFD0EDBCFE7FF090EDB50E726B7
:10141000FD0EE7CFDBFF5EEC0EF0FD0EDB50146E31
:101420000D0EE15C02E2E16AE552E16E1450E55214
:10143000E7CFD9FF1200D9CFE6FFE1CFD9FF040EE5
:10144000E126030EDB6AFC0EDB5039E1FD0EDBCF3B
:1014500008F0FE0EDBCF09F0DE5208C0DEFF09C047
:10146000DDFFDD52010EDBCFF6FFDB2A020EDBCF04
:10147000F7FF01E3DB2A0800F550DF6EDF504BE099
:10148000FA0EDBCFE6FFFB0EDBCFE6FFDFCFE6FF9A
:10149000A0D9E552E552E552146E030EDBCFE7FF0B
:1014A0001450E726030EE7CFDBFF010EDBCFF6FF7C
:1014B000DB2A020EDBCFF7FFDEE3DB2ADCD7FD0EF3
:1014C000DBCFE9FFDB2AFE0EDBCFEAFF01E3DB2AFD
:1014D000EFCFDFFFDF501FE0FA0EDBCFE6FFFB0EA2
:1014E000DBCFE6FFDFCFE6FF74D9E552E552E552E8
:1014F000146E030EDBCFE7FF1450E726030EE7CF91
:10150000DBFFFD0EDBCFE9FFDB2AFE0EDBCFEAFFC0
:10151000DFE3DB2ADDD7030EDB50146E040EE15C43
:1015200002E2E16AE552E16E1450E552E7CFD9FFDD
:101530001200D9CFE6FFE1CFD9FF060EE126030E58
:10154000DB6AFC0EDB5058E1FD0EDBCF08F0FE0E2F
:10155000DBCF09F0DE5208C0DEFF09C0DDFFDD523F
:10156000FA0EDBCF08F0FB0EDBCF09F0040E08C04B
:10157000DBFF050E09C0DBFF040EDBCF14F0050E08
:10158000DBCF15F0F80EDBCF16F0F90EDBCF17F03E
:101590001450165C1550175801E278D0040EDBCFBA
:1015A00014F0050EDBCF15F0010EDB501424F66E9F
:1015B000020EDB501520F76E0800F550DF6EDF508D
:1015C00065E0F60EDBCFE6FFF70EDBCFE6FFDFCF01
:1015D000E6FFFFD8E552E552E552146E030EDBCF6D
:1015E000E7FF1450E726030EE7CFDBFF040EDB2AEC
:1015F000050EC2E3DB2AC0D7FA0EDBCF08F0FB0EE4
:10160000DBCF09F0040E08C0DBFF050E09C0DBFFCD
:10161000040EDBCF14F0050EDBCF15F0F80EDBCF98
:1016200016F0F90EDBCF17F01450165C1550175852
:101630002DE3040EDBCF14F0050EDBCF15F0FD0E0D
:10164000DB501424E96EFE0EDB501520EA6EEFCF5E
:10165000DFFFDF501BE0F60EDBCFE6FFF70EDBCF40
:10166000E6FFDFCFE6FFB5D8E552E552E552146E4E
:10167000030EDBCFE7FF1450E726030EE7CFDBFFB7
:10168000040EDB2A050EC4E3DB2AC2D7030EDB50AF
:10169000146E060EE15C02E2E16AE552E16E14505E
:1016A000E552E7CFD9FF1200D9CFE6FFE1CFD9FF4E
:1016B000040EE126030EDB6AFC0EDB5039E1FD0E61
:1016C000DBCF08F0FE0EDBCF09F0DE5208C0DEFFF4
:1016D00009C0DDFFDD52010EDBCFF6FFDB2A020E73
:1016E000DBCFF7FF01E3DB2A0800F550DF6EDF50A8
:1016F0004BE0FA0EDBCFE6FFFB0EDBCFE6FFDFCFE2
:10170000E6FF67D8E552E552E552146E030EDBCFD3
:10171000E7FF1450E726030EE7CFDBFF010EDBCF18
:10172000F6FFDB2A020EDBCFF7FFDEE3DB2ADCD796
:10173000FD0EDBCFE9FFDB2AFE0EDBCFEAFF01E384
:10174000DB2AEFCFDFFFDF501FE0FA0EDBCFE6FF33
:10175000FB0EDBCFE6FFDFCFE6FF3BD8E552E552DD
:10176000E552146E030EDBCFE7FF1450E726030E9D
:10177000E7CFDBFFFD0EDBCFE9FFDB2AFE0EDBCF81
:10178000EAFFDFE3DB2ADDD7F80EDBCFE9FFF90E56
:10179000DBCFEAFF030EDBCFEFFFFA0EDBCFF6FF66
:1017A000FB0EDBCFF7FF0800F550E66EF60EDBCF41
:1017B000E9FFF70EDBCFEAFFE552E750EF6E040ECC
:1017C000E15C02E2E16AE552E16EE552E7CFD9FF62
:1017D0001200D9CFE6FFE1CFD9FF060EE126FE0EBB
:1017E000DB50E00F146E156AD89014361536050ECE
:1017F0001426000E1522020E14C0DBFF030E15C0C6
:10180000DBFF020EDBCF16F0030EDBCF17F0FC0E72
:10181000DB501624146EFD0EDB501720156E14C01D
:10182000DEFFDD6EDFCFF6FFDF2A010EDBCFF7FF35
:1018300001E3DB2A0800040EF5CFDBFFDECFF6FF65
:10184000DDCFF7FF0800050EF5CFDBFF040EDBCF81
:1018500016F0050EDBCF17F0FC0EDB501624146ECD
:10186000FD0EDB501720156E14C0DEFFDD6E010E7D
:10187000E76EFC0EDBCFF6FFFD0EDBCFF7FFE75088
:10188000F626000EF7220800F5CF14F0DECFF6FFA3
:10189000DDCFF7FF0800F5501424146E060EE15C4E
:1018A00002E2E16AE552E16E1450E552E7CFD9FF5A
:1018B0001200D9CFE6FFE1CFD9FF090EE126FE0ED7
:1018C000DBCF14F0FC0EDB50D880145401E2C5D0FD
:1018D000FD0EDBCF15F0FB0EDB50D880155401E276
:1018E000BCD00F012B0E196F69D9FE0EDBCF19FF8B
:1018F000BFD9FC0EDBCF19FFBBD90F012A0E196F20
:101900005DD9FD0EDBCF19FFB3D9FB0EDBCF19FF7D
:10191000AFD90F012C0E196F51D9F90EDBCF14F08E
:10192000FA0EDBCF15F0040ED89015321432E8040D
:10193000FBE1FF0E1416000E1516040E14C0DBFF9B
:101940000F0EE76EF90EDBCF14F0FA0EE750141607
:10195000156A040ED89014361536E804FBE1F90E2A
:10196000FA0EDBCF17F017C016F0176A0F0E161617
:10197000000E171614501610E76E050EE7CFDBFFAA
:10198000FF0EE76EF90EDBCF14F0FA0EE7501416D7
:10199000156A060E14C0DBFFFB0EDBCFE6FFFD0E63
:1019A000DB50E552E75C010F166E176AFC0EDBCFC9
:1019B000E6FFFE0EDB50E552E75C010F146E156A80
:1019C000086E15C009F016C00DF017C00EF097ECA8
:1019D0003EF0020E06C0DBFF030E07C0DBFF020E67
:1019E000DBCF14F0030EDBCF15F0010E0F0B05E07B
:1019F000D89015321432E806FBE1010E1426000ED1
:101A00001522070E14C0DBFF080E15C0DBFFDE6ACF
:101A1000DD6ADECF14F0DDCF15F0070EDBCF16F058
:101A2000080EDBCF17F01650145C1750155811E252
:101A3000040EDBCF19FF1CD9050EDBCF19FF18D917
:101A4000060EDBCF19FF14D9DF2A010EE2E3DB2AF1
:101A5000E0D70F01196BB2D831D9090EE15C02E26F
:101A6000E16AE552E16EE552E7CFD9FF1200D9CF26
:101A7000E6FFE1CFD9FF040EE126010EE76EFD0E71
:101A8000DBCFF6FFFE0EDBCFF7FFE750F626000EAA
:101A9000F7220800F550DF6E020EE76EFD0EDBCF79
:101AA000F6FFFE0EDBCFF7FFE750F626000EF7221B
:101AB0000800010EF5CFDBFF040EE76EFD0EDBCF55
:101AC000F6FFFE0EDBCFF7FFE750F626000EF722FB
:101AD0000800F5CF16F016C017F0166A030EE76E71
:101AE000FD0EDBCFF6FFFE0EDBCFF7FFE750F6264D
:101AF000000EF7220800F5501624146E000E172071
:101B0000156E020E14C0DBFF030E15C0DBFF0F01C4
:101B10002B0E196F53D8FC0EDBCF19FFA9D8FC0E82
:101B2000DB50DF24FF0F0F01196FA2D80F012A0E1F
:101B3000196F44D8FB0EDBCF19FF9AD8010EDBCF0B
:101B4000E6FFFB0EDB50E552E724FF0F0F01196F94
:101B50008FD80F012C0E196F31D8020EDBCFE6FFA4
:101B6000030EDBCFE6FF050EE76EFD0EDBCF14F0B4
:101B7000FE0EDBCF15F0E7501426000E152214C020
:101B8000E6FF15C0E6FF41D8E552E552E552E552C1
:101B90000F01196B13D892D8040EE15C02E2E16ADE
:101BA000E552E16EE552E7CFD9FF12008B829492A5
:101BB0008B909490949A9488949612008B928B9A1E
:101BC0008B86D70E8B160F0119BF8B8A8B868B16CF
:101BD00019BD8B8A8B868B1619BB8B8A8B868B16CD
:101BE00019B98B8A8B868B1619B78B8A8B868B16C5
:101BF00019B58B8A8B868B1619B38B8A8B868B16BD
:101C000019B18B8A8B868B161200D9CFE6FFE1CFF4
:101C1000D9FF020EE126DE6ADD6ADECF14F0DDCFE9
:101C200015F0FB0EDBCF16F0FC0EDBCF17F01650D5
:101C3000145C1750155812E2FD0EDBCFF6FFDB2ABD
:101C4000FE0EDBCFF7FF01E3DB2A0800F5CF19FF1B
:101C50000FD8DF2A010EE1E3DB2ADFD7020EE15CB9
:101C600002E2E16AE552E16EE552E7CFD9FF1200E8
:101C70008B8A8B86D70E8B160F0119BF8B8A8B86AA
:101C80008B1619BD8B8A8B868B1619BB8B8A8B861C
:101C90008B1619B98B8A8B868B1619B78B8A8B8614
:101CA0008B1619B58B8A8B868B1619B38B8A8B860C
:101CB0008B1619B18B8A8B868B1612008B821200C1
:101CC000D9CFE6FFE1CFD9FFFD0EDBCFEFF0FE0E5F
:101CD000DBCFF0F0E552E7CFD9FF1200D9CFE6FF16
:101CE000E1CFD9FFFE0EDBCFE6FF05D0F0C0FAFF53
:101CF0000001EF51F96EFADFE552E552E7CFD9FF67
:101D00001200D9CFE6FFE1CFD9FF010EE66EFD0E3E
:101D1000DBCFE6FFFE0EDBCFE6FF3FD8E552E55214
:101D2000E552E552E7CFD9FF1200DEC0E6FFDCC086
:101D3000E6FFDDC0E6FF31D8E552E552E55212007C
:101D4000D9CFE6FFE1CFD9FF020EE126DCC0E9FFE3
:101D5000DDC0EAFF030EE926000EEA22EECFDEFF29
:101D6000EDCFDDFFD9CFE9FFDACFEAFFEE50ED107E
:101D70000AE0010EE66EDECFE6FFDDCFE6FF0DD80E
:101D8000E552E552E552020EE15C02E2E16AE552FB
:101D9000E16EE552E7CFD9FF1200D9CFE6FFE1CFE0
:101DA000D9FF040EE126FD0EDBCFDCF0FE0EDBCF0B
:101DB000DDF0FC0EDBCFDEF0E66AFD0EDBCFE9FFE7
:101DC000FE0EDBCFEAFFEE52EECFE6FFEFCFE6FFEF
:101DD000BEEC16F0E552E552E552E668110EE66EED
:101DE000820EE66E110EE66E010EE66E48EC01F014
:101DF000146E050EE15E1450010EF36E020EF3CF69
:101E0000DBFFDB50050D0001DC51F324E96EDD51F1
:101E1000F420EA6EEF50050808E0020EDBCFE6FF83
:101E200051D8E552020EDB2AECD7020EDB04100D6E
:101E3000F350120FE76E030EE7CFDBFFE668720E7A
:101E4000E66E820EE66E030EDBCFE6FF010EE66E57
:101E500048EC01F0146E050EE15E1450FD0EDBCF70
:101E6000E9FFFE0EDBCFEAFF030EE926000EEA22B1
:101E7000EE50ED1004E15A0EDE6E7A0E03D0550ED0
:101E8000DE6E7A0EDD6EDECFE6FFDDCFE6FF4E0EB4
:101E9000E66E7A0EE66E92EC17F0E552E552E552E8
:101EA000E552BC0EE66E210EE66E0ADFE552E55203
:101EB000040EE15C02E2E16AE552E16EE552E7CF31
:101EC000D9FF1200D9CFE6FFE1CFD9FF100EE126EE
:101ED000FE0EDB500001DE5D0EE0050EDB6A060E35
:101EE000DB68DF68010EDB68020EDB68030EDB686F
:101EF000040EDB6818D0050EDB684B0EF36E060E81
:101F0000F3CFDBFF020EDF6EDE526F0EDD6E4B0E87
:101F1000F36E020EF3CFDBFF6F0EF36E030EF3CF03
:101F2000DBFF040EDB6AFE0EDB50050DDC51F324F3
:101F3000E96EDD51F420EA6EEF50040A0BE0060A68
:101F400031E1D9500C0FE96EDACFEAFF4C0EEE6E9C
:101F50007A0E30D0FE0EDB50050DDC51F324E96E15
:101F6000DD51F420EA6E030EE926000EEA220E0E81
:101F7000EECFDBFF0F0EEDCFDBFF0E0EDBCF14F04D
:101F80000F0EDBCF15F0E66A04D015C0FAFF14502F
:101F9000F96EFBDFE5520C0EF3CFDBFF0D0EF4CF35
:101FA000DBFF09D0D9500C0FE96EDACFEAFF5A0EE9
:101FB000EE6E7A0EED6EFE0EDB04100DF350120F76
:101FC000E76E090EE7CFDBFF030EE66E090EDBCFEF
:101FD000E6FF820EE66E010EE66ED9CFE6FFDACF9F
:101FE000E6FFCFEC01F0146E060EE15E1450030E16
:101FF000146E090EDBCFE7FF1450E726090EE7CF7A
:10200000DBFFDB500B0FFF0FE76E070EE7CFDBFFA9
:10201000060EDBCFE6FF070EDBCFE6FF030EE66E14
:10202000090EDBCFE6FF010EE66E48EC01F0146E00
:10203000050EE15E1450060EDBCFE6FF050EDBCF8A
:10204000E6FF0E0EE66E5B0EE66EE66A070EDBCF6F
:10205000E6FF040EE66EE66AFE0EDB50050D00019B
:10206000DC51F324E96EDD51F420EA6EEE52EECF3E
:10207000E6FFEFCFE6FF90EC06F0146E0A0EE15E8D
:102080001450E76E080EE7CFDBFF0C0EDBCFF6FF38
:102090000D0EDBCFF7FF0800F55057E00E0EE66E91
:1020A0005B0EE66EE66A0C0EDBCFE6FF0D0EDBCFB5
:1020B000E6FF1BEC0AF0146E050EE15E1450E76EAD
:1020C0000B0EE7CFDBFFDB04146E156A7E0ED880A3
:1020D0001456000E15560A0E14C0DBFF060EDBCF99
:1020E000E6FF070EDBCFE6FF0A0EDB04E66E090E05
:1020F000DBCFE6FF080EDBCFE6FF48EC01F0146E05
:10210000050EE15E1450060EDBCFE6FF050EDBCFB9
:10211000E6FF0E0EE66E5B0EE66EE66A070EDBCF9E
:10212000E6FF0A0EDBCFE6FFE66A0C0EDBCFE6FF2A
:102130000D0EDBCFE6FF90EC06F0146E0A0EE15EAA
:102140001450E76E080EE7CFDBFF060EDBCFE6FF8D
:10215000070EDBCFE6FF820EE66E090EDBCFE6FF51
:10216000080EDBCFE6FF48EC01F0146E050EE15ED1
:102170001450070EDB28E76E090EE7CFDBFF020ED7
:10218000E66E090EDBCFE6FF820EE66E010EE66E0E
:10219000D950030FE66E000EDA20E66ECFEC01F0A8
:1021A000146E060EE15E1450100EE15C02E2E16A6C
:1021B000E552E16EE552E7CFD9FF1200D9CFE6FF35
:1021C000E1CFD9FF080EE126FE0EDB50050A01E142
:1021D00091D0040A0DE00C0A06E0040A01E0C2D026
:1021E0000001DE0502D00001DE29E66EC5D880D0F0
:1021F0000001DE51050DDC51F324E96EDD51F420C0
:10220000EA6EEF50020A5AE0060A2BE0070A01E0E4
:10221000A9D0DE51050DDC51F324E96EDD51F42027
:10222000EA6E030EE926000EEA22020EEECFDBFF75
:10223000030EEDCFDBFFD950020FE96EDACFEAFFD4
:10224000EE50ED1001E18ED0020EDBCF14F0030E44
:10225000DBCF15F004D015C0FAFF1450F96EFBDF88
:1022600081D0DE51050DDC51F324E96EDD51F420FF
:10227000EA6E030EE926000EEA22040EEECFDBFF23
:10228000050EEDCFDBFFD950040FE96EDACFEAFF80
:10229000EE50ED1067E0040EDBCF14F0050EDBCF3F
:1022A00015F0010EE66E04D015C0FAFF1450F96E59
:1022B000FBDFE552DEC0E6FF05DE1AD0DE51050D7C
:1022C000DC51F324E96EDD51F420EA6E030EE926B9
:1022D000000EEA22060EEECFDBFF070EEDCFDBFF8E
:1022E000060EDBCFE6FF070EDBCFE6FF0ADDE55289
:1022F000E55238D0DCC0E9FFDDC0EAFFEF50010A4B
:1023000025E0010A2FE1DCC0E9FFDDC0EAFF030E92
:10231000E926000EEA22020EEECFDBFF030EEDCF20
:10232000DBFFD950020FE96EDACFEAFFEE50ED1075
:1023300019E0020EDBCF14F0030EDBCF15F004D052
:1023400015C0FAFF1450F96EFBDF0CD0DCC0E9FFBA
:10235000DDC0EAFF030EE926000EEA22EE50ED1082
:1023600001E0EEDC080EE15C02E2E16AE552E16EBA
:10237000E552E7CFD9FF1200D9CFE6FFE1CFD9FF71
:10238000E652010EF36EFE0EDBCFF4FFF350F45C69
:102390001FE3FE0EDB50050D0001DC51F324E96E56
:1023A000DD51F420EA6EEF50050812E0FE0EDB501E
:1023B000DE5D0EE0DEC0DFFFFE0EDBCFDEF0DFCF46
:1023C000E6FF80DDE552FE0EDBCFE6FF7BDDE5526A
:1023D000E552E552E7CFD9FF1200D9CFE6FFE1CFB2
:1023E000D9FF100EE126FB0EDBCFDFF0FC0EDBCFBA
:1023F000E0F0F90EDBCFE1F0FA0EDBCFE2F0F70E02
:10240000DBCFE3F0F80EDBCFE4F0F50EDBCFE5F049
:10241000F60EDBCFE6F0EF0EDBCFE9F0ED0EDBCF13
:10242000EAF0EE0EDBCFEBF0E66AFD0EDBCFE6FF67
:10243000FE0EDBCFE6FFBEEC16F0E552E552E552AC
:10244000B0EC16F07C0EF36E0C0EF3CFDBFF100E2B
:10245000F66E5B0EF76E08000D0EF5CFDBFF0E0E6D
:10246000E66E5B0EE66E0C0EDBCFE6FFE66AF10E63
:10247000DBCFE6FFF20EDBCFE6FF51EC1AF0146E75
:10248000060EE15E1450E76E0E0EE7CFDBFF3F0E47
:10249000146E0D0EDBCFE6FF0E0EDB50E552E702A9
:1024A000F350FE0BE842145CE76E0F0EE7CFDBFF44
:1024B000E668E66A0E0EE66E5B0EE66E0C0EDBCF8D
:1024C000E6FF020EE66E0D0EDBCFE6FF0F0EDBCF52
:1024D000E6FF420EE66EE66AF10EDBCFE6FFF20E95
:1024E000DBCFE6FF82EC19F0146E0C0EE15E1450A7
:1024F0000A0EDF6E700EDF24FF0FE76E010EE7CFCE
:10250000DBFF4E0EF36E020EF3CFDBFF560EF36EC3
:10251000030EF3CFDBFF240EE66E020EDBCFE6FFE9
:10252000010EDBCFE6FF020EDBCFE6FFDFCFE6FFDB
:1025300048EC01F0146E050EE15E1450240EE66EB8
:10254000030EDBCFE6FF010EDBCFE6FF030EDBCF92
:10255000E6FFDFCFE6FF48EC01F0146E050EE15E0A
:102560001450240EE66E030EDBCFE6FFDFCFE6FF4E
:10257000020EDBCFE6FFDFCFE6FF48EC01F0146E82
:10258000050EE15E1450240EE66E030EDBCFE6FF6F
:10259000010EDBCFE6FF020EDBCFE6FF010EDBCF45
:1025A000E6FF48EC01F0146E050EE15E1450F00EEB
:1025B000DB505AE0D950040FE66E000EDA20E66ECA
:1025C000FB0EDBCFE6FFFC0EDBCFE6FFB7EC3DF00A
:1025D000E552E552E552E552E668E66A030EE66E1C
:1025E000560EE66EE66A620EE66E020EDF24E66EB8
:1025F000010EE66ED950040FE66E000EDA20E66E8C
:1026000090EC06F0146E0A0EE15E1450D950040FDF
:10261000E66E000EDA20E66EF90EDBCFE6FFFA0E6C
:10262000DBCFE6FFB7EC3DF0E552E552E552E5526F
:10263000E668E66A030EE66E560EE66E040EE66E79
:10264000620EE66E010EDB50FE0FE66E010EE66EC8
:10265000D950040FE66E000EDA20E66E90EC06F01C
:10266000146E0A0EE15E1450F30EDBCFE7F0F40EA9
:10267000DBCFE8F0E7D8410EE66E7A0EE66E480E44
:10268000E66E7A0EE66E92EC17F0E552E552E552F0
:10269000E552B60EE66E260EE66E60EC0EF0E552E2
:1026A000E552100EE15C02E2E16AE552E16EE552AC
:1026B000E7CFD9FF1200D9CFE6FFE1CFD9FF020E55
:1026C000E126FE0EDB50050A01E1A2D0040A01E179
:1026D00091D00C0A4BE0020A49E0060A03E0020A24
:1026E00001E0A6D0FE0EDB50090807E10001E7512A
:1026F000E325146EE851E42106D00001E751E525F9
:10270000146EE851E62114C0DEFFDD6EDECF14F05A
:10271000DDCF15F0E2511518E8AE02D0153404D023
:102720001450E15D1550E25904E2E1C0DEFFE2C061
:10273000DDFFDECF14F0DDCF15F0E751141802E114
:10274000E851151875E0DECFE7F0DDCFE8F07AD874
:10275000DECFE6FFDDCFE6FF010EE66E05D0EBC073
:10276000FAFF0001EA51F96EFADF5FD0FE0EDB508E
:102770000D0807E10001E351E75D146EE851E455EF
:1027800006D00001E551E75D146EE851E65514C02E
:10279000DEFFDD6EDECF14F0DDCF15F01550E01951
:1027A000E8AE02D0E03504D0DF51145CE05115589A
:1027B00004E2DFC0DEFFE0C0DDFFDECF14F0DDCFDE
:1027C00015F0E751141802E1E851151831E0DECF99
:1027D000E7F0DDCFE8F036D8DECFE6FFDDCFE6FF6D
:1027E000010EE66E05D0EBC0FAFF0001EA51F96E6A
:1027F000FADF1BD0E7C0E6FFE8C0E6FF020EE66E98
:1028000005D0EBC0FAFF0001EA51F96EFADF0DD0F6
:10281000E7C0E6FFE8C0E6FF030EE66E05D0EBC0BA
:10282000FAFF0001EA51F96EFADFE552E552E5528E
:10283000020EE15C02E2E16AE552E16EE552E7CFA9
:10284000D9FF1200D9CFE6FFE1CFD9FF250EE1264F
:102850000001E051E819E8AE02D0E83504D0E751B4
:10286000DF5DE851E05903E30D0EDB6A4DD0E8511E
:10287000E219E8AE02D0E23504D0E151E75DE25161
:10288000E85906E36D0EF36E0D0EF3CFDBFF3CD07F
:10289000DFC01AF0E0C01BF01A06000E1B5A1A50D7
:1028A000E15D176E1B50E259186E196A18BE19685F
:1028B000DF51E75D146EE851E055156E166A15BEDE
:1028C00016686E0E0C6E0D6A0E6A14C007F015C005
:1028D00008F016C009F0B5EC3EF004C014F005C0D5
:1028E00015F006C016F004C007F005C008F006C0D9
:1028F00009F017C00CF018C00DF019C00EF03DEC37
:102900003EF00D0E07C0DBFF0B0EF36E090EF3CF8A
:10291000DBFF0D0EDBCFE6FF090EDB50E552E724AF
:10292000E76E0A0EE7CFDBFF4F0EF36E0B0EF3CF11
:10293000DBFF550EF36E0C0EF3CFDBFF0D0EDB50FD
:1029400038E0070EF36E080EF3CFDBFF5D0EDF6E8F
:10295000DE52DD6E580EF36E020EF3CFDBFF340E47
:10296000F36E030EF3CFDBFF340EF36E040EF3CFE2
:10297000DBFF340EF36E050EF3CFDBFF580EF36E64
:10298000060EF3CFDBFF080EDBCFE6FF0B0EDBCF2F
:10299000E6FF0A0EDBCFE6FF090EDBCFE6FFD9CF5D
:1029A000E6FFDACFE6FFCFEC01F0146E060EE15E33
:1029B00014500D0EDB506D0845E0070EF36E080E47
:1029C000F3CFDBFFDF68010EDB68DB0EF36E020E78
:1029D000F3CFDBFFB60EF36E030EF3CFDBFFB60EC5
:1029E000F36E040EF3CFDBFFB60EF36E050EF3CFDE
:1029F000DBFFDB0EF36E060EF3CFDBFF0A0EDB28E8
:102A0000E76E0E0EE7CFDBFF090EDB506E0FFF0FF8
:102A1000E76E0A0EE7CFDBFF080EDBCFE6FF0B0EFB
:102A2000DBCFE6FF0A0EDBCFE6FF0E0EDBCFE6FFC5
:102A3000D9CFE6FFDACFE6FFCFEC01F0146E060E39
:102A4000E15E14500001E95156E0D9500F0FE66ED7
:102A5000000EDA20E66E3A0EE66E7A0EE66E2EEC88
:102A60003DF0E552E552E552E552230EF3CFDBFF90
:102A7000240EF4CFDBFF230EDBCFE6FF240EDBCFEB
:102A8000E6FFE7C0E6FFE8C0E6FFB7EC3DF0E55241
:102A9000E552E552E552230EF3CFDBFF240EF4CFCF
:102AA000DBFF230EDBCFE6FF240EDBCFE6FF3A0E83
:102AB000E66E7A0EE66E2EEC3DF0E552E552E552FA
:102AC000E552E668E66A0E0EE66E5B0EE66E020EF4
:102AD000E66E6B0EE66E420EE66E010EE66ED950A5
:102AE0000F0FE66E000EDA20E66E90EC06F0146E24
:102AF0000A0EE15E1450250EE15C02E2E16AE55245
:102B0000E16EE552E7CFD9FF1200D9CFE6FFE1CF62
:102B1000D9FF050EE126F40EDBCFECF0F50EDBCF8E
:102B2000EDF0F80EDBCFEEF0E66AFD0EDBCFE6FF50
:102B3000FE0EDBCFE6FF22D9E552E552E55210D971
:102B4000F90EDB50040A24E0060A1BE0020A27E122
:102B5000060EF36E030EF3CFDBFFDB50166E176A23
:102B6000820ED8801656000E1756030EDB50186ED4
:102B7000196AE850165C146E19501758156E1450E7
:102B80000DD0410EF36E030EF3CFDBFF7C0E06D0AB
:102B90007C0EF36E030EF3CFDBFF760EDF6E020EBC
:102BA000E76EF60EDBCFF6FFF70EDBCFF7FFE75051
:102BB000F626000EF7220800010EF5CFDBFFF60E19
:102BC000DBCFE6FFF70EDBCFE6FFDFCFE6FFFA0E47
:102BD000DBCFE6FFFB0EDBCFE6FFFC0EDBCFE6FF35
:102BE00051EC1AF0146E060EE15E1450E76E020E00
:102BF000E7CFDBFF010EDB50FE0BE842176A3F0F09
:102C0000166E000E1722010EDBCFE6FF020EDB046C
:102C1000E552E702F350FE0BE842186E196AE850DD
:102C2000165C146E19501758156E040E14C0DBFF95
:102C3000E668E66AF60EDBCFE6FFF70EDBCFE6FFCF
:102C4000DFCFE6FFF90EDBCFE6FF010EDBCFE6FFBD
:102C5000040EDBCFE6FF030EDBCFE6FFFA0EDBCF81
:102C6000E6FFFB0EDBCFE6FFFC0EDBCFE6FF4ADB29
:102C7000146E0C0EE15E14500001EE51030A0AE0DE
:102C8000010A10E1410EE66E7A0EE66E370EE66E30
:102C90007A0E0FD0300EE66E7A0EE66E330EE66ECA
:102CA0007A0E07D05A0EE66E7A0EE66E550EE66E76
:102CB0007A0EE66E37D9E552E552E552E552E20E5C
:102CC000E66E2C0EE66E60EC0EF0E552E552050E57
:102CD000E15C02E2E16AE552E16EE552E7CFD9FF3D
:102CE0001200D9CFE6FFE1CFD9FF020EE1260001A5
:102CF000EE51030A07E0010A0AE1020EDF6EDE521E
:102D0000010E08D0030EDF6EDE52040E03D0010E5A
:102D1000DF6EDE52DD6EFE0EDB50050A0CE0040AAB
:102D200015E1DFCFE6FF05D0EDC0FAFF0001EC5161
:102D3000F96EFADF0AD0010EDBCFE6FF05D0EDC059
:102D4000FAFF0001EC51F96EFADFE552020EE15C88
:102D500002E2E16AE552E16EE552E7CFD9FF1200E7
:102D6000E668720EE66E820EE66E110EE66E010EDB
:102D7000E66E48EC01F0050EE15E1200D9CFE6FFE9
:102D8000E1CFD9FF0A0EE126270EDF6EDE52020EDA
:102D9000DD6EF36EDB6E030EE66E010EE66E820EE6
:102DA000E66E010EE66ED9CFE6FFDACFE6FFCFEC96
:102DB00001F0146E060EE15E1450040EF36E090E5F
:102DC000F3CFDBFFD950040FE66E000EDA20E66E7B
:102DD000D950030FE66E000EDA20E66E0E0EE66E98
:102DE0005B0EE66EFC0EDBCFE6FFFD0EDBCFE6FFF3
:102DF000FE0EDBCFE6FF54EC0BF0146E090EE15E25
:102E00001450030EDB50FE0BE842146E156A400EA0
:102E1000D8801456000E1556050E14C0DBFF030EA5
:102E2000DBCFE6FF050EDB50E552E724FF0FE76E30
:102E3000060EE7CFDBFF090EDB50E76E070EE7CF8C
:102E4000DBFF040EDBCFE6FF070EDB50E552E72485
:102E5000FF0FE76E080EE7CFDBFF020EE66E080EEF
:102E6000DBCFE6FF050EDB04E66E070EDBCFE6FFE9
:102E7000010EE66E48EC01F0146E050EE15E145092
:102E8000020EE66E080EDBCFE6FF820EE66E070E40
:102E9000DBCFE6FF060EDB28E66E48EC01F0146E91
:102EA000050EE15E1450020EE66EE6680E0EE66E4A
:102EB0005B0EE66EE66A080EDBCFE6FF050EDBCFA3
:102EC000E6FFFC0EDBCFE6FFFD0EDBCFE6FFFE0EDE
:102ED000DBCFE6FF90EC06F0146E0A0EE15E1450B4
:102EE000020EDF6EDE52010EDD6E020EE66E080E81
:102EF000DB28E66E820EE66E010EE66ED9CFE6FFA7
:102F0000DACFE6FFCFEC01F0146E060EE15E14504E
:102F10000A0EE15C02E2E16AE552E16EE552E7CFBA
:102F2000D9FF1200D9CFE6FFE1CFD9FF030EE1268A
:102F3000010EF36E020EF3CFDBFFFD0EDBCFF6FFCB
:102F4000FE0EDBCFF7FF0800F5502EE0D950010F41
:102F5000E66E000EDA20E66ED9CFE6FFDACFE6FFA6
:102F6000210EE66EFD0EDBCFE6FFFE0EDBCFE6FFA9
:102F70006CD8146E070EE15E1450930EE66E820E4E
:102F8000E66EDF04E66E730EE66E020EDBCFE6FF42
:102F900048EC01F0146E050EE15E1450010EDB28C2
:102FA000E76E020EE7CFDBFFFB0EDBCFF6FFFC0E7A
:102FB000DBCFF7FF0800F5502EE0D950010FE66E89
:102FC000000EDA20E66ED9CFE6FFDACFE6FF630E19
:102FD000E66EFB0EDBCFE6FFFC0EDBCFE6FF35D85F
:102FE000146E070EE15E1450930EE66E820EE66ECE
:102FF000DF04E66E730EE66E020EDBCFE6FF48ECF2
:1030000001F0146E050EE15E1450010EDB28E76E30
:10301000020EE7CFDBFF930EE66E820EE66EE66EE3
:10302000730EE66E020EDBCFE6FF48EC01F0146E85
:10303000050EE15E1450030EE15C02E2E16AE55226
:10304000E16EE552E7CFD9FF1200D9CFE6FFE1CF1D
:10305000D9FF0F0EE126D950060FE66E000EDA20DA
:10306000E66ED950050FE66E000EDA20E66E0E0E03
:10307000E66E5B0EE66EE66AFD0EDBCFE6FFFE0E49
:10308000DBCFE6FF54EC0BF0146E090EE15E14503A
:10309000FC0EDBCFE6FF050EDB50FE0BE842E552EF
:1030A000E75CE76E070EE7CFDBFF050EDBCFE6FF41
:1030B000070EDB50E552E724FF0FE76E080EE7CF5F
:1030C000DBFF770EF36E090EF3CFDBFF060EDBCFCF
:1030D000E6FF090EDB50E552E724FF0FE76E0A0E0C
:1030E000E7CFDBFF2F0E146E050EDB50D880145493
:1030F0000CE2050EDBCFE6FF2F0EE552D880E75439
:10310000E76E0B0EE7CFDBFF02D00B0EDB6ADB4076
:103110007F0BE76E0C0EE7CFDBFF070EDBCFE6FF82
:103120000C0EDB50E552E75CE76E0D0EE7CFDBFFE0
:10313000080EDBCFE6FF0B0EDBCFE6FF0C0EDB50FD
:10314000E552E75CE552E724E76E0E0EE7CFDBFFC2
:10315000040EF36EDB6E930EDF6EDE52DD6E6F0ECD
:10316000F36E020EF3CFDBFF4B0EF36E030EF3CFC5
:10317000DBFF040EDBCFE6FF730EE66E0E0EDBCF39
:10318000E6FF0D0EDBCFE6FFD9CFE6FFDACFE6FF95
:10319000CFEC01F0146E060EE15E14504B0EE66E9D
:1031A000E6680E0EE66E5B0EE66EE66A0A0EDBCF92
:1031B000E6FF070EDBCFE6FFE66AFD0EDBCFE6FF9C
:1031C000FE0EDBCFE6FF90EC06F0146E0A0EE15E19
:1031D0001450070EDB50F36E0D0EDBCFF4FFF350EF
:1031E000F45C14E24B0EE66E0A0EDBCFE6FF070E30
:1031F000DB04E66E090EDBCFE6FF0D0EDBCFE6FF4C
:1032000048EC01F0146E050EE15E14500E0EDBCF9B
:1032100014F0080EDB50D880145414E24B0EE66E06
:103220000A0EDBCFE6FF0E0EDBCFE6FF090EDBCF8B
:10323000E6FF080EDB28E66E48EC01F0146E050E82
:10324000E15E1450930EE66E750EE66E0D0EDBCF4A
:10325000E6FF1CEC01F0E552E552E552930EE66EF6
:103260000A0EDBCFE6FF0D0EDBCFE6FF1CEC01F014
:10327000E552E552E552930EE66E750EE66E0E0EC1
:10328000DBCFE6FF1CEC01F0E552E552E552930E70
:10329000E66E0A0EDBCFE6FF0E0EDBCFE6FF1CEC80
:1032A00001F0E552E552E552930EE66E820EE66EAF
:1032B0000E0EDBCFE6FF820EE66E0D0EDBCFE6FFD5
:1032C00048EC01F0146E050EE15E1450FA0EDBCFEF
:1032D000E9FFFB0EDBCFEAFF0D0EDBCFEFFFF80EB1
:1032E000DBCFE9FFF90EDBCFEAFF0E0EDBCFEFFFFE
:1032F0000F0EE15C02E2E16AE552E16EE552E7CFD2
:10330000D9FF1200D9CFE6FFE1CFD9FF080EE126A1
:10331000DE6ADD6ADECFE6FFDDCFE6FFFC0EDBCF47
:10332000E6FFFD0EDBCFE6FFFE0EDBCFE6FF8CEC0B
:103330003DF0146E050EE15E1450E76E070EE7CF08
:10334000DBFFDB5005E1080EE15C01E3A5D0A2D074
:10335000070EDB500D0826E1DECF14F0DDCF15F0AF
:10336000010E1426000E152214C0E6FF15C0E6FF5C
:10337000FC0EDBCFE6FFFD0EDBCFE6FFFE0EDBCF64
:10338000E6FF5EEC3DF0166E050EE15E1650F3CFE3
:10339000DEFFF4CFDDFF100E146EFA0EDBCFE7FF79
:1033A000145073D0D950040FE66E000EDA20E66E8A
:1033B000D950020FE66E000EDA20E66EF50EDBCF76
:1033C000E6FFF60EDBCFE6FFF70EDBCFE6FFDECF44
:1033D000E6FFDDCFE6FFFC0EDBCFE6FFFD0EDBCF29
:1033E000E6FFFE0EDBCFE6FFF1D8146E0C0EE15EB9
:1033F0001450F30EDBCFE6FFF40EDBCFE6FFF50E45
:10340000DBCFE6FFF60EDBCFE6FFF80EDBCFE6FF05
:10341000FA0EDBCFE6FFFB0EDBCFE6FF020EDBCFC3
:10342000E6FF030EDBCFE6FFDECFE6FFDDCFE6FFF4
:10343000FC0EDBCFE6FFFD0EDBCFE6FFFE0EDBCFA3
:10344000E6FF57EC07F0146E0E0EE15E1450040E0A
:10345000DBCFE6FF050EDBCFE6FFFC0EDBCFE6FFA2
:10346000FD0EDBCFE6FFFE0EDBCFE6FF5EEC3DF0B0
:10347000146E050EE15E1450F3CFDEFFF4CFDDFFD6
:10348000FA0EDBCFE7FFF90EDB50E726FA0EE7CFA7
:10349000DBFF40D7E16AE552E16EE552E7CFD9FFA5
:1034A0001200D9CFE6FFE1CFD9FF080EE126060EC4
:1034B000DB6ADE6ADD6ADECFE6FFDDCFE6FFFC0E0B
:1034C000DBCFE6FFFD0EDBCFE6FFFE0EDBCFE6FF38
:1034D0008CEC3DF0146E050EE15E1450E76E070EA5
:1034E000E7CFDBFFDB5007E1060EDB50146E080E62
:1034F000E15C66E263D0070EDB500D081CE1DECF15
:1035000014F0DDCF15F0010E1426000E152214C0A4
:10351000E6FF15C0E6FFFC0EDBCFE6FFFD0EDBCFBE
:10352000E6FFFE0EDBCFE6FF5EEC3DF0166E050E0D
:10353000E15E16503CD0D950040FE66E000EDA2042
:10354000E66ED950020FE66E000EDA20E66EF90E36
:10355000DBCFE6FFFA0EDBCFE6FFFB0EDBCFE6FFAD
:10356000DECFE6FFDDCFE6FFFC0EDBCFE6FFFD0E94
:10357000DBCFE6FFFE0EDBCFE6FF28D8146E0C0E85
:10358000E15E1450040EDBCFE6FF050EDBCFE6FF55
:10359000FC0EDBCFE6FFFD0EDBCFE6FFFE0EDBCF42
:1035A000E6FF5EEC3DF0146E050EE15E1450F3CFC5
:1035B000DEFFF4CFDDFF060EDB2A7DD7E16AE552A0
:1035C000E16E1450E552E7CFD9FF1200D9CFE6FFE4
:1035D000E1CFD9FF060EE126FA0EDBCFDEFFDBCF0F
:1035E000DDFF040EDB6AD9CFE9FFDACFEAFF020E76
:1035F000EECFDBFF030EEDCFDBFFFC0EDB5011E166
:10360000FD0EDBCF14F0FE0EDBCF15F0DE501424E0
:10361000F66EDD501520F76E0800050EF5CFDBFFC6
:103620000FD0FD0EDBCF14F0FE0EDBCF15F0DE5019
:103630001424E96EDD501520EA6E050EEFCFDBFF96
:10364000DB500D0A2EE00D0A1FE0F70EDBCFE6FF80
:10365000F80EDBCFE6FF050EDBCFE6FFE9EC0BF063
:10366000E552E552E552146E040EDBCFE7FF14502D
:10367000E726040EE7CFDBFF050EDB5020081EE136
:10368000DF2A010E48E310D1F50EDBCFE9FFF60E7D
:10369000DBCFEAFF020EDBCFEEFF030EDBCFEDFF49
:1036A00075D0F50EDBCFE9FFF60EDBCFEAFF020E99
:1036B000DBCFEEFF030EDBCFEDFF84D0040EDBCFBC
:1036C00014F0F90EDB50D880145416E2F50EDBCF5F
:1036D000E9FFF60EDBCFEAFF020EDBCFEEFF030EB3
:1036E000DBCFEDFF010EE76E020EDBCF14F0030E11
:1036F000DBCF15F0E7506BD0DFCF14F0DF2A010EDF
:10370000DBCF15F001E3DB2A020E14C0DBFF030E52
:1037100015C0DBFF72D7FC0EDB5011E1FD0EDBCFD5
:1037200014F0FE0EDBCF15F0DE501424F66EDD50E3
:103730001520F76E0800050EF5CFDBFF0FD0FD0E4C
:10374000DBCF14F0FE0EDBCF15F0DE501424E96E53
:10375000DD501520EA6E050EEFCFDBFFDB50200AAF
:103760003AE02D0A1EE00D0A43E1DECF14F0DDCF72
:1037700015F01406000E155AF50EDBCFE9FFF60E14
:10378000DBCFEAFF14C0EEFF15C0EDFFF30EDBCF79
:10379000E9FFF40EDBCFEAFFDECFEEFFDDCFEDFF7A
:1037A00085D0DECF14F0DDCF15F01406000E155ACB
:1037B000F50EDBCFE9FFF60EDBCFEAFF14C0EEFF1C
:1037C00015C0EDFFDECF14F0DDCF15F0010E14268D
:1037D000000E15225AD0DECF14F0DDCF15F01406FE
:1037E000000E155A020E14C0DBFF030E15C0DBFFDE
:1037F000F70EDBCFE6FFF80EDBCFE6FF050EDBCFE3
:10380000E6FFE9EC0BF0E552E552E552146E040ECA
:10381000DBCFE7FF1450E726040EE7CFDBFFDBCF5B
:1038200014F0F90EDB50D88014543AE2F50EDBCFD9
:10383000E9FFF60EDBCFEAFF020EDBCFEEFF030E51
:10384000DBCFEDFF010EE76E020EDBCF16F0030EAD
:10385000DBCF17F0E7501626000E172216C0E6FF42
:1038600017C0E6FFFC0EDBCFE6FFFD0EDBCFE6FF69
:10387000FE0EDBCFE6FF5EEC3DF0186E050EE15E5E
:103880001850F3CF14F0F4CF15F0F30EDBCFE9FFAF
:10389000F40EDBCFEAFF14C0EEFF15C0EDFF06D03B
:1038A000DF2A010E01E237D7DB2A35D7060EE15CAD
:1038B00002E2E16AE552E16EE552E7CFD9FF12007C
:1038C000020D12EA000000FFFFFFFFFFFFFFFFFFF6
:1038D000FFFFFFFFFF0000000000000000FFFFFFF0
:1038E000FFFFFF0000000000000000FFFFFF0000DE
:1038F000FFFFFFFF0000FFFFFF00000000FFFFFFD2
:10390000FF0000FFFF0000FFFFFF0000000000FFBE
:10391000FF00FFFF00000000FFFFFF00FF000000AE
:1039200000FFFFFF00FFFF0000FFFFFF00FF0000A0
:10393000000000FFFF00FF00FFFFFFFFFF00FF0090
:10394000FF00000000FFFFFF00FFFF0000FFFFFF80
:1039500000FF0000000000FFFF00FFFF000000006C
:10396000FFFFFF00FF00000000FFFFFFFF0000FF60
:10397000FF0000FFFFFF0000000000FFFFFF00004E
:10398000FFFFFFFF0000FFFFFF000000000000003E
:1039900000FFFFFFFFFFFF0000000000000000FF2E
:1039A000FFFFFFFFFFFFFFFFFFFFFFFFFF00000123
:1039B00040400018675665888656EDDCCB776888EE
:1039C0008777777777777777777777777777777777
:1039D0007887777888877776877877877777776734
:1039E000857846936835835735734633532422329E
:1039F000332BCADECCDAAB79A6BC8AB7BC8CC8DD67
:103A00009FFCDDBBB9DDCEDCFEBCB9BA8A86876718
:103A100064543543675665767544DDCCCB7767775C
:103A2000777777776776776776776776777776775A
:103A300067777778877776666667667666666656AE
:103A4000746835825824724713512412412412425B
:103A5000552AB8CC9CD9BB7995AB6BB6BB8CC8BB8F
:103A60008BB8AA7886997997A9787465353243140A
:103A700021321432775664766545EDDDDC77778741
:103A80007767767667667667767767666666666670
:103A9000677777677777766666666666766667665F
:103AA00075684583582482471361240241342452A7
:103AB000BB7CC8994994AA5894994994A96AA78843
:103AC00057647646546545545434313213112113EA
:103AD00011311322674664877666EEDDDC887888CC
:103AE00077777676676677677777676676676676DD
:103AF00067777778777776666766767776666766CC
:103B00007568458358258248246135134144144221
:103B1000A95CB79958849848848848847647645447
:103B20002431432432422321321210321321321322
:103B300022311322563554777656EDDDDC777777D0
:103B4000777776766766776777776766776776776A
:103B5000677777787777777667666666666666569C
:103B600075674573582572572562452451441441A1
:103B7000652A96986764652542542431431431328E
:103B8000032031031132121132121132121121129B
:103B900011311322664554666555DCCDDC777777A5
:103BA0007777767667667667767667666666667630
:103BB000677777677777777666666676676676671C
:103BC00076785784683673562552552542442431F9
:103BD00042154343232132132132131121021031A4
:103BE000032121021132121132221132221121122B
:103BF00011211322775554655544DCCEDC88778734
:103C000077777777677677677676676666666676BC
:103C100067777667777777776667667667667667BA
:103C200065775674663552442431331321321311AB
:103C30003213223113113213113113113212113296
:103C4000132121121121121021121121121110021F
:103C500010100210674443555544DCCEDD88877749
:103C600087787787777777777677677676677677E7
:103C7000777777787777777776576675665554458F
:103C800043442441321321320310311311311311F3
:103C900021121121121121121021021021021121D1
:103CA00001102112112111102112112111101002E5
:103CB00010210321563664554444CBBEED887888E4
:103CC0008887777777777767767777767667667797
:103CD0007777777877877777655544433322322330
:103CE000213112112222212112112112112112112E
:103CF0002102102102102112112112112112112171
:103D0000121121121121121121121121121121124D
:103D100011211221563674665555CCBEED77788741
:103D20008887777777776666667767767777667658
:103D30006877877877655333432322322211211223
:103D4000112112112112112112112112112112110E
:103D500021121121121121121121121121121121EE
:103D600012112112112112112112112102102112FE
:103D700010210221562564665656CCCEED77788800
:103D800088877777777777676677666676676687F7
:103D90007777555433333322221211211211211215
:103DA000112112113113113113113112112112117C
:103DB00021121121111111111111111121121121B1
:103DC00012112112112112112112111101112111AF
:103DD00011111221562553655655CBBEED877888B3
:103DE00088787787777777677777777677665555A7
:103DF0005444322221222322221211211211211293
:103E0000112112112122122112112112112111014D
:103E10001101111111111111111111112112111191
:103E2000111111111121121121121111111121124F
:103E300011211222673453554545BBBEED77777784
:103E4000877888888877776777777776655433328D
:103E50002322322322322222211211211211211275
:103E60001121121111211111111111111111111121
:103E70001111111111111111111111111111111132
:103E800011111111111111112112111112112112FF
:103E900011211222562442554544BBAFEE87777755
:103EA00088888788888887787776654432232232A5
:103EB0002433322322322321211211211211110124
:103EC00010110110100000000000000000000000B0
:103ED0001001001001001001101111111111111128
:103EE00011111111111111111112111111112112B0
:103EF00011211222562442555544BAAFFE887777D5
:103F000098887787788887776654432232232232CD
:103F1000233232232222121011111111111010011B
:103F200000110110210210210210210210100100C5
:103F300020020011011011011011011010010110D7
:103F40001111111101101100101111101111211175
:103F500011111222673453666544AAAFEE88777751
:103F60008888889889886554333223223223223204
:103F70002321210210210100100110110110110252
:103F80001122132253164164275375364264264288
:103F900043242232132121121011010010010010BC
:103FA00001001001001001001001011001001111A9
:103FB00011111211673563664555A99FFF88777601
:103FC000878988988766434322322322422322210D
:103FD000121111111011011021021031031053158B
:103FE00031532543753864964A75A75B74A74A74A4
:103FF0009639538527527425314202001001101161
:104000001212112001001001000001000100110135
:1040100000100211684463553444A99FFF887676E6
:104020009888887664443233233334333222112122
:1040300011111101111111112112103104206426E6
:1040400043865866875864854A65C86C86B86B8510
:10405000B85B75A74A6496496485375343121010BC
:10406000000000000000000100000000000000004F
:1040700000100111784452442443999FFF888776A9
:104080009887664443233334334333332211111169
:104090001111111211211211311421531753965776
:1040A00054754754754643642964C87C97C87C9707
:1040B000C86C85B75B75A75A75A75A759747534360
:1040C00012100000000000000000000000000000CE
:1040D00000100211684452453443988FFF98877747
:1040E000777555333333444544433222121111114D
:1040F0001211211321422422532643854A76A765B3
:1041000032311311432422522743B87C97D97D972B
:10411000D86D86C86C86B75B75B75B75B85B8597DD
:1041200046422100000000000000000000001001D5
:1041300000210321684563554544989FFF9988777E
:1041400065654443343354444433322211121121FF
:104150001321422532632643854965965B87A76410
:1041600021421433432432522632A76C97D98D98BA
:10417000D97D97D87C86C76B75C75C86B85B75B8E8
:104180005A75753320100210100110100200210220
:1041900010321432784563554554A99FFF9997769C
:1041A000655544444544544433322222210321427C
:1041B0001532642743853864966A76A76B979764AF
:1041C00021432443321421532522965C87D98D98AC
:1041D000D97D87C86C86C86C86C86C86C86B75B775
:1041E0005B85A858635313203214213214214214E2
:1041F00021421532895663554544A99FFF9986652A
:1042000065554554455554432221222242153264B6
:104210003753854964A74B75B87B87A75A87865261
:1042200010110111321321432632965B76D97D9706
:10423000D97C87C86C86C86C86C86C85C86C86B704
:104240005A74B85A85853520531531631631632663
:1042500031631742795663554544989FFF988665A8
:1042600076665555554543432221132263274386DD
:104270004965A75A75B85C96B98B87965A76875365
:1042800032443454543321431532964B76C87C87DC
:10429000C87B86B86C86C86C85B74A63B76C86C81D
:1042A0006B85B85B85A74853631641742742742712
:1042B00042742852785453452443A98FEE8776558B
:1042C000766766555444322210421532743964A719
:1042D0006A76B86B87C97C97C87C87A6596586546F
:1042E00033323333322322421642975C87C87C87AD
:1042F000B86B76C76C86B86B86A64943B87C87B81E
:104300006B85B85B86B85B75853842741851852813
:1043100052853963685563563553887CBB7666553C
:10432000877766555333211210532743955A76B831
:104330007B87B87C97C98C98C97C87A758547544EB
:1043400022211111322321421643A75C86C86C86B4
:10435000B86C86D87C87C97B97A64842B66B76C86E
:104360006B86B85B86B86B75A649638529639639F9
:1043700063963974785785896775886A98766877FF
:10438000877776544222110211643855A76B87C88B
:104390008C98C98C98C98C98C97C97B75964854505
:1043A00032321110210310532864B86B86B86C8622
:1043B000C87B76D87C87C87B87954832A54B65B883
:1043C0006B86B85B86C86C86A75A64963963963943
:1043D00063963974684784896886886987766978BE
:1043E000877776444111100321744965A76B87C90B
:1043F0008C98C98C98C98C97C97C97B86A7597575F
:1044000054532321310421753A76B97B86C86C97C1
:10441000C86A64C76C86C87B86843933954A65B799
:104420006B86B86C86C86C86B75A74963A73A7398F
:1044300063964A748A57847847858879878778771E
:10444000877776433110100422854A66B77B87C987
:104450008C98C98C98C98C98C97C97C86B86B869A8
:1044600075653643643754A76B98C98C97C97C9798
:10447000A75953B75C86C97B87843933A55A55B68B
:104480005B76B86C86C97C86B85A74A74A74A74A0A
:1044900074A74B85AC69B69A69969978879889888C
:1044A000987776332000210532955B76B87B88C9F2
:1044B0008C98C98C98C98C98C98C97C87C87C97B03
:1044C00087975976A87B98C99C99C99D99D98C875B
:1044D000B85A64B76B76C87C87944923B55A55B6E9
:1044E0005B75B86C86C97B86B85B75A74B74B84A98
:1044F00074B85B869B59B6AB69A6886775988A883D
:10450000998776332100211633965C77B88C98C949
:104510008C98C98C98C98C98C98C98C97C97D98C6F
:1045200098A77B98C98CA9DAAC9AC99D9AD99C881E
:10453000C96B75B76B76B87B77944823B55A54B678
:104540005B76B86C86C97B86B85B74A74B74B84A37
:1045500074B75B868A49A59A69A69967769989771F
:10456000998776332110322643965C77B88C98C9A8
:104570008C98C98C98C98C98C99C98C87C87C87C31
:1045800087976B88B88B98C9AD9AD9ADAAD9AC88F2
:10459000B96A75B65C76C87B76944923B55A55B628
:1045A0005C76B86C86C87C86C86B75A74B74B84BB4
:1045B00074B85B869B59B689599699898898998968
:1045C000999776433210432755A76B87C89C89C9B2
:1045D0008C98C98C98C98C98D98C87C87A75B87A08
:1045E00087755755644966B88C99D99DAADAADAAE2
:1045F000C76954A75B86C97C87833933A56A66B7C8
:104600006C86C86C86C87C87B86A75A75A85A85A14
:1046100075B85B868A4894784996AA8998A99A9A27
:10462000A99877432210432865A77B87C89C88C830
:104630008C88C98C98C98C98C87C87B87A7597572C
:1046400054422422522633966B88C99C99C99DAA4C
:10465000C87A64A75A86C98C98955944A66A76B7D1
:104660007C87C87C87C97C97B86A75A75A75A75A92
:1046700075A75B859B58A58949A6AA8A98A99A9986
:10468000988766432321533866B87C88C88C88B8DD
:104690008B88B88C88C98C98C87C87A76965854643
:1046A00033533644532532744A76B88B88C98DAA61
:1046B000D98B76B87B87C98C98955834A77B87C8E7
:1046C0007C87C87C97C98C98B86A75A75A75A75A11
:1046D00075A75A759A58A48949A6BB8BA8A9899829
:1046E000766654433422533855A76B77B88B88B815
:1046F0008B88B88B88C98C98C87B8796596564333A
:1047000011321422321422633855B77B87B87B8765
:10471000C87A76B87B87C98C98955733B87C98C986
:104720008C97B97C97C98C97B86A75A75A75A75AA0
:1047300075A75A75AC6AB69B6AA6AA79966656554D
:10474000655544432321421643855A66A76B87B8B3
:104750007B87B87B87B88C88B88B8785496564333D
:1047600021422433422432532744A76C87B76A7608
:10477000A76A65B87B87B87B87965854B97C98C977
:104780008C98C97C98C98B97A75A75975A75A75A60
:1047900075A75B86BC7AB69B69A69A6886665665DD
:1047A000666554433221210422744965965A76A7DE
:1047B0006B87B87B87B87B88B88A778549756434FE
:1047C00032544655544533522743A76C87B87C87EB
:1047D000B76B76B87B86B86B86A75A75B86C97C9E5
:1047E0008C98C98C98C97B86975974A75A75A75A13
:1047F00075A85B86AC88958959A69A699788788848
:1048000088877766654432132163375485496596F6
:104810005A76A76A76A77B87B88A77865976543204
:1048200011211111321321422743B76C87B86C97BD
:10483000C87C86C86B76B76B86B86B86C96C97C91F
:104840007C98C98C97B86A75964965A75A75A75A16
:1048500075A75A75AB86737849A6AB7AA8988878FD
:1048600099899999988754342153274385385496C8
:104870005965965A66A77B77B88A779769875433C4
:1048800021211212210432532743A76C87C86C9749
:10489000D97C86C76C76C86C86C86C96C96C96C87D
:1048A0007C98C98B87A75964964975A75A75A759EB
:1048B00065A75A758978959B5894996BA9B9A98968
:1048C000987A88B99BA9987654543542754854858E
:1048D0005855955A65A66B66A879669779775444BA
:1048E00033321221321422532855A76C87D98C8772
:1048F000C88C87C87C86B86B86C97C97C98C98C9D8
:104900007C97C97B75964963964975964964964923
:1049100064863964AB8BC7CD7AB5995BA9BA9A998D
:10492000A98A87988A99BA9A988766536437448582
:104930004855855965A65A65A77A7697697765447B
:1049400033321211422422532865B87C98D98C97AF
:10495000D98C98C97C97C86C97C97C98DA8CA8CAFE
:104960008C97A7596496485485496485485485486E
:10497000538539647958A4AB5AB59A5996A97BA93D
:10498000BA9B98A88A88BA9CAAB989866546436466
:104990003743854865965965965A768659767545A2
:1049A00032321311432432643A87CA9C98C98C98D6
:1049B000D99D98D98C97D97D98DA8DA9DA8DA8C917
:1049C0008A86854743743754743743632632632697
:1049D00032733854AC7AC6AB59A4893995AA7BB8DE
:1049E000BA9BA9A98A88A88B99BA9B98987765548D
:1049F0003532643753754865965965854865754500
:104A000033421421432654987CA9DBACA9DA9DA932
:104A1000DA9DA9DA8DA8DA8C98D98D98DA8B9786E9
:104A20004532422321321321311311311311411424
:104A300011522633BC7CD8BC69A49A4BB6BB79957D
:104A4000AA8A98A98A98A88A98A98A87BA9A9887D8
:104A500067545435325326438548548648658657F3
:104A600054643643754A87CA9DBADBACA9DA9DA95E
:104A7000C99DA9C98DA8DA8C98DA9C98A867543189
:104A800001001001001001001001001001001002CF
:104A900010211422AB69B58949A5AB5AB5AA59A60C
:104AA000BB9BA8A98A98A98A88A87A87A88A98A966
:104AB0008A87876654532432532632743754865873
:104AC00066754865A87DA9ECBEBBEBAEBAEBADA997
:104AD000DA9DA9DA8DA9C98B87B98A7775554343C1
:104AE0003322100000000000000000000000000061
:104AF00000110221AB69A5895BC7CD79A48949A6BC
:104B0000BB8BA8AA8A98A88A88A88A889769779769
:104B100079879879767656545325325325336447EE
:104B200055755765A87C98DA9DA9DAADAADA9C88F4
:104B3000C87B77A76A76854643543311100111323A
:104B4000243321200010011100001100000010008A
:104B5000001002117849A68958958A49A4AB69A723
:104B6000996996986987A98A98A87977A77A879783
:104B7000787686687697697676575453243243253B
:104B800033644644854965A66B77A77965854733C5
:104B90007327326327435323214321000010010070
:104BA0001212222111000100100100100100100159
:104BB00000100211784895AB6CC7AB6AB69B69A52B
:104BC000784885775987A98A98A87987A7797697A9
:104BD0006A87977765754765854754854854754753
:104BE0004364353263352252252241141141141198
:104BF00051152253263353332121100000000000A9
:104C000002112211100000000001101101101111F9
:104C1000111112228A59A5BC7CD8AB59A59A6AB742
:104C2000997664665998877866987987A87976978F
:104C30006976876976987976754643532532532687
:104C400043543432522522422421310311210200DF
:104C50003003103103112112101101001100001155
:104C6000022122111111011111121121121121120F
:104C700011211322895894AC6DE8AB589489589649
:104C8000BB97757769997666558768768869868750
:104C900068768769769768658757646546435424C4
:104CA000324323212113213112102102102101103E
:104CB0002102001001001101111111111001001049
:104CC00001111111001001112112112112112112D3
:104CD000112113228A6794AB6BC79A4895997896ED
:104CE000776665665766655655766655775987982F
:104CF00069978758758658758658658657657546CD
:104D00004364354343243232132132121010010020
:104D10001101101001001111111111112112112195
:104D2000121111121121121121121121121121122D
:104D3000112113228957849A5AA5884996AB9786E0
:104D40006656655555555556666655546657759958
:104D50007CD9BB79858759758758657647548648CD
:104D60006585485464364353353243242142132128
:104D700022121121121121121121121121121121BD
:104D800012112112113223223224224224224223E0
:104D9000224224338A58959A69A6885AA8EED88860
:104DA00088766666666655566655555466545367EA
:104DB0003BC8AB68838838839859758758648648A0
:104DC0006475475475475475364253153253242041
:104DD00043232132132132132132132121021021C6
:104DE00002102102102102103213223224224334F5
:104DF00033433544895895664554443887EEE887EF
:104E000077666555566655556556556556544256EE
:104E10002BC7BC69A389279267388488588588582E
:104E20007476376375365275375364274275364248
:104E30006425315314314314314214314214214258
:104E400014213213213102102112112112113223A7
:104E500022322443894895664554433777FEF888C3
:104E6000777777776666555665564564444453456B
:104E700019A4BC59B37918A27947957958958957DF
:104E800084562551985763874A8687475276375309
:104E900085385375374264264254154143243143C3
:104EA00025325425324314312112111111101101F0
:104EB00010211322895896886888444666FFF9991C
:104EC000886887776665565665665443444442440D
:104ED00027849A5683682682675674563896897551
:104EE000632306749A855487687564287477489597
:104EF0008838839A59957738737727737627626550
:104F0000265264264264274264253132032021025E
:104F1000101112218A6896775877444656FFE9980F
:104F200077688788777656455456556534334345B8
:104F30003674895684784684564453342453452322
:104F4000425649A8776332321321542AA7AB78A579
:104F50009A49A5AA6995995AB69A5AA5AA5AA5A98D
:104F60005984974984974863863863752642431469
:104F7000313213219A6896775776444655EEE99870
:104F8000665776776776564453564565344464567B
:104F90004453342341453564453453342343120389
:104FA000427869A8110231211311321774DD8BC6C2
:104FB0009B4AB59A59A6BB7CD8BB69A49A4AA5AAB4
:104FC0005AA5994984984A95BA5A95A85974863829
:104FD000637536428A6895775776444555EEE99968
:104FE000787887898998897787897786565576571B
:104FF000535334234244333223134244345423233F
:1050000043675564231110221211432AA7CD7AB4A5
:105010008A38A48948959B7BC8BC79A47928938A4F
:1050200049948948939A4AB5BB6AA5AA4A94984A72
:1050300084974863895895775776544544EEEAA992
:105040006767877877866767867876764654655689
:105050005343342443454332343343443454453377
:1050600042343121120332221222543774CC7BC6CF
:10507000AC59B58A58957949A6BD7AB58A38A379CD
:1050800026827839A49A4893AC58A49A49A59A5A8A
:1050900095A95AA6895896886776545444EEDAAA98
:1050A0007768888876764545646755752333433538
:1050B0003231131232332232343332231332454326
:1050C000433422323312211101107759A7BC7CD707
:1050D000AC59B59B68A6785895BC7BC67927926871
:1050E00026727838949A59A5AC69B5AC6AB69A59C3
:1050F000A5BB7CD8895896886776545434EDDAAAD3
:1051000077778778767545446467557523223245ED
:10511000335235234223123123212112012134320B
:1051200032232232110120332342785896AB7BB7C9
:10513000AC6AB69A68969A68959A5AB67936836830
:105140003794794894AA6CD8AC7AB7BC8AB7995985
:10515000A6BB7BC89A6996886766545433DDDAAA81
:105160007776766766767867868977965545646739
:10517000657446335224135244323223123134328E
:1051800031231231221331AB98977859A6AB7BC8E3
:10519000BC7AB7784784AA7895895AB6AC68A5795D
:1051A0004784895895895995DD9CC9DDAAA7996BD3
:0451B000B8BB8AA757
:0C51B40009010B0200C500CC00D100D89E
:1051C00000E100EC00FB0008010B011201190120B5
:1051D000012B01300135013A0141014A0153015CC3
:1051E0000165016E0177018001890192019B01A097
:1051F00001A501AE01B701C001CB01DE01ED01F84F
:1052000001050212021F022A023702440249025219
:10521000025F026A027902860293029E02AB02B822
:1052200002C302CE02DB02EA02FD020803150322DA
:10523000032903300335033C0347034C0355035E46
:10524000036703700379038003890392039503982E
:1052500003A103A403B303BC03C503CE03D703DE3A
:1052600003E703EC03F50300040B0414041F0426F6
:10527000042D04320439044204030000000000003D
:105280000200005F00030300000003000474001F1D
:105290000074001F000526004900FF00490032008D
:1052A0000700000200050072002E005100200006D9
:1052B00030004E0049005900270050000103000350
:1052C0007C008200010103010182007C00030500D3
:1052D0000300050005100010007C00100010000203
:1052E0000000C00002100010000200004000036037
:1052F000001C000300047E00410041003E00040049
:105300000002007F000000044200610059004600D6
:105310000422004100490036000418001400120065
:105320007F00042C00470045003900043E00450082
:1053300045003A0004010071000D0003000436002E
:10534000490049003600042E00510051003E000281
:1053500000004400020000C4000400000800140023
:1053600022000414001400140014000400002200A1
:105370001400080005020001005900090006000998
:1053800000007C0082007901450179014D01A200F5
:105390009C0007400038001600110016003800403D
:1053A000000500007F00490049003E000600003E65
:1053B0000041004100410022000600007F00410042
:1053C000410041003E000600007F004900490049BD
:1053D0000049000500007F000900090001000600E7
:1053E000003E004100410049003A000600007F00F5
:1053F0000800080008007F000200007F0004600031
:10540000400040003F000600007F0008001400221A
:105410000041000500007F00400040004000077F81
:1054200000060038004000380006007F000600003B
:105430007F000600080030007F000600003E0041AB
:1054400000410041003E000500007F000900090006
:105450000F000600003E004100410061005E0006B2
:1054600000007F0009000900190066000500002601
:105470000049004900320005010001007F000100E1
:1054800001000600003F004000400040003F0007D0
:1054900003000C003000400030000C000300090342
:1054A000003C0040003E0001003E0040003C000384
:1054B00000054100360008003600410006000001EA
:1054C0000006007800060001000661005100490056
:1054D000450043004100030000FF010101030300F8
:1054E0001C006000020101FF01030600010006002C
:1054F000050001000100010001000102010002009D
:10550000046400540054007C00047F004400440004
:1055100038000438004400440028000438004400E7
:1055200044007F0004380054005400580003040075
:105530007E00050004B80044014401FC00047F0023
:10554000040004007800017D0001FD00047F0010CC
:105550000038004400017F00077C00040004007C48
:1055600000040004007800047C00040004007800BB
:1055700004380044004400380004FC0144004400A6
:10558000380004380044004400FC01037C0004009F
:105590000400044800540054002400027E0044002B
:1055A000043C00400040007C00050400380040003E
:1055B00038000400053C0040003C0040003C000472
:1055C00044003800380044000504003801C00038A9
:1055D00000040003640054004C00031000EF0101BC
:1055E00001020000FF00030101EF01100004180098
:1055F0000800100018000600007E00420042004231
:10560000007E000A010B0200C500CE00D500E000BC
:10561000EF00FA000F011E0123012C0135014001AA
:105620004D01520159015E01690174017F018A0136
:105630009501A001AB01B601C101CC01D701DE018A
:10564000E501F201FF010C021702280237024402B1
:105650004F025C02670272027F028C0295029E0278
:10566000AB02B602C502D202E102EE02FD020C0359
:105670001703240331033E03530360036D037803D0
:1056800081038C039503A403B103BC03C703D203B6
:10569000DB03E603F103FC030704120417041E04F2
:1056A00029042E043F044A04550460046B04740466
:1056B0007D04880493049E04AF04BA04C504CE0498
:1056C000D904E004EB04FA04040000000000000028
:1056D00000030000BE00BE00050700070000000731
:1056E000000700072000E8003800EE0038002E0018
:1056F00008000558009C00FF03E40068000A0C0045
:10570000120012008C0070000C00620090009000EB
:105710006000076C00FE009200BE006C00F000907C
:1057200000020700070004FC00FE0103030102045D
:1057300001020303FE01FC00050A0004001F00042F
:10574000000A00060000100010007C00100010008D
:1057500002C001C0000310001000100002C000C011
:1057600000058001600010000C000300057C00FEB5
:10577000008200FE007C000500008400FE00FE00A8
:10578000800005C400E200B2009E008C00054400C9
:1057900092009200FE006C0005300028002400FEFC
:1057A00000FE00054E008E008A00FA007200057CA3
:1057B00000FE008A00FA007000058200E2007A0014
:1057C0001E000600056C00FE009200FE006C000545
:1057D0001C00BE00A200FE007C00030000D800D820
:1057E00000030000D801D800060000300030004857
:1057F0000048008400060000280028002800280037
:1058000028000600008400480048003000300005F1
:105810000200A200B2001E000C00087800840032D2
:10582000014A014A017A014400380007C000F8002B
:105830003E0026003E00F800C00006FE00FE00927A
:10584000009200FE006C00057C00FE0082008200D9
:10585000440006FE00FE0082008200FE007C00057F
:10586000FE00FE0092009200920005FE00FE001273
:105870000012001200067C00FE008200A200E2007E
:10588000E40006FE00FE0010001000FE00FE000412
:105890008200FE00FE0082000480008200FE007E86
:1058A0000006FE00FE0038006C00C600820005FE07
:1058B00000FE0080008000800007FE000C00380021
:1058C00030000800FC00FE0006FE000C001800304E
:1058D000006000FE00077C00FE0082008200820063
:1058E000FE007C0006FE00FE00220022003E001C9E
:1058F00000077C00FE00820082018203FE027C021F
:1059000007FE00FE00120032007E00CC0080000581
:105910004C009E009200F20064000602000200FEAD
:1059200000FE0002000200067E00FE0080008000F3
:10593000FE007E000606003E00F800F8003E00066D
:10594000000A06003E00F800E0001E001E00E00015
:10595000F8003E00060006C600EE0038003800EEF3
:1059600000C6000606000E00F800F8000E00060053
:1059700005E200F2009A008E008600040000FF039A
:10598000FF0301020503000C001000600080010409
:1059900000000102FF03FF0307000008000C0006DF
:1059A0000006000C000800060002000200020002CF
:1059B00000020002050000000001000300020005D3
:1059C0004000E800A800F800F00005FF00FF008894
:1059D00000F8007000047000F8008800880005706E
:1059E00000F8008800FF00FF00057000F800A80024
:1059F000B800B000050800FE00FF0009000900051E
:105A00007000F8028802F803F80105FF00FF0008A3
:105A100000F800F00002FA00FA00030802FA03FAA4
:105A20000105FF00FF002000F800D80002FF00FF82
:105A30000008F800F8000800F800F0000800F8007E
:105A4000F00005F800F8000800F800F0000570000C
:105A5000F8008800F800700005F803F8038800F8E3
:105A6000007000057000F8008800F803F80304F8DF
:105A700000F8001000080004B000B800E80068005A
:105A80000508007E00FE0088008800057800F80008
:105A90008000F800F800053800F800C000F8003871
:105AA00000083800F800C00038003800C000F800D6
:105AB000380005D800F8002000F800D800053800AC
:105AC000F802C003F801380004C800E800B80098E4
:105AD000000510001000FE01EF03010203000000AA
:105AE00000FF03050102EF03FE0110001000076034
