:020000040000FA
:060000002FEF06F01200D4
:02002A000000D4
:04002C00D9CFE6FF43
:10003000E1CFD9FF020EE126400EE66EE66AACD8AB
:10004000E552E552B00EE66EE66AA6D8E552E552F4
:10005000100EE66EE66AA0D8E552E552E66AE66A58
:100060009BD8E552E552AE0EE66EE66A95D8E552AB
:10007000E552DE6ADD6ADECF10F0DDCF11F0600EF2
:10008000105C030E11580BE2E66A010EE66E84D88E
:10009000E552E552DF2A010E01E3DB2AECD7AF0E71
:1000A000E66EE66A79D8E552E552020EE15C02E2BC
:1000B000E16AE552E16EE552E7CFD9FF1200819C7B
:1000C000819E640EE66E3DEC06F0E552818E200EB8
:1000D000E66EE66A61D8E552E552900EE66EE66A93
:1000E0005BD8E552E552A40EE66EE66A55D8E552B5
:1000F000E5522F0EE66EE66A4FD8E552E552400E05
:10010000E66EE66A49D8E552E552B00EE66EE66A5A
:1001100043D8E552E552100EE66EE66A3DD8E55248
:10012000E552E66AE66A38D8E552E552C80EE66E50
:10013000E66A32D8E552E552A10EE66EE66A2CD8A0
:10014000E552E552AC0EE66EE66A26D8E552E55277
:10015000070EE66EE66A20D8E552E552AF0EE66E6F
:10016000E66A1AD8E552E55261DFA70EE66EE66A46
:1001700013D8E552E552640EE66EF2EC05F0E55256
:10018000A60EE66EE66A08D8E552E552640EE66E03
:10019000F2EC05F0E5521200D9CFE6FFE1CFD9FF2E
:1001A000E652819C8196FE0EDB50E8B0818AE8A081
:1001B000819A8186DF6ADFCF10F0080EE76E101893
:1001C000E8AE02D0E73402D0E750105C15E2819629
:1001D000FD0EDBAE02D0818A01D0819A8186DBCF11
:1001E000F3FFF39EF346F3CFDBFF140EE66E4BEC0A
:1001F00006F0E552DF2ADFD7818CE552E552E7CFE2
:10020000D9FF1200D9CFE6FFE1CFD9FFFE0EDB38D0
:100210000F0B070B1009E66EE66ABEDFE552E552EA
:10022000FE0EDB500F0BE66EE66AB6DFE552E552D6
:10023000E552E7CFD9FF1200D9CFE6FFE1CFD9FFD2
:10024000E652DF6AFE0EDBCF10F0070EE76E1018E5
:10025000E8AE02D0103403D0E750D88010540CE23E
:10026000080E106EFE0EDBCFE7FF1050E75EFE0EAD
:10027000E7CFDBFFDF2AE6D7FE0EDB040001D16FFC
:100280000F0EDF14B009E66EE66A86DFE552E5522E
:10029000E552E552E7CFD9FF1200D9CFE6FFE1CF13
:1002A000D9FFFD0EDB500F0BB009E66EE66A74DF76
:1002B000E552E552FE0EDB500F0BE66EE66A6CDF90
:1002C000E552E552FE0EDB380F0B070B1009E66E08
:1002D000E66A62DFE552E552E552E7CFD9FF120048
:1002E000D9CFE6FFE1CFD9FF090EE126080EDB6A80
:1002F000DBCF10F0E76E1018E8AE02D0E73402D082
:10030000E750105C14E2D9CF10F0DACF11F0080EEC
:10031000DBCF12F0136A12BE136810501224E96E7C
:1003200011501320EA6EEF6A080EDB2AE1D7070EA0
:10033000F36E080EF3CFDBFFFD0EDBCF10F0090EDE
:10034000E76E1018E8AE02D0103403D0E750D88022
:1003500010541EE2D9CF10F0DACF11F0080EDBCF27
:1003600012F0136A12BE136810501224E96E115075
:100370001320EA6EEF68080E106EFD0EDBCFE7FF6C
:100380001050E75EFD0EE7CFDBFF080EDB06D4D78B
:10039000FD0EDBCF10F0000EE76E1018E8AE02D0B5
:1003A000103403D0E750D880105426E2D9CF10F093
:1003B000DACF11F0080EDBCF12F0136A12BE136809
:1003C00010501224E96E11501320EA6EEF90EF42A4
:1003D000D9CF10F0DACF11F0080EDBCF12F0136A8C
:1003E00012BE136810501224E96E11501320EA6EE9
:1003F000EF8EFD0EDB06CCD7FD0EDB6ADBCF10F0F7
:10040000080EE76E1018E8AE02D0E73402D0E750CD
:10041000105C27E2FD0EDB50B009E66EE66ABCDE3A
:10042000E552E552FE0EDBCFE6FFECDEE552D9CF1A
:1004300010F0DACF11F0FD0EDBCF12F0136A12BE0E
:10044000136810501224E96E11501320EA6EEF5019
:10045000E66E010EE66EA0DEE552E552FD0EDB2AE9
:10046000CDD7090EE15C02E2E16AE552E16EE552A8
:10047000E7CFD9FF1200D9CFE6FFE1CFD9FF0C0EAD
:10048000E126010EF36E0A0EF3CFDBFF080EDB6AE6
:10049000DBCF10F0E76E1018E8AE02D0E73402D0E0
:1004A000E750105C14E2D9CF10F0DACF11F0080E4B
:1004B000DBCF12F0136A12BE136810501224E96EDB
:1004C00011501320EA6EEF6A080EDB2AE1D70B0EFB
:1004D000DB6A080EDB6ADBCF10F0400EE76E101807
:1004E000E8AE02D0E73402D0E750105C3BE2FD0EEC
:1004F000DB50F36E080EDBCFF4FFF350F45C26E321
:10050000080EDBCF10F0FC0EDB50D88010541EE339
:100510000A0EDB50F36E090EDB5004E0D890F33680
:10052000E806FCE1F350146ED9CF10F0DACF11F0E9
:100530000B0EDBCF12F0136A12BE13681050122498
:10054000E96E11501320EA6E1450EF12090EDB2AE7
:10055000DB50080804E1090EDB6A0B0EDB2A080EEB
:10056000DB2AB9D7080EDB6ADBCF10F0E76E101874
:10057000E8AE02D0E73402D0E750105C27E2080E64
:10058000DB50B009E66EE66A07DEE552E552FE0E84
:10059000DBCFE6FF37DEE552D9CF10F0DACF11F02E
:1005A000080EDBCF12F0136A12BE1368105012242B
:1005B000E96E11501320EA6EEF50E66E010EE66E02
:1005C000EBDDE552E552080EDB2ACED70C0EE15CDE
:1005D00002E2E16AE552E16EE552E7CFD9FF12008F
:1005E000D9CFE6FFE1CFD9FF020EE126DE6ADD6A50
:1005F000DECF10F0DDCF11F0D890115004E6050EDB
:10060000105C000E115828E2FE0EDB50E00F106E59
:10061000116A10BE1168050E1102F3CF11F010021D
:10062000F3CF10F0F45011262C0E1026090E1122D3
:10063000DE501024F66EDD501120F76E0800F550E4
:10064000E824E66E010EE66EA7DDE552E552DF2AEC
:10065000010E01E3DB2ACCD7E66A010EE66E9CDDD3
:10066000E552E552020EE15C02E2E16AE552E16E1A
:10067000E552E7CFD9FF1200D9CFE6FFE1CFD9FF8E
:10068000AE0EE66EE66A88DDE552E552FD0EDBCF82
:10069000F6FFFE0EDBCFF7FF0800F5500FE0FD0E72
:1006A000DBCFF6FFDB2AFE0EDBCFF7FF01E3DB2A11
:1006B0000800F550E66E94DFE552E8D7AF0EE66E1F
:1006C000E66A6ADDE552E552E552E7CFD9FF12004E
:1006D000D9CFE6FFE1CFD9FFAE0EE66EE66A5CDD6C
:1006E000E552E552FD0EDBCFE9FFFE0EDBCFEAFF60
:1006F000EF500EE0FD0EDBCFE9FFDB2AFE0EDBCF75
:10070000EAFF01E3DB2AEF50E66E6ADFE552EAD743
:10071000AF0EE66EE66A40DDE552E552E552E7CF00
:04072000D9FF1200EB
:0C072400720ED36ED3A4FED722D85FEC77
:1007300000F0E66AE66A4DEC01F0E552E552B50ECE
:10074000E66E0B0EE66E3CEC03F0E552E552050E4C
:10075000E66E140EE66E4DEC01F0E552E552AA0E7F
:10076000E66E0B0EE66E3CEC03F0E552E552FFD769
:100770001200928092829286929C929E9390939283
:10078000939493969398939A939C939E00D012007F
:10079000D9CFE6FFE1CFD9FF030EE126010EF36EBC
:1007A000F3CFDBFF020EDB6AFA0EDBCFE6FFFB0EB8
:1007B000DBCFE6FFFC0EDBCFE6FFFD0EDBCFE6FF77
:1007C000FE0EDBCFE6FF4CD8106E050EE15E10503A
:1007D000DF6ADFCF10F0FA0EDB04E76E1018E8AE28
:1007E00002D0E73402D0E750105C30E2DFCF10F0E7
:1007F000116A10BE1168FB0EDB501024E96EFC0E6E
:10080000DB501120EA6EEF5030081AE1D950010F89
:10081000E96EDACFEAFF010EEE1801E1ED500FE1CB
:10082000DFCF10F0116A10BE1168FB0EDB501024F0
:10083000E96EFC0EDB501120EA6E200EEF6E04D044
:10084000010EDB6A020EDB6ADF2AC3D7030EE15C0E
:1008500002E2E16AE552E16EE552E7CFD9FF12000C
:10086000D9CFE6FFE1CFD9FFE652FA0EDB50DF6EBB
:10087000DFCF10F0000EE76E1018E8AE02D0103493
:1008800003D0E750D88010543DE2FD0EDBCF12F0CC
:10089000FE0EDBCF13F00A0E0B6E0C6A12C006F0D0
:1008A00013C007F009EC06F002C012F003C013F009
:1008B000300E1226000E1322DF04106E116A10BED5
:1008C0001168FB0EDB501024E96EFC0EDB5011208A
:1008D000EA6E12C0EFFF0A0E106E116AFD0EDBCF3A
:1008E00006F0FE0EDBCF07F010C00BF011C00CF0CD
:1008F00009EC06F0FD0E06C0DBFFFE0E07C0DBFFB5
:10090000DF06B6D7FA0EDBCF10F0116A10BE116801
:10091000FB0EDB501024E96EFC0EDB501120EA6E5A
:0C092000EF6AE552E552E7CFD9FF120064
:04092C0000000000C7
:100930000000005F00000007000700147F147F1410
:10094000242A7F2A12231308646236495522500054
:1009500005030000001C2241000041221C00082A5F
:100960001C2A0808083E0808005030000008080843
:100970000808003030000020100804023E514945AC
:100980003E00427F400042615149462141454B3182
:100990001814127F1027454545393C4A4949300112
:1009A000710905033649494936064949291E003669
:1009B00036000000563600000008142241141414BA
:1009C00014144122140800020151090632497941E8
:1009D0003E7E1111117E7F494949363E41414122F7
:1009E0007F4141221C7F494949417F090901013E5C
:1009F000414151327F0808087F00417F410020407B
:100A0000413F017F081422417F404040407F020463
:100A1000027F7F0408107F3E4141413E7F09090962
:100A2000063E4151215E7F0919294646494949310F
:100A300001017F01013F4040403F1F2040201F7FB8
:100A40002018207F631408146303047804036151A1
:100A500049454300007F4141020408102041417F85
:100A60000000040201020440404040400001020432
:100A70000020545454787F48444438384444442037
:100A8000384444487F3854545418087E09010208F9
:100A90001454543C7F0804047800447D40002040F6
:100AA000443D00007F10284400417F40007C041832
:100AB00004787C0804047838444444387C141414C2
:100AC00008081414187C7C08040408485454542062
:100AD000043F4440203C4040207C1C2040201C3CE3
:100AE0004030403C44281028440C5050503C446452
:100AF000544C44000836410000007F00000041369D
:0C0B0000080008082A1C08081C2A080825
:040B0C002A0EF66E49
:100B1000000EF76E000EF86E00010900F550C56F6B
:100B20000900F550C66F03E1C56701D03DD009004B
:100B3000F550C06F0900F550C16F0900F550C26F44
:100B400009000900F550E96E0900F550EA6E090048
:100B500009000900F550C36F0900F550C46F090082
:100B60000900F6CFC7F0F7CFC8F0F8CFC9F0C0C082
:100B7000F6FFC1C0F7FFC2C0F8FF0001C35302E196
:100B8000C45307E00900F550EE6EC307F8E2C4074E
:100B9000F9D7C7C0F6FFC8C0F7FFC9C0F8FF00010A
:0A0BA000C507000EC65BBFD71200A8
:060BAA00497420776F7210
:100BB0006B7321210048656C6C6F2C20776F726C11
:100BC000642121202064656D6F206F66204E6F6B5D
:100BD0006961202020202031313030204C434420D6
:030BE0002E2E00B6
:0C0BE400FF0EE350166EEF0E01D0F30E72
:100BF000E76EE72EF9EF05F00C0E156EE76AE72EAB
:100C0000FFEF05F0152EFEEF05F0162EF7EF05F0BD
:020C10001200D0
:0E0C1200036A026A100EE76ED89006360736A7
:100C2000023603360B50025C0C50035805E30B50A0
:0E0C3000025E0C50035A062AE72EF0D712007F
:020C3E00000EA6
:100C4000F36E00EE00F0010E01D81200EA6002D04F
:0E0C5000EE6AFCD7F350E9601200EE6AFCD7A2
:020C5E0010EE96
:100C600080F020EE80F0F86A0F9C86EC05F056ECE0
:0A0C700006F092EC03F0FBD712002F
:060C7A00FF0EE350166EB0
:100C80001B0E00D001D0200EE76EE72EFED7162EE9
:060C9000FAD700D01200AB
:0A0C9600FF0EE350E84E12000000CC
:0C0CA00000D000D000D0E82EFAD71200DF
:020CAC00120034
:020000040030CA
:0100010008F6
:010002000CF1
:010003001EDE
:0100050000FA
:010006008079
:0100080003F4
:01000900C036
:01000A0003F2
:01000B00E014
:01000C0003F0
:01000D0040B2
:00000001FF
