:1000000008308A00A52C0000FF00030E8301A10028
:100010000A08A0008A010408A2007708A300780853
:10002000A4007908A5007A08A6007B08A70083131E
:1000300083120B1E1D288B183028220884002308E9
:10004000F7002408F8002508F9002608FA00270818
:10005000FB0020088A00210E8300FF0E7F0E09009E
:100060008A110A12D62A0A108A100A113A3E031877
:100070008A0A820000340034003400340034003432
:1000800000345F3400340034003407340034073463
:10009000003414347F3414347F34143424342A3438
:1000A0007F342A34123423341334083464346234F1
:1000B0003634493455342234503400340534033452
:1000C0000034003400341C34223441340034003411
:1000D000413422341C340034143408343E3408349F
:1000E0001434083408343E340834083400345034AE
:1000F0003034003400340834083408340834083408
:100100000034603460340034003420341034083457
:10011000043402343E345134493445343E340034DE
:1001200042347F34403400344234613451344934F1
:1001300046342134413445344B343134183414348A
:1001400012347F341034273445344534453439343F
:100150003C344A344934493430340134713409343C
:10016000053403343634493449344934363406349A
:100170004934493429341E3400343634363400349A
:100180000034003456343634003400340834143427
:1001900022344134003414341434143414341434F8
:1001A00000344134223414340834023401345134DC
:1001B0000934063432344934793441343E347E349F
:1001C0001134113411347E347F3449344934493484
:1001D00036343E3441344134413422347F34413466
:1001E000413422341C347F34493449344934413455
:1001F0007F3409340934093401343E3441344934FC
:1002000049347A347F340834083408347F34003475
:1002100041347F34413400342034403441343F345D
:1002200001347F3408341434223441347F34403470
:100230004034403440347F3402340C3402347F3450
:100240007F340434083410347F343E344134413434
:1002500041343E340A148A100A11313E03188A0AC6
:1002600082007F3409340934093406343E34413481
:10027000513421345E347F340934193429344634FE
:1002800046344934493449343134013401347F34FB
:10029000013401343F344034403440343F341F345F
:1002A0002034403420341F343F3440343834403418
:1002B0003F3463341434083414346334073408345A
:1002C000703408340734613451344934453443348C
:1002D00000347F344134413400340234043408346F
:1002E000103420340034413441347F340034043439
:1002F0000234013402340434403440344034403455
:100300004034003401340234043400342034543492
:100310005434543478347F34483444344434383496
:100320003834443444344434203438344434443449
:1003300048347F3438345434543454341834083402
:100340007E340934013402340C3452345234523481
:100350003E347F3408340434043478340034443474
:100360007D34403400342034403444343D3400344F
:100370007F341034283444340034003441347F3422
:10038000403400347C3404341834043478347C34FD
:100390000834043404347834383444344434443431
:1003A00038347C3414341434143408340834143499
:1003B000143418347C347C34083404340434083461
:1003C0004834543454345434203404343F344434A2
:1003D000403420343C344034403420347C341C34A9
:1003E0002034403420341C343C34403430344034E5
:1003F0003C34443428341034283444340C345034DD
:10040000503450343C344434643454344C344434E4
:1004100000340834363441340034003400347F343E
:10042000003400340034413436340834003410349D
:1004300008340834103408347834463441344634AF
:1004400078347C3409340534053478347E3405340A
:10045000093411347E340A108A140A118207443494
:100460004934593420344F347334633469346C3430
:100470006C346F34733463346F34703465340034E7
:100480000A108A140A11820720344E346F346B34F8
:1004900069346134203420343334353433343034E7
:1004A0004C3443344434203400340A108A140A1182
:1004B000820745346C3465346334743472346F3479
:1004C0006E346934633473344C3461346234503480
:1004D000483400340A108A140A1182072034203468
:1004E0003534303430346D347334203473347034F4
:1004F00061346E3400340A108A140A1182072034E1
:1005000020343134303430346D3473342034733427
:10051000703461346E3400340A108A140A11820770
:10052000323435346D347334203473347034613480
:100530006E3400340A108A140A11820735346D347F
:10054000733420347334703461346E3400340A10E0
:100550008A140A11820732346D34733420347334B0
:10056000703461346E3400340A108A140A11820720
:1005700020342034353430343034753473342034FE
:100580007334703461346E3400340A108A140A11E2
:1005900082072034203431343034303475347334AD
:1005A00020347334703461346E3400340B120130F3
:1005B000A8008B108A110A121D28D73084008313DB
:1005C00000080319F02A0630F800F701F70BE62AB5
:1005D000F80BE52A7B30F700F70BEC2A800BE32AB7
:1005E00000348810831688108312881183168811AE
:1005F000E608031D002B8312081183160811042B33
:100600008312081583160811831288158316881122
:1006100008308312DE00DE080319242B88118316AC
:100620008811E51B172B83120811192B83168312CF
:100630000815831608118312881583168811031074
:10064000E50D8312DE030B2B00348814831688100B
:100650008312003488108316881083128811831641
:1006600088118312081583160811831288158316C2
:10067000881108308312DE00DE080319552B88111B
:1006800083168811E51B482B831208114A2B831609
:100690008312081583160811831288158316881192
:1006A0000310E50D8312DE033C2B00348316881102
:1006B000831288118316081183120811831688107B
:1006C000831288108316081083120810FA308316DC
:1006D000D7008312DD220810831608100530D700DA
:1006E0008312DD22081483160810831288148316DF
:1006F00088108312881583168811831208158316B3
:1007000008110130E500E6018312F12225230530AE
:100710008316D7008312DD22C6308316E500E6017A
:100720008312F1222523B9308316E500E6018312F6
:10073000F1228316E5010130E6008312F122252320
:10074000B6308316E500E6018312F122803083166D
:10075000E5000130E6008312F12280308316E500C7
:100760000130E6008312F12281308316E50001306A
:10077000E6008312F12254308316E5000130E600D2
:100780008312F12245308316E5000130E600831222
:10079000F12252308316E5000130E6008312F12287
:1007A00043308316E5000130E6008312F122252351
:1007B000B3308316E500E6018312F122013083167F
:1007C000E500E6008312F12202308316E5000130D5
:1007D000E6008312F12204308316E5000130E600C2
:1007E0008312F12208308316E5000130E6008312FF
:1007F000F12210308316E5000130E6008312F12269
:100800001E308316E5000130E6008312F122283005
:100810008316E5000130E6008312F12232308316A0
:10082000E5000130E6008312F1223C308316E5003A
:100830000130E6008312F12246308316E5000130D4
:10084000E6008312F12250308316E5000130E60005
:100850008312F1225A308316E5000130E60083123C
:10086000F12264308316E5000130E6008312F122A4
:100870006E308316E5000130E6008312F1227F30EE
:100880008316E5000130E6008312F12225232D3086
:100890008316E500E6018312F1228316E50101309B
:1008A000E6008312F12203308316E5000130E600F2
:1008B0008312F12205308316E5000130E600831231
:1008C000F12207308316E5000130E6008312F122A1
:1008D00009308316E5000130E6008312F1220B3067
:1008E0008316E5000130E6008312F1220D308316F5
:1008F000E5000130E6008312F1220F308316E50097
:100900000130E6008312F1228316E5010130E60092
:100910008312F12203308316E5000130E6008312D2
:10092000F12205308316E5000130E6008312F12242
:1009300007308316E5000130E6008312F12209300A
:100940008316E5000130E6008312F1220B30831696
:10095000E5000130E6008312F1220D308316E50038
:100960000130E6008312F1220F308316E5000130DA
:10097000E6008312F1228316E5010130E6008312BE
:10098000F12203308316E5000130E6008312F122E4
:1009900009308316E5000130E6008312F1220F30A2
:1009A0008316E5000130E6008312F1222523B530DD
:1009B0008316E500E6018312F12201308316E5007B
:1009C000E6008312F1222523BE308316E500E601FE
:1009D0008312F12204308316E5000130E600831211
:1009E000F122252311308316E500E6018312F1225E
:1009F0002523B7308316E500E6018312F122831622
:100A0000D301D201D308031D132D52080D3C031C42
:100A1000132DE5010130E6008312F1228316D20A7C
:100A20000319D30A022D8312252303308316E50010
:100A3000E6018312F122252328308316D700831282
:100A4000DD2220308316E500E6018312F122252302
:100A500025308316E500E6018312F1223F3083162C
:100A6000E5000130E6008312F1222523363083169B
:100A7000E500E6018312F12220308316E500013003
:100A8000E6008312F12225233A308316E500E601C1
:100A90008312F12202308316E5000130E600831252
:100AA000F12225235F088316D4002C30E500E601EF
:100AB0008312F1228316D601D5015608193C031C76
:100AC000702D031D672D5508A53C031C702D54087F
:100AD000E50083122A238316D50A0319D60A5D2D51
:100AE0008312252329308316E500E6018312F122C3
:100AF00025238A150A12D32CDD155D08831687007D
:100B000083125D165D088316870083128A150A1208
:100B1000D62C610884008313621883178316590842
:100B20008000840A80018312E10A0319E20A00347A
:100B3000F701F8018316620803106318F707F70C32
:100B4000F80CE318F707F70CF80C6319F707F70C24
:100B5000F80CE319F707F70CF80C631AF707F70C12
:100B6000F80CE31AF707F70CF80C631BF707F70C00
:100B7000F80CE31BF707F70CF80C8312003408306D
:100B80008316E000E0080319E02D5F080139031D1A
:100B9000D32D83125F088316E5000130E60083122F
:100BA000F122DB2D8316831260088316E5000130E5
:100BB000E6008312F12203108316DF0CE003C22D3E
:100BC000831200342B308316E500E6018312F122F4
:100BD00083165908E5000130E6008312F122073040
:100BE00083165907DA00E5000130E6008312F1228E
:100BF00025232A308316E500E6018312F1228316AD
:100C00005808E5000130E6008312F12260308316B7
:100C10005807DA00E5000130E6008312F1222523AF
:100C20002C308316E500E6018312F1228316570863
:100C3000FA005608840083137A1883178008031972
:100C4000852E5708FA005608D60A0319D70A8400D9
:100C500083137A1883170008DA005A08DB005B0850
:100C6000F13C031D362E8030DB00472E5B08D13C63
:100C7000031D3D2E8130DB00472E5B081F3C031C0B
:100C8000432E842E472E5B087F3C031C842EDC0100
:100C90005C08043C031C802E5B084F3C031C632E45
:100CA0005B08E03EE100E2000530E3008312982596
:100CB00083165C087807DD005D0883123320F80096
:100CC0008316DE00792E5B084F3C0318792E5B08F3
:100CD000B03EE100E2000530E30083129825831660
:100CE0005C087807DD005D0883122A21F80083166E
:100CF000DE005E08DF008312BF258316DC0A482E63
:100D0000DF018312BF258316172E8312252300349B
:100D10000830F8000430F700F70B8C2E8711DD1136
:100D20005D08831687000330F700F70B952ED80D6A
:100D300083120712031CA22E5D165D08831687001E
:100D4000A62E83125D125D088316870000008312B1
:100D5000DD155D08831687008312871DAD2EF80B05
:100D60008A2E0430F700F70BB32E8711DD115D08D2
:100D700083168700000083125D165D0883168700C6
:100D80000330F700F70BC22E0330F700F70BC62E27
:100D90008312DD155D08831687008312871DCE2E12
:100DA000F8010330F700F70BD32E071A78148711D8
:100DB000DD115D0883168700831207125D125D083E
:100DC000831687008312003408308316D800770812
:100DD000D90083125D165D08831687000330F70083
:100DE000F70BF02E8312DD155D0883168700831242
:100DF000871DF82E071A0314071E0310F80D043080
:100E0000F700F70B012FDD115D08831687008312B1
:100E100087118316D80BE92E83125D165D088316A1
:100E200087000330F700F70B132F83120712831686
:100E300059080319202F83125D125D08831687005D
:100E400000008312DD155D08831687008312871D5D
:100E5000272F0430F700F70B2B2F8711DD115D08CA
:100E6000831687000330F700F70B342F8312071225
:100E70005D125D088316870083128A150A120E29F7
:100E800003308316D902031C4F2FD93084008313FB
:100E9000000803194F2F4D2F4D2F800B4C2F83121D
:100EA00000348316D2015208613C031CA22F520861
:100EB000313C031C7B2F83121F155C088316D30063
:100EC000D30AD30303196A2FFF30D90083124027B6
:100ED0008316612F83125B088316D9008312402783
:100EE0002930831652078400831383121F19762F2B
:100EF0001E08800083165208313C0318A02F83126D
:100F00001F155C088316D300D30AD30303198E2F51
:100F1000FF30D900831240278316852F83125B0888
:100F20008316D90083124027313083165202A03E27
:100F30008400831383121F199B2F1E0880008316C1
:100F4000D20A532F83128A150A12612D83165C0868
:100F5000F8015B020318AF2F5B08F700BB2FF70106
:100F60000830DD00DB0DF70D5C0877020318F70091
:100F7000F80DDD0BB22F8312003410308316EE0013
:100F8000F701FA01EB0CEA0C031CCC2F6C08F707F5
:100F90000318FA0A6D08FA07FA0CF70CF90CF80CAA
:0C0FA000EE0BC22F83128A150A1257298B
:101000002A308316E500E6018A118312F1228A153F
:101010008316E5010130E6008A118312F1228A1558
:1010200061308316E5000130E6008A118312F12257
:101030008A158A1125238A152B308316E500E601CF
:101040008A118312F1228A158316E5010130E60028
:101050008A118312F1228A1542308316E50001308D
:10106000E6008A118312F1228A158A1125238A1536
:101070002C308316E500E6018A118312F1228A15CD
:101080008316D301D2015308193C031C3C29031DCC
:101090004D285208A53C031C3C295308D500520892
:1010A000D40083125D165D08831687000430F700B4
:1010B000F70B58288312DD155D088316870003306F
:1010C000F700F70B6128831207125D125D08831683
:1010D00087000430F700F70B6B2883128711DD11AE
:1010E0005D0883168700A030D8008A1183128826F5
:1010F0008A1578087818802883165710822883125A
:101100008316571483125D125D0883168700000052
:101110008312DD155D08831687008312871D8E28D4
:101120000430F700F70B9228952800005D165D0843
:10113000831687000430F700F70B9C280030571CFB
:101140000130F800F8080319512883125D165D0874
:10115000831687000430F700F70BAC288312DD15E7
:101160005D08831687000330F700F70BB52883125C
:1011700007125D125D08831687000430F700F70B35
:10118000BF2883128711DD115D0883168700A03008
:10119000D8008A11831288268A15FA01D530840076
:1011A00083137A18831700088316D700D8008A1192
:1011B000831288268A1583165408D8008A11831250
:1011C00088268A155D165D08831687000430F700AF
:1011D000F70BE8288312DD155D08831687000330BE
:1011E000F700F70BF1288312871DF42807125D1210
:1011F0005D08831687000430F700F70BFD28831283
:101200008711DD115D0883168700A130D8008A118F
:10121000831288268A15F7018A11E42E8A15780828
:101220008316D60083125D125D08831687000000C6
:101230008312DD155D08831687008312871D1E2922
:101240000430F700F70B2229252900005D165D0800
:10125000831687000430F700F70B2C295608F80096
:101260007808D400E5008A1183122A238A15831690
:10127000D20A0319D30A43288A11831225238A1517
:101280008A150A12522D83165D085E02013EE600A1
:10129000E7015F086002013EE9006708EB006608AD
:1012A000EA00ED016908EC008A118312BD2F8A154E
:1012B00079088316E4007808E3002A30E500E601A7
:1012C0008A118312F1228A1583165D08E500013028
:1012D000E6008A118312F1228A1583165E08E50062
:1012E0000130E6008A118312F1228A158A11252322
:1012F0008A152B308316E500E6018A118312F1224C
:101300008A1583165F08E5000130E6008A11831212
:10131000F1228A1583166008E5000130E6008A1183
:101320008312F1228A158A1125238A152C308316FF
:10133000E500E6018A118312F1228A158316E20183
:10134000E10162086402031CB629031DAB2963088E
:1013500061020318B6295C08E5008A1183122A236A
:101360008A158316E10A0319E20AA1298A11831258
:1013700025238A1500348316D2015208613C031CD0
:10138000A12C5208313C031CCF292930520784007C
:101390008313000CD300D30C3F30D305D92931304F
:1013A0005202A03E84008313000CD300D30C3F30C4
:1013B000D3055208303C03192E2A01305207D700BA
:1013C000DB006230DC008A118312A6278A157708B9
:1013D0008316D80001305207DA00DB006230DC00EF
:1013E0008A118312A6278A1577088316DB008312D9
:1013F0005F088316DC005808DD005B08DE00DF01B3
:101400002030E00083124321013083165207D700B9
:10141000DB006230DC008A118312A6278A15770868
:101420008316D80001305207DA00DB006230DC009E
:101430008A118312A6278A1577088316DB00831288
:101440005F088316DC005808DD005B08DE002230F0
:10145000DF004230E0008312432183161F30D600A4
:101460005208D7005308D8002B30E500E6018A1156
:101470008312F1228A1583165808E5000130E60030
:101480008A118312F1228A158A1125238A152A309E
:101490008316E500E6018A118312F1228A1583166C
:1014A0005708E5000130E6008A118312F1228A15FF
:1014B0008A1125238A152C308316E500E6018A114E
:1014C0008312F1228A1583165608E5000130E600E2
:1014D0008A118312F1228A158A1125238A1583160F
:1014E000530855020318812A1F30DC005208DD0022
:1014F0005208DE005508DF005308E0008312432144
:101500008316550853020318922A1F30DC00520834
:10151000DD005208DE005308DF005508E0008312AA
:10152000432183165208D4005308D5008312280B98
:101530009E2C8316D701D601D708031DC52A56084D
:10154000C73C031CC52A86118312861102308316FC
:10155000D800F930D9008A11831240278A158316E2
:10156000D80BA92A86118312861502308316D8005B
:10157000F930D9008A11831240278A158316D80BB7
:10158000B82AD60A0319D70A9C2A8312A8015B0835
:10159000883C031DD42A5C08133C031DD42A033065
:1015A000DC00E830DB00102B5B08E83C031DE02A80
:1015B0005C08033C031DE02ADC01FA30DB00102B41
:1015C0005B08FA3C031DEB2ADC08031DEB2ADC0157
:1015D0003230DB00102B5B08323C031DF62ADC089E
:1015E000031DF62ADC011430DB00102B5B08143CD1
:1015F000031D012BDC08031D012BDC010530DB0082
:10160000102B5B08053C031D0C2BDC08031D0C2B69
:10161000DC010130DB00102B1330DC008830DB00F4
:1016200003308316DC00DD016230DE001430DF00A1
:101630002830E000831243210330DF00FC30E0005B
:101640005B08883C031D4C2B5C08133C031D4C2B92
:10165000E2012930E1008316D60156088A1183126F
:101660006A228A158316D60AF700D9008A118312D6
:1016700089258A150C3083165602031D2D2B043044
:10168000D7002030D9008A11831289258A15831644
:10169000D70B412B852C83125B08E83C031D782B6C
:1016A0005C08033C031D782BE2012930E10083161E
:1016B000D60156088A1183127B228A158316D60A10
:1016C000F700D9008A11831289258A150C308316F8
:1016D0005602031D592B0430D7002030D9008A113F
:1016E000831289258A158316D70B6D2B852C8312BF
:1016F0005B08FA3C031DAE2BDC08031DAE2BE20198
:101700002930E10003308316D6002030D9008A1139
:10171000831289258A158316D60B852BD701570886
:101720008A1183128C228A158316D70AF700D900F2
:101730008A11831289258A15093083165702031DE1
:101740008F2B0430D8002030D9008A1183128925CC
:101750008A158316D80BA32B852C83125B08323C89
:10176000031DE42BDC08031DE42BE2012930E1001A
:1017700004308316D6002030D9008A1183128925BF
:101780008A158316D60BBB2BD70157088A118312F3
:101790009A228A158316D70AF700D9008A11831274
:1017A00089258A15083083165702031DC52B04307E
:1017B000D8002030D9008A11831289258A15831612
:1017C000D80BD92B852C83125B08143C031D1A2CD3
:1017D000DC08031D1A2CE2012930E10004308316D5
:1017E000D6002030D9008A11831289258A158316E4
:1017F000D60BF12BD70157088A118312A7228A151D
:101800008316D70AF700D9008A11831289258A1511
:10181000083083165702031DFB2B0430D8002030FC
:10182000D9008A11831289258A158316D80B0F2CAB
:10183000852C83125B08053C031D452CDC08031D29
:10184000452CE2012930E1008316D60156088A11A1
:101850008312B4228A158316D60AF700D9008A119A
:10186000831289258A150C3083165602031D262CF7
:101870000430D7002030D9008A11831289258A15B7
:101880008316D70B3A2C852C83125B0B6E2CDC084D
:10189000031D6E2CE2012930E1008316D6015608A3
:1018A0008A118312C5228A158316D60AF700D90039
:1018B0008A11831289258A150C3083165602031D5E
:1018C0004F2C0430D7002030D9008A11831289258B
:1018D0008A158316D70B632C852C8312E2012930DD
:1018E000E1008316D60156088A1183122B228A152D
:1018F0008316D60AF700D9008A11831289258A1522
:10190000103083165602031D732CD7012930D600E0
:101910000130D8001A30D9008A118312E2258A15C5
:1019200004308316D600FA30D7008A118312DD22E4
:101930008A158316D60B932C83120B168316D20AA4
:10194000BD2983128A150A12632D840183131F3067
:10195000830583161F149F141F159F11FF308312D8
:10196000DD001F30DF00FF30E000E101E201A801EF
:10197000DC011430DB000B16C0308B04831601131E
:101980001F109F101F159F1183121F179F1383167F
:101990009F1383121F140030F8001F08C739780402
:1019A0009F008A11562B8A158A117C2D8A15DF011A
:1019B000FC30E000E2012930E1008316D201520838
:1019C0008A1183122B228A158316D20AF700D900B6
:1019D0008A11831289258A15103083165202031D3D
:1019E000DF2CD7012930D6000130D8000A30D900C9
:1019F0008A118312E2258A151F30E000E2012930A6
:101A0000E1008316D20152088A11831240228A15FE
:101A10008316D20AF700D9008A11831289258A1504
:101A2000103083165202031D032DD7012930D60032
:101A30000130D8001A30D9008A118312E2258A15A4
:101A4000E330E000E2012930E1008316D2015208C0
:101A50008A11831255228A158316D20AF700D900FB
:101A60008A11831289258A15103083165202031DAC
:101A7000272DD7012930D6000130D8002A30D900CF
:101A80008A118312E2258A1508308316D200FA30B3
:101A9000D7008A118312DD228A158316D20B472DB7
:101AA0008312002808308316D200FA30D7008A113A
:101AB0008312DD228A158316D20B552D8A118312CB
:0C1AC000512F8A15BB2983165E2D630090
:02400E003A3F37
:00000001FF
;PIC16F877
