:10000000830100308A0004282030840028300D202D
:100010008301152E04068001840A0406031D0A28A4
:020020000034AA
:100BD4008301061508008301A5000430A6005330E4
:100BE400A700A70BF32DA60BF12DA50BEF2D0800E5
:0C0BF4008301A60006110610A508031DD1
:100C0000032E8610042E861406140830A000A008B7
:100C1000031908000610A61B0F2E8610102E86142E
:100C200006140310A60DA003072E831603138601D6
:100C30008501073083129F0086018501FA30ED257A
:100C400086110530ED258615061506148614A501B6
:100C50000130FA25EA250530ED25A501C630FA2533
:100C6000EA25A501B930FA25A501A50A0030FA2523
:100C7000EA25A501B630FA25A501A50A8030FA2596
:100C8000A501A50A8030FA25A501A50A8130FA251B
:100C9000A501A50A5430FA25A501A50A4530FA2573
:100CA000A501A50A5230FA25A501A50A4330FA2567
:100CB000EA25A501B330FA25A501A50A0130FA25D8
:100CC000A501A50A0230FA25A501A50A0430FA25D6
:100CD000A501A50A0830FA25A501A50A1030FA25B4
:100CE000A501A50A1E30FA25A501A50A2830FA2576
:100CF000A501A50A3230FA25A501A50A3C30FA253E
:100D0000A501A50A4630FA25A501A50A5030FA2505
:100D1000A501A50A5A30FA25A501A50A6430FA25CD
:100D2000A501A50A6E30FA25A501A50A7F30FA258E
:100D3000EA25A501B530FA25A501A50A0130FA2555
:100D4000EA25A501BE30FA25A501A50A0430FA2539
:100D5000EA25A5011130FA25EA25A501B730FA25C3
:100D6000A301A401A501A50A0030FA25A30A0319CD
:100D7000A40A003024020E3003192302031CB22EF1
:100D8000EA25A5010330FA25EA252830ED25A5013D
:100D90002030FA25EA25A5012530FA25A501A50A66
:100DA0004B30FA25EA25A5012930FA25EA25A501C7
:100DB0002C30FA25A101A201A301A401A208031D60
:100DC000E52EA501A50A0F30F22E220BEB2EA50170
:100DD000A50AF030F22E2208023A031DF32EA501D7
:100DE000A50AFF30FA25A20A2208033A0319A20134
:100DF000A30A0319A40A013024022630031923028E
:100E0000031CDE2EA201A301A401A208031D0C2FC6
:100E1000A501A50AF030192F220B122FA501A50A52
:100E2000FF30192F2208023A031D1A2FA501A50A27
:100E30000F30FA25A20A2208033A0319A201A30AD5
:100E40000319A40A01302402263003192302031CCB
:100E5000052FA201A301A401A208031D332FA501A0
:100E6000A50AFF30402F220B392FA501A50A0F300C
:100E7000402F2208023A031D412FA501A50AF03098
:100E8000FA25A20A2208033A0319A201A30A0319A8
:100E9000A40A01302402263003192302031C2C2F3C
:100EA000A201A301A401A208031D5A2FA501A50AAE
:100EB0000030672F220B602FA501A50AF030672FA5
:100EC0002208023A031D682FA501A50A0F30FA2552
:100ED000A20A2208033A0319A201A30A0319A40AC9
:100EE00001302402263003192302031C532FA201D0
:100EF000A301A401A208031D812FA501A50A0F309B
:100F00008E2F220B872FA501A50A00308E2F2208D5
:100F1000023A031D8F2FA501A50AF030FA25A20A77
:100F20002208033A0319A201A30A0319A40A0130F3
:100F30002402263003192302031C7A2FA201A301E5
:100F4000A401A208031DA82FA501A50AF030B52F02
:100F5000220BAE2FA501A50A0F30B52F2208023AA9
:100F6000031DB62FA501A50A0030FA25A20A220802
:100F7000033A0319A201A30A0319A40A01302402A7
:100F8000263003192302031CA12FA301A401A501EC
:100F9000A50A0030FA25A30A0319A40A0130240285
:100FA000263003192302031CC72FA301A401A501A6
:100FB000A50AFF30FA25A30A0319A40A0130240266
:100FC000263003192302031CD72FEA25A10A043077
:100FD0002102031CDB2EA5012930FA25EA25A501F3
:100FE0002130FA25EA25FA30ED25FA30ED25A50164
:100FF0002030FA25EA25FA30ED25FA30ED25EF2FDD
:02400E00103F61
:00000001FF
