:100000000C9462390C9481390C9481390C948139A7
:100010000C9481390C9481390C9481390C94813978
:100020000C9481390C9481390C9481390C94813968
:100030000C9481390C9481390C9481390C94813958
:100040000C9481390C9481390C9481390C94813948
:100050000C9481390C9481390C9481390C94813938
:100060000C9481390C9481390C9481390C94813928
:100070000C9481390C9481390C9481390C94813918
:100080000C9481390C9481390C948139060808004C
:1000900000000000000000000000000020202020E0
:1000A0002000200050505000000000005050F85038
:1000B000F85050002078A07028F02000C0C8102010
:1000C0004098180040A0A040A89068003030204020
:1000D0000000000010204040402010004020101080
:1000E000102040000020A87070A82000002020F8F8
:1000F000202000000000000030302040000000F808
:100100000000000000000000003030000008102057
:1001100040800000708888A88888700020602020B7
:1001200020207000708808708080F800F808103077
:100130000888700010305090F8101000F880F00817
:1001400008887000384080F088887000F80808102F
:100150002040800070888870888870007088887857
:100160000810E00000002000200000000000200037
:100170002020400008102040201008000000F80057
:10018000F80000004020100810204000708808305F
:10019000200020007088A8B8B0807800205088889F
:1001A000F8888800F08888F08888F000708880805F
:1001B00080887000F08888888888F000F88080F057
:1001C0008080F800F88080F08080800078888080CF
:1001D00098887800888888F888888800702020208F
:1001E0002020700038101010109060008890A0C07F
:1001F000A0908800808080808080F80088D8A8A89F
:10020000A88888008888C8A8988888007088888806
:1002100088887000F08888F08080800070888888E6
:10022000A8906800F08888F0A0908800708880709E
:1002300008887000F8A8202020202000888888885E
:10024000888870008888888888502000888888A8D6
:10025000A8A850008888502050888800888850209E
:1002600020202000F80810704080F80078404040BE
:1002700040407800008040201008000078080808FE
:1002800008087800205088000000000000000000EE
:100290000000F80060602010000000000000601006
:1002A000709078008080B0C888C8B0000000708866
:1002B0008088700008086898889868000000708836
:1002C000F880700010282070202020000000709816
:1002D000986808708080B0C88888880020006020F6
:1002E000202070001000101010906000808090A0FE
:1002F000C0A0900060202020202070000000D0A826
:10030000A8A8A8000000B0C88888880000007088ED
:10031000888870000000B0C8C8B08080000068986D
:10032000986808080000B0C88080800000007880CD
:100330007008F0002020F820202810000000888895
:10034000889868000000888888502000000088880D
:10035000A8A850000000885020508800000088881D
:10036000780888700000F8102040F8001020204025
:1003700020201000202020002020200040202010DD
:100380002020400040A810000000000070D8D87065
:100390000000000008080800000000000000000045
:1003A0000000000030787830300030006C6C6C0059
:1003B000000000006C6CFE6CFE6C6C00183E603C33
:1003C000067C18000063660C183363001C361C3B67
:1003D0006E663B0030306000000000000C183030CA
:1003E00030180C0030180C0C0C18300000663CFF64
:1003F0003C660000003030FC30300000000000009F
:10040000001818300000007E00000000000000000E
:100410000018180003060C18306040003E63636B40
:1004200063633E001838581818187E003C66061C96
:1004300030667E003C66061C06663C000E1E366674
:100440007F060F007E607C0606663C001C30607CE8
:1004500066663C007E66060C181818003C66663C12
:1004600066663C003C66663E060C380000181800C4
:100470000018180000181800001818300C18306008
:1004800030180C0000007E00007E000030180C06C2
:100490000C1830003C66060C180018003E636F69AB
:1004A0006F603E00183C66667E6666007E33333EB3
:1004B00033337E001E33606060331E007C3633337E
:1004C00033367C007F31343C34317F007F31343C23
:1004D000343078001E33606067331F006666667EC6
:1004E000666666003C18181818183C000F060606C9
:1004F00066663C007333363C3633730078303030F8
:1005000031337F0063777F7F6B63630063737B6F3F
:10051000676363003E63636363633E007E33333E21
:10052000303078003C6666666E3C0E007E33333EAB
:10053000363373003C6630180C663C007E5A18183F
:1005400018183C006666666666667E0066666666C5
:10055000663C18006363636B7F7763006363361CDC
:100560001C3663006666663C18183C007F63460CC8
:1005700019337F003C30303030303C006030180C94
:10058000060301003C0C0C0C0C0C3C00081C3663F0
:100590000000000000000000000000FF18180C0020
:1005A0000000000000003C063E663B0070303E3319
:1005B00033336E0000003C6660663C000E063E660B
:1005C00066663B0000003C667E603C001C3630786E
:1005D0003030780000003B66663E067C7030363B6B
:1005E000333373001800381818183C00060006064C
:1005F0000666663C703033363C367300381818187F
:1006000018183C000000667F7F6B630000007C666A
:100610006666660000003C6666663C0000006E335D
:10062000333E307800003B66663E060F00006E3BAE
:100630003330780000003E603C067C0008183E180D
:10064000181A0C000000666666663B0000006666CD
:10065000663C18000000636B7F7F36000000633645
:100660001C36630000006666663E067C00007E4C19
:1006700018327E000E18187018180E000C0C0C00A2
:100680000C0C0C007018180E181870003B6E00004F
:10069000000000001C36361C00000000081010008E
:1006A000000000000000000000000000000000004A
:1006B0000000000000000000000000000000183CE6
:1006C0003C3C181818001818000000000063636311
:1006D00022000000000000000000000000000036C2
:1006E000367F3636367F3636000000000C0C3E630F
:1006F00061603E030343633E0C0C000000000000F9
:10070000006163060C183363000000000000001C49
:1007100036361C3B6E66663B000000000030303011
:1007200060000000000000000000000000000C1845
:10073000183030303018180C000000000000180C81
:100740000C060606060C0C18000000000000000055
:1007500042663CFF3C6642000000000000000000D2
:10076000181818FF181818000000000000000000FA
:100770000000000000001818183000000000000001
:10078000000000FF0000000000000000000000006A
:100790000000000000001818000000000000010325
:1007A000070E1C3870E0C0800000000000003E63AF
:1007B00063636B6B6363633E0000000000000C1C0E
:1007C0003C0C0C0C0C0C0C3F0000000000003E63C5
:1007D00003060C183061637F0000000000003E63D8
:1007E00003031E030303633E000000000000060E27
:1007F0001E3666667F06060F0000000000007F6060
:1008000060607E030363733E0000000000001C3044
:1008100060607E636363633E0000000000007F63EE
:100820000306060C0C1818180000000000003E63B8
:1008300063633E636363633E0000000000003E6349
:100840006363633F0303063C0000000000000000F8
:100850000018180000001818000000000000000038
:1008600000181800000018181830000000000006DA
:100870000C18306030180C0600000000000000006A
:1008800000007E00007E000000000000000000600C
:1008900030180C060C1830600000000000003E63A9
:1008A00063060C0C0C000C0C0000000000003E6302
:1008B000636F6B6B6E60603E000000000000081C00
:1008C000366363637F6363630000000000007E3370
:1008D00033333E333333337E0000000000001E33D9
:1008E000616060606061331E0000000000007C36C3
:1008F000333333333333367C0000000000007F3362
:1009000031343C343031337F0000000000007F334D
:1009100031343C34303030780000000000001E33A9
:100920006160606F6363371D000000000000636357
:1009300063637F63636363630000000000003C182F
:10094000181818181818183C0000000000000F06AE
:10095000060606060666663C0000000000007333CB
:1009600036363C36363333730000000000007830F2
:10097000303030303031337F0000000000006377CA
:100980007F6B636363636363000000000000636365
:10099000737B7F6F676363630000000000001C3699
:1009A000636363636363361C0000000000007E33F2
:1009B00033333E30303030780000000000003E63BA
:1009C00063636363636B6F3E0607000000007E3362
:1009D00033333E36363333730000000000003E638D
:1009E00063301C060363633E000000000000FFDB71
:1009F000991818181818183C0000000000006363CC
:100A0000636363636363633E00000000000063632D
:100A10006363636363361C080000000000006363C7
:100A20006363636B6B7F3636000000000000C3C356
:100A3000663C18183C66C3C3000000000000C3C336
:100A4000C3663C181818183C0000000000007F63C3
:100A500043060C183061637F0000000000003C304A
:100A6000303030303030303C00000000000080C0BA
:100A7000E070381C0E0703010000000000003C0C71
:100A80000C0C0C0C0C0C0C3C00000000081C366319
:100A90000000000000000000000000000000000056
:100AA0000000000000000000FF00000018180C000B
:100AB0000000000000000000000000000000000036
:100AC000003C46063E66663B0000000000007030B9
:100AD000303C36333333336E00000000000000003A
:100AE000003E63606060633E0000000000000E0690
:100AF000061E36666666663B0000000000000000C9
:100B0000003E63637E60633E0000000000001C3610
:100B100032307C30303030780000000000000000BF
:100B2000003B666666663E06663C0000000070306C
:100B300030363B33333333730000000000000C0CBD
:100B4000001C0C0C0C0C0C1E000000000000060623
:100B5000000E060606060666663C000000007030C1
:100B6000303333363C3633730000000000001C0C79
:100B70000C0C0C0C0C0C0C1E000000000000000003
:100B8000006E7F6B6B6B6B6B000000000000000061
:100B9000006E3333333333330000000000000000B5
:100BA000003E63636363633E0000000000000000DA
:100BB000006E333333333E303078000000000000E5
:100BC000003B666666663E06060F000000000000F9
:100BD000006E3B3330303078000000000000000031
:100BE000003E63380E03633E00000000000008185A
:100BF000187E181818181B0E0000000000000000D6
:100C0000006666666666663B000000000000000045
:100C100000636336361C1C08000000000000000062
:100C2000006363636B6B7F36000000000000000010
:100C30000063361C1C1C366300000000000000002E
:100C40000063636363633F03063C00000000000031
:100C5000007F660C1830637F0000000000000E1853
:100C6000181870181818180E000000000000181846
:100C7000181818001818181818000000000070182C
:100C800018180E18181818700000000000003B6EAD
:100C90000000000000000000000000000070D8D834
:100CA000700000000000000000000000FFFFFFFFD8
:100CB000FFFFFFFFFFFFFFFFFFFFFFFFFFFFFFFF44
:100CC000FFFFFFFFFFFFFFFFFFFFFFFFFFFFFFFF34
:100CD000FFFFFFFFFFFFFFFFFFFFFFFFFFFFFFFF24
:100CE000FFFFFFFFFFFFFFFFFFFFFFFFFFFFFFFF14
:101CF000FFFFFFFFFFFFFFFFFFFFFFFFFFFFFFEE05
:101D0000FBBF88F55F22F21F21F21F21F21F21F293
:101D10001F21F21F21F21F21F21F21F21F21F21FAA
:101D200021F21F21F11F11F21F76FFFFFFFFFFFFBE
:101D3000F77F22F21F21F21F21F21F21F21F21F152
:101D40000F10F10F10F10F10F10F10F10F21F21F12
:101D500021F21F21F21F21F21F21F21F21F21F2168
:101D6000F21F21F21F21F11F33FA9FFFFFFFFFFC3B
:101D7000CF22F00F00F00F00F00F00F00F00F00F77
:101D800000F00F00F00F00F00F00F00F00F00F0058
:101D9000F00F00F00F00F00F00F00F00F00F00F058
:101DA0000F00F00F00F00F00F21FFFFFFFFFFFFF1B
:101DB000FFFFFFFFFFFFFFFFFFFFFFFFFFFFFFFF33
:101DC000FFFFEEF99F33F10F00F00F00F00F00F06E
:101DD0000F00F00F00F00F00F00F00F00F00F00FF9
:101DE00000F00F00F00F00F00F00F00F00F00F55A3
:101DF000FFFFFFFFFFFFF66F00F00F00F00F00F096
:101E00000F00F00F00F00F00F00F00F00F00F00FC8
:101E100000F00F00F00F00F00F00F00F00F00F00C7
:101E2000F00F00F00F00F00F00F00F00F00F11F9AD
:101E30008FFFFFFFFFFCBF21F00F00F00F00F00F3E
:101E400000F00F00F00F00F00F00F00F00F00F0097
:101E5000F00F00F00F00F00F00F00F00F00F00F097
:101E60000F00F00F00F00F00F00F00F00F00F11F57
:101E7000FFFFFFFFFFFFFFFFFFFFFFFFFFFFFFFF72
:101E8000FFFFFFFFFFFFFAAF33F11F00F00F00F07D
:101E90000F00F00F00F00F00F00F00F00F00F00F38
:101EA00000F00F00F00F00F00F00F00F00F00F0037
:101EB000F00F00F00F65FFFFFFFFFFFFF66F00F070
:101EC0000F00F00F00F00F00F00F00F00F00F00F08
:101ED00000F00F00F00F00F00F00F00F00F00F0007
:101EE000F00F00F00F00F00F00F00F00F00F00F007
:101EF0000F00F00F11F99FFFFFFFFFFCCF21F00F44
:101F000000F00F00F00F00F00F00F00F00F00F00D6
:101F1000F00F00F00F00F00F00F00F00F00F00F0D6
:101F20000F00F00F00F00F00F00F00F00F00F00FA7
:101F300000F00F00F11FFFFFFFFFFFFFFFFFFFFF9C
:101F4000FFFFFFFFFFFFFFFFFFFEEF66F21F00F046
:101F50000F00F00F00F00F00F00F00F00F00F00F77
:101F600000F00F00F00F00F00F00F00F00F00F0076
:101F7000F00F00F00F00F00F00F00F44FFFFFFFF25
:101F8000FFFFF55F00F00F00F00F00F00F00F00F03
:101F900000F00F00F00F00F00F00F00F00F00F0046
:101FA000F00F00F00F00F00F00F00F00F00F00F046
:101FB0000F00F00F00F00F00F00F10F88FFFFFFF81
:101FC000FFFBBF11F00F00F00F00F00F00F00F004B
:101FD000F00F00F00F00F00F00F00F00F00F00F016
:101FE0000F00F00F00F00F00F00F00F00F00F00FE7
:101FF00000F00F00F00F00F00F00F00FFFFFFFFFE9
:10200000FFFFFFFFFFFFFFFFFFFFFFFFFFFFEEF6FA
:102010005F10F00F00F00F00F00F00F21F44F55FAB
:1020200054F54F54F54F54F54F54F54F54F54F5464
:10203000F54F54F54F54F54F54F54F54F54F54F5B3
:102040004F88FFFFFFFFFFFFF99F55F54F55F55FE5
:1020500055F55F55F55F55F55F55F55F55F55F55DE
:10206000F55F55F55F54F55F55F55F55F55F55F52F
:102070005F55F55F55F55F55F55F55F55F55F54FC4
:1020800065FBBFFFFFFFFFFDDF55F44F44F44F44F6
:10209000F44F44F44F44F44F44F44F44F44F44F4A9
:1020A0004F44F44F44F44F44F44F44F44F44F44F3E
:1020B00044F44F44F44F44F44F44F44F44F44F4439
:1020C000F54FFFFFFFFFFFFFFFFFFFFFFFFFFFFFDA
:1020D000FFFFFEEF66F00F00F00F00F00F00F44F6F
:1020E00089FBBFDDFEEFEEFEEFEEFEEFEEFEEFEE64
:1020F000FEEFEEFEEFEEFEEFEEFEEFEEFEEFEEFE9B
:10210000EFEEFEEFEEFEEFEEFFFFFFFFFFFFFEEF55
:10211000EEFEEFEEFEEFEEFEEFEEFEEFEEFEEFEE8A
:10212000FEEFEEFEEFEEFEEFEEFDDFDDFDDFEEFE9D
:10213000EFEEFEEFEEFEEFEEFEEFEEFEEFEEFEEF69
:10214000EEFEEFEEFEEFEEFFFFFFFFFFFFFFFFEE05
:10215000FDDFDDFDDFDDFDDFDDFDDFDDFDDFDDFDE5
:10216000DFDDFDDFDDFDDFDDFDDFDDFDDFDDFDDFF3
:10217000DDFDDFDDFDDFDDFDDFDDFDDFDDFDDFDDE5
:10218000FDDFDDFDDFDDFEEFFFFFFFFFFFFFFFFFF8
:10219000FFFFFFFFFFFFFFFFF88F10F00F00F00FB2
:1021A00000F22F88FCCFFFFFFFFFFEEFDDFDDFDD3C
:1021B000FDDFDDFDDFDDFDDFDDFDDFDDFDDFDDFD85
:1021C000DFDDFDDFDDFDDFDDFDDFDDFDDFEEFFFF60
:1021D000FFFFFFFFFFEFEEFEEFEEFEEFEEFEEFEE96
:1021E000FEEFEEFEEFEEFEEFEEFEEFEEFEEFEEFFA9
:1021F000FFFFFFFFEEFEEFEEFEEFEEFEEFEEFEEF77
:10220000EEFEEFEEFEEFEEFEEFEEFEEFEEFFFFFF77
:10221000FFFFFFFFFFEEFDDFDDFDDFDDFDDFDDFDAD
:10222000DFDDFDDFDDFDDFDDFDDFDDFDDFDDFEEF21
:10223000FFFFFFEEFDDFDDFDDFDDFDDFDDFDDFDDCF
:10224000FDDFDDFDDFDDFDDFDDFDDFDDFEEFFFFFBF
:10225000FFFFFFFFFFFFFFFFFFFFFFFFFFBBF22FAF
:1022600000F00F00F00F32FAAFFFFFFFFFFBBF8857
:10227000F55F44F44F44F44F44F44F44F44F44F4B6
:102280004F44F44F44F44F44F44F44F44F44F44F5C
:1022900044F44F88FFFFFFFFFFFFF98F55F54F54C0
:1022A000F54F54F54F54F54F54F54F54F54F54F541
:1022B0004F54F54F76FEEFFFFAAF55F54F54F54FFB
:1022C00054F54F54F54F54F54F54F54F54F54F54C2
:1022D000F54F65FBBFFFFFFFFFFDDF65F44F44F4E3
:1022E0004F44F44F44F44F44F44F44F44F44F44FFC
:1022F00044F44F44F77FFFFFEF55F44F44F44F444D
:10230000F44F44F44F44F44F44F44F44F44F44F436
:102310004F44F55FFFFFFFFFFFFFFFFFFFFFFFFFE2
:10232000FFFFFF66F00F00F00F00F22FBBFFFFFF73
:10233000FDDF77F21F00F00F00F00F00F00F00F04C
:102340000F00F00F00F00F00F00F00F00F00F00F83
:1023500000F00F00F00F00F00F54FFFFFFFFFFFF32
:10236000F54F00F00F00F00F00F00F00F00F00F03D
:102370000F00F00F00F00F00F00F21FDDFFFF77FDF
:1023800000F00F00F00F00F00F00F00F00F00F0052
:10239000F00F00F00F00F00F00F88FFFFFFFFFFBC2
:1023A000BF10F00F00F00F00F00F00F00F00F00F63
:1023B00000F00F00F00F00F00F00F33FFFFEEF0002
:1023C000F00F00F00F00F00F00F00F00F00F00F022
:1023D0000F00F00F00F00F00F00FFFFFFFFFFFFFF7
:1023E000FFFFFFFFFFFFFFFBBF33F00F00F00F11F8
:1023F000F99FFFFFFFDCF44F00F00F00F00F00F03B
:102400000F00F00F00F00F00F00F00F00F00F00FC2
:1024100000F00F00F00F00F00F00F00F00F00F655C
:10242000FFFFFFFFFFFFF65F00F00F00F00F00F06F
:102430000F00F00F00F00F00F00F00F00F00F00F92
:1024400032FEEFFFF88F10F00F00F00F00F00F00DA
:10245000F00F00F00F00F00F00F00F00F00F11F977
:102460008FFFFFFFFFFCCF21F00F00F00F00F00FF8
:1024700000F00F00F00F00F00F00F00F00F00F0061
:10248000F54FFFFEEF21F00F00F00F00F00F00F00E
:102490000F00F00F00F00F00F00F00F00F00F11F21
:1024A000FFFFFFFFFFFFFFFFFFFFFFFFFFF77F00C3
:1024B000F00F00F00F44FFFFFFFEEF43F00F00F0BE
:1024C0000F00F00F00F00F00F00F00F00F00F00F02
:1024D00000F00F00F00F00F00F00F00F00F00F0001
:1024E000F00F00F00F55FFFFFFFFFFFFF65F00F05A
:1024F0000F00F00F00F00F00F00F00F00F00F00FD2
:1025000000F00F00F00F32FEEFFFF88F10F00F0019
:10251000F00F00F00F00F00F00F00F00F00F00F0D0
:102520000F00F00F21F98FFFFFFFFFFCBF21F00F1D
:1025300000F00F00F00F00F00F00F00F00F00F00A0
:10254000F00F00F00F00F54FFFFEEF21F00F00F04D
:102550000F00F00F00F00F00F00F00F00F00F00F71
:1025600000F00F00F11FFFFFFFFFFFFFFFFFFFFF66
:10257000FFFFDDF44F00F00F00F11F99FFFFFFF6A2
:102580006F10F00F00F00F00F10F22F33F33F33F15
:1025900033F33F33F33F33F33F33F33F33F33F330F
:1025A000F33F33F33F33F33F33F33F87FFFFFFFF47
:1025B000FFFFF88F44F43F44F44F44F44F44F44F8A
:1025C00044F44F44F43F11F00F00F00F32FEEFFFE0
:1025D000F88F10F00F00F00F21F43F33F33F33F387
:1025E0003F33F33F33F33F33F32F44FAAFFFFFFFA3
:1025F000FFFCCF54F33F33F33F33F33F33F33F3329
:10260000F33F33F43F22F10F00F00F00F54FFFFED0
:10261000EF21F00F00F00F11F33F33F33F33F33F9F
:1026200033F33F33F33F33F33F32F44FFFFFFFFF0A
:10263000FFFFFFFFFFFFFFFFABF33F00F00F00F3D3
:102640002FDDFFFFCCF11F00F00F00F00F44FBBFA8
:10265000EEFFFFFEFFEFFEFFEFFEFFEFFEFFEFFEE0
:10266000FFEFFEFFEFFEFFEFFEFFEFFEFFEFFEFFCF
:10267000EFFFFFFFFFFFFFFFFFFFFFFFFFFFFFFF7A
:10268000FFFFFFFFFFFFFFFFFFFFFEEF55F00F0013
:10269000F00F32FDDFFFF88F10F00F00F00F77FF23
:1026A000FFFFFFEFFEFFEFFEFFEFFEFFEFFEFEEF8F
:1026B000FFFFFFFFFFFFFFFFFFFFFFEFFEFFEFFE4C
:1026C000FFEFFEFFEFFEFFEFFEFFFFAAF22F00F08D
:1026D0000F00F54FFFFEEF21F00F00F00F66FDDF5A
:1026E000FFFFEFFEFFEFFEFFEFFEFFEFFEFFEFEE5F
:1026F000FFFFFFFFFFFFFFFFFFFFFFFFFFFF99F35C
:102700002F00F00F00F44FFFFFFF77F10F00F00FE5
:1027100000F54FDDFFFFFFFFFFFFFFFFFFFFFFFFA4
:10272000FFFFFFFFFFFFFFFFFFFFFFFFFFFFFFFFB9
:10273000FFFFFFFFFFFFFFFFFFFFFFFFFFFFFFFFA9
:10274000FFFFFFFFFFFFFFFFFFFFFFFFFFFFFFFF99
:10275000FFFF65F00F00F00F32FDDFFFF88F10F084
:102760000F00F00F88FFFFFFFFFFFFFFFFFFFFFFDE
:10277000FFFFFFFFFFFFFFFFFFFFFFFFFFFFFFFF69
:10278000FFFFFFFFFFFFFFFFFFFFFFFFFFFFFFFF59
:10279000FFBBF22F00F00F00F54FFFFEEF21F00F0F
:1027A00000F00F76FEEFFFFFFFFFFFFFFFFFFFFFD1
:1027B000FFFFFFFFFFFFFFFFFFFFFFFFFFFFFFFF29
:1027C000FFFFFFFF99F32F00F00F00F54FFFFFFF12
:1027D00043F00F00F00F22FAAFFFFFFFFFFFFFFFF4
:1027E000FFFFFFFFFFFFFFFFFFFFFFFFFFFFFFFFF9
:1027F000FFFFFFFFFFFFFFFFFFFFFFFFFFFFFFFFE9
:10280000FFFFFFFFFFFFFFFFFFFFFFFFFFFFFFFFD8
:10281000FFFFFFFFFFFFFFFF55F00F00F00F32FD3E
:10282000DFFFF88F10F00F00F00F88FFFFFFFFFFB2
:10283000FFFFFFFFFFFFFFFFFFFFFFFFFFFFFFFFA8
:10284000FFFFFFFFFFFFFFFFFFFFFFFFFFFFFFFF98
:10285000FFFFFFFFFFFFFFBAF22F00F00F00F54F61
:10286000FFFEEF21F00F00F00F66FEEFFFFFFFFF0E
:10287000FFFFFFFFFFFFFFFFFFFFFFFFFFFFFFFF68
:10288000FFFFFFFFFFFFFFFFFFFF99F32F00F00F98
:1028900000F54FFFFEEF32F00F00F00F54FDDFFFA9
:1028A000FFFFFFFFFFFFFFFFFFFFFFFFFFFFFFFF38
:1028B000FFFFFFFFFFFFFFFFFFFFFFFFFFFFFFFF28
:1028C000FFFFFFFFFFFFFFFFFFFFFFFFFFFFFFFF18
:1028D000FFFFFFFFFFFFFFFFFFFFFFFFFFFF55F0C1
:1028E0000F00F00F32FDDFFFF88F10F00F00F00F38
:1028F00088FFFFFFFFFFFFFFFFFFFFFFFFFFFFFF5F
:10290000FFFFFFFFFFFFFFFFFFFFFFFFFFFFFFFFD7
:10291000FFFFFFFFFFFFFFFFFFFFFFFFFFBAF22FE9
:1029200000F00F00F54FFFFEEF21F00F00F00F66F3
:10293000FEEFFFFFFFFFFFFFFFFFFFFFFFFFFFFFB8
:10294000FFFFFFFFFFFFFFFFFFFFFFFFFFFFFFFF97
:1029500099F32F00F00F00F54FFFFEEF32F00F005C
:10296000F00F55FEDFFFFFFFFFFFFFFFFFFFFFFF41
:10297000FFFFFFFFFFFFFFFFFFFFFFFFFFFFFFFF67
:10298000FFFFFFFFFFFFFFFFFFFFFFFFFFFFFFFF57
:10299000FFFFFFFFFFFFFFFFFFFFFFFFFFFFFFFF47
:1029A000FFFFFFFF55F00F00F00F32FDDFFFF88F44
:1029B00010F00F00F00F88FFFFFFFFFFFFFFFFFF8A
:1029C000FFFFFFFFFFFFFFFFFFFFFFFFFFFFFFFF17
:1029D000FFFFFFFFFFFFFFFFFFFFFFFFFFFFFFFF07
:1029E000FFFFFFBAF22F00F00F00F54FFFFEEF21BF
:1029F000F00F00F00F66FEEFFFFFFFFFFFFFFFFF8E
:102A0000FFFFFFFFFFFFFFFFFFFFFFFFFFFFFFFFD6
:102A1000FFFFFFFFFFFF99F32F00F00F00F54FFFBF
:102A2000FEEF32F00F00F00F55FDDFFFFFFFFFFF5D
:102A3000FFFFFFFFFFFFFFFFFFFFFFFFFFFFFFFFA6
:102A4000FFFFFFFFFFFFFFFFFFFFFFFFFFFFFFFF96
:102A5000FFFFFFFFFFFFFFFFFFFFFFFFFFFFFFFF86
:102A6000FFFFFFFFFFFFFFFFFFFF55F00F00F00F1D
:102A700032FDDFFFF88F10F00F00F00F88FFFFFF2F
:102A8000FFFFFFFFFFFFFFFFFFFFFFFFFFFFFFFF56
:102A9000FFFFFFFFFFFFFFFFFFFFFFFFFFFFFFFF46
:102AA000FFFFFFFFFFFFFFFFFFBAF22F00F00F0055
:102AB000F54FFFFEEF21F00F00F00F66FEEFFFFF76
:102AC000FFFFFFFFFFFFFFFFFFFFFFFFFFFFFFFF16
:102AD000FFFFFFFFFFFFFFFFFFFFFFFF99F32F0047
:102AE000F00F00F54FFFFEEF32F00F00F00F55FD35
:102AF000DFFFFFFFFFFFFFFFFFFFFFFFFFFFFFFF06
:102B0000FFFFFFFFFFFFFFFFFFFFFFFFFFFFFFFFD5
:102B1000FFFFFFFFFFFFFFFFFFFFFFFFFFFFFFFFC5
:102B2000FFFFFFFFFFFFFFFFFFFFFFFFFFFFFFFFB5
:102B300055F00F00F00F32FDDFFFF88F10F00F009F
:102B4000F00F88FFFFFFFFFFFFFFFFFFFFFFFFFF0B
:102B5000FFFFFFFFFFFFFFFFFFFFFFFFFFFFFFFF85
:102B6000FFFFFFFFFFFFFFFFFFFFFFFFFFFFFFBABA
:102B7000F22F00F00F00F54FFFFEEF21F00F00F0F5
:102B80000F66FEEFFFFFFFFFFFFFFFFFFFFFFFFFEF
:102B9000FFFFFFFFFFFFFFFFFFFFFFFFFFFFFFFF45
:102BA000FFFF99F32F00F00F00F54FFFFEEF32F01B
:102BB0000F00F00F55FDDFFFFFFFFFFFFFFFFFFFDF
:102BC000FFFFFFFFFFFFFFFFFFFFFFFFFFFFFFFF15
:102BD000FFFFFFFFFFFFFFFFFFFFFFFFFFFFFFFF05
:102BE000FFFFFFFFFFFFFFFFFFFFFFFFFFFFFFFFF5
:102BF000FFFFFFFFFFFF55F00F00F00F32FDDFFF7B
:102C0000F88F10F00F00F00F88FFFFFFFFFFFFFFAE
:102C1000FFFFFFFFFFFFFFFFFFFFFFFFFFFFFFFFC4
:102C2000FFFFFFFFFFFFFFFFFFFFFFFFFFFFFFFFB4
:102C3000FFFFFFFFFFBAF22F00F00F00F54FFFFE7E
:102C4000EF21F00F00F00F66FEEFFFFFFFFFFFFF29
:102C5000FFFFFFFFFFFFFFFFFFFFFFFFFFFFFFFF84
:102C6000FFFFFFFFFFFFFFFF99F32F00F00F00F5BD
:102C70004FFFFEEF32F00F00F00F55FDDFFFFFFFBB
:102C8000FFFFFFFFFFFFFFFFFFFFFFFFFFFFFFFF54
:102C9000FFFFFFFFFFFFFFFFFFFFFFFFFFFFFFFF44
:102CA000FFFFFFFFFFFFFFFFFFFFFFFFFFFFFFFF34
:102CB000FFFFFFFFFFFFFFFFFFFFFFFF55F00F00CC
:102CC000F00F32FDDFFFF88F10F00F00F00F88FFDC
:102CD000FFFFFFFFFFFFFFFFFFFFFFFFFFFFFFFF04
:102CE000FFFFFFFFFFFFFFFFFFFFFFFFFFFFFFFFF4
:102CF000FFFFFFFFFFFFFFFFFFFFFFBAF22F00F014
:102D00000F00F54FFFFEEF21F00F00F00F66FEEF12
:102D1000FFFFFFFFFFFFFFFFFFFFFFFFFFFFFFFFC3
:102D2000FFFFFFFFFFFFFFFFFFFFFFFFFFFF99F325
:102D30002F00F00F00F54FFFFEEF32F00F00F00F05
:102D400055FDDFFFFFFFFFFFFFFFFFFFFFFFFFFF5F
:102D5000FFFFFFFFFFFFFFFFFFFFFFFFFFFFFFFF83
:102D6000FFFFFFFFFFFFFFFFFFFFFFFFFFFFFFFF73
:102D7000FFFFFFFFFFFFFFFFFFFFFFFFFFFFFFFF63
:102D8000FFFF55F00F00F00F32FDDFFFF88F10F05E
:102D90000F00F00F88FFFFFFFFFFFFFFFFFFFFFFA8
:102DA000FFFFFFFFFFFFFFFFFFFFFFFFFFFFFFFF33
:102DB000FFFFFFFFFFFFFFFFFFFFFFFFFFFFFFFF23
:102DC000FFBAF22F00F00F00F54FFFFEEF21F00FDA
:102DD00000F00F66FEEFFFFFFFFFFFFFFFFFFFFFAB
:102DE000FFFFFFFFFFFFFFFFFFFFFFFFFFFFFFFFF3
:102DF000FFFFFFFF99F32F00F00F00F54FFFFEEFED
:102E000032F00F00F00F55FDDFFFFFFFFFFFFFFF68
:102E1000FFFFFFFFFFFFFFFFFFFFFFFFFFFFFFFFC2
:102E2000FFFFFFFFFFFFFFFFFFFFFFFFFFFFFFFFB2
:102E3000FFFFFFFFFFFFFFFFFFFFFFFFFFFFFFFFA2
:102E4000FFFFFFFFFFFFFFFF55F00F00F00F32FD08
:102E5000DFFFF88F10F00F00F00F88FFFFFFFFFF7C
:102E6000FFFFFFFFFFFFFFFFFFFFFFFFFFFFFFFF72
:102E7000FFFFFFFFFFFFFFFFFFFFFFFFFFFFFFFF62
:102E8000FFFFFFFFFFFFFFBAF22F00F00F00F54F2B
:102E9000FFFEEF21F00F00F00F66FEEFFFFFFFFFD8
:102EA000FFFFFFFFFFFFFFFFFFFFFFFFFFFFFFFF32
:102EB000FFFFFFFFFFFFFFFFFFFF99F32F00F00F62
:102EC00000F54FFFFEEF32F00F00F00F55FDDFFF72
:102ED000FFFFFFFFFFFFFFFFFFFFFFFFFFFFFFFF02
:102EE000FFFFFFFFFFFFFFFFFFFFFFFFFFFFFFFFF2
:102EF000FFFFFFFFFFFFFFFFFFFFFFFFFFFFFFFFE2
:102F0000FFFFFFFFFFFFFFFFFFFFFFFFFFFF55F08A
:102F10000F00F00F32FDDFFFF88F10F00F00F00F01
:102F200088FFFFFFFFFFFFFFFFFFFFFFFFFFFFFF28
:102F3000FFFFFFFFFFFFFFFFFFFFFFFFFFFFFFFFA1
:102F4000FFFFFFFFFFFFFFFFFFFFFFFFFFBAF22FB3
:102F500000F00F00F54FFFFEEF21F00F00F00F66BD
:102F6000FEEFFFFFFFFFFFFFFFFFFFFFFFFFFFFF82
:102F7000FFFFFFFFFFFFFFFFFFFFFFFFFFFFFFFF61
:102F800099F32F00F00F00F54FFFFEEF32F00F0026
:102F9000F00F55FDDFFFFFFFFFFFFFFFFFFFFFFF0C
:102FA000FFFFFFFFFFFFFFFFFFFFFFFFFFFFFFFF31
:102FB000FFFFFFFFFFFFFFFFFFFFFFFFFFFFFFFF21
:102FC000FFFFFFFFFFFFFFFFFFFFFFFFFFFFFFFF11
:102FD000FFFFFFFF55F00F00F00F32FDDFFFF88F0E
:102FE00010F00F00F00F88FFFFFFFFFFFFFFFFFF54
:102FF000FFFFFFFFFFFFFFFFFFFFFFFFFFFFFFFFE1
:10300000FFFFFFFFFFFFFFFFFFFFFFFFFFFFFFFFD0
:10301000FFFFFFBAF22F00F00F00F54FFFFEEF2188
:10302000F00F00F00F66FEEFFFFFFFFFFFFFFFFF57
:10303000FFFFFFFFFFFFFFFFFFFFFFFFFFFFFFFFA0
:10304000FFFFFFFFFFFF99F32F00F00F00F54FFF89
:10305000FEEF32F00F00F00F55FDDFFFFFFFFFFF27
:10306000FFFFFFFFFFFFFFFFFFFFFFFFFFFFFFFF70
:10307000FFFFFFFFFFFFFFFFFFFFFFFFFFFFFFFF60
:10308000FFFFFFFFFFFFFFFFFFFFFFFFFFFFFFFF50
:10309000FFFFFFFFFFFFFFFFFFFF55F00F00F00FE7
:1030A00032FDDFFFF88F10F00F00F00F88FFFFFFF9
:1030B000FFFFFFFFFFFFFFFFFFFFFFFFFFFFFFFF20
:1030C000FFFFFFFFFFFFFFFFFFFFFFFFFFFFFFFF10
:1030D000FFFFFFFFFFFFFFFFFFBAF22F00F00F001F
:1030E000F54FFFFEEF21F00F00F00F66FEEFFFFF40
:1030F000FFFFFFFFFFFFFFFFFFFFFFFFFFFFFFFFE0
:10310000FFFFFFFFFFFFFFFFFFFFFFFF99F32F0010
:10311000F00F00F54FFFFEEF32F00F00F00F55FDFE
:10312000DFFFFFFFFFFFFFFFFFFFFFFFFFFFFFFFCF
:10313000FFFFFFFFFFFFFFFFFFFFFFFFFFFFFFFF9F
:10314000FFFFFFFFFFFFFFFFFFFFFFFFFFFFFFFF8F
:10315000FFFFFFFFFFFFFFFFFFFFFFFFFFFFFFFF7F
:1031600055F00F00F00F32FDDFFFF88F10F00F0069
:10317000F00F88FFFFFFFFFFFFFFFFFFFFFFFFFFD5
:10318000FFFFFFFFFFFFFFFFFFFFFFFFFFFFFFFF4F
:10319000FFFFFFFFFFFFFFFFFFFFFFFFFFFFFFBA84
:1031A000F22F00F00F00F54FFFFEEF21F00F00F0BF
:1031B0000F66FEEFFFFFFFFFFFFFFFFFFFFFFFFFB9
:1031C000FFFFFFFFFFFFFFFFFFFFFFFFFFFFFFFF0F
:1031D000FFFF99F32F00F00F00F54FFFFEEF32F0E5
:1031E0000F00F00F55FDDFFFFFFFFFFFFFFFFFFFA9
:1031F000FFFFFFFFFFFFFFFFFFFFFFFFFFFFFFFFDF
:10320000FFFFFFFFFFFFFFFFFFFFFFFFFFFFFFFFCE
:10321000FFFFFFFFFFFFFFFFFFFFFFFFFFFFFFFFBE
:10322000FFFFFFFFFFFF55F00F00F00F32FDDFFF44
:10323000F88F10F00F00F00F88FFFFFFFFFFFFFF78
:10324000FFFFFFFFFFFFFFFFFFFFFFFFFFFFFFFF8E
:10325000FFFFFFFFFFFFFFFFFFFFFFFFFFFFFFFF7E
:10326000FFFFFFFFFFBAF22F00F00F00F54FFFFE48
:10327000EF21F00F00F00F66FEEFFFFFFFFFFFFFF3
:10328000FFFFFFFFFFFFFFFFFFFFFFFFFFFFFFFF4E
:10329000FFFFFFFFFFFFFFFF99F32F00F00F00F587
:1032A0004FFFFEEF32F00F00F00F55FDDFFFFFFF85
:1032B000FFFFFFFFFFFFFFFFFFFFFFFFFFFFFFFF1E
:1032C000FFFFFFFFFFFFFFFFFFFFFFFFFFFFFFFF0E
:1032D000FFFFFFFFFFFFFFFFFFFFFFFFFFFFFFFFFE
:1032E000FFFFFFFFFFFFFFFFFFFFFFFF55F00F0096
:1032F000F00F32FDDFFFF88F10F00F00F00F88FFA6
:10330000FFFFFFFFFFFFFFFFFFFFFFFFFFFFFFFFCD
:10331000FFFFFFFFFFFFFFFFFFFFFFFFFFFFFFFFBD
:10332000FFFFFFFFFFFFFFFFFFFFFFBAF22F00F0DD
:103330000F00F54FFFFEEF21F00F00F00F66FEEFDC
:10334000FFFFFFFFFFFFFFFFFFFFFFFFFFFFFFFF8D
:10335000FFFFFFFFFFFFFFFFFFFFFFFFFFFF99F3EF
:103360002F00F00F00F54FFFFEEF32F00F00F00FCF
:1033700065FEEFFFFFFFFFFFFFFFFFFFFFFFFFFF08
:10338000FFFFFFFFFFFFFFFFFFFFFFFFFFFFFFFF4D
:10339000FFFFFFFFFFFFFFFFFFFFFFFFFFFFFFFF3D
:1033A000FFFFFFFFFFFFFFFFFFFFFFFFFFFFFFFF2D
:1033B000FFFF55F00F00F00F32FDDFFFF88F10F028
:1033C0000F00F00F88FFFFFFFFFFFFFFFFFFFFFF72
:1033D000FFFFFFFFFFFFFFFFFFFFFFFFFFFFFFFFFD
:1033E000FFFFFFFFFFFFFFFFFFFFFFFFFFFFFFFFED
:1033F000FFBAF22F00F00F00F54FFFFEEF21F00FA4
:1034000000F00F66FEEFFFFFFFFFFFFFFFFFFFFF74
:10341000FFFFFFFFFFFFFFFFFFFFFFFFFFFFFFFFBC
:10342000FFFFFFFF99F32F00F00F00F54FFFFEEFB6
:1034300032F00F00F00F43FA9FCCFBBFBBFBBFBBCA
:10344000FBBFBBFBBFBBFBBFBBFBBFBBFBBFBBFB38
:10345000BFBBFBBFBBFBBFBBFBBFBBFBBFDDFFFFFE
:10346000FFFFFFFFFFFFFFFFFFFFFFFFFFFFFFFF6C
:10347000FFFFFFFFFFFFFFFF55F00F00F00F32FDD2
:10348000DFFFF88F10F00F00F00F88FFFFFFFFFF46
:10349000FFFFFFFFFFFFFFFFFFFFFFFFFFFFFFFF3C
:1034A000FFFFFFFFFFFFFFFFFFFFFFFFFFFFFFFF2C
:1034B000FFFFFFFFFFFFFFBAF22F00F00F00F54FF5
:1034C000FFFEEF21F00F00F00F66FEEFFFFFFFFFA2
:1034D000FFFFFFFFFFFFFFFFFFFFFFFFFFFFFFFFFC
:1034E000FFFFFFFFFFFFFFFFFFFF99F32F00F00F2C
:1034F00000F54FFFFEEF32F00F00F00F00F00F006D
:10350000F00F00F00F00F00F00F00F00F00F00F0D0
:103510000F00F00F00F00F00F00F00F00F00F00FA1
:1035200000F00F65FFFFFFFFFFFFFFFFFFFFFFFF43
:10353000FFFFFFFFFFFFFFFFFFFFFFFFFFFF55F054
:103540000F00F00F32FDDFFFF88F10F00F00F00FCB
:1035500088FFFFFFFFFFFFFFFFFFFFFFFFFFFFFFF2
:10356000FFFFFFFFFFFFFFFFFFFFFFFFFFFFFFFF6B
:10357000FFFFFFFFFFFFFFFFFFFFFFFFFFBAF22F7D
:1035800000F00F00F54FFFFEEF21F00F00F00F6687
:10359000FEEFFFFFFFFFFFFFFFFFFFFFFFFFFFFF4C
:1035A000FFFFFFFFFFFFFFFFFFFFFFFFFFFFFFFF2B
:1035B00099F32F00F00F00F54FFFFEEF32F00F00F0
:1035C000F00F00F00F00F00F00F00F00F00F00F010
:1035D0000F00F00F00F00F00F00F00F00F00F00FE1
:1035E00000F00F00F00F00F00F55FFFFFFFFFFFF8F
:1035F000FFFFFFFFFFFFFFFFFFFFFFFFFFFFFFFFDB
:10360000FFFFFFFF55F00F00F00F32FDDFFFF88FD7
:1036100010F00F00F00F88FFFFFFFFFFFFFFFFFF1D
:10362000FFFFFFFFFFFFFFFFFFFFFFFFFFFFFFFFAA
:10363000FFFFFFFFFFFFFFFFFFFFFFFFFFFFFFFF9A
:10364000FFFFFFBAF22F00F00F00F54FFFFEEF2152
:10365000F00F00F00F66FEEFFFFFFFFFFFFFFFFF21
:10366000FFFFFFFFFFFFFFFFFFFFFFFFFFFFFFFF6A
:10367000FFFFFFFFFFFF99F32F00F00F00F54FFF53
:10368000FEEF32F00F00F00F00F00F00F00F00F02F
:103690000F00F00F00F00F00F00F00F00F00F00F20
:1036A00000F00F00F00F00F00F00F00F00F00F65BA
:1036B000FFFFFFFFFFFFFFFFFFFFFFFFFFFFFFFF1A
:1036C000FFFFFFFFFFFFFFFFFFFF55F00F00F00FB1
:1036D00032FDDFFFF88F10F00F00F00F88FFFFFFC3
:1036E000FFFFFFFFFFFFFFFFFFFFFFFFFFFFFFFFEA
:1036F000FFFFFFFFFFFFFFFFFFFFFFFFFFFFFFFFDA
:10370000FFFFFFFFFFFFFFFFFFBAF22F00F00F00E8
:10371000F54FFFFEEF21F00F00F00F66FEEFFFFF09
:10372000FFFFFFFFFFFFFFFFFFFFFFFFFFFFFFFFA9
:10373000FFFFFFFFFFFFFFFFFFFFFFFF99F32F00DA
:10374000F00F00F54FFFFEEF22F00F00F00F00F03A
:103750000F00F00F00F00F00F00F00F00F00F00F5F
:1037600000F00F00F00F00F00F00F00F00F00F005E
:10377000F00F00F00F55FFFFFFFFFFFFFFFFFFFF00
:10378000FFFFFFFFFFFFFFFFFFFFFFFFFFFFFFFF49
:1037900055F00F00F00F32FDDFFFF88F10F00F0033
:1037A000F00F88FFFFFFFFFFFFFFFFFFFFFFFFFF9F
:1037B000FFFFFFFFFFFFFFFFFFFFFFFFFFFFFFFF19
:1037C000FFFFFFFFFFFFFFFFFFFFFFFFFFFFFFBA4E
:1037D000F22F00F00F00F54FFFFEEF21F00F00F089
:1037E0000F66FEEFFFFFFFFFFFFFFFFFFFFFFFFF83
:1037F000FFFFFFFFFFFFFFFFFFFFFFFFFFFFFFFFD9
:10380000FFFF99F32F00F00F00F44FFFFFFFAAF91D
:103810009F99F99F99F99F99F99F99F99F99F99F14
:1038200099F99F99F99F99F99F99F99F99F99F990A
:10383000F99F99F99F99F99F99F99FBBFFFFFFFFA6
:10384000FFFFFFFFFFFFFFFFFFFFFFFFFFFFFFFF88
:10385000FFFFFFFFFFFF55F00F00F00F32FDDFFF0E
:10386000F88F10F00F00F00F88FFFFFFFFFFFFFF42
:10387000FFFFFFFFFFFFFFFFFFFFFFFFFFFFFFFF58
:10388000FFFFFFFFFFFFFFFFFFFFFFFFFFFFFFFF48
:10389000FFFFFFFFFFBAF22F00F00F00F54FFFFE12
:1038A000EF21F00F00F00F66FEEFFFFFFFFFFFFFBD
:1038B000FFFFFFFFFFFFFFFFFFFFFFFFFFFFFFFF18
:1038C000FFFFFFFFFFFFFFFF99F32F00F00F00F452
:1038D0004FFFFFFFFFFFFFFFFFFFFFFFFFFFFFFFA8
:1038E000FFFFFFFFFFFFFFFFFFFFFFFFFFFFFFFFE8
:1038F000FFFFFFFFFFFFFFFFFFFFFFFFFFFFFFFFD8
:10390000FFFFFFFFFFFFFFFFFFFFFFFFFFFFFFFFC7
:10391000FFFFFFFFFFFFFFFFFFFFFFFF55F00F005F
:10392000F00F32FDDFFFF88F10F00F00F00F88FF6F
:10393000FFFFFFFFFFFFFFFFFFFFFFFFFFFFFFFF97
:10394000FFFFFFFFFFFFFFFFFFFFFFFFFFFFFFFF87
:10395000FFFFFFFFFFFFFFFFFFFFFFBAF22F00F0A7
:103960000F00F54FFFFEEF21F00F00F00F66FEEFA6
:10397000FFFFFFFFFFFFFFFFFFFFFFFFFFFFFFFF57
:10398000FFFFFFFFFFFFFFFFFFFFFFFFFFFF99F3B9
:103990002F00F00F00F44FFFFFFFCCFBBFBBFBBFBE
:1039A000BBFBBFBBFBBFBBFBBFBBFBBFBBFBBFBB13
:1039B000FBBFBBFBBFBBFBBFBBFBBFBBFBBFBBFBC3
:1039C000BFBBFBBFBBFBBFDDFFFFFFFFFFFFFFFF79
:1039D000FFFFFFFFFFFFFFFFFFFFFFFFFFFFFFFFF7
:1039E000FFFF55F00F00F00F32FDDFFFF88F10F0F2
:1039F0000F00F00F88FFFFFFFFFFFFFFFFFFFFFF3C
:103A0000FFFFFFFFFFFFFFFFFFFFFFFFFFFFFFFFC6
:103A1000FFFFFFFFFFFFFFFFFFFFFFFFFFFFFFFFB6
:103A2000FFBAF22F00F00F00F54FFFFEEF21F00F6D
:103A300000F00F66FEEFFFFFFFFFFFFFFFFFFFFF3E
:103A4000FFFFFFFFFFFFFFFFFFFFFFFFFFFFFFFF86
:103A5000FFFFFFFF99F32F00F00F00F54FFFFFFF6F
:103A600044F22F22F22F22F22F22F22F22F22F22C3
:103A7000F22F22F22F22F22F22F22F22F22F22F205
:103A80002F22F22F22F22F22F22F22F22F76FFFF87
:103A9000FFFFFFFFFFFFFFFFFFFFFFFFFFFFFFFF36
:103AA000FFFFFFFFFFFFFFFF55F00F00F00F32FD9C
:103AB000DFFFF88F10F00F00F00F88FFFFFFFFFF10
:103AC000FFFFFFFFFFFFFFFFFFFFFFFFFFFFFFFF06
:103AD000FFFFFFFFFFFFFFFFFFFFFFFFFFFFFFFFF6
:103AE000FFFFFFFFFFFFFFBAF22F00F00F00F54FBF
:103AF000FFFEEF21F00F00F00F66FEEFFFFFFFFF6C
:103B0000FFFFFFFFFFFFFFFFFFFFFFFFFFFFFFFFC5
:103B1000FFFFFFFFFFFFFFFFFFFF99F32F00F00FF5
:103B200000F54FFFFEEF21F00F00F00F00F00F0047
:103B3000F00F00F00F00F00F00F00F00F00F00F09A
:103B40000F00F00F00F00F00F00F00F00F00F00F6B
:103B500000F00F54FFFFFFFFFFFFFFFFFFFFFFFF1E
:103B6000FFFFFFFFFFFFFFFFFFFFFFFFFFFF55F01E
:103B70000F00F00F32FDDFFFF88F10F00F00F00F95
:103B800088FFFFFFFFFFFFFFFFFFFFFFFFFFFFFFBC
:103B9000FFFFFFFFFFFFFFFFFFFFFFFFFFFFFFFF35
:103BA000FFFFFFFFFFFFFFFFFFFFFFFFFFBAF22F47
:103BB00000F00F00F54FFFFEEF21F00F00F00F6651
:103BC000FEEFFFFFFFFFFFFFFFFFFFFFFFFFFFFF16
:103BD000FFFFFFFFFFFFFFFFFFFFFFFFFFFFFFFFF5
:103BE00099F32F00F00F00F54FFFFEEF32F00F00BA
:103BF000F00F00F00F00F00F00F00F00F00F00F0DA
:103C00000F00F00F00F00F00F00F00F00F00F00FAA
:103C100000F00F00F00F00F00F55FFFFFFFFFFFF58
:103C2000FFFFFFFFFFFFFFFFFFFFFFFFFFFFFFFFA4
:103C3000FFFFFFFF55F00F00F00F32FDDFFFF88FA1
:103C400010F00F00F00F88FFFFFFFFFFFFFFFFFFE7
:103C5000FFFFFFFFFFFFFFFFFFFFFFFFFFFFFFFF74
:103C6000FFFFFFFFFFFFFFFFFFFFFFFFFFFFFFFF64
:103C7000FFFFFFBAF22F00F00F00F54FFFFEEF211C
:103C8000F00F00F00F66FEEFFFFFFFFFFFFFFFFFEB
:103C9000FFFFFFFFFFFFFFFFFFFFFFFFFFFFFFFF34
:103CA000FFFFFFFFFFFF99F32F00F00F00F54FFF1D
:103CB000FEEF32F00F00F00F00F10F10F10F10F1D6
:103CC0000F10F10F10F10F10F10F10F10F10F10F95
:103CD00010F10F10F10F10F10F10F10F10F10F652F
:103CE000FFFFFFFFFFFFFFFFFFFFFFFFFFFFFFFFE4
:103CF000FFFFFFFFFFFFFFFFFFFF55F00F00F00F7B
:103D000032FDDFFFF88F10F00F00F00F88FFFFFF8C
:103D1000FFFFFFFFFFFFFFFFFFFFFFFFFFFFFFFFB3
:103D2000FFFFFFFFFFFFFFFFFFFFFFFFFFFFFFFFA3
:103D3000FFFFFFFFFFFFFFFFFFBAF22F00F00F00B2
:103D4000F54FFFFEEF21F00F00F00F66FEEFFFFFD3
:103D5000FFFFFFFFFFFFFFFFFFFFFFFFFFFFFFFF73
:103D6000FFFFFFFFFFFFFFFFFFFFFFFF99F32F00A4
:103D7000F00F00F54FFFFEEF32F00F00F00F22F6CC
:103D80006F77F77F77F77F77F77F77F77F77F77F23
:103D900077F77F77F77F77F77F77F77F77F77F770B
:103DA000F77F77F77FAAFFFFFFFFFFFFFFFFFFFF10
:103DB000FFFFFFFFFFFFFFFFFFFFFFFFFFFFFFFF13
:103DC00055F00F00F00F32FDDFFFF88F10F00F00FD
:103DD000F00F88FFFFFFFFFFFFFFFFFFFFFFFFFF69
:103DE000FFFFFFFFFFFFFFFFFFFFFFFFFFFFFFFFE3
:103DF000FFFFFFFFFFFFFFFFFFFFFFFFFFFFFFBA18
:103E0000F22F00F00F00F54FFFFEEF21F00F00F052
:103E10000F66FEEFFFFFFFFFFFFFFFFFFFFFFFFF4C
:103E2000FFFFFFFFFFFFFFFFFFFFFFFFFFFFFFFFA2
:103E3000FFFF99F32F00F00F00F54FFFFEEF32F078
:103E40000F00F00F65FEEFFFFFFFFFFFFFFFFFFF1B
:103E5000FFFFFFFFFFFFFFFFFFFFFFFFFFFFFFFF72
:103E6000FFFFFFFFFFFFFFFFFFFFFFFFFFFFFFFF62
:103E7000FFFFFFFFFFFFFFFFFFFFFFFFFFFFFFFF52
:103E8000FFFFFFFFFFFF55F00F00F00F32FDDFFFD8
:103E9000F88F10F00F00F00F88FFFFFFFFFFFFFF0C
:103EA000FFFFFFFFFFFFFFFFFFFFFFFFFFFFFFFF22
:103EB000FFFFFFFFFFFFFFFFFFFFFFFFFFFFFFFF12
:103EC000FFFFFFFFFFBAF22F00F00F00F54FFFFEDC
:103ED000EF21F00F00F00F66FEEFFFFFFFFFFFFF87
:103EE000FFFFFFFFFFFFFFFFFFFFFFFFFFFFFFFFE2
:103EF000FFFFFFFFFFFFFFFF99F32F00F00F00F51B
:103F00004FFFFEEF32F00F00F00F55FDDFFFFFFF18
:103F1000FFFFFFFFFFFFFFFFFFFFFFFFFFFFFFFFB1
:103F2000FFFFFFFFFFFFFFFFFFFFFFFFFFFFFFFFA1
:103F3000FFFFFFFFFFFFFFFFFFFFFFFFFFFFFFFF91
:103F4000FFFFFFFFFFFFFFFFFFFFFFFF55F00F0029
:103F5000F00F32FDDFFFF88F10F00F00F00F88FF39
:103F6000FFFFFFFFFFFFFFFFFFFFFFFFFFFFFFFF61
:103F7000FFFFFFFFFFFFFFFFFFFFFFFFFFFFFFFF51
:103F8000FFFFFFFFFFFFFFFFFFFFFFBAF22F00F071
:103F90000F00F54FFFFEEF21F00F00F00F66FEEF70
:103FA000FFFFFFFFFFFFFFFFFFFFFFFFFFFFFFFF21
:103FB000FFFFFFFFFFFFFFFFFFFFFFFFFFFF99F383
:103FC0002F00F00F00F54FFFFEEF32F00F00F00F63
:103FD00055FDDFFFFFFFFFFFFFFFFFFFFFFFFFFFBD
:103FE000FFFFFFFFFFFFFFFFFFFFFFFFFFFFFFFFE1
:103FF000FFFFFFFFFFFFFFFFFFFFFFFFFFFFFFFFD1
:10400000FFFFFFFFFFFFFFFFFFFFFFFFFFFFFFFFC0
:10401000FFFF55F00F00F00F32FDDFFFF88F10F0BB
:104020000F00F00F88FFFFFFFFFFFFFFFFFFFFFF05
:10403000FFFFFFFFFFFFFFFFFFFFFFFFFFFFFFFF90
:10404000FFFFFFFFFFFFFFFFFFFFFFFFFFFFFFFF80
:10405000FFBAF22F00F00F00F54FFFFEEF21F00F37
:1040600000F00F66FEEFFFFFFFFFFFFFFFFFFFFF08
:10407000FFFFFFFFFFFFFFFFFFFFFFFFFFFFFFFF50
:10408000FFFFFFFF99F32F00F00F00F54FFFFEEF4A
:1040900032F00F00F00F55FDDFFFFFFFFFFFFFFFC6
:1040A000FFFFFFFFFFFFFFFFFFFFFFFFFFFFFFFF20
:1040B000FFFFFFFFFFFFFFFFFFFFFFFFFFFFFFFF10
:1040C000FFFFFFFFFFFFFFFFFFFFFFFFFFFFFFFF00
:1040D000FFFFFFFFFFFFFFFF55F00F00F00F32FD66
:1040E000DFFFF88F10F00F00F00F88FFFFFFFFFFDA
:1040F000FFFFFFFFFFFFFFFFFFFFFFFFFFFFFFFFD0
:10410000FFFFFFFFFFFFFFFFFFFFFFFFFFFFFFFFBF
:10411000FFFFFFFFFFFFFFBAF22F00F00F00F54F88
:10412000FFFEEF21F00F00F00F66FEEFFFFFFFFF35
:10413000FFFFFFFFFFFFFFFFFFFFFFFFFFFFFFFF8F
:10414000FFFFFFFFFFFFFFFFFFFF99F32F00F00FBF
:1041500000F54FFFFEEF32F00F00F00F55FDDFFFCF
:10416000FFFFFFFFFFFFFFFFFFFFFFFFFFFFFFFF5F
:10417000FFFFFFFFFFFFFFFFFFFFFFFFFFFFFFFF4F
:10418000FFFFFFFFFFFFFFFFFFFFFFFFFFFFFFFF3F
:10419000FFFFFFFFFFFFFFFFFFFFFFFFFFFF55F0E8
:1041A0000F00F00F32FDDFFFF88F10F00F00F00F5F
:1041B00088FFFFFFFFFFFFFFFFFFFFFFFFFFFFFF86
:1041C000FFFFFFFFFFFFFFFFFFFFFFFFFFFFFFFFFF
:1041D000FFFFFFFFFFFFFFFFFFFFFFFFFFBAF22F11
:1041E00000F00F00F54FFFFEEF21F00F00F00F661B
:1041F000FEEFFFFFFFFFFFFFFFFFFFFFFFFFFFFFE0
:10420000FFFFFFFFFFFFFFFFFFFFFFFFFFFFFFFFBE
:1042100099F32F00F00F00F54FFFFEEF32F00F0083
:10422000F00F55FDDFFFFFFFFFFFFFFFFFFFFFFF69
:10423000FFFFFFFFFFFFFFFFFFFFFFFFFFFFFFFF8E
:10424000FFFFFFFFFFFFFFFFFFFFFFFFFFFFFFFF7E
:10425000FFFFFFFFFFFFFFFFFFFFFFFFFFFFFFFF6E
:10426000FFFFFFFF55F00F00F00F32FDDFFFF88F6B
:1042700010F00F00F00F88FFFFFFFFFFFFFFFFFFB1
:10428000FFFFFFFFFFFFFFFFFFFFFFFFFFFFFFFF3E
:10429000FFFFFFFFFFFFFFFFFFFFFFFFFFFFFFFF2E
:1042A000FFFFFFBAF22F00F00F00F54FFFFEEF21E6
:1042B000F00F00F00F66FEEFFFFFFFFFFFFFFFFFB5
:1042C000FFFFFFFFFFFFFFFFFFFFFFFFFFFFFFFFFE
:1042D000FFFFFFFFFFFF99F32F00F00F00F54FFFE7
:1042E000FEEF32F00F00F00F55FDDFFFFFFFFFFF85
:1042F000FFFFFFFFFFFFFFFFFFFFFFFFFFFFFFFFCE
:10430000FFFFFFFFFFFFFFFFFFFFFFFFFFFFFFFFBD
:10431000FFFFFFFFFFFFFFFFFFFFFFFFFFFFFFFFAD
:10432000FFFFFFFFFFFFFFFFFFFF55F00F00F00F44
:1043300032FDDFFFF88F10F00F00F00F88FFFFFF56
:10434000FFFFFFFFFFFFFFFFFFFFFFFFFFFFFFFF7D
:10435000FFFFFFFFFFFFFFFFFFFFFFFFFFFFFFFF6D
:10436000FFFFFFFFFFFFFFFFFFBAF22F00F00F007C
:10437000F54FFFFEEF21F00F00F00F66FEEFFFFF9D
:10438000FFFFFFFFFFFFFFFFFFFFFFFFFFFFFFFF3D
:10439000FFFFFFFFFFFFFFFFFFFFFFFF99F32F006E
:1043A000F00F00F54FFFFEEF32F00F00F00F55FD5C
:1043B000DFFFFFFFFFFFFFFFFFFFFFFFFFFFFFFF2D
:1043C000FFFFFFFFFFFFFFFFFFFFFFFFFFFFFFFFFD
:1043D000FFFFFFFFFFFFFFFFFFFFFFFFFFFFFFFFED
:1043E000FFFFFFFFFFFFFFFFFFFFFFFFFFFFFFFFDD
:1043F00055F00F00F00F32FDDFFFF88F10F00F00C7
:10440000F00F88FFFFFFFFFFFFFFFFFFFFFFFFFF32
:10441000FFFFFFFFFFFFFFFFFFFFFFFFFFFFFFFFAC
:10442000FFFFFFFFFFFFFFFFFFFFFFFFFFFFFFBAE1
:10443000F22F00F00F00F54FFFFEEF21F00F00F01C
:104440000F66FEEFFFFFFFFFFFFFFFFFFFFFFFFF16
:10445000FFFFFFFFFFFFFFFFFFFFFFFFFFFFFFFF6C
:10446000FFFF99F32F00F00F00F54FFFFEEF32F042
:104470000F00F00F55FDDFFFFFFFFFFFFFFFFFFF06
:10448000FFFFFFFFFFFFFFFFFFFFFFFFFFFFFFFF3C
:10449000FFFFFFFFFFFFFFFFFFFFFFFFFFFFFFFF2C
:1044A000FFFFFFFFFFFFFFFFFFFFFFFFFFFFFFFF1C
:1044B000FFFFFFFFFFFF55F00F00F00F32FDDFFFA2
:1044C000F88F10F00F00F00F88FFFFFFFFFFFFFFD6
:1044D000FFFFFFFFFFFFFFFFFFFFFFFFFFFFFFFFEC
:1044E000FFFFFFFFFFFFFFFFFFFFFFFFFFFFFFFFDC
:1044F000FFFFFFFFFFBAF22F00F00F00F54FFFFEA6
:10450000EF21F00F00F00F66FEEFFFFFFFFFFFFF50
:10451000FFFFFFFFFFFFFFFFFFFFFFFFFFFFFFFFAB
:10452000FFFFFFFFFFFFFFFF99F32F00F00F00F5E4
:104530004FFFFEEF32F00F00F00F55FDDFFFFFFFE2
:10454000FFFFFFFFFFFFFFFFFFFFFFFFFFFFFFFF7B
:10455000FFFFFFFFFFFFFFFFFFFFFFFFFFFFFFFF6B
:10456000FFFFFFFFFFFFFFFFFFFFFFFFFFFFFFFF5B
:10457000FFFFFFFFFFFFFFFFFFFFFFFF55F00F00F3
:10458000F00F32FDDFFFF88F10F00F00F00F88FF03
:10459000FFFFFFFFFFFFFFFFFFFFFFFFFFFFFFFF2B
:1045A000FFFFFFFFFFFFFFFFFFFFFFFFFFFFFFFF1B
:1045B000FFFFFFFFFFFFFFFFFFFFFFBAF22F00F03B
:1045C0000F00F54FFFFEEF21F00F00F00F66FEEF3A
:1045D000FFFFFFFFFFFFFFFFFFFFFFFFFFFFFFFFEB
:1045E000FFFFFFFFFFFFFFFFFFFFFFFFFFFF99F34D
:1045F0002F00F00F00F54FFFFEEF32F00F00F00F2D
:1046000055FDDFFFFFFFFFFFFFFFFFFFFFFFFFFF86
:10461000FFFFFFFFFFFFFFFFFFFFFFFFFFFFFFFFAA
:10462000FFFFFFFFFFFFFFFFFFFFFFFFFFFFFFFF9A
:10463000FFFFFFFFFFFFFFFFFFFFFFFFFFFFFFFF8A
:10464000FFFF55F00F00F00F32FDDFFFF88F10F085
:104650000F00F00F88FFFFFFFFFFFFFFFFFFFFFFCF
:10466000FFFFFFFFFFFFFFFFFFFFFFFFFFFFFFFF5A
:10467000FFFFFFFFFFFFFFFFFFFFFFFFFFFFFFFF4A
:10468000FFBAF22F00F00F00F54FFFFEEF21F00F01
:1046900000F00F66FEEFFFFFFFFFFFFFFFFFFFFFD2
:1046A000FFFFFFFFFFFFFFFFFFFFFFFFFFFFFFFF1A
:1046B000FFFFFFFF99F32F00F00F00F54FFFFEEF14
:1046C00032F00F00F00F55FDDFFFFFFFFFFFFFFF90
:1046D000FFFFFFFFFFFFFFFFFFFFFFFFFFFFFFFFEA
:1046E000FFFFFFFFFFFFFFFFFFFFFFFFFFFFFFFFDA
:1046F000FFFFFFFFFFFFFFFFFFFFFFFFFFFFFFFFCA
:10470000FFFFFFFFFFFFFFFF55F00F00F00F32FD2F
:10471000DFFFF88F10F00F00F00F88FFFFFFFFFFA3
:10472000FFFFFFFFFFFFFFFFFFFFFFFFFFFFFFFF99
:10473000FFFFFFFFFFFFFFFFFFFFFFFFFFFFFFFF89
:10474000FFFFFFFFFFFFFFBAF22F00F00F00F54F52
:10475000FFFEEF21F00F00F00F66FEEFFFFFFFFFFF
:10476000FFFFFFFFFFFFFFFFFFFFFFFFFFFFFFFF59
:10477000FFFFFFFFFFFFFFFFFFFF99F32F00F00F89
:1047800000F54FFFFEEF32F00F00F00F55FDDFFF99
:10479000FFFFFFFFFFFFFFFFFFFFFFFFFFFFFFFF29
:1047A000FFFFFFFFFFFFFFFFFFFFFFFFFFFFFFFF19
:1047B000FFFFFFFFFFFFFFFFFFFFFFFFFFFFFFFF09
:1047C000FFFFFFFFFFFFFFFFFFFFFFFFFFFF55F0B2
:1047D0000F00F00F32FDDFFFF88F10F00F00F00F29
:1047E00088FFFFFFFFFFFFFFFFFFFFFFFFFFFFFF50
:1047F000FFFFFFFFFFFFFFFFFFFFFFFFFFFFFFFFC9
:10480000FFFFFFFFFFFFFFFFFFFFFFFFFFBAF22FDA
:1048100000F00F00F54FFFFEEF21F00F00F00F66E4
:10482000FEEFFFFFFFFFFFFFFFFFFFFFFFFFFFFFA9
:10483000FFFFFFFFFFFFFFFFFFFFFFFFFFFFFFFF88
:1048400099F32F00F00F00F54FFFFEEF32F00F004D
:10485000F00F55FDDFFFFFFFFFFFFFFFFFFFFFFF33
:10486000FFFFFFFFFFFFFFFFFFFFFFFFFFFFFFFF58
:10487000FFFFFFFFFFFFFFFFFFFFFFFFFFFFFFFF48
:10488000FFFFFFFFFFFFFFFFFFFFFFFFFFFFFFFF38
:10489000FFFFFFFF55F00F00F00F32FDDFFFF88F35
:1048A00010F00F00F00F88FFFFFFFFFFFFFFFFFF7B
:1048B000FFFFFFFFFFFFFFFFFFFFFFFFFFFFFFFF08
:1048C000FFFFFFFFFFFFFFFFFFFFFFFFFFFFFFFFF8
:1048D000FFFFFFBAF22F00F00F00F54FFFFEEF21B0
:1048E000F00F00F00F66FEEFFFFFFFFFFFFFFFFF7F
:1048F000FFFFFFFFFFFFFFFFFFFFFFFFFFFFFFFFC8
:10490000FFFFFFFFFFFF99F32F00F00F00F54FFFB0
:10491000FEEF32F00F00F00F65FEEFFFFFFFFFFF2D
:10492000FFFFFFFFFFFFFFFFFFFFFFFFFFFFFFFF97
:10493000FFFFFFFFFFFFFFFFFFFFFFFFFFFFFFFF87
:10494000FFFFFFFFFFFFFFFFFFFFFFFFFFFFFFFF77
:10495000FFFFFFFFFFFFFFFFFFFF55F00F00F00F0E
:1049600032FDDFFFF88F10F00F00F00F88FFFFFF20
:10497000FFFFFFFFFFFFFFFFFFFFFFFFFFFFFFFF47
:10498000FFFFFFFFFFFFFFFFFFFFFFFFFFFFFFFF37
:10499000FFFFFFFFFFFFFFFFFFBAF22F00F00F0046
:1049A000F54FFFFEEF21F00F00F00F66FEEFFFFF67
:1049B000FFFFFFFFFFFFFFFFFFFFFFFFFFFFFFFF07
:1049C000FFFFFFFFFFFFFFFFFFFFFFFF99F32F0038
:1049D000F00F00F54FFFFFEF33F00F00F00F32FC48
:1049E000CFFFFFFFFFFFFFFFFFFFFFFFFFFFFFFF07
:1049F000FFFFFFFFFFFFFFFFFFFFFFFFFFFFFFFFC7
:104A0000FFFFFFFFFFFFFFFFFFFFFFFFFFFFFFFFB6
:104A1000FFFFFFFFFFFFFFFFFFFFFFFFFFFFFFFFA6
:104A200055F00F00F00F32FDDFFFF88F10F00F0090
:104A3000F00F88FFFFFFFFFFFFFFFFFFFFFFFFFFFC
:104A4000FFFFFFFFFFFFFFFFFFFFFFFFFFFFFFFF76
:104A5000FFFFFFFFFFFFFFFFFFFFFFFFFFFFFFBAAB
:104A6000F22F00F00F00F54FFFFEEF21F00F00F0E6
:104A70000F66FEEFFFFFFFFFFFFFFFFFFFFFFFFFE0
:104A8000FFFFFFFFFFFFFFFFFFFFFFFFFFFFFFFF36
:104A9000FFFF99F32F00F00F00F44FFFFFFF66F0C8
:104AA0000F00F00F00F66FEEFFFFFFFFFFFFFFFFAD
:104AB000FFFFFFFFFFFFFFFFFFFFFFFFFFFFFFFF06
:104AC000FFFFFFFFFFFFFFFFFFFFFFFFFFFFFFFFF6
:104AD000FFFFFFFFFFFFFFFFFFFFFFFFFFFFFFFFE6
:104AE000FFFFFFFFFFFF55F00F00F00F32FDDFFF6C
:104AF000F88F10F00F00F00F88FFFFFFFFFFFFFFA0
:104B0000FFFFFFFFFFFFFFFFFFFFFFFFFFFFFFFFB5
:104B1000FFFFFFFFFFFFFFFFFFFFFFFFFFFFFFFFA5
:104B2000FFFFFFFFFFBAF22F00F00F00F54FFFFE6F
:104B3000EF21F00F00F00F66FEEFFFFFFFFFFFFF1A
:104B4000FFFFFFFFFFFFFFFFFFFFFFFFFFFFFFFF75
:104B5000FFFFFFFFFFFFFFFFAAF33F00F00F00F38F
:104B60003FEEFFFFBBF10F00F00F00F11F77FCCF0E
:104B7000FFFFFFFFFFFFFFFFFFFFFFFFFFFFFFFF45
:104B8000FFFFFFFFFFFFFFFFFFFFFFFFFFFFFFFF35
:104B9000FFFFFFFFFFFFFFFFFFFFFFFFFFFFFFFF25
:104BA000FFFFFFFFFFFFFFFFFFFFFFFF55F00F00BD
:104BB000F00F32FDDFFFF88F10F00F00F00F88FFCD
:104BC000FFFFFFFFFFFFFFFFFFFFFFFFFFFFFFFFF5
:104BD000FFFFFFFFFFFFFFFFFFFFFFFFFFFFFFFFE5
:104BE000FFFFFFFFFFFFFFFFFFFFFFBAF22F00F005
:104BF0000F00F54FFFFEEF21F00F00F00F66FEEF04
:104C0000FFFFFFFFFFFFFFFFFFFFFFFFFFFFFFFFB4
:104C1000FFFFFFFFFFFFFFFFFFFFFFFFFFFFCCF4E2
:104C20004F00F00F00F21FAAFFFFFFF54F00F00F3B
:104C300000F00F00F44F76F77F77F77F77F77F77F5
:104C4000F77F77F77F77F77F77F77F77F77F77F7CC
:104C50007F77F77F77F77FAAFFFFFFFFFFFFFFFF59
:104C6000FFFFFFFFFFFFFFFFFFFFFFFFFFFFFFFF54
:104C7000FFFF55F00F00F00F32FDDFFFF88F10F04F
:104C80000F00F00F88FFFFFFFFFFFFFFFFFFFFFF99
:104C9000FFFFFFFFFFFFFFFFFFFFFFFFFFFFFFFF24
:104CA000FFFFFFFFFFFFFFFFFFFFFFFFFFFFFFFF14
:104CB000FFBAF22F00F00F00F54FFFFEEF21F00FCB
:104CC00000F00F66FEEFFFFFFFFFFFFFFFFFFFFF9C
:104CD000FFFFFFFFFFFFFFFFFFFFFFFFFFFFFFFFE4
:104CE000FFFFFFFFFFF66F00F00F00F00F55FFFF13
:104CF000FFFCCF32F00F00F00F00F00F00F00F00BC
:104D0000F00F00F00F00F00F00F00F00F00F00F0B8
:104D10000F00F00F00F00F00F00F00F00F54FFFF36
:104D2000FFFFFFFFFFFFFFFFFFFFFFFFFFFFFFFF93
:104D3000FFFFFFFFFFFFFFFF55F00F00F00F32FDF9
:104D4000DFFFF88F10F00F00F00F88FFFFFFFFFF6D
:104D5000FFFFFFFFFFFFFFFFFFFFFFFFFFFFFFFF63
:104D6000FFFFFFFFFFFFFFFFFFFFFFFFFFFFFFFF53
:104D7000FFFFFFFFFFFFFFBAF22F00F00F00F54F1C
:104D8000FFFEEF21F00F00F00F66FEEFFFFFFFFFC9
:104D9000FFFFFFFFFFFFFFFFFFFFFFFFFFFFFFFF23
:104DA000FFFFFFFFFFFFFFFFFFFFFFFBBF22F00F33
:104DB00000F00F11FBBFFFFFFFAAF32F00F00F0061
:104DC000F00F00F00F00F00F00F00F00F00F00F0F8
:104DD0000F00F00F00F00F00F00F00F00F00F00FC9
:104DE00000F00F55FFFFFFFFFFFFFFFFFFFFFFFF7B
:104DF000FFFFFFFFFFFFFFFFFFFFFFFFFFFF55F07C
:104E00000F00F00F32FDDFFFF88F10F00F00F00FF2
:104E100088FFFFFFFFFFFFFFFFFFFFFFFFFFFFFF19
:104E2000FFFFFFFFFFFFFFFFFFFFFFFFFFFFFFFF92
:104E3000FFFFFFFFFFFFFFFFFFFFFFFFFFBAF22FA4
:104E400000F00F00F54FFFFEEF21F00F00F00F66AE
:104E5000FEEFFFFFFFFFFFFFFFFFFFFFFFFFFFFF73
:104E6000FFFFFFFFFFFFFFFFFFFFFFFFFFFFFFFF52
:104E7000FFFEEF55F00F00F00F00F33FDDFFFFFFE7
:104E8000FBBF43F11F00F00F00F00F00F00F00F028
:104E90000F00F00F00F00F00F00F00F00F00F00F08
:104EA00000F00F00F00F00F00F65FFFFFFFFFFFFA6
:104EB000FFFFFFFFFFFFFFFFFFFFFFFFFFFFFFFF02
:104EC000FFFFFFFF55F00F00F00F32FDDFFFF88FFF
:104ED00010F00F00F00F88FFFFFFFFFFFFFFFFFF45
:104EE000FFFFFFFFFFFFFFFFFFFFFFFFFFFFFFFFD2
:104EF000FFFFFFFFFFFFFFFFFFFFFFFFFFFFFFFFC2
:104F0000FFFFFFBAF22F00F00F00F54FFFFEEF2179
:104F1000F00F00F00F66FEEFFFFFFFFFFFFFFFFF48
:104F2000FFFFFFFFFFFFFFFFFFFFFFFFFFFFFFFF91
:104F3000FFFFFFFFFFFFFFFFFFAAF11F00F00F00C1
:104F4000F00F44FDDFFFFFFFEEF99F44F11F10F16A
:104F50000F10F10F10F10F10F10F10F10F10F10FF2
:104F600010F10F10F10F10F10F10F10F10F10F668B
:104F7000FFFFFFFFFFFFFFFFFFFFFFFFFFFFFFFF41
:104F8000FFFFFFFFFFFFFFFFFFFF55F00F00F00FD8
:104F900032FDDFFFF88F10F00F00F00F88FFFFFFEA
:104FA000FFFFFFFFFFFFFFFFFFFFFFFFFFFFFFFF11
:104FB000FFFFFFFFFFFFFFFFFFFFFFFFFFFFFFFF01
:104FC000FFFFFFFFFFFFFFFFFFBAF22F00F00F0010
:104FD000F54FFFFEEF21F00F00F00F66FEEFFFFF31
:104FE000FFFFFFFFFFFFFFFFFFFFFFFFFFFFFFFFD1
:104FF000FFFFFFFFFFFFFFFFFFFFFFFFFFFFFFFFC1
:10500000F66F00F00F00F00F00F33FBBFFFFFFFF54
:10501000FFFFFDDFCBFCBFCBFCBFCBFCBFCBFCBF9E
:10502000CBFCBFCBFCBFCBFCBFCBFCBFCBFCBFCB17
:10503000FCBFCBFCBFDDFFFFFFFFFFFFFFFFFFFF5C
:10504000FFFFFFFFFFFFFFFFFFFFFFFFFFFFFFFF70
:1050500055F00F00F00F32FDDFFFF88F10F00F005A
:10506000F00F88FFFFFFFFFFFFFFFFFFFFFFFFFFC6
:10507000FFFFFFFFFFFFFFFFFFFFFFFFFFFFFFFF40
:10508000FFFFFFFFFFFFFFFFFFFFFFFFFFFFFFBA75
:10509000F22F00F00F00F55FFFFEEF21F00F00F0A0
:1050A0000F66FEEFFFFFFFFFFFFFFFFFFFFFFFFFAA
:1050B000FFFFFFFFFFFFFFFFFFFFFFFFFFFFFFFF00
:1050C000FFFFFFFFFFFFFCCF44F00F00F00F00F0E9
:1050D0000F11F66FBBFFFFFFFFFFFFFFFFFFFFFF9B
:1050E000FFFFFFFFFFFFFFFFFFFFFFFFFFFFFFFFD0
:1050F000FFFFFFFFFFFFFFFFFFFFFFFFFFFFFFFFC0
:10510000FFFFFFFFFFFFFFFFFFFFFFFFFFFFFFFFAF
:10511000FFFFFFFFFFFF55F00F00F00F32FDDFFF35
:10512000F88F10F00F00F00F88FFFFFFFFFFFFFF69
:10513000FFFFFFFFFFFFFFFFFFFFFFFFFFFFFFFF7F
:10514000FFFFFFFFFFFFFFFFFFFFFFFFFFFFFFFF6F
:10515000FFFFFFFFFFBAF22F00F00F00F55FFFFE29
:10516000EF21F00F00F00F66FEEFFFFFFFFFFFFFE4
:10517000FFFFFFFFFFFFFFFFFFFFFFFFFFFFFFFF3F
:10518000FFFFFFFFFFFFFFFFFFFFFFFFFFFFCCF36E
:105190003F00F00F00F00F00F10F21F33F55F76FC4
:1051A00077F76F76F76F76F76F76F76F76F76F763C
:1051B000F76F76F76F76F76F76F76F76F76F76F7AC
:1051C0007FAAFFFFFFFFFFFFFFFFFFFFFFFFFFFFC4
:1051D000FFFFFFFFFFFFFFFFFFFFFFFF55F00F0087
:1051E000F00F32FDDFFFF88F10F00F00F00F88FF97
:1051F000FFFFFFFFFFFFFFFFFFFFFFFFFFFFFFFFBF
:10520000FFFFFFFFFFFFFFFFFFFFFFFFFFFFFFFFAE
:10521000FFFFFFFFFFFFFFFFFFFFFFBAF22F00F0CE
:105220000F00F55FFFFEEF21F00F00F00F66FEEFBD
:10523000FFFFFFFFFFFFFFFFFFFFFFFFFFFFFFFF7E
:10524000FFFFFFFFFFFFFFFFFFFFFFFFFFFFFFFF6E
:10525000FFFFFFFFFFFCCF44F00F00F00F00F00F47
:1052600000F00F00F10F10F10F10F10F10F10F10FF
:10527000F10F10F10F10F10F10F10F10F10F10F1ED
:105280000F10F10F10F10F65FFFFFFFFFFFFFFFF92
:10529000FFFFFFFFFFFFFFFFFFFFFFFFFFFFFFFF1E
:1052A000FFFF55F00F00F00F32FDDFFFF88F10F019
:1052B0000F00F00F88FFFFFFFFFFFFFFFFFFFFFF63
:1052C000FFFFFFFFFFFFFFFFFFFFFFFFFFFFFFFFEE
:1052D000FFFFFFFFFFFFFFFFFFFFFFFFFFFFFFFFDE
:1052E000FFBAF22F00F00F00F55FFFFEEF21F00F85
:1052F00000F00F66FEEFFFFFFFFFFFFFFFFFFFFF66
:10530000FFFFFFFFFFFFFFFFFFFFFFFFFFFFFFFFAD
:10531000FFFFFFFFFFFFFFFFFFFFFFFFFFDDF77F47
:1053200021F00F00F00F00F00F00F00F00F00F0061
:10533000F00F00F00F00F00F00F00F00F00F00F082
:105340000F00F00F00F00F00F00F00F00F55FFFFFF
:10535000FFFFFFFFFFFFFFFFFFFFFFFFFFFFFFFF5D
:10536000FFFFFFFFFFFFFFFF65F00F00F00F32FDB3
:10537000DFFFF88F10F00F00F00F88FFFFFFFFFF37
:10538000FFFFFFFFFFFFFFFFFFFFFFFFFFFFFFFF2D
:10539000FFFFFFFFFFFFFFFFFFFFFFFFFFFFFFFF1D
:1053A000FFFFFFFFFFFFFFBAF22F00F00F00F55FD6
:1053B000FFFEEF21F00F00F00F66FEEFFFFFFFFF93
:1053C000FFFFFFFFFFFFFFFFFFFFFFFFFFFFFFFFED
:1053D000FFFFFFFFFFFFFFFFFFFFFFFFFFFFFFFFDD
:1053E000FFFFFFFFFFFFBBF66F33F00F00F00F0072
:1053F000F00F00F00F00F00F00F00F00F00F00F0C2
:105400000F00F00F00F00F00F00F00F00F00F00F92
:1054100000F00F54FFFFFFFFFFFFFFFFFFFFFFFF45
:10542000FFFFFFFFFFFFFFFFFFFFFFFFFFFF54F046
:105430000F00F00F22FDDFFFF77F00F00F00F00FED
:1054400077FFFFFFFFFFFFFFFFFFFFFFFFFFFFFFF4
:10545000FFFFFFFFFFFFFFFFFFFFFFFFFFFFFFFF5C
:10546000FFFFFFFFFFFFFFFFFFFFFFFFFFAAF21F8E
:1054700000F00F00F44FFFFEEF00F00F00F00F659B
:10548000FEEFFFFFFFFFFFFFFFFFFFFFFFFFFFFF3D
:10549000FFFFFFFFFFFFFFFFFFFFFFFFFFFFFFFF1C
:1054A000FFFFFFFFFFFFFFFFFFFFFFFFFFFEFFBB51
:1054B000F88F66F44F33F33F33F33F33F33F33F367
:1054C0003F33F33F33F33F33F33F33F33F33F33FA4
:1054D00033F33F33F33F33F33F77FFFFFFFFFFFF2C
:1054E000FFFFFFFFFFFFFFFFFFFFFFFFFFFFFFFFCC
:1054F000FFFFFFFF76F22F22F22F44FEEFFFF99F0E
:1055000033F22F22F22F98FFFFFFFFFFFFFFFFFF75
:10551000FFFFFFFFFFFFFFFFFFFFFFFFFFFFFFFF9B
:10552000FFFFFFFFFFFFFFFFFFFFFFFFFFFFFFFF8B
:10553000FFFFFFBBF44F22F32F32F66FFFFEEF3376
:10554000F32F32F22F88FEEFFFFFFFFFFFFFFFFF79
:10555000FFFFFFFFFFFFFFFFFFFFFFFFFFFFFFFF5B
:10556000FFFFFFFFFFFFFFFFFFFFFFFFFFFFFFFF4B
:10557000FFFFFFFFFFFFFFFFFFFDDFCCFBBFBBFB1C
:10558000BFCBFCBFCBFCBFCBFCBFCBFCBFCBFCBFBE
:10559000CBFCBFCBFCBFCBFCBFBBFBBFBBFCBFDDB1
:1055A000FFFFFFFFFFFFFFFFFFFFFFFFFFFFFFFF0B
:1055B000FFFFFFFFFFFFFFFFFFFFCCFAAFAAFAAF2D
:1055C000BBFFFFFFFDDFBAFAAFAAFAAFDDFFFFFFB7
:1055D000FFFFFFFFFFFFFFFFFFFFFFFFFFFFFFFFDB
:1055E000FFFFFFFFFFFFFFFFFFFFFFFFFFFFFFFFCB
:1055F000FFFFFFFFFFFFFFFFFFEEFCCFBAFBBFBBCC
:10560000FCCFFFFFFFCBFBBFBBFAAFDDFFFFFFFF10
:10561000FFFFFFFFFFFFFFFFFFFFFFFFFFFFFFFF9A
:10562000FFFFFFFFFFFFFFFFFFFFFFFFFFFFFFFF8A
:10563000FFFFFFFFFFFFFFFFFFFFFFFFFFFFFFFF7A
:10564000FFFFFFFFFFFFFFFFFFFFFFFFFFFFFFFF6A
:1058C000FFFFFFFFFFFFFEEF99F77FDDFFFFBBF755
:1058D0007FBBFFFFFFFFFFFFFFFFFFFFFFFFFFFF9C
:1058E000FFFFFFFFFFFFFFFFFFFFFFFFFFFFFFFFC8
:1058F000FFFFFFFFFFFFFFFFFFFFFFFFFFFFFFFFB8
:10590000FFFFFFFFFFFFFFFFFFFFFFFFFFFFFFFFA7
:10591000FFFFFFFFFFFFFFFFFFFFFFFFFFFFFFFF97
:10592000FFFFFFFFFFFFFFFFFFFFFFFFFFFFFFFF87
:10593000FFFFFFFFFFFFFFFFFFFFFFFFFFFFFFFF77
:10594000FFFFFFFFFFFFFFFFFFFFFFFFFFFFFFFF67
:10595000FFFFFFFFFFFFFFFFFFFFFFFFFFFFFFFF57
:10596000FFFFFFFFFFFFFFFFFFFFFFFFFFFFFFFF47
:10597000FFFFFFFFFFFFFFFFFFFFFFFFFFFFFFFF37
:10598000FFFFFFFFFFFFFFFFFFFFFFFFFDDF44F112
:105990001FBBFFFF88F00F88FFFFFFFFFFFFFFFF28
:1059A000FFFFFFFFFFFFFFFFFFFFFFFFFFFFFFFF07
:1059B000FFFFFFFFFFFFFFFFFFFFFFFFFFFFFFFFF7
:1059C000FFFFFFFFFFFFFFFFFFFFFFFFFFFFFFFFE7
:1059D000FFFFFFFFFFFFFFFFFFFFFFFFFFFFFFFFD7
:1059E000FFFFFFFFFFFFFFFFFFFFFFFFFFFFFFFFC7
:1059F000FFFFFFFFFFFFFFFFFFFFFFFFFFFFFFFFB7
:105A0000FFFFFFFFFFFFFFFFFFFFFFFFFFFFFFFFA6
:105A1000FFFFFFFFFFFFFFFFFFFFFFFFFFFFFFFF96
:105A2000FFFFFFFFFFFFFFFFFFFFFFFFFFFFFFFF86
:105A3000FFFFFFFFFFFFFFFFFFFFFFFFFFFFFFFF76
:105A4000FFFFFFFFFFFFFFFFFFFFFFEEFFFFFFFF77
:105A5000FFFFFEEF44F00FCCFFFF88F00F88FFFF41
:105A6000FFFFFFFFFFFFEEFFFFFFFFFFFFFFFFFF57
:105A7000FFFFFFFFFFFFFFFFFFFFFFFFFFFFFFFF36
:105A8000FFFFFEEFFFFFFFFFFFFFFFFFFFFFFFFF37
:105A9000FFFFFFFFFFFFFFFFFFFFFFFFEEFFFFFF27
:105AA000FFFFFFFFFFFFFFFFFFFEEFFFFFFFFFFF17
:105AB000FFFFFFFFFFFFFFFFFFFFFFFFFFFFFFFFF6
:105AC000FFFFFFFFFFFFFFFFFFFFFFFFFFFFFFFFE6
:105AD000F99F55F99FFFFFFFAAF66FEEFFFFDDF577
:105AE0005F99F77F66FCCFFFFDDF66FAAFFFFFFF30
:105AF00077F77F88F55F99FFFFFFF99F66FFFFFF4C
:105B0000FBBF55F99FFFFFFFFFFFFFFFFFFF88F37C
:105B10003F22F33F99FFFFFFF77F11F00F33F55F4F
:105B200022F00F11F99FFFFDDF66F22F22F44FAA3A
:105B3000FFFFFFFFFFDDF66F33F33F66F77F55FD95
:105B4000DFFFF77F66F77F44F33F77FCCF88F33FB3
:105B500033F77FEEFFFFFFFFFFFFFFFFFFFEEF7753
:105B6000F33F22F33F77FDDFFFFFFFEEF77F33F2D6
:105B70002F44FAAFFFFFFFCCF66F66F77F33F33F9A
:105B800088FCCF66F22F33F99FDDFFFFFFFFFFFF99
:105B9000FFFFFFFFFFFFFBBF11F22FDDFEEF55F010
:105BA0000FAAFFFF77F00F99F66F00F88FFFFAAF9B
:105BB00000F33FFFFDDF00F55F99F22F33FFFFEEAB
:105BC000F22F00FCCFFFF55F00F99FFFFFFFFFFF03
:105BD000FFFFF77F11F44F66F33F11F99FEEF88F47
:105BE00000F00F22F55F11F00F00FAAFDDF55F1145
:105BF000F55F55F22F22FBBFFFFEEF66F00F11F3AA
:105C00003F11F00F00FBBFFFF22F00F11F33F11F18
:105C100000F33F22F33F00F00F99FFFFFFFFFFFF6C
:105C2000FFFFEEF55F00F11F33F11F00F77FFFFE6E
:105C3000EF66F00F11F33F00F11FAAFFFFAAF00F6C
:105C400000F22F22F00F11F33F33F22F00F22F77E3
:105C5000FFFFFFFFFFFFFFFFFFFFFFFFFFFF55F00D
:105C60000FAAFDDF11F00F55FFFF22F11FDDFCCF62
:105C700011F55FEEF77F00F00FEEF99F00F99FFF3F
:105C8000F55F11FBBFCCF00F00F77FEEF22F33FC76
:105C9000CFFFFFFFFFFFFFBBF00F22FAAFCCF99F52
:105CA00011F11FBBFDDF33F00FAAFDDF77F00F66A8
:105CB000FFFF88F00F44FBBFBBF77F00F44FEEF906
:105CC0009F00F33FBBFCCF99F11F00FBBFFFF33FE9
:105CD00000F66FCCF88F00F00F88FCCF66F00F5500
:105CE000FEEFFFFFFFFFFFFF99F00F33FBBFDDFB70
:105CF000BF77FBBFFFFAAF00F22FBBFDDF99F00FBC
:105D000022FEEFBBF00F11F99FCCF55F00F11FAA47
:105D1000FCCF44F00F33FFFFFFFFFFFFFFFFFFFF4C
:105D2000FFFFFFFFAAF11F44F77F00F11F11F99F4A
:105D300000F66FEEFFFF44F22F77F33F11F00F777D
:105D4000F33F11FCCFFFF99F11F55F77F00F11F3CF
:105D50003F77F00F77FFFFFFFFFFFFFFFF88F00F98
:105D600022F44F55F55F11F00F99FFFF55F00FCC5E
:105D7000FFFF99F00F99FFFF55F00F33F55F44F4E3
:105D80004F00F00FDDF66F00F99FFFFFFFFFF66F8A
:105D900000FBBFFFF22F00FCCFFFFCCF11F22FFF63
:105DA000FFFFBBF00F55FDDFFFFFFFFFFEEF44F0ED
:105DB0000FBBFFFFFFFFFFFFFFFFFFF66F00F88F36
:105DC000FFFFFFFFF44F00FBBFBBF00F44FFFFFFDF
:105DD000F99F00F66FFFFFFF77F00F22FFFFFFFF35
:105DE000FFFFFFFFFFFFFFFFFFFFEEF44F00F11F7C
:105DF00033F88F00F11F00FBBFFFFFFF88F00F009B
:105E0000F11F77F33F11F00F55FEEFFFFCCF33F09A
:105E10000F22F33F77F00F11F00FBBFFFFFFFFFFE3
:105E2000FFFEEF77F00F22F44F44F44F55F66FBBAF
:105E3000FEEF44F00FBBFFFF88F00F88FEEF55F038
:105E40000F33F44F44F55F66F66FEEF55F00F99F90
:105E5000FFFFFFFFF66F00FBBFFFF22F22FCCFFF1B
:105E6000FCCF11F22FFFFFFFBBF00F55FDDFFFFF4F
:105E7000FFFFFDDF44F00FCCFFFFFFFFFFFFFFFF41
:105E8000EEF66F00F99FFFFFFFFFF44F00FBBFBB73
:105E9000F00F44FFFFFFF99F00F77FEEFFFF66F072
:105EA0000F33FFFFFFFFFFFFFFFFFFFFFFFFFFFFBE
:105EB000FFF88F00F00F88FEEF11F00F22FEEFFFCA
:105EC000FFFFCCF33F00F33FEEF77F00F00FAAFF98
:105ED000FFFFFFFF77F00F11FAAFDDF00F00F44F77
:105EE000DDFFFFFFFDDFDDFFFFBBF00F66FEEFFF15
:105EF000FEEFDDFEEFFFFDDF44F00FBBFFFF88F09C
:105F00000F88FFFF77F00F88FFFFFFFEEFDDFFFF39
:105F1000FFF88F00F44FDDFEEFBBF22F00FBBFFF59
:105F2000F22F11FCCFFFFCCF11F22FFFFFFFBBF0D0
:105F30000F55FEEFEEFDDFEEFEEF88F00F55FDDFB3
:105F4000EEFDDFBBFDDFFFF99F00F44FDDFEEFBB91
:105F5000F11F22FDDFBBF00F44FFFFFFF99F00F6AA
:105F60006FEEFFFF66F00F22FFFFFFFFFFFFFFFF57
:105F7000FFFFFFFFFFFFFFFBBF11F22FCCFFFF551D
:105F8000F00F77FEEFFFFFFFFFF66F00F66FFFFBEE
:105F9000BF00F11FDDFFFFFFFFFFAAF00F22FEEFA2
:105FA000FFF33F00F88FFFFFFFCCF33F44FFFFFFFD
:105FB000F55F00F44F66F33F00F88FFFFDDF44F01C
:105FC0000FBBFFFF88F00F88FFFFCCF33F00F55FAA
:105FD00066F22F11FBBFFFFDDF44F00F22F44F11DB
:105FE000F00F00FBBFFFF22F11FBBFFFFCCF11F240
:105FF0002FFFFFFFBBF00F55FFFFAAF11F66FFFF4A
:10600000DDF33F00F22F55F22F00F77FFFFEEF5533
:10601000F00F22F44F00F00F99FFFFAAF00F44FF9A
:10602000FFFFF99F00F77FEEFFFF66F00F22FFFFF3
:10603000FFFFFFFFFFFFFFFFFFFFFFFFFFFEEF661A
:10604000F55FFFFFFFAAF33FBBFFFFFFFFFFFFFA74
:10605000AF44FAAFFFFFFF44F77FEEFFFFFFFFFF04
:10606000DDF55F66FFFFFFF99F33FCCFFFFFFFCC3D
:10607000F33F44FEEFFFFEEF66F11F00F11F66FDE8
:10608000DFFFFEEF77F33FCCFFFF99F33F99FFFF70
:10609000FFFCCF44F00F00F22F77FEEFFFFFFFCCA5
:1060A000F55F00F11F55F66F33FCCFFFF55F44FC41
:1060B000CFFFFCCF44F44FFFFFFFCCF33F77FFFF50
:1060C000AAF11F66FFFFFFFDDF55F11F00F11F550D
:1060D000FCCFFFFFFFDDF66F11F00F22F99FEEFFFF
:1060E000FFBBF33F66FFFFFFFAAF33F88FFFFFFF01
:1060F00088F33F55FFFFFFFFFFFFFFFFFFFFFFFF9D
:10610000FFFFFFFFFFFFFFFFFFFFFFFFFFFFFFFF9F
:10611000FFFFFFFFFFFFFFFFFFFFFFFFFFFFFFFF8F
:10612000FFFFFFFFFFFFFFFFFFFFFFFFFFFFFFFF7F
:10613000FFFFFFFFFFFFFFFFFFFFFFFFFFFFFFFF6F
:1072C000FFFFFFFF11241FBECFEFD0E1DEBFCDBF18
:1072D00011E0A0E0B1E0E0ECFEE700E00BBF02C08F
:1072E00007900D92A83AB107D9F711E0A8EAB1E0EA
:1072F00001C01D92A83AB107E1F70E94283E0C9404
:107300005E3F0C940000DF93CF9300D0CDB7DEB783
:107310009A838983C19AC298C198C398C29AC29825
:1073200020E0C29889819A8187FF02C0C39A01C078
:10733000C398C29A89819A81880F991F9A838983F9
:107340002F5F283071F7C298C19A0F900F90CF919C
:10735000DF910895DF93CF9300D0CDB7DEB79A8346
:107360008983C19AC298C198C39AC29AC29820E0F0
:10737000C29889819A8187FF02C0C39A01C0C398CD
:10738000C29A89819A81880F991F9A8389832F5F76
:10739000283071F7C298C19A0F900F90CF91DF916A
:1073A0000895813011F4C09A0895C0980895C49842
:1073B00088EE93E020E931E0F9013197F1F7019788
:1073C000D9F7C49A88EE93E020E931E0F9013197CA
:1073D000F1F70197D9F781E190E00E94833981E2CA
:1073E00090E00E9483398AE390E00E94833983E031
:1073F00090E00E94AA3986E390E00E94833988ECED
:1074000090E00E94AA3985E290E00E94833980E3EF
:1074100090E00E94AA3980E197E220E931E0F90189
:107420003197F1F70197D9F789E290E00E9483390B
:107430000895CF93DF9386E390E00E94833988E438
:1074400090E00E94AA3988E290E00E9483398AE2A3
:1074500090E00E94833980E090E00E94AA3983E89E
:1074600090E00E94AA398BE290E00E94833980E08C
:1074700090E00E94AA3983E890E00E94AA398CE249
:1074800090E00E948339CCEADCE0FE01849190E038
:107490000E94AA392196F2E7C43CDF07B1F786E3E0
:1074A00090E00E94833988EC90E00E94AA3989E23A
:1074B00090E00E948339DF91CF910895CF93DF93BD
:1074C0008BE290E00E94833980E090E00E94AA392C
:1074D00083E890E00E94AA398AE290E00E94833912
:1074E00080E090E00E94AA3983E890E00E94AA39E7
:1074F0008CE290E00E948339C0E0D0E080E090E030
:107500000E94AA3980E090E00E94AA3980E090E0D1
:107510000E94AA39219682E2C830D80779F7DF9114
:10752000CF910895EF92FF920F931F93182F092F79
:10753000F62EE72E8BE290E00E948339812F902F68
:107540000E94AA39812F902F0E94AA398AE290E0E6
:107550000E9483398F2D9E2D0E94AA398F2D9E2D3A
:107560000E94AA391F910F91FF90EF9008950F93F9
:107570001F938A010E94923A8CE290E00E94833924
:10758000C80154E0959587955A95E1F790E00E94DF
:10759000AA39802F8295807F90E00E94AA3980E0EE
:1075A00090E00E9483391F910F9108952F923F928E
:1075B0004F925F926F927F928F929F92AF92BF9203
:1075C000CF92DF92EF92FF920F931F93DF93CF93AF
:1075D00000D000D0CDB7DEB76C017B015A83498360
:1075E00019012801261B370BCA018C199D0937FD8B
:1075F00004C0B1E06B2E712C06C0309521953F4F31
:1076000066246A94762C97FD04C0A1E08A2E912C02
:1076100006C0909581959F4F88248A94982C590193
:10762000AA0CBB1C8C01000F111FA201B701C601DF
:107630000E94B73AA016B106E4F4C8019595879563
:107640001501281A390A0FC037FC04C0E60CF71CD4
:10765000201A310AC80CD91C2A0C3B1CA201B70104
:10766000C6010E94B73A29813A81C216D30661F752
:1076700023C0C50195958795F801E81BF90BFC839C
:10768000EB8317C02B813C8137FD06C0C80CD91C89
:107690002A193B093C832B83E60CF71C8B819C81C8
:1076A000800F911F9C838B83A201B701C6010E94AA
:1076B000B73AE214F30431F70F900F900F900F9048
:1076C000CF91DF911F910F91FF90EF90DF90CF90BE
:1076D000BF90AF909F908F907F906F905F904F90F2
:1076E0003F902F9008954F925F926F927F928F926A
:1076F0009F92AF92BF92CF92DF92EF92FF920F9341
:107700001F93CF93DF936C015B01742E652E522E75
:10771000432E4701013009F07AC0842F952F9C0138
:107720007901C216D3060CF47601872D962D9C01A3
:10773000E9012C153D050CF4E601852D942D9C01E5
:107740006901A216B3060CF46501852D942D9C01E8
:1077500089012A153B050CF485018BE290E00E941B
:107760008339C7010E94AA39CE010E94AA398AE250
:1077700090E00E948339C6010E94AA39C8010E9484
:10778000AA398CE290E00E9483390F5F1F4F0C19D9
:107790001D092196CE19DF090C9FC0010D9F900D88
:1077A0001C9F900D112462E070E00E94373F7B0126
:1077B000640144E0D594C7944A95E1F78FEFC8225D
:1077C000DD24C92DDD27C7FDDA95CF70D070C40147
:1077D00024E0880F991F2A95E1F79070C82BD92BC8
:1077E00000E010E08FEFA82EB12CA820B9200BC02C
:1077F000C6010E94AA39CE010E94AA39C5010E9481
:10780000AA390F5F1F4FE016F10694F71DC08701DC
:107810009B010E94D63A252D342D472D562D652DDE
:10782000742DC6010E94D63A252D342DA601B5012E
:10783000C6010E94D63A252D342D472D562DB5016F
:10784000872D962D0E94D63ADF91CF911F910F91EF
:10785000FF90EF90DF90CF90BF90AF909F908F9070
:107860007F906F905F904F9008952F923F924F922C
:107870005F926F927F928F929F92AF92BF92CF92C0
:10788000DF92EF92FF920F931F93DF93CF9300D07D
:1078900000D000D0CDB7DEB72C013B018A013E837A
:1078A0002D8361E0262E312C241A350ACA01880F57
:1078B000991F22273327281B390B3C832B83B801C0
:1078C000660D771D4D815E81C2010E94B73AB301FA
:1078D000601B710B4D815E81C2010E94B73A4D81E0
:1078E0005E81B301C801840D951D0E94B73A4D8198
:1078F0005E81B301C201801B910B0E94B73A48011F
:10790000AA24BB2483E090E05EC037FC0AC0089440
:1079100081089108EB81FC813296FC83EB832E0E6B
:107920003F1E0894A11CB11C29813A81220E331EEE
:107930008401060D171D6501C40CD51C4D815E81A7
:10794000B801C6010E94B73A7201EA18FB084D81DE
:107950005E81B801C7010E94B73A8301081919096D
:107960004D815E81B801C6010E94B73A4D815E81AA
:10797000B801C7010E94B73A8501060D171D6401C1
:10798000C40CD51C4D815E81B801C6010E94B73A76
:107990007201E818F9084D815E81B801C7010E94A3
:1079A000B73A83010A191B094D815E81B801C601EE
:1079B0000E94B73A4D815E81B801C7010E94B73A73
:1079C00089819A8102969A838983A814B9040CF458
:1079D0009CCF26960FB6F894DEBF0FBECDBFCF91D9
:1079E000DF911F910F91FF90EF90DF90CF90BF90AC
:1079F000AF909F908F907F906F905F904F903F904F
:107A00002F9008952F923F924F925F926F927F92A4
:107A10008F929F92AF92BF92CF92DF92EF92FF929E
:107A20000F931F93DF93CF93CDB7DEB72A970FB68F
:107A3000F894DEBF0FBECDBF982FD62EC72EB42E22
:107A4000A52EF9010F831887E986FA869E012F5F1C
:107A50003F4F4DE151E086E0DA010D90AD01D901D3
:107A60000D929D018150C1F7EE0FFF1FEC0FFD1F1E
:107A70000180F281E02D8491282E33243196E49008
:107A8000FF2431962491BEEF6B2EBFEF7B2E6E0E3E
:107A90007F1E30E0892F90E04E97AC01249FC001FB
:107AA000259F900D349F900D11240197680E791E2B
:107AB0008BE290E00E9483390D2D1C2DC8010E949D
:107AC000AA3901501040C8018E0D9F1D0E94AA398D
:107AD0008AE290E00E9483390B2D1A2DC8010E9482
:107AE000AA3901501040C801820D931D0E94AA3985
:107AF0008CE290E00E9483392701089441085108E4
:107B0000CC24DD2444C0F301EC19FD098490AA249F
:107B1000BB24A0E89A2E35C0892D882119F48985C7
:107B20009A8502C08F8198858C01492D4695842FB6
:107B3000882119F489859A8502C08F8198857C01F6
:107B4000942E9694C801F4E096958795FA95E1F7FE
:107B500090700E94AA398F2D99278F70907074E0D1
:107B6000000F111F7A95E1F71070802B912B0E9466
:107B7000AA39C70190700E94AA3982E090E0A80E4D
:107B8000B91EA214B30440F20894C11CD11CC20156
:107B90008C199D0997FFB7CF80E090E00E94833950
:107BA0002A960FB6F894DEBF0FBECDBFCF91DF91FE
:107BB0001F910F91FF90EF90DF90CF90BF90AF900B
:107BC0009F908F907F906F905F904F903F902F90FD
:107BD00008954F925F926F927F928F929F92AF9291
:107BE000BF92CF92DF92EF92FF920F931F93CF93AA
:107BF000DF936C012B01EA0159013801470113C0E1
:107C0000740183019501AE01B2010E94023DA114ED
:107C1000B10411F4269601C02896C438D1053CF46D
:107C20000894C11CD11CF6018081882349F7DF919B
:107C3000CF911F910F91FF90EF90DF90CF90BF9069
:107C4000AF909F908F907F906F905F904F9008952E
:107C50006F927F928F929F92AF92BF92CF92DF925C
:107C6000EF92FF920F931F93DF93CF93CDB7DEB7C1
:107C7000AC970FB6F894DEBF0FBECDBFDE011196F4
:107C8000E1E9F1E086E101900D928150E1F7DE013A
:107C90005796EBE7F1E086E101900D928150E1F714
:107CA00087B38F6187BBC298C19AC39AC09A0E945A
:107CB000D7393E010894611C711C97E1892E912CE3
:107CC0008C0E9D1E80E9A82E81E0B82E0E945E3A9F
:107CD000CC24DD24F301EC0DFD1DE080F18001E0FA
:107CE00028E730E049E150E06AE070E088E790E0A2
:107CF0000E94733BF401EC0DFD1DEE24FF2400EF08
:107D00001FE022E030E048E250E065E070E0808172
:107D100091810E94E93D80E197E2F5013197F1F709
:107D20000197D9F782E090E0C80ED91E96E1C916F6
:107D3000D10481F60E945E3AEE24FF240FEF1FE08B
:107D400020E030E045E050E06CE370E080E091E05E
:107D50000E94E93D00EA1FE021E030E045E050E00C
:107D600068E270E080E091E00E94E93D0AE61FE0F1
:107D700022E030E045E050E064E170E080E091E036
:107D80000E94E93D00EF1FE022E330E048E750E0C9
:107D90006AE070E088E790E00E94D63A22E330E0A3
:107DA00040E550E062E370E088E790E00E94D63A58
:107DB0002AE030E040E550E062E370E080E590E0EA
:107DC0000E94D63A2AE030E048E750E06AE070E0EE
:107DD00080E590E00E94D63A29E630E040E550E0A8
:107DE00065E570E088E790E00E94D63A29E630E049
:107DF00048E750E065E570E080E590E00E94D63A03
:107E000020E03FE04AE050E064E670E081E490E08A
:107E10000E94353C0FEF1FE020E030E042E650E0EA
:107E20006CE370E085E40E94023D88EA91E6F5018A
:107E30003197F1F70197D9F70E945E3A0E94193AFB
:107E40000FEFE02EF12C00E010E022E030E042E005
:107E500050E063E770E08CE091E00E94E93D88EA41
:107E600091E6F5013197F1F70197D9F72FCF97FBFD
:107E7000092E07260AD077FD04D00CD006D00020AA
:107E80001AF4709561957F4F0895F6F79095819556
:107E90009F4F0895AA1BBB1B51E107C0AA1FBB1F20
:107EA000A617B70710F0A61BB70B881F991F5A9586
:107EB000A9F780959095BC01CD010895F894FFCF66
:107EC00048656C6C6F20576F726C640054686973FE
